:020000040800F2
:1000000000000820A9490108954201089942010809
:100010009D420108A1420108A5420108000000001C
:10002000000000000000000000000000A9420108DC
:10003000AD42010800000000B1420108B5420108CC
:10004000F9490108F9490108F9490108F949010884
:10005000F9490108F9490108F9490108F949010874
:10006000F9490108F9490108F9490108F949010864
:10007000F9490108F9490108F9490108F949010854
:10008000F9490108F9490108F9490108F949010844
:10009000F9490108F9490108F9490108F949010834
:1000A000F9490108F9490108F9490108F949010824
:1000B000F9490108F9490108F9490108F949010814
:1000C000F9490108F9490108F9490108F949010804
:1000D000F9490108B9420108F9490108F94901083B
:1000E000E9420108F9490108F9490108F9490108FB
:1000F000F9490108F9490108F9490108F9490108D4
:10010000F9490108F9490108F9490108F9490108C3
:10011000F9490108F9490108014301080D430108A3
:10012000F9490108F949010819430108F949010889
:10013000F9490108F9490108F9490108F949010893
:10014000F9490108F9490108F9490108F949010883
:10015000F9490108F9490108F9490108F949010873
:10016000F9490108F9490108F9490108F949010863
:10017000F9490108F9490108F9490108000000009E
:10018000F9490108F9490108F9490108F949010843
:10019000F9490108F9490108F9490108F949010833
:1001A0000000000000000000F9490108F9490108B9
:1001B000F9490108F9490108F9490108F949010813
:1001C000F9490108F949010800000000F94901084E
:1001D000F9490108F9490108F9490108F9490108F3
:1001E000F9490108F9490108F9490108F9490108E3
:0801F00000000000F9490108BC
:1002000010B5054C237833B9044B13B10448AFF350
:1002100000800123237010BDB809002000000000F9
:10022000EC89070808B5034B1BB103490348AFF33A
:10023000008008BD00000000BC090020EC89070810
:1002400053B94AB9002908BF00281CBF4FF0FF313D
:100250004FF0FF3000F074B9ADF1080C6DE904CE39
:1002600000F006F8DDF804E0DDE9022304B0704791
:100270002DE9F047089D04468E46002B4DD18A4259
:10028000944669D9B2FA82F252B101FA02F3C2F18C
:10029000200120FA01F10CFA02FC41EA030E94401D
:1002A0004FEA1C48210CBEFBF8F61FFA8CF708FB3E
:1002B00016E341EA034306FB07F199420AD91CEB16
:1002C000030306F1FF3080F01F81994240F21C8148
:1002D000023E63445B1AA4B2B3FBF8F008FB103390
:1002E00044EA034400FB07F7A7420AD91CEB0404C5
:1002F00000F1FF3380F00A81A74240F20781644495
:10030000023840EA0640E41B00261DB1D440002319
:10031000C5E900433146BDE8F0878B4209D9002D7D
:1003200000F0EF800026C5E9000130463146BDE807
:10033000F087B3FA83F6002E4AD18B4202D3824271
:1003400000F2F980841A61EB030301209E46002D20
:10035000E0D0C5E9004EDDE702B9FFDEB2FA82F275
:10036000002A40F09280A1EB0C014FEA1C471FFAD3
:100370008CFE0126200CB1FBF7F307FB131140EABA
:1003800001410EFB03F0884208D91CEB010103F187
:10039000FF3802D2884200F2CB804346091AA4B249
:1003A000B1FBF7F007FB101144EA01440EFB00FE1D
:1003B000A64508D91CEB040400F1FF3102D2A64582
:1003C00000F2BB800846A4EB0E0440EA03409CE721
:1003D000C6F12007B34022FA07FC4CEA030C20FACE
:1003E00007F401FA06F31C43F9404FEA1C4900FAEE
:1003F00006F3B1FBF9F8200C1FFA8CFE09FB18116B
:1004000040EA014108FB0EF0884202FA06F20BD9DD
:100410001CEB010108F1FF3A80F08880884240F22D
:100420008580A8F102086144091AA4B2B1FBF9F071
:1004300009FB101144EA014100FB0EFE8E4508D96C
:100440001CEB010100F1FF346CD28E456AD90238F1
:10045000614440EA0840A0FB0294A1EB0E01A142D6
:10046000C846A64656D353D05DB1B3EB080261EB44
:100470000E0101FA07F722FA06F3F1401F43C5E91E
:10048000007100263146BDE8F087C2F12003D84054
:100490000CFA02FC21FA03F3914001434FEA1C4796
:1004A0001FFA8CFEB3FBF7F007FB10360B0C43EA88
:1004B000064300FB0EF69E4204FA02F408D91CEB38
:1004C000030300F1FF382FD29E422DD90238634436
:1004D0009B1B89B2B3FBF7F607FB163341EA0341D6
:1004E00006FB0EF38B4208D91CEB010106F1FF3825
:1004F00016D28B4214D9023E6144C91A46EA00461C
:1005000038E72E46284605E70646E3E61846F8E6AD
:100510004B45A9D2B9EB020864EB0C0E0138A3E7F6
:100520004646EAE7204694E74046D1E7D0467BE7D7
:10053000023B614432E7304609E76444023842E74F
:10054000704700BF844641EA000313F003036DD1F6
:10055000403A41D351F8043B40F8043B51F8043B86
:1005600040F8043B51F8043B40F8043B51F8043B8D
:1005700040F8043B51F8043B40F8043B51F8043B7D
:1005800040F8043B51F8043B40F8043B51F8043B6D
:1005900040F8043B51F8043B40F8043B51F8043B5D
:1005A00040F8043B51F8043B40F8043B51F8043B4D
:1005B00040F8043B51F8043B40F8043B51F8043B3D
:1005C00040F8043B51F8043B40F8043B51F8043B2D
:1005D00040F8043B403ABDD2303211D351F8043BCD
:1005E00040F8043B51F8043B40F8043B51F8043B0D
:1005F00040F8043B51F8043B40F8043B103AEDD27C
:100600000C3205D351F8043B40F8043B043AF9D2CC
:10061000043208D0D2071CBF11F8013B00F8013B9F
:1006200001D30B8803806046704700BF082A13D3AC
:100630008B078DD010F003038AD0C3F10403D21AC4
:10064000DB071CBF11F8013B00F8013B80D331F8F8
:10065000023B20F8023B7BE7043AD9D3013A11F878
:10066000013B00F8013BF9D20B7803704B784370E3
:100670008B78837060467047000000000000000027
:10068000A2EB0300704700BF02780B78012A28BF55
:100690009A42F5D16DE9044540EA0104CDE90267CB
:1006A0006FF0000C4FEA447212B380EA010414F0B8
:1006B000070F6AD100F0070420F0070004F00305DB
:1006C00021F007014FEAC505F0E8042314F0040FF8
:1006D000F1E804670CFA05F462EA040266EA04062B
:1006E0000AD063EA0403624667EA0407664603E049
:1006F000F0E80423F1E8046782FA4CF582EA060484
:10070000A4FA8CF46CBB83FA4CF583EA0705A5FACE
:100710008CF595B950E9022351E9026782FA4CF54C
:1007200082EA0604A4FA8CF483FA4CF583EA0705FE
:10073000A5FA8CF52543DBD09CB92DBAB5FA85F422
:1007400024F0070427FA04F1DDE9026723FA04F331
:1007500003F0FF0001F0FF01FDE80445A0EB0100FC
:10076000704724BAB4FA84F424F0070426FA04F19A
:10077000DDE9026722FA04F202F0FF0001F0FF0156
:10078000FDE80445A0EB0100704714F0030F3CD1D5
:1007900010F0030428D150F8082B51F8083B82FAD6
:1007A0004CF582EA0305A5FA8CF55DB950F8042CE6
:1007B00051F8043C82FA4CF582EA0305A5FA8CF55F
:1007C000002DE8D02DBAB5FA85F424F0070423FAF9
:1007D00004F122FA04F202F0FF0001F0FF01FDE84B
:1007E0000445A0EB010070474FEAC40420F0030069
:1007F00050F8082B21F0030151F8083B0CFA04F4DF
:1008000062EA040263EA0403C9E710F003041AD0A1
:10081000A1EB040120F00300E40750F8042B06D0FC
:100820000FD28B785FFAA2F4E41A06D12BB1CB7801
:100830005FFAB2F4E41A00D11BB920465DF8104B00
:10084000704701F1040150F8042BCC0721F003019B
:1008500051F8043B48D824D222F07F4482FA4CF568
:1008600094EA1325A5FA8CF50AD165B951F8043B31
:1008700084EA0204B4EB036F0ED150F8042BEBE7CB
:100880004FEA132355E035F07F454DD10878FDE858
:100890000445C0F1000070474FEA126203F0FF0305
:1008A00047E002EA1C4482FA4CF594EA1345A5FAA3
:1008B0008CF50AD165B951F8043B84EA0204B4EB23
:1008C000034F0CD150F8042BEBE74FEA134330E011
:1008D00015EA1C4528D10B884FEA124229E04FEA5D
:1008E000124203EA1C4324E002F0FF0482FA4CF5B2
:1008F00094EA1365A5FA8CF50AD165B951F8043B61
:1009000084EA0204B4EB032F09D150F8042BEBE77F
:100910004FEA13630DE015F0FF0F05D10B684FEAA6
:10092000122223F07F4304E04FF00000FDE804456D
:10093000704712BA1BBA82FA4CF482EA0304A4FA92
:100940008CF5B5FA85F402FA04F203FA04F34FEADF
:100950001260FDE80445A0EB136070470000000042
:100960000000000000000000000000000000000087
:100970000000000000000000000000000000000077
:1009800090F800F06DE9024520F007016FF0000CCF
:1009900010F0070491F820F040F049804FF0000477
:1009A0006FF00700D1E9002391F840F000F1080052
:1009B00082FA4CF2A4FA8CF283FA4CF3A2FA8CF38A
:1009C0004BBBD1E9022382FA4CF200F10800A4FAF1
:1009D0008CF283FA4CF3A2FA8CF3E3B9D1E9042345
:1009E00082FA4CF200F10800A4FA8CF283FA4CF37C
:1009F000A2FA8CF37BB9D1E9062301F1200182FA36
:100A00004CF200F10800A4FA8CF283FA4CF3A2FA3B
:100A10008CF3002BC6D0002A04BF04301A4612BA49
:100A2000B2FA82F2FDE8024500EBD2007047D1E94C
:100A3000002304F00305C4F100004FEAC50514F0DB
:100A4000040F91F840F00CFA05F562EA05021CBFAC
:100A500063EA050362464FF00004A9E700000000C6
:100A600001F0FF01102A2BDB10F0070F08D010F85F
:100A7000013B013A8B422DD010F0070F42B3F6D163
:100A8000F0B441EA012141EA014122F007047FF07C
:100A900000070023F0E80256083C85EA010586EAD3
:100AA000010685FA47F5A3FA87F586FA47F6A5FA0F
:100AB00087F68EB9EED1F0BC01F0FF0102F007021B
:100AC00032B110F8013B013A83EA010313B1F8D1C6
:100AD0000020704701387047002D06BF35460338A7
:100AE000073815F0010F07D1013015F4807F02BFE0
:100AF000013015F4C03F0130F0BC0138704700BF31
:100B00002C2072F0F1BB00BF43699B698B422DE939
:100B1000F04F894683B025D10029D0F80080D0E974
:100B200006671BDD15460024DFF858B0DFF858A033
:100B30002346424639463046CDE900B519F020FE3D
:100B4000234601340195424639463046CDF800A08F
:100B500019F046FEA14505F10805E9D1002003B0D2
:100B6000BDE8F08F05480A4605490068C06872F084
:100B70007BF9012003B0BDE8F08F00BF0C0000201E
:100B8000088A0708E48A0708E88A07080D2B70B569
:100B900016D1436905469B698B420FDD00290DDBA9
:100BA0006824406A164601FB04F411462044836819
:100BB0009847A86A3146204483689847002070BD52
:100BC0000D221946024872F029FF012071F064FFDE
:100BD000F08A0708000000002DE9F04F0D230446BD
:100BE00089462DED028BAFB023620890084618921B
:100BF00019F006FC0122034660610020D968914586
:100C000018701A72087041F33D80D9688854013217
:100C10009145FAD1DA6802F80900002211461869F4
:100C200081545868815401329145F8DC0022104605
:100C30005969885401329145FADC09F10106596974
:100C400003F110020024370101F8094006EB860881
:100C50001C9707CA8DE807000FCB19F02BFC089BE7
:100C60008246986106EB0610800072F03DFB054657
:100C700011902C2006EB4601A14500FB0650C6EB67
:100C8000C60306EBC60209904FF0340000FB065085
:100C90001090A7EB060005EB80000B90284605EBB3
:100CA0008605199500EBC605129500EB8105139595
:100CB00000EB0705149500EB8805159500EBC805BA
:100CC000179500EBC10500EB011116950A9101463D
:100CD00000EB83001A9001EB46101B904FEA820054
:100CE00001EB82021D900F924FEAC30201EBC30396
:100CF0001E920E934FEA86131F9301EB86130C93FB
:100D00006BDB119B07EE90AA139AA3F1040B199BBE
:100D1000151F149A043B1A99A2F1040E159A069312
:100D2000081F109BA2F1040C169A043B1B99043A6D
:100D3000059304390F9B20920422A3F104080E9B13
:100D400007911F1F129B043B2193179BDDF884A082
:100D5000043BCDF884900D932346DDF834900D9636
:100D60004646B8462F46209D07214BF8041F06999A
:100D700041F8042F0691059941F8043F059103219C
:100D800046F8041F0B2148F8041F03214AF8042FDA
:100D900047F8042F4EF8043F4CF8043F45F8041F71
:100DA000079940F8043F41F8043F0791099949F831
:100DB000042F41F824300A9941F824300B9941F866
:100DC00024300C9941F8243001340D998C42CBD158
:100DD00017EE90AADDF884900E46119A072300259D
:100DE0001D9942F8363016461C9A199FB5500322B9
:100DF000129872501F9A0E99B3500B231E9A0A9C98
:100E0000B350109B0F9A47F8295043F8295042F8E5
:100E1000295041F8295040F82950139840F829509A
:100E2000179840F82950099840F8295000EB89009C
:100E300044F829500A900B9C149844F8295040F823
:100E4000295015981B9C40F82950169840F82950B5
:100E50001A9840F8295000EB890044F829500B906B
:100E6000504619F04FFC044608983346734A214611
:100E7000C461504613F0FCFF3B46714A2146504680
:100E800013F0F6FF109B6F4A2146504613F0F0FF17
:100E90000E9E0F9B214606EB89066B4A504609962B
:100EA00013F0E6FFA945C0F2C085129BCDF81C9057
:100EB000A1460693DDF854B00C9EDDE91332DDE95E
:100EC00016781C460592069B2A46494650460093D2
:100ED000043306935D4B14F003FA2A465C4B4946F3
:100EE0005046009414F0FCF9059B2A4649460093AD
:100EF0000433504604340593564B14F0F1F92A4656
:100F0000554B49465046CDF800B014F0E9F92A4651
:100F1000524B49465046CDF8008014F0E1F92A467C
:100F20004F4B49465046009714F0DAF92A464D4B8C
:100F300049460096504614F0D3F90135079B0BF152
:100F4000040B08F104080437AB4206F10406BADAD0
:100F50000E9B4C46DDF81C90002200932146424B2C
:100F6000504614F0C3FAB9F1010F40F366850E9EA6
:100F700001253D4F04362A46013500963B46214661
:100F8000504614F0B3FAA94506F10406F3D10A9BC2
:100F900021464A46504600936825344B4FF00008DE
:100FA00014F09EF90B9B21464A4650460093304B65
:100FB00008EE904A14F094F9099B21464A4650469F
:100FC0000093294B444614F091FA119872F094F969
:100FD00005FB09F3274F184608EE103A72F084F922
:100FE000089B254EDFF8A8B09846586201E0D8F873
:100FF000240005FB0400214B01340D214361204BEB
:10100000C0E909371F4BC0E9076B836119F0DCF9B0
:10101000A145ECDC18EE904A18EE100A4FF00008DB
:1010200072F062F9089B08EE104ADFF868B0444697
:10103000154F164E6825984698622FE06C8B07086E
:10104000708B0708748B0708788B0708808B07085C
:10105000848B0708888B0708908B07083060090885
:10106000988B07089C8B07087C8B0708A48B0708C4
:10107000A88B07082DEF000831EF0008F12D0008BC
:1010800029EF000859EF0008552C0008652C0008CE
:1010900045EF0008191D0008D8F8280005FB0400DA
:1010A000D14B01340D214362D04BC0F814B08362A0
:1010B000CF4B8661C0E9073719F086F9A145EBDC13
:1010C00018EE101A504619F03BFB089B18EE104A18
:1010D00083461860189B002B00F05184189A4946EB
:1010E0000898FFF711FD2CAB0793B9F1000F40F3FF
:1010F00068845A460025CB46DFF820836827DDF850
:101100002090D9F8241007FB05F6BA482B46314445
:101110000592009050460191214619F04DFBD9F8F7
:1011200028102B4601353144059A5046CDE90081FF
:10113000214619F041FBAB45059AE2D108217920FF
:10114000D946DFF8DC82934671F058FC054600234F
:101150005A46214601905046CDF800809FED9E8B67
:1011600085ED308B19F03CFB284672F0C5F808215C
:101170000B2071F043FCA04B05465A4621460093D4
:1011800001900023504619F02BFB284672F0B4F86A
:101190000821792071F032FC0821064680ED308B61
:1011A0000B2071F02BFCB9F1010F074614DD01256E
:1011B0002B465A4621465046CDE9008619F010FBD1
:1011C0008D492B46013500915A46214650460197DC
:1011D00019F006FBA945EBD13046B7EE008B72F053
:1011E0008BF8384672F088F808214D20DFF83482F9
:1011F00071F004FC814B0546019000935A46002390
:101200002146504685ED008B85ED188B85ED308BA2
:1012100085ED488B85ED608B85ED788B85ED908B2A
:1012200019F0DEFA284672F067F808212C2071F0D8
:10123000E5FB054601900023CDF800805A46214683
:1012400080ED0E8B80ED268B80ED3E8B80ED568BF6
:10125000504619F0C5FA284672F04EF808214D2084
:1012600071F0CCFBB9F1010F074680ED008B80EDEA
:10127000188B80ED308B80ED488B80ED608B80ED9E
:10128000788B80ED908B40F3158401255B482B46CD
:101290002E46013500905A4621465046019719F0D6
:1012A0009FFAA945F2D13846012772F025F80821A6
:1012B0002C2071F0A3FB0022514B0546C0E90E2300
:1012C000C0E92623C0E93E23C0E956233B465A46DF
:1012D00021465046CDE9008519F082FAB74207F160
:1012E0000107F3D12846474F72F006F808210C2079
:1012F000002571F083FB00F1180300F14808059305
:1013000000F130034646A0460693044634A3D3E9D1
:101310000023C0E90E23C0E91023C0E91423C0E96B
:101320001623394B0022C0E90C23C0E912234B4697
:10133000D9469B462B464A4641465046CDE9007465
:1013400019F04EFA059B4A464146019350462F4BF1
:1013500000932B4619F044FA069B4A4641460193F6
:1013600050462B4B00932B4619F03AFA294B4A462C
:10137000414600932B4601355046019619F030FA4C
:10138000AB45D7DC5B462646CB46444699463046BD
:10139000002571F0B1FF1C2071F0A6FF01234FF072
:1013A00002084FF0040E06460821C0E9005303234B
:1013B000C0E902830523C0E904E3062383610E200C
:1013C00071F01CFBB3EE007B0746134B01965A46A7
:1013D0002AE000BFAFF30080000000000000494099
:1013E0009A9999999999B93F392C00083D2C000890
:1013F000412C0008B88B0708B08B0708D88B07086A
:101400000000F03FE08B070800005940E48B07081C
:10141000E88B0708EC8B0708F08B0708C88B0708D8
:10142000AC8B0708DC8B0708009321462B465046FF
:1014300087ED007B87ED0E7B19F0E6F9C24B5A462B
:1014400021460197504600932B4619F0DDF907F12C
:101450003802BE4B2146019250465A4600932B4615
:1014600019F0D2F9304671F047FF384671F044FF69
:101470001C2071F039FF012301900322052106464B
:101480000560C0E901380423C0E903230623B04AFC
:10149000C0E905132B462146009250465A4619F0E2
:1014A000B3F9304671F028FF102071F01DFF0123C1
:1014B000082105600746C0E901380323C3600846D8
:1014C00071F09CFAA94500F120038046059340F392
:1014D0007D834B46D9469B469E4B4A462146504605
:1014E00000932B4601972E4619F08EF99A4B4A46E7
:1014F0002146009350462B46CDF8048019F084F91C
:10150000059A2B46013501922146944A5046009295
:101510004A4619F079F9AB45DED15B463846CB46F1
:10152000994671F0E9FE404671F0E6FE0C2071F03C
:10153000DBFE00234FF0020C032203600546082166
:101540009846C0E901C2062071F058FA00F118036C
:10155000CDF814900746B1461E46814B5A462146A7
:10156000504600934346019519F04EF97D4B5A467B
:101570002146009350464346019719F045F97A4BAE
:101580005A462146009350464346019619F03CF9CD
:10159000C14508F10108E0D12846DDF8149071F04A
:1015A000ABFE384671F0A8FE102071F09DFE0325B9
:1015B0000423082105270646C0E900530623C0E995
:1015C0000273084671F01AFAB9F1010F074600F1EB
:1015D00020081FD00125654B5A46214650460093EE
:1015E0002B46019619F010F9574B5A4621460093A5
:1015F00050462B46019719F007F9544B5A4621469D
:1016000000932B4601355046CDF8048019F0FCF8C4
:10161000A945E0D1304671F06FFE384671F06CFE9E
:101620000821102071F0EAF9082105901C2071F0C2
:10163000E5F908210746084671F0E0F900224C4B15
:101640000146B9F1000F8046E1E80823C7E91823F5
:10165000C7E92023C7E92823C7E93023C7E91A23AC
:10166000C7E92223C7E92A23C7E93223C7E924238C
:10167000C7E91E23C0E90223C0E90823C0E90A2301
:101680004FF000023B4B0691C7E93423C7E92E23F4
:1016900040F3B4824B46B8460025274681465C4657
:1016A0009B46059B22463946504601932E46324BB7
:1016B00000932B4619F0A8F8304B22463946009388
:1016C00050462B46CDF8048019F09EF82C4B22464C
:1016D0003946009350462B46CDF8049019F094F803
:1016E000069A2B46013501923946264A5046009209
:1016F000224619F089F8AB45D3D15B46A3463C4658
:1017000047460598C846994671F0F6FD38460DF1F2
:101710008A0571F0F1FD404671F0EEFD214650461C
:10172000002719F03DFA089B0146174A18615046F8
:10173000164B19F059FADFF85880CDF81490DDF8FF
:1017400020908DF88A7025E0F88B0708FC8B07083D
:10175000008C0708088C0708108C0708148C0708F1
:10176000188C0708208C0708248C0708F08B0708C2
:101770000000F03F0000F0BF087609081C6009086F
:10178000288C07082C8C07081C8D0708108D07086B
:10179000308C07083A46D9F8101043465046009559
:1017A00019F028FAB74207F10107F3D10123002706
:1017B00023ADDFF80884DDF8209023933A46D9F86A
:1017C000101043465046009519F014FAB74207F13D
:1017D0000107F3D10223002724ADDFF8E483DDF80D
:1017E000209024933A46D9F810104346504600956D
:1017F00019F000FABE4207F10107F3D103230027D5
:1018000025ADDFF8C083DDF8209025933A46D9F85E
:10181000101043465046009519F0ECF9B74207F115
:101820000107F3D1012300270DF18B05DFF8988321
:10183000DDF820908DF88B303A46D9F810104346E9
:101840005046009519F0D6F9B74207F10107F3D1D8
:10185000DDF81490089FB7EE007B2AABC24A3969C5
:101860005046012600258DED2A7B19F0BDF9396916
:10187000079B5046BD4A9FEDB47B8DED2C7B19F044
:10188000B3F9396926ABBA4A5046269619F0ACF935
:10189000322339695046B74A279327AB19F0A4F988
:1018A000396928ABB44A5046289619F09DF929ABFE
:1018B000B24A50463969299519F096F921465046A1
:1018C00018F0B6FF214678600646504618F0B0FF83
:1018D0000821B8600B2071F091F800228046A84BD7
:1018E000A9450746E8E80E2340F3A981A5492B4600
:1018F0003246504600912146019718F0B9FFA2499F
:101900002B4601350091324621465046CDF80480E1
:1019100018F0AEFFA945E9D19A4B21463246504610
:10192000CDE900374B4618F0A3FF384671F0E4FCD0
:10193000089F214650463A69002419F061F90821B0
:10194000F8600D2071F05AF80546214601340D2348
:101950002A463846FFF71AF9A145F6DA284671F00B
:10196000CBFC089B32465946D86819F0BBF90028D1
:1019700040F0A6812FB0BDEC028BBDE8F08F2CA902
:10198000189D824F824E8846079171A3D3E90023A8
:10199000CDE92C232B465A4621465046CDE9007806
:1019A00018F0EEFE2B4601355A4621465046CDE949
:1019B000006818F015FFA945ECDCB9F1000F3FF7FE
:1019C00098AB0821792071F019F8724B05465A46F8
:1019D000214601900093504600239FED5F8B85EDDB
:1019E000308B18F0FDFE284671F086FC08210B2094
:1019F00071F004F8684B05465A4621460190009361
:101A00005046002318F0ECFE284671F075FC0821C2
:101A1000792070F0F3FF0821064680ED308B0B2013
:101A200070F0ECFF0746FFF7D7BB0E9B2A46214616
:101A300050460093594B13F059FD0A9B4A462146E4
:101A400050460093564B13F04BFC0B9B4A462146E5
:101A500050460093534B13F043FC099B4A462146E2
:101A6000504600934D4B13F041FD119871F044FC2A
:101A7000682303FB09F3184608EE103A71F034FCB2
:101A8000089AB9F1010F506200F0098118EE100AAE
:101A900071F02AFC089D2146A862504618F050FEBD
:101AA000189B83462860002B7FF418AB2CAB079360
:101AB000FFF71BBB71F020FC08210C2070F09EFF8B
:101AC000B9F1010F064626A3D3E90023C0E90E238E
:101AD000C0E91023C0E91423C0E916234FF0000227
:101AE000314BC0E90C23C0E912237FF450AC2F4BDB
:101AF0005A462146504600930023019618F070FE86
:101B000006F118035A46214601935046284B00938C
:101B1000002318F065FE06F130035A462146019372
:101B20005046244B0093002318F05AFE06F1480358
:101B30005A462146019350461F4B0093002318F04C
:101B40004FFE24E4AFF3008000000000000000001E
:101B50007B14AE47E17A943F00000000000049404A
:101B60009A9999999999B93FA08C0708AC8C070864
:101B7000C08C0708CC8C0708D88C0708E88C0708AD
:101B800000003040F48B0708CCBD0908E48A070840
:101B9000E88A0708AC8B0708B08B07087C8B07081E
:101BA000A48B0708A88B070800005940E08B0708A2
:101BB000E48B0708E88B0708EC8B07084C8C0708B8
:101BC000608C0708748C07088C8C0708384671F005
:101BD00093FB404671F090FB102071F085FB0322CF
:101BE000042305210646C0E900230623C0E90213A9
:101BF0000821084670F002FF07460BE5059871F0D2
:101C00007BFB384671F078FB404671F075FB21464E
:101C1000504618F0C5FF089B01462C4A18615046F3
:101C20002B4B18F0E1FF0123022023938DF88B301A
:101C300000238DF88A300323CDE924030AE6254BDF
:101C4000214632460190009350464B4618F010FE54
:101C5000384671F051FB2146089C5046226918F025
:101C6000CFFF0821E0600D2070F0C8FE0546B9F1F5
:101C7000000F7FF473AE024649460D230898FEF725
:101C800085FF6BE6DA6802F809007EF4D6AF1A69C0
:101C900010705A6810705A691070FEF7CEBF0E4A65
:101CA0000D2142610D4A42620D4A82620D4AC261B3
:101CB0000D4A02620D4A826118F086FBFFF7ACB94B
:101CC0000B4871F04FFF012070F0E6FE1C8D0708F5
:101CD000108D0708F48B0708F12D000829EF000884
:101CE0002DEF000831EF000845EF000859EF00081C
:101CF000F48C070800220221FEF76EBFD0E9001223
:101D0000C06818F0DDBF00BF0068704740687047CA
:101D100080697047C0697047F0B5056807460E686E
:101D20002DED108BAFB0002D00F01F87B2EE0B5BD6
:101D3000846895ED066B26EE056B002C00F0058699
:101D400094ED0A3B9FEDFA4B95ED087B36EE436B25
:101D500027EE057B86EE046B8DED146B94ED0C5B2A
:101D60009FEDF36B94ED00DB37EE457BB0EE4D0B52
:101D700087EE068B8DED1C8B6FF046FDB0EE409B21
:101D80008DED180BB0EE4D0B6FF0C6FD9DED147B85
:101D90008DED060B37EE087B8DED1E7B27EE097B64
:101DA0008DED247B002D00F0F485B6EE005B95ED03
:101DB000007B9FEDE12B9FEDE24B27EE07AB9FED04
:101DC000E26B9FEDE31B2AEE022B2AEE04AB22EE20
:101DD000054B2AEE05AB84EE068B2AEE011B95ED32
:101DE000023B95ED046B8DED101B9FEDDB1B8DED24
:101DF0002A2B9FEDDB2B2AEE01AB9FEDDB1B9FED2A
:101E0000DC4B26EE044B28EE011B8DED021BB0EEE1
:101E1000431BA6EE021B8DED081BB0EE431B23EE09
:101E2000063BA6EE421B26EE076B8DED263B8DEDA5
:101E3000286BB0EE476BA4EE057BA4EE456B8DEDF1
:101E40000E1B8DED0C7B8DED0A6B9DED0A6B9DEDF0
:101E5000087B9FEDC9CB87EE060B6FF0CDFB30EE14
:101E60004DEB9FEDC77B9FEDC80B3EEE477B27EE0A
:101E7000000B6FF0C1FB6FF0C7FC20EE0CCB002C09
:101E800000F055869FEDC27B94ED148B9FEDC24B05
:101E900094ED125B9FEDC26B28EE04BBB0EE474B96
:101EA000A5EE067BA5EE464B94ED028B9FEDCA0B8B
:101EB000B0EE47FB8DED207B34EE0A9B28EE000B45
:101EC0003AEE0FAB9DED027B8DED1A4B8DED12BB03
:101ED00039EE479B6FF090FB9FEDC17B39EE4B9B3A
:101EE00020EE070B6FF018FD9DED027B8DED160BBC
:101EF0003AEE47AB3AEE4B7B8DED047B9FEDBA5B40
:101F00009FEDC13B9FEDBA7B39EE452B9FEDBC4B5E
:101F100082EE05AB9FEDB8FBAAEE037BAAEE04FBB5
:101F200037EE088B2CEE07BB28EE0C8BB1EE4FCBB7
:101F3000B0EE480B6FF060FB38EE400BAFEE408B1D
:101F40009FEDB3FBB0EE480B6FF056FB20EE0F0B8E
:101F50006FF05AFCB0EE408BB0EE4B0B6FF04CFBC9
:101F60003BEE400BACEE00BB9FEDABCBB0EE4B0BB2
:101F70006FF042FB20EE0F0B6FF046FC88EE00BBCB
:101F80009FEDA77BAAEE07CB002C00F0358594EDE2
:101F9000167B8DED007B9DED007B9FEDA3FB2CEE72
:101FA00007CB9FED917B2CEE09CB89EE070B9FEDC4
:101FB000A07B80EE070B6FF01FFB30EE000B6FF085
:101FC000ABFC9FED9D7B9FEDB06B9FEDA15B20EE89
:101FD000070B9FEDAF7BACEE067B9FEDA16B20EE78
:101FE000060B80EE076B9FED987BAAEE057B9FEDBD
:101FF000945BAAEE05FB3EEE077BB5EEC07BF1EEEF
:1020000010FA26EE076B00F1DF8440F3CD859FEDDB
:10201000928BB0EE460B28EE4F8B8DED226B6FF05E
:10202000EBFA9DED226B36EE400BA8EE006BB0EEA6
:10203000460B6FF0E1FA9FED947B20EE070B6FF0FB
:102040006BFC9FED8F6B9FED8C7BAAEE067B9FED6B
:10205000886B27EE099B9DED007B27EE099B9FED8A
:10206000527BACEE009BAAEE067BB2EE0E0B2EEE80
:10207000000B2CEE07CB6FF0BFFA6FF0C5FB9DEDA8
:10208000167B9DED0C6B2CEE000B20EE070B9DEDEF
:10209000087BABEE090B9FED38BB8DED160B87EE81
:1020A000060B6FF0A9FA30EE4DDB9FED357B9FED0F
:1020B000360B3DEE477B27EE000B6FF09DFA6FF07D
:1020C000A3FB20EE0BBB002C00F0498594ED048BA4
:1020D0009FED410B28EE000B6FF08EFA9FED407BD9
:1020E00020EE070B6FF018FCB0EE40EB9DED046B9B
:1020F0009FED3DCB9FED444B9FED3D7B36EE4C3B42
:102100009FED3F5B83EE0C9B9FED3BFB9FED40AB58
:10211000A9EE047BA9EE05FB37EE080B2BEE078B2F
:1021200020EE0BBBB1EE4F7BB0EE4B0BB4E000BF2B
:1021300014AE47E17A14CE3FCD5D4BC807BDF03FEA
:10214000560E2DB29D2F09407B14AE47E17AF83F21
:102150007D7C7C7C7C7CDC3FC2C1C1C1C1C1E13FD4
:102160007B14AE47E17AE83F3BDF4F8D976EE23F4D
:1021700052B81E85EB51F43FE7FBA9F1D2CD2B40BD
:10218000AD2F12DA722EA53FE5D022DBF9BE284032
:102190006766666666B184409696969696963940CE
:1021A000753A9D4EA7D33E400ABFD4CF9B8A843F49
:1021B00014AE47E17A14CE3F52B81E85EB51F43F7E
:1021C0000000000000E07040AD2F12DA722EA53F33
:1021D000E5D022DBF9BE284066666666662630409A
:1021E0000EBE30992A18FF3F0000000000408F40CB
:1021F000302DEA93DC6143BF8FE4F21FD26FF0BF52
:1022000037894160E5D0F43F26AB22DC645439BF06
:102210000E2DB29DEFA7EE3FCA54C1A8A44EFB3FBE
:10222000234A7B832F4CDABF93A98251499DCC3F2F
:10223000107A36AB3E57F23F00000000C0FEE3C00C
:10224000D5E76A2BF697E53FE10D6954E0646BBF73
:102250000F4757E9EE3A6BBFB09DEFA7C64BC7BF1C
:10226000A4703D0AD7A3EA3FE7FBA9F1D2CD2B40EA
:1022700064247B849A21853F5839B4C876BEAFBFA9
:10228000E08442041C4265BFF38E53742497F13FEF
:102290007B14AE47E17A843F8DED087B6FF0ACF99B
:1022A0003BEE400BAFEE40BBB0EE4B0B6FF0A4F932
:1022B00020EE0A0B6FF0A8FAB0EE40FBB0EE480B30
:1022C0006FF09AF938EE400B9DED087B1FED2EBBA9
:1022D000A7EE008BB0EE480B6FF08EF920EE0A0BE4
:1022E0006FF092FA8FEE007B9DED045B1FED346B77
:1022F0001FED310B1FED34ABA9EE06BB9DED006B5E
:1023000026EE0BBB2BEE05BBB0EE47FB85EE0C7B40
:1023100087EE000B6FF070F930EE000B6FF0FCFAF7
:102320001FED3B7B1FED286B20EE070B1FED287B7D
:10233000ABEE067B1FED366B20EE060B1FED3C6B04
:1023400080EE07CB1FED407BA9EE067B1FED446BB3
:10235000A9EE06AB3DEE077BB5EEC07BF1EE10FAC1
:102360002CEE07CB00F1378340F32D841FED468B15
:1023700028EE4A8BB0EE4C0B6FF03EF93CEE400B72
:102380001FED43ABA8EE00CBB0EE4C0B6FF034F971
:102390001FED437B20EE070B6FF0BEFA1FED487B6D
:1023A0001FED4D6BA9EE07AB9DED047B2AEE07AB4D
:1023B0009DED007B27EE0AAB1FED857BABEE00ABFE
:1023C000A9EE067BB2EE0E0B2DEE000B2BEE07BB3B
:1023D0006FF012F96FF018FA9DED167B2BEE00BB33
:1023E0002BEE0EEBAFEE0AEB37EE0E5B8DED22EB34
:1023F000002D00F0F382B2EE0B3B95ED0A7B27EE49
:10240000037B002C00F0E78394ED0E4B1FED986BDF
:1024100037EE444B84EE067B95ED0C6B26EE036B9A
:10242000B6EE003B94ED104B36EE446B1FEDA04B27
:1024300086EE042B1FEDA04B32EE476B37EE027B8E
:1024400026EE033B23EE046B8DED2C6BAEB19DEDC0
:10245000246B9DED064BA5EE446B36EE077B9DEDA0
:102460002A6B37EE467B1FEDAA6B87EE063B9DED90
:10247000267B33EE073B86ED003B9DED066B9DED25
:102480001E7B1FED87DB27EE067B9DED186BA5EE0F
:10249000067B9DED0A6B8DED047B9DED0E7B87EE3B
:1024A000060B6FF0A9F8B0EE40AB1FEDB97B30EE34
:1024B000477B1FEDB90B27EE000B6FF09DF86FF017
:1024C000A3F920EE0DDB002C00F02A8394ED06BB6F
:1024D0001FEDBF0B2BEE000B6FF08EF81FEDC07BD6
:1024E00020EE070B6FF018FA8DED080B9DED1A7BAF
:1024F0009DED106B1FEDC4FB1FEDC39B37EE068BEC
:102500009DED027B1FEDC06B1FEDC5EB38EE078B19
:102510009DED127B38EE078B1FEDC77B38EE4F5BCE
:1025200085EE0FCBACEE069BACEE07EB39EE0BBBAA
:102530002DEE099B2BEE0DBBB1EE4E7B1FEDCCDBE0
:10254000B0EE4B0B8DED0A7B6FF056F83BEE400B77
:10255000AEEE40BBB0EE4B0B6FF04EF820EE0D0B25
:102560006FF052F9B0EE40EBB0EE490B6FF044F86B
:1025700039EE400B9DED0A7B1FEDD9BBA7EE009B0A
:10258000B0EE490B6FF038F820EE0D0B6FF03CF910
:1025900088EE0F7B8EEE00FB1FEDDF6B1FEDDC0B7B
:1025A0001FEDDFDBACEE06BB9DED006B26EE0BBB3B
:1025B0002BEE08BB87EE000B6FF01EF830EE000B21
:1025C0006FF0AAF91FEDE47B1FEDD16B20EE070B36
:1025D0001FEDD17BABEE067B1FEDDF6B20EE060B14
:1025E0001FEDE56B80EE07EB1FEDE97BACEE067BA4
:1025F0001FEDED6BACEE06DB3AEE077BB5EEC07B74
:10260000F1EE10FA2EEE07EB00F1E28140F3C58205
:102610001FEDEF9B29EE4D9BB0EE4E0B6EF0ECFFE5
:102620003EEE400B1FEDF0DBA9EE00EBB0EE4E0BE3
:102630006EF0E2FF1FEDEC7B20EE070B6FF06CF904
:102640001FEDF16B1FEDF47BACEE067B1FEDF86B1D
:1026500028EE078B9DED007B27EE088B9FEDEA7B34
:10266000ABEE008BACEE067BB2EE0E0B2AEE000B4F
:102670002BEE07BB6EF0C0FF6FF0C6F8B0EE407BEC
:102680009DED0E6B2BEE07BB9DED087B9DED0C5B6E
:102690002BEE07BB86EE050BAFEE08BB8DED08BB3E
:1026A0006EF0AAFFB0EE40AB9FEDD97B30EE477BDA
:1026B0009FEDD90B27EE000B6EF09EFF6FF0A4F894
:1026C00020EE0DDB002C00F0618294ED08BB9FED45
:1026D000D40B2BEE000B6EF08FFF9FEDD37B20EE23
:1026E000070B6FF019F98DED0A0B9DED107B9DED39
:1026F000206B9FEDCFFB9FEDD09B37EE068B9DEDC2
:10270000027B9FEDCF6B9FEDD0EB38EE078B9DEDFD
:10271000127B38EE078B9FEDCE7B38EE4F5B85EE5C
:102720000FCBACEE069BACEE07EB39EE0BBB2DEE00
:10273000099B2BEE0DBBB1EE4E7B9FEDC7DBB0EEE0
:102740004B0B8DED027B6EF057FF3BEE400BAEEE78
:1027500040BBB0EE4B0B6EF04FFF20EE0D0B6FF059
:1027600053F8B0EE40EBB0EE490B6EF045FF39EE9A
:10277000400B9DED027BA7EE009BB0EE490B6EF087
:102780003BFF20EE0D0B6FF03FF888EE0F7B8EEED7
:10279000009B9FEDB36B9FEDB4DB9FEDB50B9FED01
:1027A000B6EBACEE06DB9DED006B26EE0DDB2DEE01
:1027B00008DB87EE000B6EF01FFF30EE000B6FF0B2
:1027C000ABF89FEDAF7B9FEDB06B20EE070B9FED5D
:1027D000B07BADEE067B9FEDB06B20EE060B9FED60
:1027E000B06B80EE07FB9FEDB07BACEE067B9FED00
:1027F000B06BACEE06EB3AEE077BB5EEC07BF1EECC
:1028000010FA2FEE07FB00F1DC8040F3D5819FED3D
:10281000AABB2BEE4EBBB0EE4F0B6EF0EDFE3FEEC3
:10282000400BABEE00FBB0EE4F0B6EF0E5FE9FED04
:10283000967B20EE070B6FF06FF89FEDA16B9FED7D
:10284000A27BACEE067B9FEDA26B28EE078B9DED85
:10285000007B27EE088B9FED6C7BADEE008BACEE22
:10286000067BB2EE0E0B2AEE000B2DEE07DB6EF0B0
:10287000C3FE6EF0C9FF9DED0A6B2DEE007B27EEC7
:10288000067B9DED086BA9EE087B36EE077B002EDC
:1028900056D09DED046B9FED905B36EE074B84EEBA
:1028A000056B9DED285B36EE456B86ED026B002CCB
:1028B00000F0B58194ED185B9FED896B25EE065B0A
:1028C0007B68B6EE002B9DED1C6B9DED144B9DEDD2
:1028D000063B36EE440B9DED226B9DED164B36EE1E
:1028E00044EB9DED186B9DED044B20EE060B9FED28
:1028F0007E6BAEEE430B24EE064B9FED853BA7EEC1
:10290000464B20EE020B9DED2C7BA0EE034B34EEEC
:10291000074B84EE057B86ED047B002B00F0748171
:10292000D3E90001C6E90601D3E90201C6E90801BD
:10293000D3E90401C6E90A01D3E90623C6E90C2359
:1029400000202FB0BDEC108BF0BD95ED087B9FED06
:102950006E4B27EE057B86EE046B87EE047B8DEDD8
:10296000146B8DED1C7B9DED1C6B9DED147B9FED21
:102970006ADB002437EE067BB7EE006B8DED1E7B25
:102980008DED06DB8DED186B8DED247B002D7FF436
:102990000CAA9FED617BB0EE47AB8DED027B8DED18
:1029A0002A7B8DED287B8DED107B8DED0E7B8DEDE3
:1029B000267B8DED0C7B8DED0A7B8DED087BFFF783
:1029C00044BA9FED4BBB24E79FED498BFFF721BB3A
:1029D0009FED479B1EE69FED468BC9E4002C00F05F
:1029E00021819FED4D6B94ED0E4B9FED473B36EEF5
:1029F000444B84EE037B13E59FED477B8DED007B1D
:102A0000FFF7C9BAAFF300800ABFD4CF9B8A843FD7
:102A1000AD2F12DA722EA53FE5D022DBF9BE284099
:102A200066666666662630400EBE30992A18FF3FFD
:102A30000000000000408F40302DEA93DC6143BF6E
:102A400026AB22DC645439BF8FE4F21FD26FF0BF93
:102A500037894160E5D0F43F0E2DB29DEFA7EE3FE0
:102A6000234A7B832F4CDABFCA54C1A8A44EFB3F34
:102A7000107A36AB3E57F23F93A98251499DCC3F25
:102A800000000000C0FEE3C0F38E53742497F13FB2
:102A90007B14AE47E17A843FA4703D0AD7A3EA3F96
:102AA0000F4757E9EE3A6BBFE10D6954E0646BBF25
:102AB000D5E76A2BF697E53FB09DEFA7C64BC7BF9A
:102AC000E08442041C4265BF5839B4C876BEAFBF2B
:102AD00064247B849A21853F0000000000E0704060
:102AE00000000000000069407B14AE47E17AE83F37
:102AF000DBF97E6ABC7401406766666666B1844035
:102B0000B6F3FDD478E9F23F14AE47E17A14CE3F34
:102B100052B81E85EB51F43F000000000000000099
:102B20001FED037BB0EE47BB8DED087BDEE41FEDB0
:102B30000E7B9DED026B3AEE079B8DED207B39EE0F
:102B4000469B1FED0B6B8DED1A7B8DED049BB0EE5C
:102B5000468B8DED166B8DED126BFFF7CFB91FED28
:102B600012EBB0EE4E8BFFF7C1BA84681FED167BF7
:102B7000002C5CD094ED0A6B1FED1D5B37EE466BAD
:102B800086EE056B8DED146BFFF7E8B81FED1E7B2D
:102B9000B0EE47BB8DED0A7BA7E51FED276BB7EEC7
:102BA000009BA7EE469B35E51FED2B5BB7EE008B38
:102BB000A7EE458BFFF72DBA1FED2F6BB7EE00BBCD
:102BC000A7EE46BB25E61FED326BB7EE008BA7EEF6
:102BD000468BFFF7CDBB95ED0C6B1FED354B26EE0D
:102BE000036B87EE042B86EE047BB6EE003B1FEDF5
:102BF000384B37EE426B32EE077B26EE036B26EE48
:102C0000046B8DED2C6B21E40020002102460B4665
:102C1000C6E90601C6E90801C6E90A018EE61FED0C
:102C2000425B4DE61FED447B8DED2C7B0EE48DED7C
:102C30001C7B8DED147B96E60320704701207047C6
:102C4000022803D8024B53F8200070470020704739
:102C50002C8D07080028024B14BF0020184670472F
:102C6000388D070878B110B40524046009B102203A
:102C700008600AB1002111600BB11F221A60002008
:102C80005DF8044B704709B1022008600AB10021C9
:102C900011600BB11F221A60002070472DE9F84F18
:102CA000D1E900951446064605FB09F205F1030833
:102CB0009B4601F1080A002A01EB88074FEA8808C1
:102CC00004DDD2000021204670F04AFE6EB3BBF155
:102CD000000F2CD0002D28DD50464FF0000C6FF077
:102CE000404BA7F1040A8046B146D8F8006058F876
:102CF000040F864215D006EB0B0249460AEB800E04
:102D000007EB820252F8043F03FB05C39645B1EC82
:102D1000027B04EBC30383ED007BF3D1801B09EB43
:102D2000C0090CF1010C6545DFD1BDE8F88F002D1D
:102D3000FBDDA8F10C08D4464FEAC9096FF0404BFF
:102D4000D044B646A7F1040ADCF800605CF8045FE2
:102D5000AE4213D006EB0B0271460AEB850007EB7F
:102D6000820252F8043FB1EC027B04EBC3038242BF
:102D700083ED007BF5D1AD1B0EEBC50EC4454C4475
:102D8000E2D1BDE8F88F00BFF0B5D1F804C05F68AC
:102D90000CF10205059C002F51F825600ADD043373
:102DA000A4F1040E03EB870753F8045FBB424EF80F
:102DB000045FF9D1002E15DD0B4B00EBC60E63440A
:102DC00001EB830C5CF8041FB0EC027B54F821305B
:102DD000864503F1010502EBC30344F8215083ED5E
:102DE000007BEFD1F0BD00BF0200004000000000FA
:102DF0002DE9F04F2DED108BADF2BC7D1C4603F597
:102E00008057D0F80090CDF8542703F6E87204F507
:102E10008C5BCDF89806CDF8A82641F27802CDF863
:102E200088169A18CDF8502641F218029A18CDF853
:102E3000AC2641F230029A18CDF8002641F2480241
:102E40009A18CDF8082603F58352CDF8D02503F55E
:102E50008952CDF8F02503F58A5203F58B53CDF84E
:102E6000F82504F59A52309304F59353CDF8502782
:102E70002D93B9F1000F0BF0BF87B2EE0B5BD0F8CA
:102E8000108099ED066B26EE056BB8F1000F0BF084
:102E9000038798ED0A3B9FEDFC4B99ED087B36EEDE
:102EA000436B27EE057B86EE046B8DEDDE6B98EDB4
:102EB0000C5B9FEDF56B98ED009B37EE457B0DF5B8
:102EC0008963B0EE490B87EE068B83ED008B6EF0C5
:102ED0009BFCB0EE40AB8DED180BB0EE490B6EF0E5
:102EE0001BFD9DEDDE7B8DED040B38EE077B8DED3C
:102EF000127B27EE0A7B8DED1C7BB9F1000F0BF0E6
:102F0000F586B6EE007B0DF58E6399ED002B9FEDF7
:102F1000E04B9FEDE15B22EE028B9FEDE16B99EDC3
:102F2000040B28EE044B28EE058B24EE075B28EEFD
:102F3000078B8DED284B85EE064B99ED021B9FED1F
:102F4000DA6B9FEDDBDB9FEDDC5B20EE066BB0EE1A
:102F500041CB9FEDDB3BA0EE05CB28EE033B8DED97
:102F6000661B8DED682B8DED143B9FEDD73B8DEDF2
:102F70002E0B28EE038B24EE0DDBB0EE414BA0EEC2
:102F8000454BB0EE425BA6EE475B8DED0E4B8DEDF3
:102F9000165BB0EE425BA6EE075B21EE007B8DED8B
:102FA000267B20EE027B8DED065B83ED007B32EE0F
:102FB000027B0DF5A06383ED007B9DED167B8CEE0F
:102FC000077BB0EE470B8DEDF47B6EF015FB30EE1A
:102FD00049EB9FEDC57B9FEDC66B3EEE477B27EE31
:102FE000067BB0EE470B8DEDE27B6EF005FB8DEDC1
:102FF000E40B6EF009FC9FEDC07B20EE077B8DEDAE
:103000001E7BB8F1000F0BF00C879FEDB17B9FED9D
:10301000B24B98ED14FB98ED125B9FEDB16B2FEE68
:1030200004FBB0EE474BA5EE067BA5EE464B98EDB4
:1030300002BBB0EE47AB8DED2A7B9FEDB10B34EEBA
:10304000087B38EE0A8B2BEE000B37EE4D7B38EE0B
:103050004D8B37EE4F7B8DED0C4B8DED087B6EF07D
:10306000CBFA9FEDA97B20EE070B6EF055FC38EEF6
:103070004F7B8DED540B8DED0A7B9FEDA57B9DED78
:10308000082B9FEDA75B9FEDA84B32EE472B9FEDE2
:10309000AA3B82EE078BB0EE457BB0EE445B9FED22
:1030A000A46B9FED9DABA8EE037BA8EE065B9DEDA8
:1030B0001E3B37EE0B4B23EE076B8DED6A7BB1EEBB
:1030C000457B8DEDD86B8DED027B23EE047B8DED82
:1030D0006C4B8DED205BB0EE47BBB0EE470B8DED3A
:1030E000E67B6EF089FAB0EE4B7B3BEE404B9DEDFC
:1030F000205B8DED6E4BA5EE447BB0EE470B8DED66
:10310000EA7B6EF079FA20EE0A7BB0EE470B8DED8C
:10311000F67B6EF079FBB0EE40BB9DEDD80B6EF008
:103120006BFA9DEDD86B9DED027B36EE405BA7EE12
:10313000056B8DED705BB0EE460B8DEDEE6B6EF0BA
:103140005BFA20EE0A7BB0EE470B8DEDF07B6EF064
:103150005BFB8BEE007B9FED7C6B8DED3A0B8DED79
:10316000327B9FED7B7BA8EE067BB8F1000F0BF066
:103170002F8698ED166B8DED026B9DED026B9DED2C
:10318000084B27EE065B9FED627B25EE04AB84EED9
:10319000076B9FED6B7B8DED725B8DED1AAB86EE51
:1031A000070B8DEDF80B6EF027FA30EE007B0DF576
:1031B000A363B0EE470B83ED007B6EF0ADFB9FED9C
:1031C000666B9FED717B9FED662B20EE060B9FEDEE
:1031D000726BAAEE067BB0EE476B8DED3C7B9FEDEC
:1031E000667B20EE077B87EE065B9FED656B9FEDB0
:1031F0005E7BA8EE067B3EEE076B9FED5D7BB5EE3A
:10320000C06BA8EE072BF1EE10FA8DED746B25EE76
:10321000067B8DED3E5B8DEDEC7B0BF18F854BF3EB
:1032200018869FED5B7B8DED567B9DED567B9DED6E
:10323000ECAB0DF5946322EE07BBB0EE4A0B9DEDAF
:10324000067B8DED76BB8CEE07CB83ED00CB6EF06D
:10325000D3F9B0EE4A7B3AEE406BABEE467B8DED98
:10326000786BB0EE470B8DEDFA7B6EF0C5F90DF57E
:10327000A2639FED497B20EE077BB0EE470B83ED09
:10328000007B6EF049FB9FE014AE47E17A14CE3F1D
:10329000CD5D4BC807BDF03F560E2DB29D2F0940A6
:1032A0007B14AE47E17AF83F52B81E85EB51F43FEC
:1032B0003BDF4F8D976EE23F7B14AE47E17AE83FEC
:1032C0007D7C7C7C7C7CDC3FC2C1C1C1C1C1E13F53
:1032D0006766666666B1844096969696969639407D
:1032E000753A9D4EA7D33E40AD2F12DA722EA53F00
:1032F000E5D022DBF9BE2840E7FBA9F1D2CD2B4077
:1033000066666666662630400EBE30992A18FF3F14
:103310000000000000408F400E2DB29DEFA7EE3F51
:10332000302DEA93DC6143BF8FE4F21FD26FF0BF10
:1033300037894160E5D0F43F26AB22DC645439BFC5
:10334000107A36AB3E57F23F234A7B832F4CDABFCD
:10335000CA54C1A8A44EFB3F00000000C0FEE3C059
:1033600093A98251499DCC3FE10D6954E0646BBF44
:10337000D5E76A2BF697E53FA4703D0AD7A3EA3F4D
:103380000F4757E9EE3A6BBF7B14AE47E17A843FB3
:10339000B09DEFA7C64BC7BFF38E53742497F13F80
:1033A000E08442041C4265BF5839B4C876BEAFBF42
:1033B00064247B849A21853F0ABFD4CF9B8A843FB3
:1033C00014AE47E17A14CE3F1FED0B6B1FED0A7B65
:1033D0008DED7A0BA8EE067B1FED0B6BB0EE475B15
:1033E0008DED7C7B1FED0C7BA8EE067BB0EE476B72
:1033F0008DED807BB2EE0E7B2EEE074B9DED087BB4
:103400008DEDFC4B25EE077B9DED025B25EE077BEA
:103410009DED1A5BA5EE007B25EE06ABB0EE440BEE
:10342000B0EE478B8DED7E7B8DED82AB6EF0E4F8D8
:103430000DF5A46383ED000B6EF0E6F9B0EE407B72
:103440008DED840B2AEE076BB0EE4C0B9DED547B9B
:1034500026EE076B9DED327BA7EE086B8DEDDA6BE8
:103460006EF0CAF830EE498B1FED617B1FED606B8B
:1034700038EE477B27EE067BB0EE470B8DEDFE7BEB
:103480006EF0BAF80DF5A66383ED000B6EF0BCF993
:103490001FED677B20EE077B8DED227BB8F1000FDF
:1034A0000BF09C8498ED04BB1FED6B0B2BEE000B17
:1034B0006EF0A2F81FED6C7B20EE070B6EF02CFA7D
:1034C0008DED580B1FED6E9B9DED0A3B1FED664B7E
:1034D0001FED6D6B33EE493B0DF580631FED6C7B8B
:1034E00083EE09EB1FED705B1FED75ABAEEE046B69
:1034F000AEEE075B9DED224BB0EE467B8DED866B0D
:1035000036EE0B6B24EE077BB1EE45CB8DED886B71
:1035100024EE066B8DEDDC7B8DED245BB0EE46BBBF
:10352000B0EE460B83ED006B6EF066F8B0EE4B6BC1
:103530003BEE404B0DF581639DED245B8DED8A4B99
:10354000A5EE446BB0EE460B83ED006B6EF054F8C5
:1035500020EE0A6B0DF5AB63B0EE460B83ED006B0E
:103560006EF052F9B0EE40BB9DEDDC0B6EF044F80E
:103570000DF582639DEDDC7B37EE406BACEE067B98
:103580008DED8C6BB0EE470B83ED007B6EF034F865
:1035900020EE0A7B0DF5AC63B0EE470B83ED007BAC
:1035A0006EF032F98BEE006B0DF583639DED0A5BD7
:1035B0008DED400B85EE097B8DED346B1FEDA06B1F
:1035C00087EE060B1FEDA06B1FED9F7BAEEE067B1B
:1035D0009DED026B26EE077B27EE059B8DED8E7B26
:1035E00083ED000B8DED109B6EF006F830EE007B46
:1035F0000DF5B463B0EE470B83ED007B6EF08CF9F4
:103600001FEDAB6B1FEDA07B1FEDAB4B20EE060B50
:103610001FED9F6BA9EE067BB0EE476B8DED427BF5
:103620001FEDAB7B20EE077B87EE063B1FEDAC6BFF
:103630001FEDB37BAEEE067B38EE075B1FEDB47B70
:10364000B5EEC05BAEEE074BF1EE10FA8DED905B80
:1036500023EE057B8DED443B8DEDF27B0BF17A8300
:103660004BF30B841FEDB67B8DED5A7B9DED5A7BA2
:103670009DEDF29B24EE07ABB0EE490B8DED92ABC6
:103680006DF0BAFFB0EE497B39EE406B0DF5846307
:10369000AAEE467B8DED946BB0EE470B83ED007B7D
:1036A0006DF0AAFF0DF5B5631FEDC57B20EE077B1E
:1036B000B0EE470B83ED007B6EF02EF90DF58563C0
:1036C0001FEDC96B1FEDC87B8DED960BAEEE067B33
:1036D0001FEDC96BB0EE475B8DED987B1FEDCA7B8C
:1036E000AEEE067BB0EE476B8DED9C7BB2EE0E7BB3
:1036F00028EE074B9DED0A7B83ED004B25EE077B03
:103700009DED025B25EE077B9DED105BA5EE007B3A
:1037100025EE069BB0EE440BB0EE478B8DED9A7B09
:103720008DED9E9B6DF068FF0DF5C96383ED000B79
:103730006EF06AF829EE006B0DF58C639DED587BF9
:103740008DEDA00B26EE076B9DED347BA7EE086B8D
:103750009DEDDA7B83ED006B37EE064BB9F1000F80
:103760000BF01483B2EE0B6B99ED0A7B27EE067B10
:10377000B8F1000F0BF0958399ED0C5B25EE065B1D
:1037800098ED0E6B37EE467B1FEDF36B87EE063B35
:1037900098ED107B1FEDF66B35EE475B85EE067BF3
:1037A0000DF5906337EE436BB6EE002B33EE077BDF
:1037B00026EE026B9FEDFA5B26EE056B83ED006B48
:1037C000DDF88836D3F80090B9F1000F15D09DEDE3
:1037D000046B9DED1C3B9FEDF45BA4EE463B9DED21
:1037E000286B33EE077B37EE467B87EE056B9DED4E
:1037F000267B36EE076B89ED006B9DED127B9DED10
:10380000046B0DF5866327EE066B9DED187BA4EE29
:10381000076B9DED0E7B8DEDE06B9DED166B87EEDE
:10382000067BB0EE470B83ED007B6DF0E5FE0DF5FA
:103830008763B0EE408B9FEDDE7B9FEDDF6B30EE5C
:10384000477B27EE067BB0EE470B83ED007B6DF0E8
:10385000D3FE0DF5CB6383ED000B6DF0D5FF9FED2F
:10386000D87B20EE077B8DED267BB8F1000F0BF0A7
:10387000778298ED069B9FEDD40B29EE000B6DF03F
:10388000BBFE9FEDD37B20EE070B6EF045F88DED70
:103890005C0B9DED0C7B9DED146B9FEDCFCB9FEDF5
:1038A000D4BB37EE060B0DF588639FEDCF7B30EE72
:1038B0000D0B9FEDD56B30EE0F5B9DED261BB0EE33
:1038C000454B9FEDCF5B8DED0C4B34EE4C4B84EEB6
:1038D0000CEBAEEE057BAEEE06BB37EE092B8DEDA5
:1038E000A27B21EE026B21EE077BB0EE46ABB0EE81
:1038F000460B8DEDE87B83ED006B8DEDA42B8DEDFC
:103900001CBB6DF079FEB0EE4A6B3AEE402B0DF524
:103910008D63B1EE4BBB9DED1C3B9FEDBD9B8DEDD3
:10392000A62BA3EE426BB0EE460B83ED006B6DF061
:1039300063FE20EE096B0DF5CC63B0EE460B83ED14
:10394000006B6DF061FFB0EE40AB9DEDE80B6DF0EC
:1039500053FE0DF58B639DEDE87B37EE406BABEED0
:10396000067B8DEDA86BB0EE470B83ED007B6DF011
:1039700043FE20EE097B0DF5CD63B0EE470B83EDE2
:10398000007B6DF041FF8AEE006B0DF58F639DEDBE
:103990000C5B8DED460B85EE0C7B8DED366B9FED54
:1039A0009E6B87EE060B9FED9E6B9FED9F7BAEEEB1
:1039B000067B9DED026B26EE077B25EE079B8DEDCA
:1039C000AA7B83ED000B8DED129B6DF015FE30EEA2
:1039D000007B0DF5CE63B0EE470B83ED007B6DF001
:1039E0009BFF9FED937B9FEDA26B20EE070B9FED5E
:1039F000947BA9EE067B9FED909BB0EE476B8DED1F
:103A0000487B9FED977B20EE070B9FED937B80EE2D
:103A1000065B9FED8D6BAEEE067B38EE076B9FED80
:103A20008C7BB5EEC06BAEEE079BF1EE10FA8DED20
:103A3000AC6B25EE06AB8DED4A5B0BF185814BF34C
:103A400012829FED897B8DED5E7B9DED5E7B9DED12
:103A5000066B0DF59363B0EE4A0B29EE079B9DEDC7
:103A60000E7B8DEDAE9B87EE06BB83ED00BB6DF04C
:103A7000C3FDB0EE4A7B3AEE406B0DF59163A9EEC3
:103A8000467B8DEDB06BB0EE470B83ED007B6DF0A8
:103A9000B3FD0DF5CF639FED767B20EE077BB0EE97
:103AA000470B83ED007B6DF037FF0DF592639FEDC3
:103AB000726B9FED737B8DEDB20BAEEE067B9FEDCF
:103AC000726BB0EE475B8DEDB47B9FED717BAEEE1C
:103AD000067BB0EE476B8DEDB87BB2EE0E7B28EE29
:103AE000074B9DED0C7B83ED004B27EE057B9DED99
:103AF000025B25EE077B9DED125BA5EE007B25EEBC
:103B0000069BB0EE440BB0EE478B8DEDB67B8DED92
:103B1000BA9B6DF071FD0DF5D06383ED000B6DF078
:103B200073FEB0EE407B9DED5C6B29EE077B8DED67
:103B3000BC0BB0EE4B0B27EE067B9DED366BA6EE75
:103B4000087B8DED647B6DF057FD0DF595639FED62
:103B5000187B9FED196B8DED520B30EE477B27EEF6
:103B6000067BB0EE470B83ED007B6DF045FD0DF558
:103B7000D76383ED000B6DF047FE9FED117B20EEC8
:103B8000077B8DED287BB8F1000F0BF0198198EDC4
:103B9000089B9FED0D0B29EE000B6DF02DFD8BE0CA
:103BA00052B81E85EB51F43F0000000000E0704069
:103BB000AD2F12DA722EA53FE5D022DBF9BE2840E8
:103BC000E7FBA9F1D2CD2B406666666666263040DB
:103BD0000EBE30992A18FF3F0000000000408F40C1
:103BE0000EBE30992A18FF3F302DEA93DC6143BFA7
:103BF0008FE4F21FD26FF0BF0000000000408F4042
:103C000026AB22DC645439BF37894160E5D0F43FEC
:103C10000E2DB29DEFA7EE3F107A36AB3E57F23F26
:103C2000234A7B832F4CDABFCA54C1A8A44EFB3F62
:103C300000000000C0FEE3C093A98251499DCC3F23
:103C40007B14AE47E17A843F0F4757E9EE3A6BBFEA
:103C5000D5E76A2BF697E53FE10D6954E0646BBF49
:103C6000A4703D0AD7A3EA3FB09DEFA7C64BC7BFDC
:103C7000F38E53742497F13FE08442041C4265BFE5
:103C80005839B4C876BEAFBF64247B849A21853F7F
:103C90000ABFD4CF9B8A843F0000000000E0704040
:103CA00000000000000069407B14AE47E17AE83F65
:103CB00052B81E85EB51F43F1FED377B20EE070B0A
:103CC0006DF02AFE8DED600B9DED147B9DED2A6B52
:103CD0001FED3BBB1FED3ACB37EE064B1FED386BAC
:103CE00034EE0D4B1FED3CDB34EE0F5BB0EE4CFBC6
:103CF0008DED0E5B35EE4D5B1FED3D7B85EE0D8B47
:103D00009DED284BA8EE06BBA8EE07FB3BEE096B2A
:103D100024EE0BEB24EE06CB8DEDBEBB8DED2AFB26
:103D2000B0EE4C0BB1EE4FBB8DEDC06B6DF064FC93
:103D3000B0EE4C4B3CEE406B1FED4B9BAFEE464B59
:103D40008DEDC26BB0EE440BB0EE44FB6DF054FC55
:103D500020EE097B0DF5E063B0EE470B83ED007BB1
:103D60006DF052FD8DED140BB0EE4E0B6DF044FC7A
:103D70003EEE407B0DF59863B0EE476B8DEDC47B56
:103D8000B0EE4E7BABEE067BB0EE470B83ED007BD7
:103D90006DF032FC20EE097B0DF5E163B0EE470BD0
:103DA00083ED007B6DF030FD9DED146B9DED0E5BA2
:103DB0008DED4C0B86EE006B85EE0D7B8DED386B3B
:103DC0001FED6B6B87EE06DB1FED6B6B1FED6A7BE8
:103DD000A8EE067B9DED026B26EE077B25EE079B8A
:103DE0008DEDC67BB0EE4D0B8DED149B6DF004FC9C
:103DF00030EE007B0DF5E263B0EE470B83ED007B08
:103E00006DF08AFD1FED767B1FED676B1FED761B56
:103E100020EE070B1FED767BA9EE067BB0EE476B1D
:103E20008DED4E7B1FED727B20EE070B1FED767B39
:103E300080EE064B1FED7C6BA8EE067B9DED526B72
:103E400036EE075B1FED7E7BB5EEC05BA8EE071B71
:103E5000F1EE10FA8DEDC85B24EE05BB8DED504BF5
:103E60000AF166874BF313801FED817B8DED627B3A
:103E70009DED627BB0EE4B0B21EE079B8DEDCA9B57
:103E80006DF0BAFBB0EE4B3B3BEE407B0DF58A6329
:103E9000A9EE473B8DEDCC7BB0EE430B83ED003BB1
:103EA0006DF0AAFB0DF5E3631FED8F7B20EE077B22
:103EB000B0EE470B83ED007B6DF02EFD1FED926B96
:103EC0001FED917B9DED524B8DEDCE0BA8EE067B49
:103ED0001FED936BB0EE475B8DEDD07B1FED947BB8
:103EE000A8EE067BB0EE476B8DEDD47BB2EE0E7B79
:103EF00024EE078B9DED0E7B27EE057B9DED025B8F
:103F000025EE077B9DED145BA5EE007BB0EE480B24
:103F1000B0EE479B8DEDD27B25EE067B8DED527B7F
:103F20006DF06AFB0DF5E46383ED000B6DF06CFC46
:103F30000DF58A639DED527B9DED606B93ED003B2B
:103F400027EE007B8DEDD60B27EE067B9DED386BC3
:103F5000A6EE097B9DED646B36EE077BB9F1000F91
:103F60000AF024870DF58E639DEDE06B1FEDB65BC7
:103F700036EE074B84EE056B93ED005B36EE456B3A
:103F800089ED026BB8F1000F0AF0A28798ED185B7B
:103F90001FEDBD6B25EE066B8DED646BB9F1000F67
:103FA0004CD00DF589630DF5906293ED006B9DED9E
:103FB000DE5B0DF58C6336EE455B9DEDDA4B93EDE4
:103FC000006BDDF8983636EE446BDB689DED184BE0
:103FD00025EE045B9DED044BA6EE445B1FEDCE4B3E
:103FE0009DEDE06B26EE046BA7EE446BB6EE007B16
:103FF00025EE075B1FEDD27BA5EE076B92ED007BF4
:1040000036EE076B9DED647B86EE077B89ED047BC6
:10401000002B0AF0AD86D3E90001B9F1000F0DD0F5
:10402000C9E90601D3E90201C9E90801D3E904019C
:10403000C9E90A01D3E90623C9E90C23DDF898365A
:1040400004F6D80A596800290AF03787534601F563
:10405000C4722D9D309EF1E802898A42E3E802890C
:10406000F9D12D95309604F526630AF130082D9D7F
:104070001A46CDF8A036309E5346D3F800E01033F0
:1040800053F80CCC103253F8080C53F8041C434579
:1040900042F810EC42F80CCC42F8080C42F8041C30
:1040A000EBD119685B681160536004F5116304F685
:1040B0004812F3E802019342C3E96001F9D104F523
:1040C00018622D953096F3E802019342C3E960012E
:1040D000F9D104F608322D953096CDF8B02704F6C4
:1040E000B812F3E802019342C3E96001F9D104F583
:1040F00034622D953096CDF8042604F51F62F3E85E
:1041000002019A42C3E96001F9D1134604F67832FC
:104110002D95CDF8B42704F628223096F3E8020155
:104120009342C3E96001F9D104F53B622D953096C5
:10413000CDF8D825DDF8A026F3E802019A42C3E9BC
:104140006001F9D104F52861B2EE0B5B309604F5FD
:1041500031660DF59B6304F52962CDF8D86604F548
:10416000326604F579602D95CDF8DC6604F533668A
:1041700004F57A65CDF8AC07CDF88C6604F5815668
:10418000CDF8C0560546CDF8D46604F5356604F57D
:104190007F6041F27009CDF8E06604F53666CDF82F
:1041A000C80641F21000CDF8E46604F53766201821
:1041B00041F29008CDF8E86604F53866CDF8D006EF
:1041C000A044CDF8EC6604F53966A144CDF89066BC
:1041D00004F53A6691ED007B11ED026B9FEDFC2B2F
:1041E00027EE057B0DF5C261CDF8F06604F53C665F
:1041F00026EE059BCDF8F46604F53D6627EE024BEE
:10420000CDF8F86604F53E66CDF8FC6641F2A806E6
:1042100081ED009B0DF5C361A61983ED003B04F50C
:10422000276381ED004BDDF8A01693ED007B91ED47
:10423000009B0DF5B06181ED007B12ED027B13ED6B
:10424000023B0DF58E6327EE056B83ED003B0DF50C
:10425000C5639DEDF00B83ED006B92ED001B0DF53A
:10426000D66383ED001B6DF057FB0DF5B963B0EE1F
:10427000406B83ED009B0DF5A06393ED004B0DF5B6
:104280008E6393ED003B0DF5B06329EE047BB7EE32
:10429000009B93ED001B9FEDE84B0DF5A563A1EE90
:1042A000043BB0EE491BB0EE494B9DEDE25B8DED5A
:1042B000DA6BB0EE496B83ED003BB0EE493B0DF598
:1042C00082639DEDEA2BA5EE053B9DEDD85B9DED50
:1042D000E40BA5EE051B9DEDEE5B8DEDDE3BB0EE38
:1042E000493BA5EE056B9DEDE65B8DEDE01BB0EE69
:1042F000491BA5EE053BB0EE495B8DEDE26BA2EEEE
:10430000025BB0EE496B8DEDE43BB0EE493B9DEDB9
:10431000FE2B8DEDE65B9DEDF85BA5EE051B9DED9F
:10432000EC5BA5EE053B9DEDFA5B8DEDEA1BB0EE77
:10433000491BA5EE054B9DEDFC5B8DEDEC3BB0EE16
:10434000493BA5EE056BB0EE495B8DEDEE4BA2EE61
:10435000025BB0EE494B9DEDDC2B8DEDF06BB0EECA
:10436000496BA2EE021BB0EE492B8DEDF85B93ED8D
:10437000005B0DF58063A5EE052B8DEDFA1BB0EE0D
:10438000491B8DEDFC2B93ED002B0DF58163A2EE07
:10439000026B93ED002B0DF58063A2EE021B9DEDE9
:1043A000F22B8DEDFE6BB0EE496B83ED001B0DF52E
:1043B0008363B0EE491B93ED005B0DF58263A5EEC0
:1043C000053BB0EE495BA2EE025B83ED003B0DF5D1
:1043D0008363B0EE493B83ED005B0DF5846393EDA1
:1043E000002BA2EE024BB0EE492B83ED004B0DF5F6
:1043F0008563B0EE494B93ED005BA5EE052B83ED95
:10440000002B0DF5876393ED002B0DF58963A2EE6C
:10441000021B9DEDE82BA2EE023B83ED001B0DF588
:104420008A63B0EE491B83ED003B0DF58B6393ED82
:10443000002BA2EE026B83ED006B0DF58863B0EEEE
:10444000496B93ED002B0DF58C63AAEE0A6BA2EE7F
:10445000024BB0EE492BB0EE49AB83ED004B0DF5AE
:104460008D6393ED005BA5EE052B83ED002B0DF521
:104470008F6393ED005BA5EE051B83ED001B0DF52F
:10448000906383ED006B0DF5916393ED005BA5EEFA
:1044900005AB83ED00AB0DF59263B0EE49AB93ED48
:1044A000005BA5EE05AB83ED00AB0DF59563B0EEBB
:1044B00049AB93ED005B0DF59663A5EE05AB83ED7F
:1044C00000ABB0EE49AB0DF59763AEEE0EABB0EEC0
:1044D00049EB83ED00AB0DF5986393ED005BA5EE22
:1044E00005EB83ED00EBB0EE49EB0DF59963ACEE17
:1044F0000CEBB0EE49CBAFEE0FCB83ED00EB0DF53F
:104500009A639FED35FB83ED00CBB0EE49CB0DF503
:104510009C6327EE0FABADEE0DCBB0EE49DB9FED0C
:1045200030FBABEE0BDBB0EE49BB83ED00CB0DF502
:104530009D6383ED00DB0DF59B6393ED003B0DF573
:104540009E63A3EE03BB9FED28DB27EE0DDB83ED1F
:1045500000BBB0EE49BB0DF59F63A8EE08BBB6EEFD
:10456000008B2AEE08AB83ED00BB2DEE08BB0DF5EA
:10457000E66383ED00DB9FED1EDB6DF0CDF90DF5FD
:10458000A563B0EE407B2BEE0DBB9DEDF4EB9DEDF6
:10459000161B2BEE0FCBB0EE49BB8EEE016BAEEED1
:1045A0000EBBB0EE4CFB93ED00DB0DF5B0639FED61
:1045B000123B93ED00EB9DED3A2B8DEDDC7B2EEE67
:1045C000035B0DF5B9638DEE017B65E0AFF3008011
:1045D000C4E40A6272051140560E2DB29D2F0940A7
:1045E0003BDF4F8D976EE23FCD5D4BC807BDF03F7F
:1045F000953FEA943FEAE43F52B81E85EB51F43F01
:10460000C2C1C1C1C1C1E13F37894160E5D0F43FBA
:104610000E2DB29DEFA7EE3FFCA9F1D24D62503FA7
:10462000F38E53742497F13F26AB22DC645439BFD8
:10463000C4E40A62720511407B14AE47E17AE83F98
:10464000E5D022DBF9BE28407D7C7C7C7C7CDC3F95
:1046500071AF30A478EAEB3FD5E76A2BF697E53FD8
:10466000E08442041C4265BF64247B849A21853F18
:10467000E7FBA9F1D2CD2B40234A7B832F4CDABF35
:1046800000000000C0FEE3C0A4703D0AD7A3EA3FCB
:104690000F4757E9EE3A6BBF1FED27EB9DEDF60B89
:1046A0001FED273B9AEE0EFB9DED32EB1FED28DB55
:1046B0008EEE02EB8DEDD8EB93ED00EB0DF5AD63D7
:1046C000B0EE4E4BA5EE08EBA5EE484BB1EE468B97
:1046D000B0EE435B83ED00EB0DF5E863A6EE447BA3
:1046E00083ED004B0DF5B16383ED008B0DF5A163F8
:1046F00087EE0B7B83ED00BB0DF5946393ED006BB0
:104700001FED3BBB0DF581632FEE0B8B1FED3CEBDB
:104710008DEDF47BB0EE497BA6EE067B9DED406B04
:104720008DEDF67B9DED347B87EE067B1FED426BB6
:1047300028EE062B83ED002B28EE032B0DF5876367
:104740001FED3D3B83ED002B0DF5A7638DEDF27B57
:1047500028EE037B1FED3E3B83ED007B1FED427B8C
:1047600028EE034B0DF5A86328EE072B83ED002BF5
:104770001FED432B0DF5A96383ED004B28EE024B93
:104780000DF5AA631FED562B83ED004B0DF5C363AA
:1047900093ED004B0DF5C26393ED007B0DF5E563E2
:1047A000A7EE024B83ED004B0DF58E6393ED007B7E
:1047B0000DF5B0631FED604B93ED002B0DF5AF636E
:1047C000A2EE447B83ED007B0DF58663B0EE497B62
:1047D00093ED003B0DF58863A3EE037B83EE014B65
:1047E0001FED693B83ED007B0DF5936393ED001B9B
:1047F0000DF59563A1EE019B83ED009B9DED069B5E
:104800000DF5866381EE099B9DEDDC1BB0EE492B17
:104810001FED739BAAEE09CB9DED469B9DED36AB3C
:104820008AEE09AB2CEE0BBB9DED389B2BEE066B95
:104830002BEE055B83ED00AB9DED4CAB0DF593636B
:1048400089EE0A9B9DEDF4AB2AEE037B9DEDDEAB7A
:1048500087EE0AAB83ED009B0DF59B631FED849BF8
:1048600083ED006B0DF5AE631FED856B83ED005B93
:104870002BEE095B0DF5B6632BEE063B21EE0AAB82
:1048800083ED005B0DF5C66383ED003B1FED8C3BB4
:104890001FED8B9B0DF5C7632BEE035B2BEE093BE6
:1048A00083ED005B1FED8E1B0DF5C86383ED003BB0
:1048B0000DF5B7632AEE01ABB1EE443B83ED004B3F
:1048C0000DF5BC639DED6A5B83ED003B0DF5B863B0
:1048D000B1EE423B2AEE457B83ED002B0DF5BD6327
:1048E00083ED003B0DF581639DED1E4B93ED003B89
:1048F0009DEDE01B0DF58763A4EE037B87EE016B56
:104900009DED201B9DED703B93ED005B37EE466BFC
:1049100021EE066BA3EE056B37EE466B9DEDE27B59
:1049200086EE079B9DEDDA6B29EE0D9B26EE099B2B
:104930006CF0F2FF0DF5A263B0EE405B9DED6C6B89
:1049400093ED000B0DF581632AEE467B93ED003B62
:104950009DED1EAB9DED722B9DED084BAAEE037BEA
:104960000DF5E76322EE0F3B9DEDE42B1FEDBEAB93
:1049700087EE026B28EE0A1B9DED02AB2AEE011BAF
:104980009DED20ABA1EE043B83ED001B0DF5B26362
:1049900083ED003B0DF587639DED6E3B37EE466B77
:1049A00093ED002B2AEE066B0DF5A26383ED005B01
:1049B0000DF5B363A3EE026B9DED3A2B37EE467B0C
:1049C0009DEDE66B87EE066B26EE0D7B25EE077BF5
:1049D00087EE026B9DEDD87B97EE096B83ED006B44
:1049E0006CF012FF0DF5A363B0EE407B93ED000B6E
:1049F0008DEDE87B6CF008FF0DF5A463B0EE407B15
:104A000093ED000B0DF5A763B0EE473B93ED001B54
:104A10009DEDEA9B1FEDE66B9DED3C2B81EE097B46
:104A20000DF5A3631FEDE89B9DED3E4B9DEDF41B43
:104A300083ED003B0DF5B26337EE077B23EE077B7A
:104A400093ED003B27EE067B84EE026B27EE097B9D
:104A50001FEDF19B87EE025BA8EE091B24EE017BA4
:104A600023EE0E4B9DED741BA6EE445BA1EE057B81
:104A7000B1EE465B83ED005B0DF5A86393ED00ABF3
:104A80009DED566B0DF5A9632AEE064B9DED081BB7
:104A900093ED00AB0DF5AA632AEE015B9DED7CABB7
:104AA0009DED1A2B93ED001BAAEE0F5B0DF5B36382
:104AB00022EE019B9DEDECAB9DED801B87EE0A6B1A
:104AC000A1EE039B9DED761B9DED78AB37EE466B1B
:104AD00021EE066BAAEE046B9DEDEE4B37EE467BA6
:104AE00087EE04AB9DEDE87B93ED004B2AEE0EAB19
:104AF00027EE0AAB9DED7A7B22EE0AABA7EE03AB65
:104B00009DED027B9DED323BA7EE05AB23EE0AAB9C
:104B10009DED7E3BA3EE04AB6CF0FEFE0DF5AC63A9
:104B2000B2EE0E6B9DEDF45B9DEDF07B9DED823B57
:104B300025EE066BB0EE405BB0EE4A1B86EE077BBF
:104B40009DED844B93ED000B0DF5A46383ED005BAD
:104B50000DF5C46325EE077B27EE437B9DED543BAB
:104B6000A4EE097BA7EE031B83ED001B6CF0D4FEC3
:104B70000DF5A663B0EE406B93ED000B8DEDF46B7D
:104B80006CF0CAFE0DF5946393ED00AB0DF5A563D3
:104B90009DED067B93ED004B0DF5AB638AEE076B45
:104BA00084EE077BB0EE404B93ED000B0DF5AD634B
:104BB00093ED003B0DF5B3639DEDFC9BB1EE465BC1
:104BC00083ED005BA6EE437B0DF594639DEDF63B14
:104BD00087EE031B9FEDFE3B21EE037B9DEDF83B33
:104BE00083ED001B9FEDFC1B87EE03AB0DF5A5636A
:104BF00083ED004B0DF581639DED223B93ED005B52
:104C00000DF5876324EE0AAB9DEDFA4B2AEE01AB5E
:104C10009DED861B2AEE417B93ED001BA3EE057BE9
:104C20009DED8C5B87EE046B9DED244B37EE466B60
:104C300024EE066BA5EE016B9DEDF41B37EE466B83
:104C400086EE099B29EE0D9B21EE099B6CF064FE1C
:104C50000DF58163B0EE404B9DED886B9DED223BE1
:104C60009DEDFE5B2AEE467B93ED00AB0DF5B56343
:104C7000A3EE0A7B9DED8EAB93ED000B0DF5E76384
:104C80002AEE0FAB87EE056B93ED001B9DED0A3B03
:104C90000DF58763A1EE03AB9DED241B93ED002B77
:104CA0009DED8A5B0DF5806337EE466B21EE066B5A
:104CB000A5EE026B93ED002B0DF5A66383ED004B83
:104CC0009DEDF25B37EE467B0DF5876387EE026B59
:104CD00026EE0D7B24EE077B9DED404B87EE046BAB
:104CE00095EE096B83ED006B6CF08EFD0DF5B463F2
:104CF000B0EE407B93ED000B0DF5816383ED007BFF
:104D00006CF082FD0DF5A763B0EE403B93ED007BA8
:104D10000DF5826393ED009B0DF5946387EE097B9F
:104D200093ED000B9FEDB89B0DF5A863A8EE090B62
:104D30009DED5A8B9DED102BB0EE406B93ED000B6B
:104D40000DF5A96320EE084B93ED008B9DED0A0B4A
:104D50000DF5AA6337EE077B28EE001B23EE077BD9
:104D60009DED980B9DED448BA0EE0F1B28EE066B7E
:104D700093ED000B9DED9CFB0DF5C96322EE009BAE
:104D800093ED000B0DF5A763AFEE0A9B9FED9CFB27
:104D900083ED003B9DED423B27EE0F7B0DF5B463A9
:104DA0009FED95FB27EE0F7B9DED90FB87EE035B60
:104DB00088EE037B2AEE0E3B9DED948BA7EE435BC2
:104DC000AFEE056BB1EE47FB83ED00FB0DF58363A2
:104DD00093ED00FB0DF5846386EE0F7B9DED92FB5A
:104DE00036EE477B2FEE077B93ED00FB0DF58163DD
:104DF000A8EE047B36EE476B9DED9A7B86EE0F8B1B
:104E000093ED00FB0DF5876328EE0E8B2FEE088BDC
:104E10009DED96FB22EE088BAFEE0A8B9DED02AB6B
:104E20009DED34FBAAEE018B2FEE088B93ED00FB7A
:104E3000A7EE0F8B6CF070FD0DF59463B2EE0E6B68
:104E4000B0EE401B93ED007B0DF5D66327EE066BAD
:104E5000B2EE0B7B93ED000B0DF5CD6320EE075BFF
:104E600093ED000B0DF5856393ED00FB9FED5C2B3F
:104E70000DF5A86386EE0F7B25EE02FB9DED9E6B84
:104E80009DEDA05BB0EE4F3BB0EE48FB83ED001B09
:104E90000DF5CD639DED588B83ED003B0DF5C5639E
:104EA00021EE077B27EE467BA5EE097BA7EE08FBEC
:104EB000B0EE438B93ED007B0DF5B063A7EE028B54
:104EC000B0EE4F1B93ED007B0DF58E639DED2EFB39
:104ED000B0EE485B9DED668B27EE086B93ED008B83
:104EE0000DF5E563A8EE0F6B93ED008B9DED04FBD4
:104EF0000DF5C46328EE0F4B93ED007B0DF5E763D2
:104F0000B0EE442B37EE017B83ED001B9DED181BAB
:104F10000DF5E563A7EE012B2FEE477BA8EE017B95
:104F200083ED002B0DF5E66393ED008B0DF5D66355
:104F300037EE057B37EE487B9FED2B8BA7EE086B9A
:104F400083ED006B6CF0E8FC0DF5CB63B0EE407BBD
:104F500093ED000B0DF5876383ED007B6CF0DCFCBB
:104F60000DF5CC63B0EE407B93ED000B0DF5AF6318
:104F7000B0EE47FB93ED008B9DED165B0DF5B7632F
:104F800088EE057B93ED008B0DF5E86393ED002B28
:104F90000DF588639FED0E6B9FED0F1B9DED1C5B68
:104FA000A2EE487B93ED008B0DF5896387EE083BFD
:104FB00093ED008B0DF5A96383ED00FB0DF59B636D
:104FC00023EE067B93ED006B2AE000BFAFF3008079
:104FD000E5D022DBF9BE2840E7FBA9F1D2CD2B407A
:104FE000C4E40A627205114074E501C93A576E3F84
:104FF000234A7B832F4CDABFA4703D0AD7A3EA3F34
:1050000000000000C0FEE3C00F4757E9EE3A6BBF57
:10501000E7FBA9F1D2CD2B40E5D022DBF9BE284039
:105020000DF58A6387EE089B9DEDA27B93ED008BC7
:105030000DF5AE6393ED002B0DF58B638DED023B0B
:105040002FEE099B9DED26FB29EE019B29EE477B68
:10505000AFEE067B87EE086B9DEDA88B37EE466BB7
:1050600025EE066BA8EE026B93ED008B0DF58763C2
:1050700037EE466B93ED007B86EE088B28EE0D8BAA
:1050800027EE088B6CF048FC0DF5CF63B0EE401BAB
:105090001FED295B9DEDA47B93ED000B2BEE052B03
:1050A0000DF59B6329EE477B2AEE022B93ED006BF7
:1050B0000DF5CB63AFEE067BB0EE4AFB9DEDAAABE0
:1050C00083ED002B0DF58C632AEE0C9B9DED0CAB54
:1050D0009DED1C3B9DEDA64BAAEE029B93ED00AB14
:1050E0000DF5AE6387EE0A6B93ED002B0DF58D6326
:1050F00093ED00AB0DF5AA6383ED001B0DF5866300
:1051000037EE466B23EE066BA4EE026B9DED464B2D
:1051100037EE467B87EE0A6B1FED49AB26EE0D7B23
:1051200021EE077B87EE046B93ED007B0DF5946316
:1051300097EE086B83ED006B6CF066FB0DF5CE63AC
:10514000B0EE407B93ED000B0DF58E6383ED007B9D
:105150006CF05AFB0DF5D063B0EE407B93ED000B85
:105160000DF5B663B0EE476B93ED005B0DF58F6305
:1051700093ED007B1FED5E3B9DED488B85EE077B3D
:105180000DF5AB6383ED006B0DF5AC639DEDAC2BC2
:1051900037EE077B26EE077B27EE037B9DED023B78
:1051A00027EE0A7BB0EE434B9DED4AAB87EE085BE2
:1051B0008AEE086B1FED6C8B83ED003B0DF5B5633C
:1051C000ABEE084B9DED123B9DED0C8B2AEE047B64
:1051D00029EE0E4BA6EE445BB1EE464B9DEDB86B4F
:1051E00083ED004B0DF5C663A2EE057B93ED001B2E
:1051F0009DED5E5B0DF5C76321EE054B93ED001B46
:105200000DF5C86393ED002B28EE015B0DF590635F
:1052100023EE028B93ED00AB9DEDB41BA6EE098B44
:105220000DF5916387EE0A6BA1EE0C5B9DEDAE2B45
:105230009DEDB01B8DED02FB37EE466B22EE066B4B
:10524000A1EE046B93ED004B0DF58E6337EE467BBC
:1052500087EE04AB93ED007B0DF5946393ED006B4B
:105260002AEE0EAB27EE0AAB9DEDB27B23EE0AAB26
:10527000A7EE09AB9DED369BAFEE05AB29EE0AAB71
:105280009DEDB69BA9EE06AB6CF046FB0DF5AC634D
:10529000B2EE0E9BB0EE406B93ED003B0DF5E1637B
:1052A00023EE093B93ED000B0DF5926393ED009B0C
:1052B0009DED5C2B0DF5AC6383EE097B9DEDBA9BF8
:1052C00083ED006B26EE077B27EE497B9DEDBC9BB3
:1052D000A9EE087BA7EE02AB6CF01EFB0DF5D763C1
:1052E000B0EE407B93ED000B0DF5946383ED007BF6
:1052F0006CF012FB0DF5AF63B0EE4AFB93ED005B73
:105300009DED067B0DF5AD6385EE077BB0EE405B52
:1053100093ED009B0DF5B86393ED006B0DF5E06325
:1053200093ED000B0DF595631FEDC71B9DED28ABAD
:105330009DED2A4BA9EE467B93ED009B1FEDCA6BBA
:105340000DF5C96387EE099B29EE067B83ED009B73
:105350000DF5966393ED009B0DF5AD6387EE099B0C
:105360009DEDBE7B83ED005B0DF59B6325EE099BF8
:1053700029EE019B93ED001B0DF5976329EE477B0A
:1053800093ED008B0DF5AE63AAEE017B9DEDC41B82
:1053900087EE086B93ED008B0DF5986337EE466B47
:1053A00024EE066BA1EE086B37EE466B93ED007BA7
:1053B0000DF5946386EE078B93ED001B28EE0D8BA5
:1053C00021EE088B6CF0A8FA0DF59B639DEDC07B78
:1053D00093ED003B0DF5E36329EE477B9DEDC69B06
:1053E0009DED0E6BAAEE037BB0EE40AB29EE0C9B5D
:1053F00093ED000B0DF5CB6393ED002B0DF5996349
:1054000093ED005BA6EE029B0DF5AE6387EE056B98
:105410009DED2A4B93ED001B9DEDC23B0DF59A636C
:1054200037EE466B24EE066BA3EE016B93ED001B8B
:105430000DF5AE6383ED00AB0DF5936337EE467B60
:1054400087EE016B9DED4C1B26EE0D7B2AEE077B54
:1054500087EE01AB93ED001B91EE08AB6CF0D4F935
:105460000DF5E263B0EE407B93ED000B0DF59B6311
:1054700083ED007B6CF0C8F90DF5B66393ED005B2E
:105480000DF59C6393ED008B0DF5C96385EE086BFC
:10549000B0EE405B93ED002B9FEDFB0B0DF5C6636B
:1054A000ABEE002B93ED000B9DED62BB0DF5C763DA
:1054B00020EE0B4BB0EE427B93ED000B9DED0EBB4F
:1054C0000DF5C8632BEE002B36EE066B9DED141B1D
:1054D00093ED000B9DEDD0BB25EE066B0DF5E4635F
:1054E000ABEE0C2B21EE00BB9FEDE93B93ED000BE7
:1054F0009DED508B26EE036B0DF5AF6328EE077B19
:105500009DEDD4CB9DED4E3B83ED005BACEE09BB36
:105510000DF5B6639FEDE0CB26EE0C6B9DEDC8CB91
:1055200086EE035B88EE036B29EE0E3BA6EE435B33
:10553000ACEE057BB1EE46CB83ED00CB0DF59D6364
:1055400093ED00CB0DF59E6387EE0C6B9DEDCACB02
:1055500037EE466B2CEE066B9DEDCCCBACEE046BC0
:1055600093ED00CB0DF59B6337EE467B87EE0C8BFE
:1055700093ED00CB28EE0E8B2CEE088B9DEDCECB61
:1055800021EE088B9DED021BACEE098B9DED38CB17
:10559000A1EE028B6CF0C0F90DF5C3630DF5D66278
:1055A000DDF8500604F52A6C04F52B6E04F52F6126
:1055B0009FEDBB2B2CEE088B9DEDD2CBACEE0A8B76
:1055C00093ED00CB0DF5C26393ED009B0DF5C46325
:1055D000A9EE42CBB0EE4C5B93ED00CB0DF5E7634B
:1055E00093ED001B0DF5CD6331EE4CABB0EE401BDF
:1055F00093ED00CB0DF5C56393ED009B0DF5C963ED
:10560000A9EE42CBB2EE0E9B9DED680BB0EE4C6B5B
:1056100093ED00CB0DF5B0632CEE094B93ED00CB71
:105620000DF5B96320EE0C3B93ED000B9DED2ECBF9
:105630000DF59F63A0EE0C3B93ED000B0DF5B063F1
:1056400084EE007B92ED000B9DED04CB9DED189B4D
:1056500083ED001B85ED000B9DED520B2CEE4AAB4C
:105660000DF5E565CDF8A46741F2D80604F52C6385
:1056700004F52D62A619CDF89017CDF8C83541F282
:105680005001CDF8A86741F2F006A5EE09AB04F58C
:105690003063A6196118CDF8102604F58252CDF8B2
:1056A000786641F20816B6EE005BCDF89837A61979
:1056B000CDF89C27CDF8A017002326EE056BCDF87A
:1056C00080660DF5E066524685492AEE05AB21EE6F
:1056D000077B9DEDD6CB9FED744B27EE407BB0EE64
:1056E000430BACEE0B7B9DED60BB9FED71CBA7EE4A
:1056F0000B8B95ED00BBDDF8C0563FEE088B24EE1A
:10570000487B3BEE088BABEE047B98EE0C0B9FEDD9
:105710006A8B9DED64BBAAEE087BB2EE0BAB05ED88
:10572000020B86ED000B0DF5E166A6EE087B87EE19
:105730000BCB85ED00CBDDF8C85515ED027B9CED5C
:10574000000B86ED00CB27EE0A7BB0EE40FB1EED92
:10575000029B27EE020B29EE081BB0EE428BB0EE47
:105760004F2B95ED007B0DF5E665A9EE042B27EE9A
:105770000ACB1CED02BB9EED006B85ED00CB0DF559
:10578000A065B0EE49CBB0EE4B9B0DF5E26C26EE7A
:105790000A6BB0EE493B95ED00BB0DF5E365A1EE5C
:1057A000453B29EE0B7BB0EE4FBB85ED00FBACEE2D
:1057B00044BB0DF5E46585ED00CB0DF5E265B0EE7B
:1057C0004B4BB0EE49BBB0EE459B85ED00BBA1EE67
:1057D00005BB0DF5D765B0EE4B5BB0EE40BBA6EE5A
:1057E000480BA6EE08BB85ED00BBDDF810660DF595
:1057F000E96516ED026B9DED06FB85ED000B26EECF
:105800000A6B0DF5E7659DED16AB9FED2DBB26EE02
:10581000080B82EE0A1B82EE0F6B85ED000B27EE64
:105820000B0B0DF5B1659FED28BBB0EE40CB27EE1D
:105830000B7B95ED000B0DF5B36527EE097B95ED20
:1058400000BB0DF5A165A0EE031BABEE056B95ED5E
:1058500000BB0DF5E56581EE0B0B9DEDF6BB85ED0F
:1058600000CB0DF5B76586EE0B2B2CEE096B95ED95
:10587000008B0DF5B8659FED16BB26EE0B6B9FED0B
:1058800016BB26EE0BBB2DE00F4757E9EE3A6BBF78
:1058900000000000C0FEE3C0A4703D0AD7A3EA3FA9
:1058A000C4E40A62720511407B14AE47E17AE83F16
:1058B00074E501C93A576E3F52B81E85EB51F43F6B
:1058C000CD5D4BC807BDF03F560E2DB29D2F094050
:1058D000953FEA943FEAE43F3BDF4F8D976EE23F0E
:1058E000E88D07089FEDFE6BB0EE421B84EE0A2B9D
:1058F000A8EE432B84EE0F3B95ED004B0DF588652C
:105900009DEDDE8BA4EE453B95ED004B0DF59565C9
:1059100095ED009B82EE04FB0DF5C96583EE092B26
:105920009FEDF19B9DEDF85B85ED002BB0EE4B2BD1
:105930000DF5B96585ED001B97EE092B0DF5A565F5
:105940009FEDEB9BA7EE09BB20EE067BB0EE42ABD2
:105950009FEDE92B87EE084BB0EE423B9DEDDC7BE3
:1059600027EE044B9FEDE67B24EE024B2AEE078BDD
:105970002BEE079B21EE067B87EE055B95ED007B0A
:105980000DF5C56527EE055B2FEE067B25EE025B68
:105990009FEDDD2B85ED005B0DF5896528EE021B83
:1059A00029EE022B95ED006B0DF5A96587EE066BD0
:1059B00095ED007B0DF5CC6527EE066B9DEDEA7B42
:1059C00026EE036B81EE073B85ED006B0DF58265DE
:1059D00095ED007B0DF5A36581EE077B95ED005BF2
:1059E0000DF5A76595ED006B9FEDC91B0DF5C26523
:1059F00033EE033B25EE033B9FEDC75B23EE013BFC
:105A000037EE077B26EE077B23EE053B27EE017B77
:105A10009DED3C6B27EE057B83EE06CB9DED423B77
:105A200087EE033B85ED003B0DF58F6595ED007B23
:105A30000DF59C6582EE073B95ED007B0DF5AB65A2
:105A400082EE077B95ED002B0DF5AF6533EE033B42
:105A500022EE033B95ED002B37EE077B0DF5CB6572
:105A600023EE013B22EE077B23EE053B27EE017B75
:105A70009DED482B9DED021B27EE057B83EE022B4F
:105A80009DED4E3B87EE033B85ED002B0DF5CE657E
:105A90009FED932B85ED003B0DF5C96595ED003B22
:105AA0000DF5966523EE023B95ED007B0DF5AD659A
:105AB00083EE077B95ED005B9FED8F3B9DED722B99
:105AC0000DF5C36522EE0A2BB0EE426B9DED082B5F
:105AD00025EE077B9FED925B27EE037B28EE053BCF
