:020000040800F2
:1000000000000820D19401080D8E0108118E01080E
:10001000158E0108198E01081D8E010800000000D0
:10002000000000000000000000000000218E010818
:10003000258E010800000000298E01082D8E010880
:1000400021950108219501082195010821950108B4
:1000500021950108219501082195010821950108A4
:100060002195010821950108219501082195010894
:100070002195010821950108219501082195010884
:100080002195010821950108219501082195010874
:100090002195010821950108219501082195010864
:1000A0002195010821950108219501082195010854
:1000B0002195010821950108219501082195010844
:1000C0002195010821950108219501082195010834
:1000D00021950108318E010821950108219501081B
:1000E000618E0108219501082195010821950108DB
:1000F0002195010821950108219501082195010804
:1001000021950108219501082195010821950108F3
:100110002195010821950108798E0108858E010835
:100120002195010821950108918E0108219501086A
:1001300021950108219501082195010821950108C3
:1001400021950108219501082195010821950108B3
:1001500021950108219501082195010821950108A3
:100160002195010821950108219501082195010893
:100170002195010821950108219501080000000042
:100180002195010821950108219501082195010873
:100190002195010821950108219501082195010863
:1001A00000000000000000002195010821950108D1
:1001B0002195010821950108219501082195010843
:1001C00021950108219501080000000021950108F2
:1001D0002195010821950108219501082195010823
:1001E0002195010821950108219501082195010813
:0801F000000000002195010848
:1002000010B5054C237833B9044B13B10448AFF350
:1002100000800123237010BDB809002000000000F9
:1002200014D5070808B5034B1BB103490348AFF3C6
:10023000008008BD00000000BC09002014D507089C
:1002400053B94AB9002908BF00281CBF4FF0FF313D
:100250004FF0FF3000F074B9ADF1080C6DE904CE39
:1002600000F006F8DDF804E0DDE9022304B0704791
:100270002DE9F047089D04468E46002B4DD18A4259
:10028000944669D9B2FA82F252B101FA02F3C2F18C
:10029000200120FA01F10CFA02FC41EA030E94401D
:1002A0004FEA1C48210CBEFBF8F61FFA8CF708FB3E
:1002B00016E341EA034306FB07F199420AD91CEB16
:1002C000030306F1FF3080F01F81994240F21C8148
:1002D000023E63445B1AA4B2B3FBF8F008FB103390
:1002E00044EA034400FB07F7A7420AD91CEB0404C5
:1002F00000F1FF3380F00A81A74240F20781644495
:10030000023840EA0640E41B00261DB1D440002319
:10031000C5E900433146BDE8F0878B4209D9002D7D
:1003200000F0EF800026C5E9000130463146BDE807
:10033000F087B3FA83F6002E4AD18B4202D3824271
:1003400000F2F980841A61EB030301209E46002D20
:10035000E0D0C5E9004EDDE702B9FFDEB2FA82F275
:10036000002A40F09280A1EB0C014FEA1C471FFAD3
:100370008CFE0126200CB1FBF7F307FB131140EABA
:1003800001410EFB03F0884208D91CEB010103F187
:10039000FF3802D2884200F2CB804346091AA4B249
:1003A000B1FBF7F007FB101144EA01440EFB00FE1D
:1003B000A64508D91CEB040400F1FF3102D2A64582
:1003C00000F2BB800846A4EB0E0440EA03409CE721
:1003D000C6F12007B34022FA07FC4CEA030C20FACE
:1003E00007F401FA06F31C43F9404FEA1C4900FAEE
:1003F00006F3B1FBF9F8200C1FFA8CFE09FB18116B
:1004000040EA014108FB0EF0884202FA06F20BD9DD
:100410001CEB010108F1FF3A80F08880884240F22D
:100420008580A8F102086144091AA4B2B1FBF9F071
:1004300009FB101144EA014100FB0EFE8E4508D96C
:100440001CEB010100F1FF346CD28E456AD90238F1
:10045000614440EA0840A0FB0294A1EB0E01A142D6
:10046000C846A64656D353D05DB1B3EB080261EB44
:100470000E0101FA07F722FA06F3F1401F43C5E91E
:10048000007100263146BDE8F087C2F12003D84054
:100490000CFA02FC21FA03F3914001434FEA1C4796
:1004A0001FFA8CFEB3FBF7F007FB10360B0C43EA88
:1004B000064300FB0EF69E4204FA02F408D91CEB38
:1004C000030300F1FF382FD29E422DD90238634436
:1004D0009B1B89B2B3FBF7F607FB163341EA0341D6
:1004E00006FB0EF38B4208D91CEB010106F1FF3825
:1004F00016D28B4214D9023E6144C91A46EA00461C
:1005000038E72E46284605E70646E3E61846F8E6AD
:100510004B45A9D2B9EB020864EB0C0E0138A3E7F6
:100520004646EAE7204694E74046D1E7D0467BE7D7
:10053000023B614432E7304609E76444023842E74F
:10054000704700BF844641EA000313F003036DD1F6
:10055000403A41D351F8043B40F8043B51F8043B86
:1005600040F8043B51F8043B40F8043B51F8043B8D
:1005700040F8043B51F8043B40F8043B51F8043B7D
:1005800040F8043B51F8043B40F8043B51F8043B6D
:1005900040F8043B51F8043B40F8043B51F8043B5D
:1005A00040F8043B51F8043B40F8043B51F8043B4D
:1005B00040F8043B51F8043B40F8043B51F8043B3D
:1005C00040F8043B51F8043B40F8043B51F8043B2D
:1005D00040F8043B403ABDD2303211D351F8043BCD
:1005E00040F8043B51F8043B40F8043B51F8043B0D
:1005F00040F8043B51F8043B40F8043B103AEDD27C
:100600000C3205D351F8043B40F8043B043AF9D2CC
:10061000043208D0D2071CBF11F8013B00F8013B9F
:1006200001D30B8803806046704700BF082A13D3AC
:100630008B078DD010F003038AD0C3F10403D21AC4
:10064000DB071CBF11F8013B00F8013B80D331F8F8
:10065000023B20F8023B7BE7043AD9D3013A11F878
:10066000013B00F8013BF9D20B7803704B784370E3
:100670008B78837060467047000000000000000027
:10068000A2EB0300704700BF02780B78012A28BF55
:100690009A42F5D16DE9044540EA0104CDE90267CB
:1006A0006FF0000C4FEA447212B380EA010414F0B8
:1006B000070F6AD100F0070420F0070004F00305DB
:1006C00021F007014FEAC505F0E8042314F0040FF8
:1006D000F1E804670CFA05F462EA040266EA04062B
:1006E0000AD063EA0403624667EA0407664603E049
:1006F000F0E80423F1E8046782FA4CF582EA060484
:10070000A4FA8CF46CBB83FA4CF583EA0705A5FACE
:100710008CF595B950E9022351E9026782FA4CF54C
:1007200082EA0604A4FA8CF483FA4CF583EA0705FE
:10073000A5FA8CF52543DBD09CB92DBAB5FA85F422
:1007400024F0070427FA04F1DDE9026723FA04F331
:1007500003F0FF0001F0FF01FDE80445A0EB0100FC
:10076000704724BAB4FA84F424F0070426FA04F19A
:10077000DDE9026722FA04F202F0FF0001F0FF0156
:10078000FDE80445A0EB0100704714F0030F3CD1D5
:1007900010F0030428D150F8082B51F8083B82FAD6
:1007A0004CF582EA0305A5FA8CF55DB950F8042CE6
:1007B00051F8043C82FA4CF582EA0305A5FA8CF55F
:1007C000002DE8D02DBAB5FA85F424F0070423FAF9
:1007D00004F122FA04F202F0FF0001F0FF01FDE84B
:1007E0000445A0EB010070474FEAC40420F0030069
:1007F00050F8082B21F0030151F8083B0CFA04F4DF
:1008000062EA040263EA0403C9E710F003041AD0A1
:10081000A1EB040120F00300E40750F8042B06D0FC
:100820000FD28B785FFAA2F4E41A06D12BB1CB7801
:100830005FFAB2F4E41A00D11BB920465DF8104B00
:10084000704701F1040150F8042BCC0721F003019B
:1008500051F8043B48D824D222F07F4482FA4CF568
:1008600094EA1325A5FA8CF50AD165B951F8043B31
:1008700084EA0204B4EB036F0ED150F8042BEBE7CB
:100880004FEA132355E035F07F454DD10878FDE858
:100890000445C0F1000070474FEA126203F0FF0305
:1008A00047E002EA1C4482FA4CF594EA1345A5FAA3
:1008B0008CF50AD165B951F8043B84EA0204B4EB23
:1008C000034F0CD150F8042BEBE74FEA134330E011
:1008D00015EA1C4528D10B884FEA124229E04FEA5D
:1008E000124203EA1C4324E002F0FF0482FA4CF5B2
:1008F00094EA1365A5FA8CF50AD165B951F8043B61
:1009000084EA0204B4EB032F09D150F8042BEBE77F
:100910004FEA13630DE015F0FF0F05D10B684FEAA6
:10092000122223F07F4304E04FF00000FDE804456D
:10093000704712BA1BBA82FA4CF482EA0304A4FA92
:100940008CF5B5FA85F402FA04F203FA04F34FEADF
:100950001260FDE80445A0EB136070470000000042
:100960000000000000000000000000000000000087
:100970000000000000000000000000000000000077
:1009800090F800F06DE9024520F007016FF0000CCF
:1009900010F0070491F820F040F049804FF0000477
:1009A0006FF00700D1E9002391F840F000F1080052
:1009B00082FA4CF2A4FA8CF283FA4CF3A2FA8CF38A
:1009C0004BBBD1E9022382FA4CF200F10800A4FAF1
:1009D0008CF283FA4CF3A2FA8CF3E3B9D1E9042345
:1009E00082FA4CF200F10800A4FA8CF283FA4CF37C
:1009F000A2FA8CF37BB9D1E9062301F1200182FA36
:100A00004CF200F10800A4FA8CF283FA4CF3A2FA3B
:100A10008CF3002BC6D0002A04BF04301A4612BA49
:100A2000B2FA82F2FDE8024500EBD2007047D1E94C
:100A3000002304F00305C4F100004FEAC50514F0DB
:100A4000040F91F840F00CFA05F562EA05021CBFAC
:100A500063EA050362464FF00004A9E700000000C6
:100A600001F0FF01102A2BDB10F0070F08D010F85F
:100A7000013B013A8B422DD010F0070F42B3F6D163
:100A8000F0B441EA012141EA014122F007047FF07C
:100A900000070023F0E80256083C85EA010586EAD3
:100AA000010685FA47F5A3FA87F586FA47F6A5FA0F
:100AB00087F68EB9EED1F0BC01F0FF0102F007021B
:100AC00032B110F8013B013A83EA010313B1F8D1C6
:100AD0000020704701387047002D06BF35460338A7
:100AE000073815F0010F07D1013015F4807F02BFE0
:100AF000013015F4C03F0130F0BC0138704700BF31
:100B00002C2077F085B900BF43699B698B422DE9A2
:100B1000F04F894683B025D10029D0F80080D0E974
:100B200006671BDD15460024DFF858B0DFF858A033
:100B30002346424639463046CDE900B51EF0B4FBA7
:100B4000234601340195424639463046CDF800A08F
:100B50001EF0DAFBA14505F10805E9D1002003B03C
:100B6000BDE8F08F05480A4605490068C06876F080
:100B70000FFF012003B0BDE8F08F00BF0C00002084
:100B800030D507080CD6070810D607080D2B70B50E
:100B900016D1436905469B698B420FDD00290DDBA9
:100BA0006824406A164601FB04F411462044836819
:100BB0009847A86A3146204483689847002070BD52
:100BC0000D221946024877F0BDFC012076F0F8FCB2
:100BD00018D60708000000002DE9F04F0D23044649
:100BE00089462DED028BAFB023620590084618921E
:100BF0001EF09AF90122034660610020D9689145F0
:100C000018701A72087040F36487D96888540132EA
:100C10009145FAD1DA6802F80900002211461869F4
:100C200081545868815401329145F8DC0022104605
:100C30005969885401329145FADC09F10106596974
:100C400003F110020024370101F8094006EB860881
:100C50001C9707CA8DE807000FCB1EF0BFF9059B54
:100C60008246986106EB0610800077F0D1F80546C1
:100C700011902C2006EB4601A14500FB0650C6EB67
:100C8000C60306EBC60209904FF0340000FB065085
:100C90001090A7EB060005EB80000B90284605EBB3
:100CA0008605199500EBC605129500EB8105139595
:100CB00000EB0705149500EB8805159500EBC805BA
:100CC000179500EBC10500EB011116950A9101463D
:100CD00000EB83001A9001EB46101B904FEA820054
:100CE00001EB82021D900F924FEAC30201EBC30396
:100CF0001E920E934FEA86131F9301EB86130C93FB
:100D000068DB119B07EE90AA1399A3F1040B199BC2
:100D10000D1F1499043B0F9AA1F1040E1599069327
:100D2000A2F10408109BA1F1040C0E9A043B169941
:100D3000171F129A219304391B9B043A0D911A989C
:100D4000191F179B209204381A1FDDF884A0234630
:100D5000CDF88490DDF834900D964646B846209F35
:100D6000CDE90721072204214BF8042F069A42F807
:100D7000041F06920B224AF8043F46F8043F48F845
:100D8000042F089A47F8043F45F8041F4EF8043F23
:100D90004CF8043F49F8043F40F8043F42F8043F50
:100DA0000892079A42F8043F0792099A42F82430C1
:100DB0000A9A42F824300B9A42F824300C9A42F8EE
:100DC000243001340D9A9442CCD117EE90AADDF86C
:100DD00084901646119A07230025199F42F8363051
:100DE00016461C9A0F99B5501D9A0E98B5501F9A29
:100DF000129CB3500B221E9BF250109B47F82950B7
:100E000043F82950032341F8293040F829200422CF
:100E1000504644F82920139A179C42F8295005227D
:100E200044F82920099A0A9C42F8295002EB8902C9
:100E300044F829500A920B9C149A44F8295042F81D
:100E40002950159A1B9C42F82950169A42F82930CD
:100E50001A9A42F8295002EB890244F829500B9261
:100E60001EF0E4F9059A044601463346D061504627
:100E7000724A18F091FD3B46714A2146504618F0DF
:100E80008BFD109B6F4A2146504618F085FD0E9E43
:100E90000F9B214606EB89066B4A5046099618F0CF
:100EA0007BFDA945C0F29685129BCDF82090A14606
:100EB0000793DDF854B00C9EDDE91332DDE91678B6
:100EC0001C460692079B2A46494650460093043327
:100ED00007935E4B18F098FF2A465D4B49465046F3
:100EE000009418F091FF069B2A464946009304336C
:100EF000504604340693574B18F086FF2A46564B4B
:100F000049465046CDF800B018F07EFF2A46534BB4
:100F100049465046CDF8008018F076FF2A46504BDF
:100F200049465046009718F06FFF2A464D4B4946F8
:100F30000096504618F068FF0135089B0BF1040B32
:100F400008F104080437AB4206F10406BADA0E9B36
:100F50004C46DDF82090002200932146424B50463B
:100F600019F058F8B9F1010F40F33C850E9E0125A8
:100F70003D4F04362A46013500963B4621465046F1
:100F800019F048F8A94506F10406F3D10A9B214659
:100F90004A46504600936825344B4FF0000818F03D
:100FA00033FF0B9B21464A4650460093304B08EED8
:100FB000904A18F029FF099B21464A465046009363
:100FC000294B444619F026F8119876F029FF05FBC5
:100FD00009F3284F184608EE103A76F019FF059BE2
:100FE000254EDFF8ACB09846586201E0D8F82400EE
:100FF00005FB0400214B01340D214361204BC0E966
:101000000937204BC0E9076B83611DF071FFA145D3
:10101000ECDC18EE904A18EE100A4FF0000876F05B
:10102000F7FE059B08EE104ADFF868B04446164FFD
:10103000164E68259846986230E000BF94D607089F
:1010400098D607089CD60708A0D60708A8D6070890
:10105000ACD60708B0D60708B8D6070824CA0908CE
:10106000C0D60708C4D60708A4D60708CCD60708F8
:10107000D0D6070865EF000869EF0008D92C0008F2
:1010800061EF000891EF00083D2B00084D2B000890
:101090007DEF0008B91B0008D8F8280005FB040004
:1010A000D74B01340D214362D64BC0F814B0836294
:1010B000D54B8661C0E907371DF01AFFA145EBDC6F
:1010C00018EE101A50461EF0CFF8059B18EE104A85
:1010D00083461860189B002B00F02484189A494618
:1010E0000598FFF711FD2CAB0793B9F1000F40F302
:1010F0003B845A460025CB46DFF82C836827DDF871
:101100001490D9F8241007FB05F6C0482B4631444B
:10111000069200905046019121461EF0E1F8D9F860
:1011200028102B4601353144069A5046CDE90081FE
:1011300021461EF0D5F8AB45069AE2D10821792068
:10114000D946934676F0EEF9B14B05465A4621460C
:1011500001900093504606930023DFF8D0829FED64
:10116000A28B85ED308B1EF0CFF8284676F058FE26
:1011700008210B2076F0D6F9054600235A46214671
:101180000190CDF8008050461EF0BEF8284676F05B
:1011900047FE0821792076F0C5F90821064680ED42
:1011A000308B0B2076F0BEF9B9F1010F07461ADD3E
:1011B00043460125D8469B4606992B464246504653
:1011C0000091214601961EF09FF82B4601354246BC
:1011D00021465046CDE900B71EF096F8A945EBD15F
:1011E0005B46C34698463046B7EE008B76F018FE55
:1011F000384676F015FE08214D2076F093F9854BA0
:101200000546019000935A4600232146504685ED3D
:10121000008B85ED188B85ED308B85ED488B85ED4A
:10122000608B85ED788B85ED908B1EF06DF82846F0
:1012300076F0F6FD08212C2076F074F9764B054601
:10124000019000935A460023214680ED0E8B80EDDD
:10125000268B80ED3E8B80ED568B50461EF054F869
:10126000284676F0DDFD08214D2076F05BF9B9F1D6
:10127000010F074680ED008B80ED188B80ED308BE1
:1012800080ED488B80ED608B80ED788B80ED908BCE
:1012900040F3E58301255F4A2B462E460135009237
:1012A00021465A46504601971EF02EF8A945F2D124
:1012B0003846012776F0B4FD08212C2076F032F96B
:1012C0000022564B0546C0E90E23C0E92623C0E99B
:1012D0003E23C0E95623504B5A46214650460093C0
:1012E0003B4601951EF010F8B74207F10107F2D115
:1012F000284676F095FD08210B2076F013F9054677
:101300004B465A462146CDF80080019050461DF0CC
:10131000FBFF284676F084FD08217920002576F031
:1013200001F9069B06465A462146009301904B461A
:1013300050464FF001089FED2C7B86ED307B1DF071
:10134000E3FF304676F06CFD08214D2076F0EAF898
:10135000B7EE007B06462F4B01905A46009321467C
:101360004B46504686ED007B86ED187B86ED307B44
:1013700086ED487B86ED607B86ED787B86ED907B05
:101380001DF0C2FF304676F04BFD08210C2076F0B0
:10139000C9F8234B0646019000935A464B46214616
:1013A00050469FED137B86ED0E7B86ED107B86ED20
:1013B000147B86ED167B9FED107B86ED0C7B86ED16
:1013C000127B1DF0A1FF06F118035A462146019336
:1013D0005046144B00934B461DF096FF06F1300328
:1013E0005A46214624E000BF0000000000004940AA
:1013F0009A9999999999B93F0000000000C06240FC
:10140000212B0008252B0008292B0008E0D607080F
:10141000D4D6070800D7070804D707080000F03F14
:1014200008D707080CD70708F0D60708D8D607084A
:1014300001935046CC4B00934B461DF065FF06F1DF
:1014400048035A46214601935046C84B00934B46E9
:101450001DF05AFF304676F0E3FC1C2076F0D8FCF5
:101460000222032304210646C0E902230523C0E922
:10147000041306230821C0E9005883610E2076F08A
:1014800051F8B3EE007B0746B94B01965A460093DC
:1014900021462B46504687ED007B87ED0E7B1DF0E5
:1014A00047FFB44B5A4621460197504600932B46BE
:1014B0001DF03EFFB04B5A462146009307F138031A
:1014C000504601932B461DF033FF304676F0A8FCC2
:1014D000384676F0A5FC1C2076F09AFC05230646DB
:1014E000042002275A462146C6E904030623504633
:1014F000B36103230196C6E90273A04BC6E9005805
:1015000000932B461DF014FF304676F089FC102026
:1015100076F07EFC4FF0020C03230821C0F8048013
:1015200006460560C0E902C3084675F0FBFFA94501
:10153000074600F120081EDD914B5A4621465046D1
:1015400000932B4601961DF0F3FE8E4B5A46214622
:10155000009350462B4601971DF0EAFE8A4B5A46EF
:10156000214600932B4601355046CDF804801DF0EE
:10157000DFFEA945E0D130464FF0030876F050FC7D
:10158000384676F04DFC102076F042FC042308210A
:1015900006270546C0E900830523C0E9023708464F
:1015A00075F0C0FF724B06465A4621465046CDE9BB
:1015B00000354B461DF0BCFE6E4B5A462146504648
:1015C000CDE900364B461DF0B3FE6B4B5A46214623
:1015D000009306F12003504601934B461DF0A8FEF0
:1015E000284676F01DFC304676F01AFC0421404671
:1015F000022675F097FF054608213846C5F8088091
:101600006E6075F08FFF614B07465A462146019583
:10161000009350464B461DF08BFE5D4B5A462146CB
:101620000197504600934B461DF082FE07F11803C8
:101630005A46214601935046564B00934B461DF0A7
:1016400077FE284676F0ECFB384676F0E9FB082179
:10165000232075F067FF082107460A2075F062FF16
:10166000B7EE007B05464C4B01975A460093214646
:101670004B46504685ED007B85ED0A7B85ED027B70
:1016800085ED0C7B1DF054FE444B5A4621460093D9
:1016900050464B4601951DF04BFE05F128035A4676
:1016A0002146019350463E4B00934B461DF040FEB1
:1016B000384676F0B5FB284676F0B2FB2146504618
:1016C0001EF002F8059B0146364A18615046364B1B
:1016D0001EF01EF8002291458DF88E2040F3CF8138
:1016E0000DF18E06314FDDF814801546D8F8101034
:1016F0003B46504600961EF011F86A1C9145F4D105
:101700000123CDF81890002724AEDFF8A480DDF87F
:10171000149024933A46D9F8101043465046009648
:101720001DF0FCFFAF4207F10107F3D102230027B0
:1017300025AEDFF88080DDF8149025933A46D9F87D
:1017400010104346504600961DF0E8FFAF4207F1E7
:101750000107F3D10323002726AEDFF85C80DDF814
:10176000149026932AE000BF10D7070814D7070863
:1017700018D7070820D7070824D7070828D707084D
:1017800064D707086CD7070870D7070830D7070851
:1017900038D707083CD7070810CA090840D70708F8
:1017A00044D7070854D7070848D7070874D707084D
:1017B00090D70708A4D70708B8D707083A46D9F83A
:1017C00010104346504600961DF0A8FFAF4207F1A7
:1017D0000107F3D1012300270DF18F06DFF85C83A9
:1017E000DDF814908DF88F303A46D9F81010434642
:1017F000504600961DF092FFAF4207F10107F3D16A
:10180000DDF81890059F00262AABBD4A396950467D
:10181000BC4F0025CDE92A671DF07AFF059F002601
:10182000079B39690027B84A5046CDE92C671DF05F
:101830006FFF059F0123B54A39695046279327ABAF
:101840001DF066FF322339695046B14A289328AB10
:101850001DF05EFF29ABAF4A5046396929951DF04E
:1018600057FF214650461DF077FD21467860064619
:1018700050461DF071FD0821B8600B2075F052FE36
:1018800000228046A44BA9450746E8E80E2340F312
:10189000FD80A2492B4632465046009121460197D1
:1018A0001DF07AFD9E492B460135009132462146B6
:1018B0005046CDF804801DF06FFDA945E9D1974B46
:1018C000214632465046CDE900374B461DF064FDB7
:1018D000384676F0A5FA059F214650463A6900241D
:1018E0001DF022FF0821F8600D2075F01BFE054653
:1018F000214601340D232A463846FFF747F9A14512
:10190000F6DA284676F08CFA059B32465946D868B6
:101910001DF07CFF002840F026812FB0BDEC028B2B
:10192000BDE8F08F2CA9189D7E4F7F4E8846079109
:101930006FA3D3E90023CDE92C232B465A46214639
:101940005046CDE900781DF0AFFC2B4601355A46D4
:1019500021465046CDE900681DF0D6FCA945ECDCD7
:10196000B9F1000F3FF7C5AB0821792075F0DAFD1A
:101970006E4B05465A462146019000935046069309
:101980000023DFF8BC819FED5C8B85ED308B1DF073
:10199000BBFC284676F044FA08210B2075F0C2FD06
:1019A000054600235A4621460190CDF80080504656
:1019B0001DF0AAFC284676F033FA0821792075F04C
:1019C000B1FD0821064680ED308B0B2075F0AAFD95
:1019D000074608E40E9B2A46214650460093544B86
:1019E00018F018FB0A9B4A46214650460093514B7B
:1019F00018F00AFA0B9B4A462146504600934E4B7C
:101A000018F002FA099B4A46214650460093484B7B
:101A100018F000FB119876F003FA682303FB09F332
:101A2000184608EE103A76F0F3F9059AB9F1010F6D
:101A3000506200F0878018EE100A76F0E9F9059DF3
:101A40002146A86250461DF00FFC189B8346286073
:101A5000002B7FF443AB2CAB0793FFF746BB76F02C
:101A6000DFF908212C2075F05DFD054680ED0E8B19
:101A700080ED268B80ED3E8B80ED568B38E4012384
:101A8000CDE9256824938DF88F30BBE6234B2146A2
:101A900032460190009350464B461DF07DFC38467F
:101AA00076F0BEF92146059C504622691DF03CFEA9
:101AB0000821E0600D2075F035FD0546B9F1000FF5
:101AC0007FF41FAF024649460D230598FFF75EF8E5
:101AD00017E7DA6802F809007FF4AFA81A691070F6
:101AE0005A6810705A691070FFF7A7B8AFF30080FA
:101AF0007B14AE47E17A943F0000000000004940AB
:101B0000E4D707080000F03FF0D7070804D807081B
:101B100010D807081CD80708000030401CD7070859
:101B2000C0290A080CD6070810D60708D4D607081B
:101B3000A4D60708CCD60708D0D60708D0D7070800
:101B4000D8D607080B4A0D2142610B4A42620B4A64
:101B500082620B4AC2610B4A02620B4A82611DF02B
:101B6000C7F9FFF758BA094876F090FD012075F0E3
:101B700027FD00BFD92C000861EF000865EF0008C1
:101B800069EF00087DEF000891EF000828D80708EA
:101B900000220121FFF720B8D0E90012C0681DF033
:101BA00023BE00BF00687047406870478069704777
:101BB000C069704700000000F0B5056807460E6870
:101BC0002DED108BAFB0002D00F04387B2EE0B5B14
:101BD000846895ED066B26EE056B002C00F02186DF
:101BE00094ED0A3B9FEDFA4B95ED087B36EE436B87
:101BF00027EE057B86EE046B8DED146B94ED0C5B8C
:101C00009FEDF36B94ED00DB37EE457BB0EE4D0BB3
:101C100087EE068B8DED1A8B74F08AFBB0EE409B3D
:101C20008DED180BB0EE4D0B74F00AFC9DED147B9E
:101C30008DED080B37EE087B8DED1C7B27EE097BC5
:101C40008DED247B002D00F01086B6EE005B95ED47
:101C5000007B9FEDE12B9FEDE24B27EE07AB95ED6F
:101C6000023B9FEDE16B2AEE022B2AEE04AB22EE43
:101C7000054BB0EE431B2AEE05AB84EE068B8DEDD3
:101C80002A2B95ED046B9FEDDA2B9FEDDB4BA6EE37
:101C9000021B26EE044B9FEDDA2B8DED0A1BB0EEF6
:101CA000431B23EE063BA6EE421B26EE076B8DED93
:101CB000263B8DED286B9FEDD46B8DED101B2AEE2E
:101CC000066B8DED126B9FEDD26B2AEE06AB9FED8E
:101CD000D26B28EE066B8DED026BB0EE476BA4EE77
:101CE000057BA4EE456B8DED0E7B8DED0C6B9DEDB4
:101CF0000C6B9DED0A7B9FEDCACB87EE060B74F053
:101D00000FFA30EE4DEB9FEDC87B9FEDC90B3EEE19
:101D1000477B27EE000B74F003FA74F009FB20EE0A
:101D20000CCB002C00F077869FEDC37B94ED148BD9
:101D30009FEDC36B94ED12FB9FEDC3BB28EE066BCA
:101D4000B0EE478B8DED007BAFEE4B8B9DED027BB4
:101D500094ED029B9FEDD20B8DED066B38EE0A8B56
:101D600029EE000B38EE478B38EE468B74F0D8F92D
:101D70009FEDCD6B20EE060B74F062FB9DED007BBA
:101D80009DED025B9DED066BAFEE0B7B8DED160BB3
:101D90003AEE077B37EE457B37EE467BB1EE4F6B75
:101DA0008DED047B9FEDAA7BB0EE475BA6EE0B7B2F
:101DB000AFEE0B5B8DED1E7B8DED205B9FEDBC5B75
:101DC0009FEDC33B9FEDBC7B38EE452B9FEDBE4B9B
:101DD00082EE05AB9FEDBAFBAAEE037BAAEE04FBF5
:101DE00037EE099B2CEE07BB29EE0C9BB1EE4FCBD7
:101DF000B0EE490B74F094F939EE400BAFEE409B16
:101E00009FEDB5FBB0EE490B74F08AF920EE0F0B95
:101E100074F08EFAB0EE409BB0EE4B0B74F080F98C
:101E20003BEE400BACEE00BB9FEDADCBB0EE4B0BF1
:101E300074F076F920EE0F0B74F07AFA89EE00BB9D
:101E40009FEDA97BAAEE07CB002C00F0D78594ED7F
:101E5000167B8DED007B9DED007B9FEDA5FB2CEEB1
:101E600007CB9FED937B2CEE08CB88EE070B9FED05
:101E7000A27B80EE070B74F053F930EE000B74F088
:101E8000DFFA9FED9F7B9FEDAC6B9FEDA35B20EE98
:101E9000070B9FEDAB7BACEE067B9FEDA36B20EEBB
:101EA000060B80EE076B9FED9A7BAAEE057B9FEDFC
:101EB000965BAAEE05FB3EEE077BB5EEC07BF1EE2E
:101EC00010FA26EE076B00F1EB8440F3E1859FEDFD
:101ED000949BB0EE460B29EE4F9B8DED226B74F078
:101EE0001FF99DED226B36EE400BA9EE006BB0EEB4
:101EF000460B74F015F99FED907B20EE070B74F004
:101F00009FFA9FED596B9FED547BAAEE067B9FEDE8
:101F1000546B27EE088B9DED007B27EE088B9FED21
:101F2000547BACEE008BAAEE067BB2EE0E0B2EEECF
:101F3000000B2CEE07CB74F0F3F874F0F9F99DED7B
:101F4000167B9DED0E6B2CEE000B20EE070B9DED2E
:101F50000A7BABEE080B9FED32BB8DED160B87EEC7
:101F6000060B74F0DDF830EE4DDB9FED2F7B9FED1F
:101F7000300B3DEE477B27EE000B74F0D1F874F088
:101F8000D7F920EE0BBB002C00F05D8594ED048B9F
:101F90009FED430B28EE000B74F0C2F89FED427BDF
:101FA00020EE070B74F04CFAB0EE40EB9DED046BA5
:101FB0009FED3FCB9FED464B9FED3F7B36EE4C3B7D
:101FC0009FED415B83EE0C9BBEE000BFAFF3008052
:101FD00014AE47E17A14CE3F1F85EB51B89EF23F15
:101FE000F7285C8FC2750A407B14AE47E17AF83F50
:101FF0005AF5B9DA8AFDE73F52B81E85EB51F43F36
:102000009C33A2B437F8E83FDEDCDCDCDCDCDC3F10
:10201000919191919191E13FBE9F1A2FDD24E23F72
:10202000E7FBA9F1D2CD2B40AD2F12DA722EA53FDE
:10203000E5D022DBF9BE2840CBA145B673478440EA
:102040009696969696963940753A9D4EA7D33E4001
:10205000032B8716591B85405839B4C876BEAFBFCD
:1020600064247B849A21853FE08442041C4265BF3E
:102070000ABFD4CF9B8A843F14AE47E17A14CE3F87
:1020800052B81E85EB51F43F0000000000E07040A4
:10209000AD2F12DA722EA53FE5D022DBF9BE284023
:1020A00066666666662630400EBE30992A18FF3F87
:1020B0000000000000408F40302DEA93DC6143BFF8
:1020C0008FE4F21FD26FF0BF37894160E5D0F43F53
:1020D00026AB22DC645439BF0E2DB29DEFA7EE3F34
:1020E000CA54C1A8A44EFB3F234A7B832F4CDABFBE
:1020F00093A98251499DCC3F107A36AB3E57F23FAF
:1021000000000000C0FEE3C0D5E76A2BF697E53F6C
:10211000E10D6954E0646BBF0F4757E9EE3A6BBFBE
:10212000B09DEFA7C64BC7BFA4703D0AD7A3EA3F37
:10213000E7FBA9F1D2CD2B40F38E53742497F13FE6
:102140007B14AE47E17A843F1FED23FB1FED1EABEE
:10215000A9EE047BA9EE05FB37EE080B2BEE078BEF
:1021600020EE0BBBB1EE4F7BB0EE4B0B8DED0A7B3F
:1021700073F0D6FF3BEE400BAFEE40BBB0EE4B0B27
:1021800073F0CEFF20EE0A0B74F0D2F8B0EE40FBF5
:10219000B0EE480B73F0C4FF38EE400B9DED0A7BA8
:1021A0001FED31BBA7EE008BB0EE480B73F0B8FF0C
:1021B00020EE0A0B74F0BCF88FEE007B9DED045B03
:1021C0001FED376B1FED340B1FED37ABA9EE06BBD0
:1021D0009DED006B26EE0BBB2BEE05BBB0EE47FB77
:1021E00085EE0C7B87EE000B73F09AFF30EE000B50
:1021F00074F026F91FED3E7B1FED316B20EE070BCF
:102200001FED317BABEE067B1FED396B20EE060B2D
:102210001FED3F6B80EE07CB1FED437BA9EE067BE6
:102220001FED476BA9EE06AB3DEE077BB5EEC07B1D
:10223000F1EE10FA2CEE07CB00F1398340F337842E
:102240001FED498B28EE4A8BB0EE4C0B73F068FF04
:102250003CEE400B1FED80ABA8EE00CBB0EE4C0B7C
:1022600073F05EFF1FED4C7B20EE070B74F0E8F877
:102270001FED837B1FED866BA9EE07AB9DED047B05
:102280002AEE07AB9DED007B27EE0AAB1FED887BA6
:10229000ABEE00ABA9EE067BB2EE0E0B2DEE000B03
:1022A0002BEE07BB73F03CFF74F042F89DED167BFC
:1022B0002BEE00BB2BEE0EEBAFEE0AEB37EE0E5B18
:1022C0008DED22EB002D00F08B83B2EE0B3B95EDF4
:1022D0000A7B27EE037B002C00F0F18394ED0E4B7C
:1022E0001FED9B6B37EE444B84EE067B95ED0C6B3C
:1022F00026EE036BB6EE003B94ED104B36EE446BCE
:102300001FEDA34B86EE042B1FEDA34B32EE476B64
:1023100037EE027B26EE033B23EE046B8DED2C6B38
:10232000AEB19DED246B9DED084BA5EE446B36EEF2
:10233000077B9DED2A6B37EE467B1FEDAD6B87EE7D
:10234000063B9DED267B33EE073B86ED003B9DED86
:10235000086B9DED1C7B1FED8ADB27EE067B9DED58
:10236000186BA5EE067B9DED0C6B8DED047B9DED52
:10237000107B87EE060B73F0D3FEB0EE40AB1FED83
:10238000BC7B30EE477B1FEDBC0B27EE000B73F0E0
:10239000C7FE73F0CDFF20EE0DDB002C00F0348380
:1023A00094ED06BB1FEDC20B2BEE000B73F0B8FED5
:1023B0001FEDC37B20EE070B74F042F88DED0A0B86
:1023C0009DED127B9DED1E6B1FEDC7FB1FEDC69BA8
:1023D00037EE068B9DED027B1FEDC36B1FEDC8EB47
:1023E00038EE078B9DED067B38EE078B1FEDCA7B21
:1023F00038EE4F5B85EE0FCBACEE069BACEE07EBF9
:1024000039EE0BBB2DEE099B2BEE0DBBB1EE4E7BD7
:102410001FEDCFDBB0EE4B0B8DED0C7B73F080FE30
:102420003BEE400BAEEE40BBB0EE4B0B73F078FED4
:1024300020EE0D0B73F07CFFB0EE40EBB0EE490BDD
:1024400073F06EFE39EE400B9DED0C7B1FEDDCBB97
:10245000A7EE009BB0EE490B73F062FE20EE0D0B71
:1024600073F066FF88EE0F7B8EEE00FB1FEDE26BD4
:102470001FEDDF0B1FEDE2DBACEE06BB9DED006B4D
:1024800026EE0BBB2BEE08BB87EE000B73F048FE6D
:1024900030EE000B73F0D4FF1FEDE77B1FEDDA6B1E
:1024A00020EE070B1FEDDA7BABEE067B1FEDE26B38
:1024B00020EE060B1FEDE86B80EE07EB1FEDEC7BCB
:1024C000ACEE067B1FEDF06BACEE06DB3AEE077B65
:1024D000B5EEC07BF1EE10FA2EEE07EB00F1E481D1
:1024E00040F3CF821FEDF29B29EE4D9BB0EE4E0BD9
:1024F00073F016FE3EEE400B1FEDF3DBA9EE00EB92
:10250000B0EE4E0B73F00CFE1FEDF57B20EE070BCB
:1025100073F096FF9FEDE86B9FEDE97BACEE067BD9
:102520009FEDE96B28EE078B9DED007B27EE088B76
:102530009FEDE77BABEE008BACEE067BB2EE0E0BB5
:102540002AEE000B2BEE07BB73F0EAFD73F0F0FEF2
:10255000B0EE407B9DED106B2BEE07BB9DED0A7B33
:102560009DED0E5B2BEE07BB86EE050BAFEE08BBB9
:102570008DED0ABB73F0D4FDB0EE40AB9FEDD67B82
:1025800030EE477B9FEDD60B27EE000B73F0C8FDB6
:1025900073F0CEFE20EE0DDB002C00F06B8294ED8C
:1025A00008BB9FEDD10B2BEE000B73F0B9FD9FED37
:1025B000D07B20EE070B73F043FF8DED0C0B9DEDF0
:1025C000127B9DED206B9FEDCCFB9FEDCD9B37EEFD
:1025D000068B9DED027B9FEDCC6B9FEDCDEB38EE36
:1025E000078B9DED067B38EE078B9FEDCB7B38EE9E
:1025F0004F5B85EE0FCBACEE069BACEE07EB39EEF6
:102600000BBB2DEE099B2BEE0DBBB1EE4E7B9FED70
:10261000C4DBB0EE4B0B8DED027B73F081FD3BEE26
:10262000400BAEEE40BBB0EE4B0B73F079FD20EEED
:102630000D0B73F07DFEB0EE40EBB0EE490B73F086
:102640006FFD39EE400B9DED027BA7EE009BB0EED7
:10265000490B73F065FD20EE0D0B73F069FE88EEFB
:102660000F7B8EEE009B9FEDB06B9FEDB1DB9FED7E
:10267000B20B9FEDB3EBACEE06DB9DED006B26EEEF
:102680000DDB2DEE08DB87EE000B73F049FD30EE1D
:10269000000B73F0D5FE9FEDAC7B9FEDAD6B20EE94
:1026A000070B9FEDAD7BADEE067B9FEDAD6B20EE96
:1026B000060B9FEDAD6B80EE07FB9FEDAD7BACEEA7
:1026C000067B9FEDAD6BACEE06EB3AEE077BB5EE0D
:1026D000C07BF1EE10FA2FEE07FB00F1DE8040F335
:1026E000DF819FEDA7BB2BEE4EBBB0EE4F0B73F01F
:1026F00017FD3FEE400BABEE00FBB0EE4F0B73F05F
:102700000FFD9FED937B20EE070B73F099FE9FED7D
:102710006A6B9FED6B7BACEE067B9FED6B6B28EEDF
:10272000078B9DED007B27EE088B9FED697BADEE5F
:10273000008BACEE067BB2EE0E0B2AEE000B2DEEFC
:1027400007DB73F0EDFC73F0F3FD9DED0C6B2DEEEC
:10275000007B27EE067B9DED0A6BA9EE087B36EE2B
:10276000077B002E58D09DED046B9FED875B36EE06
:10277000074B84EE056B9DED285B36EE456B86EDD1
:10278000026B002C00F0BF8194ED185B9FED806B15
:1027900025EE065B7B689DED1A6B9DED144B9DED60
:1027A000083B36EE440B9DED226B9DED164B36EE4D
:1027B00044EB9DED186B9FED784B20EE060B9DEDE5
:1027C000046BAEEE430B26EE044B9FED756BA7EE4C
:1027D000464BB6EE006B9FED7E7B20EE060BA0EE27
:1027E000074B9DED2C7B34EE074B84EE057B86ED8D
:1027F000047B002B00F07C81D3E90001C6E90601CF
:10280000D3E90201C6E90801D3E90401C6E90A01D6
:10281000D3E90623C6E90C2300202FB0BDEC108BB2
:10282000F0BD95ED087B9FED684B27EE057B86EEAE
:10283000046B87EE047B8DED146B8DED1A7B9DEDA3
:102840001A6B9DED147B9FED64DB002437EE067B55
:10285000B7EE006B8DED1C7B8DED08DB8DED186BFD
:102860008DED247B002D7FF4F0A99FED5B7BB0EE16
:1028700047AB8DED027B8DED2A7B8DED287B8DEDB9
:10288000127B8DED107B8DED267B8DED0E7B8DED1E
:102890000C7B8DED0A7BFFF72ABA9FED43BB22E745
:1028A0009FED419BFFF715BB9FED3F9B1CE69FED06
:1028B0003E8BC7E4AFF30080E08442041C4265BF56
:1028C0005839B4C876BEAFBF64247B849A21853F53
:1028D0000ABFD4CF9B8A843FAD2F12DA722EA53F58
:1028E000E5D022DBF9BE2840666666666626304083
:1028F0000EBE30992A18FF3F0000000000408F40B4
:10290000302DEA93DC6143BF26AB22DC645439BF2F
:102910008FE4F21FD26FF0BF37894160E5D0F43FFA
:102920000E2DB29DEFA7EE3F234A7B832F4CDABFDB
:10293000CA54C1A8A44EFB3F107A36AB3E57F23FB3
:1029400093A98251499DCC3F00000000C0FEE3C026
:10295000F38E53742497F13F7B14AE47E17A843FA2
:10296000A4703D0AD7A3EA3F0F4757E9EE3A6BBF81
:10297000E10D6954E0646BBFD5E76A2BF697E53F3C
:10298000B09DEFA7C64BC7BF0000000000E070403D
:1029900000000000008066405AF5B9DA8AFDE73F82
:1029A0009C33A2B437F8E83FDBF97E6ABC7401407F
:1029B000CBA145B673478440032B8716591B85402E
:1029C000B6F3FDD478E9F23F14AE47E17A14CE3F76
:1029D00052B81E85EB51F43F0000000000000000DB
:1029E000002C00F093801FED046B94ED0E4B1FED57
:1029F0000A3B36EE444B84EE037B7BE41FED0A7BFF
:102A00008DED007BFFF727BA1FED0D7BB0EE47BBC6
:102A10008DED0A7BD4E41FED1A8B9DED027B1FED3B
:102A2000129B3AEE088B8DED169B38EE478B1FED0F
:102A30001E7B8DED048B8DED069B8DED207B8DED4A
:102A40001E7BFFF7BBB91FED1CEBB0EE4E8BFFF703
:102A5000ADBA84681FED207B002C5CD094ED0A6B2E
:102A60001FED275B37EE466B86EE056B8DED146B25
:102A7000FFF7C4B81FED287BB0EE47BB8DED0C7B94
:102A80009DE51FED316BB7EE009BA7EE469B2BE556
:102A90001FED355BB7EE009BA7EE459BFFF719BA1C
:102AA0001FED396BB7EE00BBA7EE46BB1BE61FED73
:102AB0003C6BB7EE008BA7EE468BFFF7C3BB95EDE3
:102AC0000C6B1FED3F4B26EE036B87EE042B86EE5F
:102AD000047BB6EE003B1FED424B37EE426B32EE0D
:102AE000077B26EE036B26EE046B8DED2C6B17E453
:102AF0000020002102460B46C6E90601C6E908018E
:102B0000C6E90A0186E61FED4C5B43E61FED4E7BEE
:102B10008DED2C7B04E48DED1A7B8DED147B8EE620
:102B20000320704701207047022803D8024B53F856
:102B3000200070470020704744D807080028024B47
:102B400014BF00201846704750D8070878B110B459
:102B50000524046009B1022008600AB10021116057
:102B60000BB11F221A6000205DF8044B704709B1B9
:102B7000022008600AB1002111600BB11F221A6007
:102B8000002070472DE9F84FD1E90095144606461C
:102B900005FB09F205F103089B4601F1080A002A2A
:102BA00001EB88074FEA880804DDD20000212046A7
:102BB00075F06AFC6EB3BBF1000F2CD0002D28DD40
:102BC00050464FF0000C6FF0404BA7F1040A8046CE
:102BD000B146D8F8006058F8040F864215D006EBCD
:102BE0000B0249460AEB800E07EB820252F8043FC3
:102BF00003FB05C39645B1EC027B04EBC30383EDF5
:102C0000007BF3D1801B09EBC0090CF1010C654579
:102C1000DFD1BDE8F88F002DFBDDA8F10C08D4460C
:102C20004FEAC9096FF0404BD044B646A7F1040AF9
:102C3000DCF800605CF8045FAE4213D006EB0B02D8
:102C400071460AEB850007EB820252F8043FB1ECB3
:102C5000027B04EBC303824283ED007BF5D1AD1B05
:102C60000EEBC50EC4454C44E2D1BDE8F88F00BF61
:102C7000F0B5D1F804C05F680CF10205059C002F87
:102C800051F825600ADD0433A4F1040E03EB870735
:102C900053F8045FBB424EF8045FF9D1002E15DDF6
:102CA0000B4B00EBC60E634401EB830C5CF8041F76
:102CB000B0EC027B54F82130864503F1010502EBAC
:102CC000C30344F8215083ED007BEFD1F0BD00BF7A
:102CD00002000040000000002DE9F04F2DED108BA8
:102CE000ADF2B47D1C4603F58057D0F80090CDF8C6
:102CF0004C2703F6E87204F58C5BCDF89806CDF806
:102D0000AC2641F27802CDF87C169A18CDF8482608
:102D100041F218029A18CDF8C82641F230029A18EA
:102D2000CDF8CC2541F248029A18CDF8002603F5DB
:102D30008352CDF8D02503F58952CDF8F02503F55F
:102D40008A5203F58B53CDF8F82504F59A522E9349
:102D500004F59353CDF84827CDF8C835B9F1000FE5
:102D60000CF07B80B2EE0B5BD0F8108099ED066B17
:102D700026EE056BB8F1000F0BF08F8798ED0A3B3C
:102D80009FEDED4B99ED087B36EE436B27EE057B0F
:102D900086EE046B8DEDDC6B98ED0C5B9FEDE66BC6
:102DA00098ED009B37EE457B0DF58863B0EE490B3F
:102DB00087EE068B83ED008B73F0BAFAB0EE40AB72
:102DC0008DED180BB0EE490B73F03AFB9DEDDC7BFB
:102DD0008DED040B38EE077B8DED127B27EE0A7B21
:102DE0008DED267BB9F1000F0BF08187B6EE007BED
:102DF0000DF58D6399ED003B9FEDD14B9FEDD25BBF
:102E000023EE038B99ED022B9FEDD16B28EE044B43
:102E100028EE058B24EE075B28EE078B85EE06EB8C
:102E200099ED041B9FEDCC5B8DED344BB0EE424B26
:102E30009FEDCB6BA1EE054B21EE066B9FEDCA5BC0
:102E40008DED642B8DED0C4BB0EE424B8DED663B62
:102E5000A1EE454B9FEDC65B8DED2C1B28EE055B6F
:102E60008DED0E4B8DED145B9FEDC35B28EE058B56
:102E70009FEDC35B2EEE05EBB0EE435BA6EE475B2A
:102E80008DED165BB0EE435BA6EE075B22EE017B99
:102E90008DED287B21EE037B8DED065B83ED007BC2
:102EA00033EE037B0DF59F6383ED007B9DED166B89
:102EB0009DED0C7B87EE067BB0EE470B8DEDF27B34
:102EC00073F02EF930EE49DB9FEDB77B9FEDB86BC9
:102ED0003DEE477B27EE067BB0EE470B8DEDE07BAA
:102EE00073F01EF98DEDE20B73F022FA9FEDB27BC9
:102EF00020EE077B8DED1E7BB8F1000F0BF0C28733
:102F00009FEDA1AB98ED147B9FEDA1FB98ED125BBB
:102F10009FEDA1CB27EE0FFBB0EE4A7B98ED02BBF5
:102F2000A5EE4C7B9FEDA60B8DED025B2BEE000B0F
:102F300037EE087B37EE4E7B37EE4F7B8DED087B0F
:102F400073F0EEF89FEDA07B20EE070B73F078FA9C
:102F50009DED025B8DED520BA5EE0CABB1EE456B1A
:102F600038EE0A8B38EE4E8B38EE4F7B8DED0A7BB8
:102F70009FED8B7BB0EE474BA6EE0C7BA5EE0C4B8A
:102F80008DED1C7B8DED2A4B9FED917B9DED082BEC
:102F90009FED975B9FED983B32EE472B9FED926B39
:102FA00082EE078BB0EE457B9FED8D4B9FED8AAB9C
:102FB000A8EE037BA8EE064B9DED1E3B8DED687BD6
:102FC000B0EE446B37EE0B4B23EE077BB1EE46CBF6
:102FD0008DED206B23EE046B8DEDD67B8DED6A4B72
:102FE000B0EE46BBB0EE460B8DEDE46B73F098F897
:102FF000B0EE4B6B3BEE404B9DED205B8DED6C4B93
:10300000A5EE446BB0EE460B8DEDE86B73F088F8DF
:1030100020EE0A6BB0EE460B8DEDF46B73F088F981
:10302000B0EE40BB9DEDD60B73F07AF89DEDD67BEC
:1030300037EE406BACEE067B8DED6E6BB0EE470B62
:103040008DEDEC7B73F06CF820EE0A7BB0EE470B55
:103050008DEDEE7B73F06CF98BEE007B9FED6A6B70
:103060008DED380B8DED307B9FED697BA8EE067BF7
:10307000B8F1000F0BF0DC8698ED166B8DED026B4E
:103080009DED026B9DED084B27EE065B9FED507B9F
:1030900025EE04AB84EE076B9FED597B8DED705BE5
:1030A0008DED1AAB86EE070B8DEDF60B73F038F84D
:1030B00030EE007B0DF5A263B0EE470B83ED007B95
:1030C00073F0BEF99FED546B9FED5F7B9FED542B2A
:1030D00020EE060B9FED606BAAEE067BB0EE476B11
:1030E0008DED3A7B9FED547B20EE077B87EE065BF0
:1030F0009FED536B9FED4C7BA8EE067B3DEE076B7F
:103100009FED4B7BB5EEC06BA8EE072BF1EE10FAEE
:103110008DED726B25EE067B8DED3C5B8DEDEA7BD4
:103120000BF10D864BF3C8869FED497B8DED547BEB
:10313000A6E000BFAFF3008014AE47E17A14CE3FA3
:103140001F85EB51B89EF23FF7285C8FC2750A408D
:103150007B14AE47E17AF83F5AF5B9DA8AFDE73FCA
:1031600052B81E85EB51F43F9C33A2B437F8E83FC8
:10317000DEDCDCDCDCDCDC3F919191919191E13F84
:10318000BE9F1A2FDD24E23FCBA145B67347844092
:103190009696969696963940753A9D4EA7D33E40A0
:1031A000032B8716591B8540AD2F12DA722EA53FCF
:1031B000E5D022DBF9BE2840E7FBA9F1D2CD2B40B8
:1031C00066666666662630400EBE30992A18FF3F56
:1031D0000000000000408F400E2DB29DEFA7EE3F93
:1031E0008FE4F21FD26FF0BF37894160E5D0F43F22
:1031F000302DEA93DC6143BF26AB22DC645439BF37
:10320000107A36AB3E57F23F234A7B832F4CDABF0E
:10321000CA54C1A8A44EFB3F00000000C0FEE3C09A
:1032200093A98251499DCC3FE10D6954E0646BBF85
:10323000D5E76A2BF697E53FA4703D0AD7A3EA3F8E
:103240000F4757E9EE3A6BBF7B14AE47E17A843FF4
:10325000B09DEFA7C64BC7BFF38E53742497F13FC1
:10326000E08442041C4265BF5839B4C876BEAFBF83
:1032700064247B849A21853F0ABFD4CF9B8A843FF4
:103280009DED547B9DED066B9DEDEAAB22EE07BBF9
:103290000DF59363B0EE4A0B9DED0C7B8DED74BB89
:1032A00087EE06CB83ED00CB72F03AFFB0EE4A7B9F
:1032B0003AEE406BABEE467B8DED766BB0EE470B96
:1032C0008DEDF87B72F02CFF0DF5A1631FED1E7BD9
:1032D00020EE077BB0EE470B83ED007B73F0B0F878
:1032E0001FED216B1FED207B8DED780BA8EE067B8B
:1032F0001FED216BB0EE475B8DED7A7B1FED227BDE
:10330000A8EE067BB0EE476B8DED7E7BB2EE0E7BBA
:103310002DEE074B9DED087B8DEDFA4B25EE077BDF
:103320009DED025B25EE077B9DED1A5BA5EE007B14
:1033300025EE06ABB0EE440BB0EE478B8DED7C7BFB
:103340008DED80AB72F0ECFE0DF5A36383ED000B09
:1033500072F0EEFFB0EE407B8DED820B2AEE076B34
:10336000B0EE4C0B9DED527B26EE076B9DED307B56
:10337000A7EE086B8DEDD86B72F0D2FE30EE498B64
:103380001FED777B1FED766B38EE477B27EE067BD4
:10339000B0EE470B8DEDFC7B72F0C2FE0DF5A56320
:1033A00083ED000B72F0C4FF1FED7D7B20EE077BE9
:1033B0008DED227BB8F1000F0BF0408598ED04BB3A
:1033C0001FED810B2BEE000B72F0AAFE1FED827B2E
:1033D00020EE070B73F034F88DED560B1FED849B38
:1033E0009DED0A3B1FED7C4B1FED7F6B33EE493BA0
:1033F0001FED837B83EE09DB1FED875B1FED8AAB3F
:10340000ADEE046BADEE075B9DED224BB0EE467B5F
:103410008DED846B36EE0B6B24EE077BB1EE45CB66
:103420008DED866B24EE066B8DEDDA7B8DED245BE6
:10343000B0EE46BBB0EE460B8DEDFE6B72F070FE4B
:10344000B0EE4B6B3BEE404B0DF580639DED245B86
:103450008DED884BA5EE446BB0EE460B83ED006B13
:1034600072F05EFE20EE0A6B0DF5AA63B0EE460B1D
:1034700083ED006B72F05CFFB0EE40BB9DEDDA0BAC
:1034800072F04EFE0DF581639DEDDA7B37EE406BF9
:10349000ACEE067B8DED8A6BB0EE470B83ED007BC7
:1034A00072F03EFE20EE0A7B0DF5AB63B0EE470BEB
:1034B00083ED007B72F03CFF8BEE006B0DF58263B9
:1034C0009DED0A5B8DED3E0B85EE097B8DED326B3C
:1034D0001FEDB56B87EE060B1FEDB56B1FEDB47BD3
:1034E000ADEE067B9DED026B26EE077B27EE059B7E
:1034F0008DED8C7B83ED000B8DED109B72F010FE3B
:1035000030EE007B0DF5B363B0EE470B83ED007B2F
:1035100072F096FF1FEDC06B1FEDB57B1FEDC04B2A
:1035200020EE060B1FEDB46BA9EE067BB0EE476BE9
:103530008DED407B1FEDC07B20EE077B87EE063BC9
:103540001FEDC16B1FEDC87BADEE067B38EE075B50
:103550001FEDC97BB5EEC05BADEE074BF1EE10FA87
:103560008DED8E5B23EE057B8DED423B8DEDF07B8B
:103570000BF1F1834BF3B4841FEDCB7B8DED587BC6
:103580009DED587B9DEDF09B24EE07ABB0EE490B13
:103590008DED90AB72F0C4FDB0EE497B39EE406B1F
:1035A0000DF58363AAEE467B8DED926BB0EE470B73
:1035B00083ED007B72F0B4FD0DF5B4631FEDDA7B93
:1035C00020EE077BB0EE470B83ED007B72F038FFF7
:1035D0000DF584631FEDDE6B1FEDDD7B8DED940B30
:1035E000ADEE067B1FEDDE6BB0EE475B8DED967B9F
:1035F0001FEDDF7BADEE067BB0EE476B8DED9A7B6A
:10360000B2EE0E7B28EE074B9DED0A7B83ED004B5F
:1036100025EE077B9DED025B25EE077B9DED105BA4
:10362000A5EE007B25EE069BB0EE440BB0EE478B7B
:103630008DED987B8DED9C9B72F072FD0DF5C8634E
:1036400083ED000B72F074FE29EE006B0DF58B63B9
:103650009DED567B8DED9E0B26EE076B9DED327B2F
:10366000A7EE086B9DEDD87B83ED006B37EE064B24
:10367000B9F1000F0BF0BA83B2EE0B6B99ED0A7B38
:1036800027EE067BB8F1000F0BF03E8499ED0C5B42
:1036900025EE065B98ED0E6B37EE467B9FEDFC6BDF
:1036A00087EE063B98ED107B9FEDF96B35EE475B9F
:1036B00085EE067B0DF58F6337EE436BB6EE002B80
:1036C00033EE077B26EE026B9FEDF35B26EE056B78
:1036D00083ED006BDDF87C36D3F80090B9F1000F74
:1036E00015D09DED046B9DED263B9FEDED5BA4EEAB
:1036F000463B9DED346B33EE077B37EE467B87EE22
:10370000056B9DED287B36EE076B89ED006B9DED1B
:10371000127B9DED046B0DF5856327EE066B9DED29
:10372000187BA4EE076B9DED0E7B8DEDDE6B9DEDA2
:10373000166B87EE067BB0EE470B83ED007B72F0D5
:10374000EFFC0DF58663B0EE408B9FEDD77B9FEDD0
:10375000D86B30EE477B27EE067BB0EE470B83ED50
:10376000007B72F0DDFC0DF5CA6383ED000B72F097
:10377000DFFD9FEDD17B20EE077B8DED267BB8F141
:10378000000F0BF0EE8298ED069B9FEDCD0B29EE1E
:10379000000B72F0C5FC9FEDCC7B20EE070B72F0A6
:1037A0004FFE8DED5A0B9DED1C6B9DED147B9FED37
:1037B000CECB9FEDD3BB37EE060B0DF587639FEDA8
:1037C000CC7B30EE0E0B9FEDCC6B30EE0F5B9DEDA6
:1037D000261BB0EE454B9FEDCC5B8DED0C4B34EED4
:1037E0004C4B84EE0CDBADEE057BADEE06BB37EE4D
:1037F000092B8DEDA07B21EE026B21EE077BB0EE55
:1038000046ABB0EE460B8DEDE67B83ED006B8DEDA8
:10381000A22B8DED1CBB72F083FCB0EE4A6B3AEE2E
:10382000402B0DF58C63B1EE4BBB9DED1C3B9FED2A
:10383000B89B8DEDA42BA3EE426BB0EE460B83ED4F
:10384000006B72F06DFC20EE096B0DF5CB63B0EEF2
:10385000460B83ED006B72F06BFDB0EE40AB9DED5F
:10386000E60B72F05DFC0DF58A639DEDE67B37EEAD
:10387000406BABEE067B8DEDA66BB0EE470B83ED98
:10388000007B72F04DFC20EE097B0DF5CC63B0EEB1
:10389000470B83ED007B72F04BFD8AEE006B0DF55C
:1038A0008E639DED0C5B8DED440B85EE0C7B8DEDF9
:1038B000346B9FED996B87EE060B9FED996B9FED37
:1038C0009A7BADEE067B9DED026B26EE077B25EE27
:1038D000079B8DEDA87B83ED000B8DED129B72F0A5
:1038E0001FFC30EE007B0DF5CD63B0EE470B83ED92
:1038F000007B72F0A5FD9FED8E7B9FED9D6B20EE12
:10390000070B9FED8F7BA9EE067B9FED8B9BB0EEA7
:10391000476B8DED467B9FED927B20EE070B9FED75
:103920008E7B80EE065B9FED886BADEE067B38EEFE
:10393000076B9FED877BB5EEC06BADEE079BF1EE9D
:1039400010FA8DEDAA6B25EE06AB8DED485B0BF101
:10395000FC814BF3BB829FED847B8DED5C7B9DED09
:103960005C7B9DED066B0DF59263B0EE4A0B29EE84
:10397000079B9DED0E7B8DEDAC9B87EE06BB83ED2B
:1039800000BB72F0CDFBB0EE4A7B3AEE406B0DF51A
:103990009063A9EE467B8DEDAE6BB0EE470B83EDE9
:1039A000007B72F0BDFB0DF5CE639FED717B20EEC9
:1039B000077BB0EE470B83ED007B72F041FD0DF508
:1039C00091639FED6D6B9FED6E7B8DEDB00BADEE5A
:1039D000067B9FED6D6BB0EE475B8DEDB27B9FED8F
:1039E0006C7BADEE067BB0EE476B8DEDB67BB2EE39
:1039F0000E7B28EE074B9DED0C7B83ED004B27EEF5
:103A0000057B9DED025B25EE077B9DED125BA5EE30
:103A1000007B25EE069BB0EE440BB0EE478B8DEDA0
:103A2000B47B8DEDB89B72F07BFB0DF5D06383ED1D
:103A3000000B72F07DFCB0EE407B9DED5A6B29EEE1
:103A4000077B8DEDBA0BB0EE4B0B27EE067B9DEDA1
:103A5000346BA6EE087B8DED627B72F061FB0DF599
:103A600094639FED117B9FED126B8DED500B30EE4B
:103A7000477B27EE067BB0EE470B83ED007B72F0B1
:103A80004FFB0DF5D16383ED000B99E0AFF30080A0
:103A900014AE47E17A14CE3F52B81E85EB51F43F85
:103AA0000000000000E07040AD2F12DA722EA53F3A
:103AB000E5D022DBF9BE2840E7FBA9F1D2CD2B40AF
:103AC00066666666662630400EBE30992A18FF3F4D
:103AD000E7FBA9F1D2CD2B406666666666263040CC
:103AE0000EBE30992A18FF3F0000000000408F40B2
:103AF000302DEA93DC6143BF37894160E5D0F43F64
:103B00008FE4F21FD26FF0BF26AB22DC645439BFC2
:103B10000E2DB29DEFA7EE3F107A36AB3E57F23F27
:103B2000234A7B832F4CDABFCA54C1A8A44EFB3F63
:103B300000000000C0FEE3C093A98251499DCC3F24
:103B40007B14AE47E17A843F0F4757E9EE3A6BBFEB
:103B5000D5E76A2BF697E53FE10D6954E0646BBF4A
:103B6000A4703D0AD7A3EA3FB09DEFA7C64BC7BFDD
:103B7000F38E53742497F13FE08442041C4265BFE6
:103B80005839B4C876BEAFBF64247B849A21853F80
:103B90000ABFD4CF9B8A843F0000000000E0704041
:103BA00000000000008066405AF5B9DA8AFDE73F60
:103BB0009C33A2B437F8E83F52B81E85EB51F43F6E
:103BC00072F0B6FB1FED3E7B20EE077B8DED287B70
:103BD000B8F1000F0BF0248198ED089B1FED420B0C
:103BE00029EE000B72F09CFA1FED437B20EE070BD1
:103BF00072F026FC8DED5E0B9DED147B9DED2A6B26
:103C00001FED47DB1FED46BB37EE067B1FED426B1A
:103C100037EE0EEB1FED46CB3EEE0F5B1FED4A7B02
:103C20008DED0E5B35EE4D5BB0EE4CEB85EE0D8B06
:103C30009DED284BA8EE06BBA8EE07EB3BEE096B0B
:103C400024EE0BFB24EE06CB8DEDBCBB8DED2AEBF9
:103C5000B0EE4C0BB1EE4EBB8DEDBE6B72F060FA68
:103C6000B0EE4C4B3CEE406B1FED579BAEEE464B1F
:103C70008DEDC06BB0EE440BB0EE44EB72F050FA39
:103C800020EE097B0DF5D763B0EE470B83ED007B8B
:103C900072F04EFB8DED140BB0EE4F0B72F040FA4C
:103CA0003FEE407B0DF59763B0EE476B8DEDC27B29
:103CB000B0EE4F7BABEE067BB0EE470B83ED007BA7
:103CC00072F02EFA20EE097B0DF5E063B0EE470BA3
:103CD00083ED007B72F02CFB9DED146B9DED0E5B74
:103CE0008DED4A0B86EE006B85EE0D7B8DED366B10
:103CF0001FED776B87EE06DB1FED776B1FED767B95
:103D0000A8EE067B9DED026B26EE077B25EE079B5A
:103D10008DEDC47BB0EE4D0B8DED149B72F000FA6F
:103D200030EE007B0DF5E163B0EE470B83ED007BD9
:103D300072F086FB1FED827B1FED736B1FED821B04
:103D400020EE070B1FED827BA9EE067BB0EE476BE2
:103D50008DED4C7B1FED7E7B20EE070B1FED827BF4
:103D600080EE064B1FED886BA8EE067B9DED506B39
:103D700036EE075B1FED8A7BB5EEC05BA8EE071B36
:103D8000F1EE10FA8DEDC65B24EE05BB8DED4E4BCA
:103D90000AF1CF874BF3AE801FED8D7B8DED607BFD
:103DA0009DED607BB0EE4B0B21EE079B8DEDC89B2C
:103DB00072F0B6F9B0EE4B3B3BEE407B0DF58963FC
:103DC000A9EE473B8DEDCA7BB0EE430B83ED003B84
:103DD00072F0A6F90DF5E2631FED9B7B20EE077BE9
:103DE000B0EE470B83ED007B72F02AFB1FED9E6B5C
:103DF0001FED9D7B9DED504B8DEDCC0BA8EE067B12
:103E00001FED9F6BB0EE475B8DEDCE7B1FEDA07B72
:103E1000A8EE067BB0EE476B8DEDD27BB2EE0E7B4B
:103E200024EE078B9DED0E7B27EE057B9DED025B5F
:103E300025EE077B9DED145BA5EE007BB0EE480BF5
:103E4000B0EE479B8DEDD07B25EE067B8DED507B54
:103E500072F066F90DF5E36383ED000B72F068FA1A
:103E60000DF589639DED507B9DED5E6B93ED003B01
:103E700027EE007B8DEDD40B27EE067B9DED366B98
:103E8000A6EE097B9DED626B36EE077BB9F1000F64
:103E90000AF0BC870DF58D639DEDDE6B1FEDC25BF7
:103EA00036EE074B84EE056B93ED005B36EE456B0B
:103EB00089ED026BB8F1000F0BF03D8098ED185BB7
:103EC0001FEDC96B25EE066B8DED626BB9F1000F2E
:103ED0004ED00DF588630DF58F6293ED006B9DED6F
:103EE000DC5B0DF58B6336EE455B9DEDD84B93EDBA
:103EF000006BDDF8983636EE446BDB689DED184BB1
:103F000025EE045B9DED044BA6EE445B9DEDDE4B80
:103F10001FEDDB6B24EE066B1FEDDB4BA7EE446B56
:103F2000B6EE007B25EE075B1FEDDD7BA5EE076B94
:103F300092ED007B36EE076B9DED627B86EE077B94
:103F400089ED047B002B0AF04387D3E90001B9F126
:103F5000000F0DD0C9E90601D3E90201C9E9080142
:103F6000D3E90401C9E90A01D3E90623C9E90C230D
:103F7000DDF8983604F6D80A596800290AF0D08787
:103F8000534601F5C472DDF8C8552E9EF1E802894A
:103F90008A42E3E80289F9D1CDF8C8552E9604F596
:103FA00026630AF13008DDF8C8551A46CDF8A03668
:103FB0002E9E5346D3F800E0103353F80CCC103249
:103FC00053F8080C53F8041C434542F810EC42F82F
:103FD0000CCC42F8080C42F8041CEBD119685B6861
:103FE0001160536004F5116304F64812F3E802010E
:103FF0009342C3E96001F9D104F51862CDF8C855C0
:104000002E96F3E802019342C3E96001F9D104F668
:104010000832CDF8C8552E96CDF8A82704F6B81268
:10402000F3E802019342C3E96001F9D104F5346277
:10403000CDF8C8552E96CDF8782604F51F62F3E822
:1040400002019A42C3E96001F9D1134604F67832BD
:10405000CDF8C855CDF8AC2704F628222E96F3E803
:1040600002019342C3E96001F9D104F53B62CDF846
:10407000C8552E96CDF8D825DDF8A026F3E8020124
:104080009A42C3E96001F9D104F528612E9604F53E
:104090003166B2EE0B5B04F529620DF59A63CDF83B
:1040A000D86604F5326604F57960CDF8C855CDF8C8
:1040B000DC6604F5336604F57A65CDF8A407CDF81F
:1040C000A86604F58156CDF8C0560546CDF8D466ED
:1040D00004F5356604F57F6041F27009CDF8E066BD
:1040E00004F53666CDF8CC0641F21000CDF8E46652
:1040F00004F53766201841F29008CDF8E86604F51B
:104100003866CDF8D006A044CDF8EC6604F53966E3
:10411000A144CDF8906604F53A6691ED007B11ED6F
:10412000026B9FEDFD2B27EE057B0DF5C161CDF8F0
:10413000F06604F53C6626EE054BCDF8F46604F512
:104140003D6627EE027BCDF8F86604F53E66CDF8B5
:10415000FC6641F2A80681ED004B0DF5C261A6197F
:1041600081ED007B12ED027B83ED003B04F52763BC
:10417000DDF8A01627EE051B13ED023B93ED006B57
:104180000DF58D6391ED009B83ED003B0DF5AF6167
:104190000DF5C46381ED006B9DEDEE0B83ED001B0F
:1041A00092ED006B0DF5D66383ED006B72F048F96C
:1041B0000DF5B863B0EE406B83ED009B0DF59F638A
:1041C00093ED004B0DF58D6393ED003B0DF5AF6363
:1041D00029EE047BB7EE009B93ED001B9FEDD04BC7
:1041E0000DF5A463A1EE043BB0EE491BB0EE494BC4
:1041F0009DEDE05B8DEDD86BB0EE496B83ED003B40
:10420000B0EE493B0DF581639DEDEA2BA5EE053B34
:104210009DEDD65B9DEDE20BA5EE051B9DEDEC5BE8
:104220008DEDDC3BB0EE493BA5EE056B9DEDE45B0F
:104230008DEDDE1BB0EE491BA5EE054B9DEDE85B59
:104240008DEDE06BB0EE496BA5EE053B9DEDF65BA9
:104250008DEDE24BB0EE494BA5EE051BB0EE495B90
:104260008DEDE43BA2EE025BB0EE493B9DEDF82BF9
:104270008DEDE81BB0EE491BA2EE024B9DEDFA2B33
:104280008DEDEA5B93ED005BA2EE023B0DF58063E2
:104290009DEDFC2B8DEDEC4BB0EE494BA2EE026B8D
:1042A0009DEDDA2B8DEDEE3BB0EE493BA2EE021B0D
:1042B000B0EE492B8DEDF66BA5EE052BB0EE496BFC
:1042C0008DEDF81BB0EE491B8DEDFA2B9DEDFE5BDD
:1042D0009DEDF02BA5EE053B93ED005B0DF58263A4
:1042E000A5EE054B93ED005B0DF58163A5EE056B27
:1042F000B0EE495B8DEDFC3BA2EE025BB0EE493BBC
:1043000083ED006B0DF58263B0EE496B8DEDFE4BD6
:1043100083ED005B0DF58363B0EE494B93ED002B0D
:10432000A2EE021BB0EE492B83ED001B0DF584635A
:10433000B0EE491B93ED005BA5EE052B83ED002B42
:104340000DF5866393ED005B0DF58863A5EE053BE7
:104350009DEDE65BA5EE056B83ED003B0DF58963F6
:1043600083ED006B0DF58A63B0EE496B93ED005B56
:10437000AAEE0A6BA5EE054BB0EE49AB83ED004B00
:104380000DF5876393ED005B0DF58B63A5EE051BC3
:10439000B0EE495B83ED001B0DF58C6393ED002BB4
:1043A000A2EE025BB0EE492B83ED005B0DF58E6350
:1043B00093ED005BA5EE052B83ED002B0DF58F63D0
:1043C00083ED006B0DF5906393ED005BA5EE05ABFF
:1043D00083ED00AB0DF59163B0EE49AB93ED005B5F
:1043E000A5EE05AB83ED00AB0DF59463B0EE49ABE4
:1043F00093ED005B0DF59563A5EE05AB83ED00AB8A
:10440000B0EE49AB0DF59663AFEE0FABB0EE49FBE6
:1044100083ED00AB0DF5976393ED002BA2EE02FB4D
:1044200083ED00FBB0EE49FB0DF59863ACEE0CFBA1
:10443000B0EE49CBAEEE0ECBB0EE49EB83ED00FB18
:10444000ADEE0DEB0DF59963B0EE49DB83ED00CBDE
:10445000ABEE0BDB0DF59B6383ED00EB0DF59C6381
:10446000B0EE49EB9FED30BBA8EE08EBB6EE008B4B
:1044700083ED00DB0DF59A63B0EE49DB93ED003B75
:104480000DF59D63A3EE03DB9FED29CB27EE0CAB6F
:1044900083ED00DB27EE0BDB0DF59E632AEE08AB08
:1044A0002DEE08BB83ED00EB0DF5E56383ED00DB3E
:1044B0009FED21DB9FED22EB71F0C2FF0DF5A463B0
:1044C0002BEE0DBBB0EE407B93ED00DB2BEE0ECB65
:1044D0000DF5AF63B0EE49BB93ED00FB9DEDF2EB44
:1044E0009DED163B9FED184BAEEE0EBB0DF5B86380
:1044F0008EEE036B2FEE045BB0EE4CFB9FED14EBE6
:104500009DED381B8DEDDA7B9AEE0EFB8DEE037B75
:104510009DED30EB68E000BFC4E40A627205114013
:104520005AF5B9DA8AFDE73F1F85EB51B89EF23F95
:10453000F7285C8FC2750A40953FEA943FEAE43F52
:10454000BE9F1A2FDD24E23F52B81E85EB51F43F87
:10455000919191919191E13F0E2DB29DEFA7EE3F88
:1045600026AB22DC645439BFFCA9F1D24D62503F26
:10457000F38E53742497F13FC4E40A62720511402C
:10458000E5D022DBF9BE2840D5E76A2BF697E53F58
:104590009C33A2B437F8E83FDEDCDCDCDCDCDC3F5B
:1045A000E7FBA9F1D2CD2B4037894160E5D0F43F3C
:1045B00071AF30A478EAEB3F64247B849A21853F75
:1045C000E08442041C4265BF234A7B832F4CDABF40
:1045D00000000000C0FEE3C0A4703D0AD7A3EA3F7C
:1045E0000F4757E9EE3A6BBF9DEDF40B1FED26DB4D
:1045F0008EEE01EB1FED261B8DEDD6EB93ED00EB60
:104600000DF5AC63B0EE4E2BA5EE08EBA5EE482BF6
:10461000B1EE468BB0EE415B83ED00EB0DF5E76349
:10462000A6EE427B83ED002B0DF5B06383ED008B8E
:104630000DF5A06387EE0B2B83ED00BB0DF59363A7
:10464000B0EE49BB9DED3E7B1FED396B1FED38EBA6
:104650002FEE068B28EE011B8DEDF22B93ED002B38
:104660000DF58063A2EE02BB83ED001B1FED321B34
:104670000DF5866328EE012B8DEDF4BB9DED32BB6D
:104680001FED351B83ED002B8BEE07BB0DF5A663ED
:1046900028EE017B1FED382B83ED007B0DF5A76322
:1046A0008DEDF0BB1FED48BB28EE0B4B83ED004BAF
:1046B0001FED3D4B0DF5A86328EE047B83ED007BD9
:1046C00028EE027B0DF5A9631FED552B83ED007BD2
:1046D0000DF5C26393ED007B0DF5C16393ED004BC7
:1046E0000DF5E463A4EE027B83ED007B0DF585639D
:1046F00093ED004B0DF5876384EE037B9DED061B68
:10470000B0EE472BB0EE497BA4EE047B1FED644B6B
:1047100083ED007B0DF5926393ED003B0DF5946303
:10472000A3EE039B83ED009B83EE019B0DF5B66327
:104730001FED6B1B83ED009B0DF58D6393ED007BEF
:104740000DF5AF631FED6E9B93ED003B0DF5AE6372
:10475000A3EE497B1FED703B9DED449BAAEE03CB7E
:104760009DED34AB83ED007B0DF585638AEE09ABDF
:104770002CEE06BB9DED4A7B9DED369B9DEDDA6BE5
:104780002BEE055B89EE079B1FED7B3B83ED00ABBA
:104790009DEDF2AB0DF592632AEE047BB1EE424B38
:1047A0009DEDDCAB87EE0AAB1FED817B83ED009BBB
:1047B0000DF59A631FED829B83ED005B0DF5AD63F4
:1047C0002BEE015B1FED841B26EE0AAB2BEE076B75
:1047D0002AEE03AB83ED006B2BEE096B0DF5B56391
:1047E0001FED899B83ED006B0DF5C56383ED005BC9
:1047F0002BEE095B0DF5C66383ED005B2BEE015BD1
:104800000DF5C76383ED005B0DF5B76383ED002BFA
:104810000DF5BC6383ED004B0DF5B66393ED009B86
:104820009DED685B0DF5BD63B1EE494B2AEE457B0E
:1048300083ED004B0DF580639DED1E5B93ED001B3A
:104840000DF58663A5EE017B9DEDDE1B87EE016B0A
:104850009DED201B93ED005B9DED6E2B37EE466BBF
:1048600021EE066BA2EE056B37EE466B9DEDE07B0D
:1048700086EE079B9DEDD86B29EE0D9B26EE099BDE
:1048800071F0DEFD0DF5A163B0EE405B9DED6A6B4E
:1048900093ED000B0DF580632AEE467B93ED006BE4
:1048A0009DED1EAB9DEDE22B0DF5E663AAEE067BBA
:1048B0001FEDBBAB9DED706B28EE0A1B26EE0F3B88
:1048C0009DED02AB9DED086B2AEE011B9DED20AB2B
:1048D000A1EE063B87EE026B83ED001B0DF5B16385
:1048E00083ED003B0DF586639DED6C1B93ED004B56
:1048F0000DF5A16383ED005B0DF5B26337EE466BFA
:104900002AEE066BA1EE046B37EE467B9DEDE46B61
:1049100087EE066B26EE0D7B25EE077B9DED385B63
:1049200087EE056B9DEDD67BB0EE463B97EE093BDF
:1049300083ED003B71F0FCFC0DF5A263B0EE407B13
:1049400093ED000B8DEDE67B71F0F2FC0DF5A363AA
:10495000B0EE407B93ED000B0DF5A663B0EE474B38
:1049600093ED003B9DEDE89B1FEDE76B1FEDE61B14
:1049700083EE097B0DF5A2639DED3C2B83ED004B8F
:104980001FEDE99B0DF5B16393ED003B37EE077B1F
:1049900024EE077B9DEDF24B27EE067BA8EE094B3C
:1049A00027EE017B9DED3A1B82EE016B87EE015BEA
:1049B00022EE047B23EE0E4BB1EE46ABA6EE445B3B
:1049C0009DED724B83ED00AB0DF5A76393ED00AB4E
:1049D000A4EE057B0DF5A8639DED544B9DED086B92
:1049E0009DED7A2B2AEE044B93ED00AB0DF5A963F8
:1049F0002AEE065B93ED001B9DED7EABA2EE0F5BF6
:104A00000DF5B2639DED1A2B22EE019B9DED741BFB
:104A1000AAEE039B9DEDEAAB87EE0A6B37EE466B81
:104A200021EE066B9DED761BA1EE046B9DEDEC4B2C
:104A300037EE467B93ED006B87EE04AB9DEDE67B96
:104A40002AEE0EAB27EE0AAB9DED787B22EE0AAB89
:104A5000A7EE03AB9DED027B9DED7C3BA7EE05AB86
:104A60009DED307B27EE0AABA3EE06AB71F0E8FCC0
:104A70000DF5AB63B2EE0E6BB0EE404B9DEDF23B2D
:104A80009DEDEE7B9DED525B23EE066B9DED803B35
:104A900093ED000B86EE077B0DF5A36383ED004BD2
:104AA0000DF5C36324EE077B27EE437B9DED823B30
:104AB000A3EE097BA7EE05AB83ED00AB71F0C0FC64
:104AC0000DF5A563B0EE406B93ED000B8DEDF26B31
:104AD00071F0B6FC0DF59363B0EE403B93ED002B07
:104AE0000DF5A4639DED061B93ED005B0DF5AA6328
:104AF00082EE016B85EE017B93ED000B0DF5AC634F
:104B000093ED005B9DEDF49B9FEDFD4B0DF5B263C6
:104B1000A6EE457BB1EE465B83ED005B9DEDF65B5B
:104B20000DF5936387EE091B21EE047B83ED001BDB
:104B30000DF5A46387EE05AB83ED003B9DED841B73
:104B40000DF580639DED225B93ED002B0DF58663E3
:104B500023EE0AAB9FEDFA3B2AEE03AB9DEDF23B51
:104B60002AEE417B9DEDF81BA5EE027B93ED005BE9
:104B70009DED8A2B87EE016B9DED241B37EE466B76
:104B800021EE066BA2EE056B37EE466B9DEDFA7BD0
:104B900086EE079B29EE0D9B23EE099B71F050FCDE
:104BA0000DF58063B0EE403B9DED866B93ED002BE1
:104BB0009DED225B2AEE467B0DF5B4639DED8CAB3B
:104BC00093ED000BA5EE027B0DF5E6632AEE0FAB2D
:104BD0009DEDFC2B93ED001B9DED0A5B87EE026BB8
:104BE0000DF58663A1EE05AB9DED241B93ED004B07
:104BF0009DED882B0DF5A56383ED003B0DF58663D8
:104C000037EE466B21EE066BA2EE046B9DEDFE4B7C
:104C100037EE467B87EE046B9DEDF04B26EE0D7B69
:104C200023EE077B9DED3E3B87EE036B94EE096B15
:104C300083ED006B71F07CFB0DF5B363B0EE407B50
:104C400093ED000B0DF5806383ED007B71F070FB3D
:104C50000DF5A663B0EE405B2AEE0E3B93ED002B04
:104C60000DF5816393ED009B0DF5936382EE097B57
:104C700093ED000B9FEDAE9B0DF5A763A8EE090B1E
:104C800093ED008B0DF5A8639DED102BB0EE406BFE
:104C90009DED580B28EE004B93ED000B9DED0A8B1C
:104CA0000DF5A96337EE077B20EE081B25EE077B89
:104CB00093ED000B9DED968B0DF5C86322EE009BE6
:104CC000A8EE0F1B9DED9AFB9DED428B93ED000B23
:104CD000AFEE0A9B0DF5A66328EE066B9FED90FBE9
:104CE00083ED005B0DF5B36327EE0F7B9FED8EFB2D
:104CF00027EE0F7B9DED40FB87EE0F5B88EE0F7B71
:104D00009DED8EFBA7EE435BB1EE478B83ED008BF1
:104D10000DF58263AFEE056B93ED00FB9DED908B7F
:104D20000DF5836386EE0F7B9DED92FB36EE477BA0
:104D300028EE077B93ED008B0DF58063AFEE047BCF
:104D400093ED00FB0DF5866336EE476B9DED987B8A
:104D500086EE088B28EE0E8B2FEE088B9DED94FBD4
:104D600022EE088BAFEE0A8B9DED02AB9DED32FB80
:104D7000AAEE018B2FEE088B93ED00FBA7EE0F8BB5
:104D800071F05EFB0DF59363B2EE0E6BB0EE401B5F
:104D9000B2EE0B7B93ED00FB0DF5D66393ED000BAC
:104DA0000DF5CC632FEE066B20EE075B93ED000B49
:104DB0000DF5846393ED00FB9FED532B0DF5A76379
:104DC00086EE0F7B25EE026BB0EE48FB9DED568B19
:104DD000B0EE464B9DED9C6B83ED001B0DF5CC6357
:104DE00021EE077B27EE467B9DED9E6B83ED004B0E
:104DF0000DF5C463A6EE097B9DED189BA7EE08FB9D
:104E0000B0EE448B9DED2C7BB0EE4F1B93ED00FB81
:104E10000DF5AF63AFEE028B93ED00FB0DF58D63E7
:104E2000B0EE485B9DED648B2FEE086B93ED008B2D
:104E30000DF5E4639DED04FBA8EE076B93ED008B8D
:104E40000DF5C36328EE0F4B93ED007B0DF5E66384
:104E500037EE017B83ED001BA7EE094B0DF5E463F4
:104E60002FEE477BA8EE097B83ED004B0DF5E56344
:104E700093ED008B0DF5D66337EE057B37EE487B5F
:104E80009FED238BA7EE086B83ED006B71F0D8FAD2
:104E90000DF5CA63B0EE407B93ED000B0DF5866314
:104EA00083ED007B71F0CCFA0DF5CB63B0EE407B67
:104EB00093ED000B0DF5AE63B0EE476B93ED008BF9
:104EC0009DED163B0DF5B76388EE037B93ED008BEC
:104ED0000DF5E76393ED002B0DF587639FED084B10
:104EE0009DED26FBA2EE487B93ED008B0DF58863CC
:104EF00087EE083B93ED008B0DF5A86324E000BF1F
:104F0000E5D022DBF9BE2840C4E40A6272051140F4
:104F100074E501C93A576E3F234A7B832F4CDABFB1
:104F200000000000C0FEE3C0A4703D0AD7A3EA3F22
:104F30000F4757E9EE3A6BBFE5D022DBF9BE2840B8
:104F4000E7FBA9F1D2CD2B4083ED006B0DF59A6301
:104F500093ED002B0DF5896323EE047B8DED023B71
:104F60001FED093B87EE089B9DEDA07B93ED008B29
:104F70000DF5AD6326EE099B29EE039B93ED003BF7
:104F80000DF58A6329EE477BAFEE027B9DEDA62BE4
:104F900087EE086B9DED1C8B37EE466B28EE066B9B
:104FA000A2EE036B37EE466B93ED007B0DF5866347
:104FB00086EE078B93ED007B28EE0D8B27EE088B9A
:104FC00071F03EFA0DF5CE63B0EE404B9DEDA27B45
:104FD00093ED000B0DF59A6329EE477B93ED005B93
:104FE0000DF5CA63AFEE057BB0EE4AFB1FED365BF5
:104FF0009DEDA43B2BEE052B9DEDA85B2AEE022B2D
:1050000025EE0C9B9DED0CAB83ED002B0DF58B631A
:10501000AAEE029B93ED00AB0DF5AD6387EE0A6B34
:105020009DED1CAB93ED002B0DF58C6337EE466BBD
:105030002AEE066BA3EE026B93ED003B0DF5A96320
:1050400083ED004B0DF5856337EE467B87EE036BF2
:1050500026EE0D7B24EE077B9DED444B87EE046B23
:1050600093ED007B0DF59363B0EE461B97EE081BA6
:1050700083ED001B71F05CF90DF5CD63B0EE407B64
:1050800093ED000B0DF58D6383ED007B71F050F90E
:105090000DF5D063B0EE407B29EE0E4BB0EE47AB82
:1050A00093ED000B0DF5B56393ED001B0DF58E63CD
:1050B00093ED008B1FED666B9DED482B81EE087B19
:1050C0000DF5AA631FED681B9DED468B9DED023B20
:1050D00083ED00AB0DF5AB6383ED003B0DF5B463E1
:1050E00037EE077B2AEE077B1FED6FAB27EE067BC3
:1050F00082EE086B27EE017B9DEDAA1B87EE085B15
:10510000B0EE437B9DED0C8BABEE0A7B9DED123B2D
:1051100022EE077BA6EE445BB1EE466B83ED006B9F
:105120000DF5C563A1EE057B93ED00AB9DED5C5BDA
:105130000DF5C6632AEE054B93ED00AB0DF5C76385
:1051400028EE0A5B93ED006B9DEDB2AB0DF58F631E
:1051500023EE068BAAEE0C5B9DEDB66B93ED00ABD8
:105160009DEDAC2BA6EE098B0DF5906387EE0A6BD7
:105170009DEDAE1B93ED00AB0DF58D638DED02FB48
:1051800037EE466B22EE066BA1EE046B37EE467BE4
:105190009DEDB06B87EE0AAB93ED007B0DF593634D
:1051A0002AEE0EAB27EE0AAB23EE0AAB93ED003BE3
:1051B000A6EE09AB9DEDB49BAFEE05AB9DED345B68
:1051C00025EE0AABA9EE03AB71F03AF90DF5AB632E
:1051D000B2EE0E9BB0EE406B93ED003B0DF5E0633D
:1051E00023EE093B93ED000B0DF5916393ED007BEE
:1051F0009DEDB89B9DEDBA4B83EE077B0DF5AB6340
:105200009DED5A3B83ED006B26EE077B27EE497B35
:10521000A4EE087BA7EE03AB71F012F90DF5D16394
:10522000B0EE407B93ED000B0DF5936383ED007BB7
:1052300071F006F90DF5AE63B0EE4AFBB0EE405BDF
:1052400093ED009B9DED066B0DF5AC6389EE067B3F
:1052500093ED00AB0DF5B66393ED006B0DF5D763E1
:1052600093ED000B0DF5946393ED009B1FEDCE4B7A
:105270000DF5C8631FEDCE3B9DEDBC8BAAEE467BC2
:1052800087EE09AB2AEE047B83ED00AB0DF5956349
:1052900093ED004B0DF5AC6387EE049B83ED005B53
:1052A0000DF59A639DED28AB9DED2A4B25EE099BEC
:1052B00093ED005B0DF5966329EE039B29EE487B89
:1052C000AAEE057B93ED005B0DF5AD639DEDC21B72
:1052D00093ED002B87EE056B0DF5976337EE466B6C
:1052E00024EE066BA1EE026B93ED002B0DF593639C
:1052F00093ED001B37EE466B86EE028B28EE0D8B8E
:1053000021EE088B71F09CF80DF59A639DEDBE7B44
:105310009DED0E5B9DED2A4B29EE477B93ED009BA7
:105320000DF5E263AAEE097BB0EE40AB9DEDC49BA8
:1053300093ED000B0DF5CA6329EE0C9B93ED002B4A
:105340000DF59863A5EE029B93ED002B0DF5AD6373
:1053500087EE026B93ED003B9DEDC02B0DF599633D
:1053600037EE466B24EE066BA2EE036B93ED003B2B
:105370000DF5AD6383ED00AB0DF5926337EE467B23
:1053800093ED002B87EE036B26EE0D7B9DED4A6BB4
:105390002AEE077B87EE06AB92EE08AB70F0C8FFF3
:1053A0000DF5E163B0EE407B93ED000B0DF59A63D4
:1053B00083ED007B70F0BCFF0DF5B56393ED001B32
:1053C0000DF59B6393ED008B0DF5C86381EE086BC3
:1053D000B0EE401B93ED003B9FEDFD0B0DF5C5635B
:1053E000ABEE003B93ED00BB9DED600B0DF5C6638E
:1053F0002BEE004B93ED000B9DED0EBB0DF5C7633F
:105400002BEE002B36EE066B9DEDCE0B93ED00BB25
:105410000DF5E36321EE066BA0EE0C2B9DED14CB96
:1054200093ED000B0DF5AE632CEE0BBB9DED4E8B9B
:1054300083ED001B9FEDE81B9DEDD2CB28EE037B97
:105440000DF5B56326EE016BACEE09BB29EE0E3B04
:105450009FEDE3CB9DED4C1B26EE0C6B9DEDC6CB7B
:1054600086EE015B88EE016B9DED021BA6EE435BB1
:10547000ACEE057BB1EE46CB83ED00CB0DF59C6326
:1054800093ED00CB0DF59D6387EE0C6B9DEDC8CBC6
:1054900037EE466B2CEE066B9DEDCACBACEE046B83
:1054A00093ED00CB0DF59A6337EE467B87EE0C8BC0
:1054B00093ED00CB28EE0E8B2CEE088B9DED14CBDC
:1054C0002CEE088B9DEDCCCBACEE098B9DED36CB55
:1054D000A1EE028B70F0B4FF0DF5C2630DF5D6623C
:1054E000DDF8480604F52A6C04F52B6E04F52F61EF
:1054F0009FEDBD2B2CEE088B9DEDD0CBACEE0A8B37
:1055000093ED00CB0DF5C16393ED009B0DF5C363E7
:10551000A9EE42CBB0EE4C5B93ED00CB0DF5E6630C
:1055200093ED001B0DF5CC6331EE4CAB93ED00CB4E
:105530000DF5C46393ED009B0DF5C863A9EE42CB56
:10554000B2EE0E9BB0EE4C6B93ED00CB0DF5AF635E
:105550002CEE094B93ED009B9DED66CB0DF5B863EA
:105560002CEE093B93ED009B9DED2CCB0DF59E633E
:10557000A9EE0C3B93ED00CB0DF5AF6384EE0C7BF5
:105580009DED04CB9DED189B2CEE4AAB92ED00CB2C
:1055900004F52D62A5EE09ABB6EE005B85ED00CB00
:1055A00083ED000B0DF5E46526EE056BCDF89C67E9
:1055B00041F2D80604F52C63CDF888172AEE05AB26
:1055C000A619CDF8C03541F25001CDF8A06741F2DF
:1055D000F00604F530636118A619CDF8082604F525
:1055E0008252CDF8903720EE077BCDF8806641F2ED
:1055F0000816CDF89427CDF898170023A61952461F
:105600008B49CDF888660DF5E0669DED500B95ED64
:1056100000CBDDF8C05627EE407B9DEDD40BA0EE0D
:105620000B7BB0EE430B9DED5EBBA7EE0B8B9FEDAE
:1056300070BB3FEE088BB0EE4BFB2BEE487B3CEE95
:10564000088B9FED6DBB98EE0B0B9FED6DBB9FED37
:105650006E8BACEE0B7B9DED62CB05ED020B86ED08
:10566000000B0DF5E166AAEE087BB2EE0BABA6EEE1
:10567000087B87EE0C9B85ED009BDDF8C05515ED92
:10568000027B9CED000B1EED02CB27EE0A7BB0EEF9
:10569000404B2CEE081B27EE020BB0EE428B95ED33
:1056A000007B0DF5E56527EE0A7B86ED009B1CED82
:1056B000029B85ED007BB0EE447B0DF59F650DF5FB
:1056C000E26CACEE0B7B95ED00BB0DF5E36585ED73
:1056D000004B0DF5E265ACEE4F4BB0EE472B29EEDB
:1056E0000B7BB0EE49BBB0EE49FBB0EE459B85EDC0
:1056F00000BBA1EE05BB0DF5D765A1EE45FB9EED08
:10570000006BB0EE4B5BB0EE40BB26EE0A6BB0EE2A
:105710004F3BA6EE08BBA6EE480B85ED00BB0DF592
:10572000E8659FED3BBB85ED000BDDF808660DF5E8
:10573000E66527EE0BBB16ED026B9DED06FB26EE34
:105740000A6B9DED16AB26EE080B82EE0A1B82EE6D
:105750000F6BB0EE4B8B84EE0A2B85ED000B0DF535
:10576000B0659FED2DBB95ED000B0DF5B26527EEF5
:105770000B7B95ED00BB0DF5A06527EE097BA0EE38
:10578000031BABEE056B95ED00BB0DF5E46581EEFB
:105790000B0B9DEDF4BB85ED008B0DF5B76586EE2B
:1057A0000BBB28EE096BB0EE4B1B9FED1DBB26EE2D
:1057B0000B6B9FED1DBB26EE0BBB95ED006B0DF546
:1057C000B665A6EE432B84EE0F3B33E0AFF30080CB
:1057D0000F4757E9EE3A6BBF00000000C0FEE3C080
:1057E000A4703D0AD7A3EA3FC4E40A6272051140DF
:1057F0009C33A2B437F8E83F74E501C93A576E3FCD
:105800005AF5B9DA8AFDE73F52B81E85EB51F43FED
:105810001F85EB51B89EF23FF7285C8FC2750A4096
:10582000953FEA943FEAE43FBE9F1A2FDD24E23F12
:1058300000D9070895ED004B0DF587659FEDFE6BD0
:10584000A4EE453B95ED004B0DF5946595ED009B61
:105850000DF5C96582EE04FB83EE099BB0EE4B3B70
:105860009DEDDC4B9DEDDA2B85ED009B9FEDF49BD0
:105870000DF5B86597EE093B9FEDF39BA7EE09BBCD
:1058800020EE067BB0EE435B9FEDF13B87EE044BD1
:1058900021EE067B85ED005B0DF5C16585ED001BF6
:1058A0000DF5A46522EE044B9FEDEB2B24EE034B8C
:1058B00025EE028B2BEE029B9DEDF62B87EE025B15
:1058C00095ED007B0DF5C56527EE055B25EE037BA9
:1058D00085ED007B9FEDE27B0DF5886528EE071BCB
:1058E00029EE072B2FEE067B95ED006B0DF5A865D5
:1058F00087EE066B95ED007B0DF5CC6527EE066B0C
:105900009DEDE87B26EE036B81EE073B85ED006B9A
:105910000DF5816595ED006B0DF5A26581EE067BB9
:1059200095ED006B9FEDD01B0DF5A66595ED005B29
:105930000DF5C26533EE033B26EE033B9DED3A6B5E
:1059400023EE013B37EE077B25EE077B9FEDC85B1F
:1059500027EE017B23EE053B27EE057B83EE063B1E
:10596000B0EE43AB9DED403B87EE033B85ED003B46
:105970000DF58E6595ED003B0DF59B6582EE033BC5
:1059800095ED007B0DF5AA6582EE077B95ED006B2A
:105990000DF5AE6595ED002B0DF5CB6533EE033BB4
:1059A00026EE033B37EE077B23EE013B22EE077B1F
:1059B00023EE053B27EE017B9DED461B9FEDA42BBF
:1059C00027EE057B83EE013B9DED4C1B85ED003BF7
:1059D00087EE013B0DF5CE6585ED003B0DF5C96504
:1059E0009FED953B95ED005B0DF5956525EE033B31
:1059F00095ED006B0DF5AC6583EE067B95ED001B18
:105A00009FED9D6B0DF5B86528EE063B9DED705B37
:105A100021EE077B9DED021B27EE027B21EE033B6F
:105A200095ED002B0DF5C36525EE022B9DED085B72
:105A3000A3EE052B9DED8C5B85ED002B0DF5B86578
:105A400095ED002B0DF5C76525EE022B9DED0A5B4C
:105A5000A3EE052B29EE063B9DEDA85B9DED0C6B9F
:105A600085ED002B25EE0B2B0DF5CA6521EE033BD2
:105A7000B0EE425BA6EE035B9DED0E6B85ED005B29
:105A80009DEDC45B0DF5CD6525EE0B2BB0EE425BB5
:105A9000A6EE035BB0EE403B9FED796BA8EE063BB4
:105AA00085ED005BB2EE0E5B0DF5A36520EE050BF8
:105AB000B0EE432B9DEDEE3B80EE031B9DED3C0BCA
:105AC00020EE022B95ED000B0DF5EA6520EE011B93
:105AD0009DED800B21EE403B85ED003B0DF5C16552
