:020000040800F2
:1000000000000820B1300108152E0108192E010842
:100010001D2E0108212E0108252E010800000000D8
:10002000000000000000000000000000292E010870
:100030002D2E010800000000312E0108352E010888
:1000400001310108013101080131010801310108C4
:1000500001310108013101080131010801310108B4
:1000600001310108013101080131010801310108A4
:100070000131010801310108013101080131010894
:100080000131010801310108013101080131010884
:100090000131010801310108013101080131010874
:1000A0000131010801310108013101080131010864
:1000B0000131010801310108013101080131010854
:1000C0000131010801310108013101080131010844
:1000D0000131010801310108013101080131010834
:1000E000392E0108013101080131010801310108EF
:1000F0000131010801310108013101080131010814
:100100000131010801310108013101080131010803
:10011000013101080131010801310108512E0108A6
:1001200001310108013101080131010801310108E3
:1001300001310108013101080131010801310108D3
:1001400001310108013101080131010801310108C3
:1001500001310108013101080131010801310108B3
:1001600001310108013101080131010801310108A3
:1001700001310108013101080131010800000000CE
:100180000131010801310108013101080131010883
:100190000131010801310108013101080131010873
:1001A00000000000000000000131010801310108D9
:1001B0000131010801310108013101080131010853
:1001C000013101080131010800000000013101087E
:1001D0000131010801310108013101080131010833
:1001E0000131010801310108013101080131010823
:0801F0000000000001310108CC
:1002000010B5054C237833B9044B13B10448AFF350
:1002100000800123237010BDB809002000000000F9
:10022000ECF4080808B5034B1BB103490348AFF3CE
:10023000008008BD00000000BC090020ECF40808A4
:1002400081F0004102E000BF83F0004330B54FEA87
:1002500041044FEA430594EA050F08BF90EA020FF4
:100260001FBF54EA000C55EA020C7FEA645C7FEA87
:10027000655C00F0E2804FEA5454D4EB5555B8BFAA
:100280006D420CDD2C4480EA020281EA030382EA1B
:10029000000083EA010180EA020281EA0303362DAD
:1002A00088BF30BD11F0004F4FEA01314FF4801C80
:1002B0004CEA113102D0404261EB410113F0004F92
:1002C0004FEA03334CEA133302D0524263EB430349
:1002D00094EA050F00F0A780A4F10104D5F1200EE7
:1002E0000DDB02FA0EFC22FA05F2801841F1000142
:1002F00003FA0EF2801843FA05F359410EE0A5F116
:1003000020050EF1200E012A03FA0EFC28BF4CF046
:10031000020C43FA05F3C01851EBE37101F00045FC
:1003200007D54FF0000EDCF1000C7EEB00006EEB09
:100330000101B1F5801F1BD3B1F5001F0CD3490893
:100340005FEA30004FEA3C0C04F101044FEA4452EA
:1003500012F5800F80F09A80BCF1004F08BF5FEA71
:10036000500C50F1000041EB045141EA050130BD51
:100370005FEA4C0C404141EB0101013C28BFB1F563
:10038000801FE9D291F0000F04BF01460020B1FAAE
:1003900081F308BF2033A3F10B03B3F120020CDA81
:1003A0000C3208DD02F1140CC2F10C0201FA0CF05F
:1003B00021FA02F10CE002F11402D8BFC2F1200CC4
:1003C00001FA02F120FA0CFCDCBF41EA0C0190407A
:1003D000E41AA2BF01EB0451294330BD6FEA0404C3
:1003E0001F3C1CDA0C340EDC04F11404C4F12002AE
:1003F00020FA04F001FA02F340EA030021FA04F3C0
:1004000045EA030130BDC4F10C04C4F1200220FA16
:1004100002F001FA04F340EA0300294630BD21FA54
:1004200004F0294630BD94F0000F83F4801306BF1A
:1004300081F480110134013D4EE77FEA645C18BF0E
:100440007FEA655C29D094EA050F08BF90EA020FA5
:1004500005D054EA000C04BF1946104630BD91EA9D
:10046000030F1EBF0021002030BD5FEA545C05D1A0
:100470004000494128BF41F0004130BD14F58004DF
:100480003CBF01F5801130BD01F0004545F0FE4153
:1004900041F470014FF0000030BD7FEA645C1ABF88
:1004A000194610467FEA655C1CBF0B46024650EABF
:1004B000013406BF52EA033591EA030F41F40021EB
:1004C00030BD00BF90F0000F04BF0021704730B571
:1004D0004FF4806404F132044FF000054FF0000146
:1004E00050E700BF90F0000F04BF0021704730B507
:1004F0004FF4806404F1320410F0004548BF4042DC
:100500004FF000013EE700BF42004FEAE2014FEA30
:1005100031014FEA02701FBF12F07F4393F07F4F0B
:1005200081F06051704732F07F4208BF704793F00E
:100530007F4F04BF41F40021704730B54FF4607421
:1005400001F0004521F000411CE700BF50EA010224
:1005500008BF704730B54FF000050AE050EA0102CD
:1005600008BF704730B511F0004502D5404261EB3D
:1005700041014FF4806404F132045FEA915C3FF47E
:10058000D8AE4FF003025FEADC0C18BF03325FEA1B
:10059000DC0C18BF033202EBDC02C2F1200300FACC
:1005A00003FC20FA02F001FA03FE40EA0E0021FAF1
:1005B00002F11444BDE600BF70B54FF0FF0C4CF4DF
:1005C000E06C1CEA11541DBF1CEA135594EA0C0F91
:1005D00095EA0C0F00F0DEF82C4481EA030621EACC
:1005E0004C5123EA4C5350EA013518BF52EA033507
:1005F00041F4801143F4801338D0A0FB02CE4FF0B9
:100600000005E1FB02E506F00042E0FB03E54FF0E8
:100610000006E1FB03569CF0000F18BF4EF0010EE0
:10062000A4F1FF04B6F5007F64F5407404D25FEADC
:100630004E0E6D4146EB060642EAC62141EA55518F
:100640004FEAC52040EA5E504FEACE2EB4F1FD0CD1
:1006500088BFBCF5E06F1ED8BEF1004F08BF5FEA4F
:10066000500E50F1000041EB045170BD06F0004601
:1006700046EA010140EA020081EA0301B4EB5C04AE
:10068000C2BFD4EB0C0541EA045170BD41F48011A6
:100690004FF0000E013C00F3AB8014F1360FDEBFCB
:1006A000002001F0004170BDC4F10004203C35DAA7
:1006B0000C341BDC04F11404C4F1200500FA05F32A
:1006C00020FA04F001FA05F240EA020001F00042CB
:1006D00021F0004110EBD37021FA04F642EB060141
:1006E0005EEA430E08BF20EAD37070BDC4F10C046B
:1006F000C4F1200500FA04F320FA05F001FA04F22F
:1007000040EA020001F0004110EBD37041F100011A
:100710005EEA430E08BF20EAD37070BDC4F1200525
:1007200000FA05F24EEA020E20FA04F301FA05F28D
:1007300043EA020321FA04F001F0004121FA04F235
:1007400020EA020000EBD3705EEA430E08BF20EA05
:10075000D37070BD94F0000F0FD101F0004640003F
:1007600041EB010111F4801F08BF013CF7D041EAC1
:10077000060195F0000F18BF704703F000465200C5
:1007800043EB030313F4801F08BF013DF7D043EA96
:100790000603704794EA0C0F0CEA135518BF95EA4C
:1007A0000C0F0CD050EA410618BF52EA4306D1D1D3
:1007B00081EA030101F000414FF0000070BD50EAF2
:1007C000410606BF1046194652EA430619D094EA7C
:1007D0000C0F02D150EA013613D195EA0C0F05D166
:1007E00052EA03361CBF104619460AD181EA0301BA
:1007F00001F0004141F0FE4141F470014FF0000072
:1008000070BD41F0FE4141F4780170BD70B54FF00C
:10081000FF0C4CF4E06C1CEA11541DBF1CEA13558C
:1008200094EA0C0F95EA0C0F00F0A7F8A4EB05046E
:1008300081EA030E52EA03354FEA013100F0888065
:100840004FEA03334FF0805545EA131343EA12632E
:100850004FEA022245EA111545EA10654FEA0026E3
:100860000EF000419D4208BF964244F1FD0404F59C
:10087000407402D25B084FEA3202B61A65EB0305F8
:100880005B084FEA32024FF480104FF4002CB6EBB5
:10089000020E75EB030E22BFB61A754640EA0C0035
:1008A0005B084FEA3202B6EB020E75EB030E22BF75
:1008B000B61A754640EA5C005B084FEA3202B6EBB6
:1008C000020E75EB030E22BFB61A754640EA9C0075
:1008D0005B084FEA3202B6EB020E75EB030E22BF45
:1008E000B61A754640EADC0055EA060E18D04FEA03
:1008F000051545EA16754FEA06164FEAC30343EAA3
:1009000052734FEAC2025FEA1C1CC0D111F4801F6F
:100910000BD141EA00014FF000004FF0004CB6E768
:1009200011F4801F04BF01430020B4F1FD0C88BF07
:10093000BCF5E06F3FF6AFAEB5EB030C04BFB6EB12
:10094000020C5FEA500C50F1000041EB045170BD05
:100950000EF0004E4EEA113114EB5C04C2BFD4EB32
:100960000C0541EA045170BD41F480114FF0000EB6
:10097000013C90E645EA060E8DE60CEA135594EA32
:100980000C0F08BF95EA0C0F3FF43BAF94EA0C0F35
:100990000AD150EA01347FF434AF95EA0C0F7FF4AA
:1009A00025AF104619462CE795EA0C0F06D152EAFE
:1009B00003353FF4FDAE1046194622E750EA4106E2
:1009C00018BF52EA43067FF4C5AE50EA41047FF4F3
:1009D0000DAF52EA43057FF4EBAE12E74FF0FF3C58
:1009E00006E000BF4FF0010C02E000BF4FF0010C29
:1009F0004DF804CD4FEA410C7FEA6C5C4FEA430CA2
:100A000018BF7FEA6C5C1BD001B050EA410C0CBFF0
:100A100052EA430C91EA030F02BF90EA020F002052
:100A2000704710F1000F91EA030F58BF994208BFB9
:100A300090422CBFD8176FEAE37040F00100704776
:100A40004FEA410C7FEA6C5C02D150EA013C07D1CD
:100A50004FEA430C7FEA6C5CD6D152EA033CD3D018
:100A60005DF8040B704700BF8446104662468C4612
:100A70001946634600E000BF01B5FFF7B7FF002845
:100A800048BF10F1000F01BD4DF808EDFFF7F4FF6E
:100A90000CBF012000205DF808FB00BF4DF808EDF9
:100AA000FFF7EAFF34BF012000205DF808FB00BF1C
:100AB0004DF808EDFFF7E0FF94BF012000205DF83E
:100AC00008FB00BF4DF808EDFFF7CEFF94BF0120F3
:100AD00000205DF808FB00BF4DF808EDFFF7C4FFEC
:100AE00034BF012000205DF808FB00BF4FEA410C35
:100AF0007FEA6C5C02D150EA013C0AD14FEA430C18
:100B00007FEA6C5C02D152EA033C02D14FF0000054
:100B100070474FF0010070474FEA410212F5001292
:100B200015D211D56FF47873B3EB625212D94FEA34
:100B3000C12343F0004343EA505311F0004F23FA1E
:100B400002F018BF404270474FF00000704750EA73
:100B5000013005D111F0004008BF6FF00040704730
:100B60004FF00000704700BF53B94AB9002908BFD1
:100B700000281CBF4FF0FF314FF0FF3000F074B978
:100B8000ADF1080C6DE904CE00F006F8DDF804E0E4
:100B9000DDE9022304B070472DE9F047089E0D46B9
:100BA00004468846002B4DD18A42944668D9B2FA51
:100BB00082F252B101FA02F3C2F1200120FA01F1EE
:100BC0000CFA02FC41EA030894404FEA1C45210C50
:100BD000B8FBF5FE1FFA8CF705FB1E8341EA0343C1
:100BE0000EFB07F199420BD91CEB03030EF1FF300A
:100BF00080F01E81994240F21B81AEF1020E6344E7
:100C00005B1AA4B2B3FBF5F005FB103344EA0344CE
:100C100000FB07F7A7420AD91CEB040400F1FF33DD
:100C200080F00881A74240F2058164440238E41B49
:100C300040EA0E4000211EB1D4400023C6E9004323
:100C4000BDE8F0878B4208D9002E00F0EE8000212D
:100C5000C6E900050846BDE8F087B3FA83F100292C
:100C60004AD1AB4202D3824200F2F980841A65EB8A
:100C7000030301209846002EE2D0C6E90048DFE7D2
:100C800002B9FFDEB2FA82F2002A40F09180A1EBB5
:100C90000C054FEA1C471FFA8CFE0121B5FBF7F348
:100CA00007FB1350250C45EA00450EFB03F0A84254
:100CB00008D91CEB050503F1FF3802D2A84200F267
:100CC000CB8043462D1AA4B2B5FBF7F007FB1055B5
:100CD00044EA05440EFB00FEA64508D91CEB0404BB
:100CE00000F1FF3502D2A64500F2BB802846A4EBF6
:100CF0000E0440EA03409EE7C1F120078B4022FA30
:100D000007FC4CEA030C20FA07F405FA01F31C4334
:100D1000FD404FEA1C4900FA01F3B5FBF9F8200C3D
:100D20001FFA8CFE09FB185540EA054508FB0EF03A
:100D3000A84202FA01F20BD91CEB050508F1FF3AB3
:100D400080F08880A84240F28580A8F102086544BE
:100D50002D1AA4B2B5FBF9F009FB105544EA05457C
:100D600000FB0EFEAE4508D91CEB050500F1FF3473
:100D70006CD2AE456AD90238654440EA0840A0FB0F
:100D80000294A5EB0E05A542C846A64656D353D0FD
:100D90005EB1B3EB080265EB0E0505FA07F722FA20
:100DA00001F3CD401F43C6E900750021BDE8F0877F
:100DB000C2F1200320FA03F10CFA02FC25FA03F336
:100DC00095400D434FEA1C471FFA8CFEB3FBF7F129
:100DD00007FB11302B0C43EA004301FB0EF0984255
:100DE00004FA02F408D91CEB030301F1FF382FD2F7
:100DF00098422DD9023963441B1AADB2B3FBF7F008
:100E000007FB103345EA034500FB0EF3AB4208D95C
:100E10001CEB050500F1FF3816D2AB4214D902389D
:100E20006544ED1A40EA014138E73146304607E7AC
:100E30008646E5E61846FAE64B45A9D2B9EB020824
:100E400064EB0C0E0138A3E74046EAE7204694E73E
:100E50004146D1E7D0467BE7023B654432E708468E
:100E600009E76444023842E7704700BF844641EA1C
:100E7000000313F003036DD1403A41D351F8043B12
:100E800040F8043B51F8043B40F8043B51F8043B64
:100E900040F8043B51F8043B40F8043B51F8043B54
:100EA00040F8043B51F8043B40F8043B51F8043B44
:100EB00040F8043B51F8043B40F8043B51F8043B34
:100EC00040F8043B51F8043B40F8043B51F8043B24
:100ED00040F8043B51F8043B40F8043B51F8043B14
:100EE00040F8043B51F8043B40F8043B51F8043B04
:100EF00040F8043B51F8043B40F8043B403ABDD273
:100F0000303211D351F8043B40F8043B51F8043B14
:100F100040F8043B51F8043B40F8043B51F8043BD3
:100F200040F8043B103AEDD20C3205D351F8043BA3
:100F300040F8043B043AF9D2043208D0D2071CBF6F
:100F400011F8013B00F8013B01D30B880380604698
:100F5000704700BF082A13D38B078DD010F003030E
:100F60008AD0C3F10403D21ADB071CBF11F8013B7E
:100F700000F8013B80D331F8023B20F8023B7BE7CD
:100F8000043AD9D3013A11F8013B00F8013BF9D2F8
:100F90000B7803704B7843708B7883706046704792
:100FA000A2EB0300704700BF02780B78012A28BF2C
:100FB0009A42F5D16DE9044540EA0104CDE90267A2
:100FC0006FF0000C4FEA447212B380EA010414F08F
:100FD000070F6AD100F0070420F0070004F00305B2
:100FE00021F007014FEAC505F0E8042314F0040FCF
:100FF000F1E804670CFA05F462EA040266EA040602
:101000000AD063EA0403624667EA0407664603E01F
:10101000F0E80423F1E8046782FA4CF582EA06045A
:10102000A4FA8CF46CBB83FA4CF583EA0705A5FAA5
:101030008CF595B950E9022351E9026782FA4CF523
:1010400082EA0604A4FA8CF483FA4CF583EA0705D5
:10105000A5FA8CF52543DBD09CB92DBAB5FA85F4F9
:1010600024F0070427FA04F1DDE9026723FA04F308
:1010700003F0FF0001F0FF01FDE80445A0EB0100D3
:10108000704724BAB4FA84F424F0070426FA04F171
:10109000DDE9026722FA04F202F0FF0001F0FF012D
:1010A000FDE80445A0EB0100704714F0030F3CD1AC
:1010B00010F0030428D150F8082B51F8083B82FAAD
:1010C0004CF582EA0305A5FA8CF55DB950F8042CBD
:1010D00051F8043C82FA4CF582EA0305A5FA8CF536
:1010E000002DE8D02DBAB5FA85F424F0070423FAD0
:1010F00004F122FA04F202F0FF0001F0FF01FDE822
:101100000445A0EB010070474FEAC40420F003003F
:1011100050F8082B21F0030151F8083B0CFA04F4B5
:1011200062EA040263EA0403C9E710F003041AD078
:10113000A1EB040120F00300E40750F8042B06D0D3
:101140000FD28B785FFAA2F4E41A06D12BB1CB78D8
:101150005FFAB2F4E41A00D11BB920465DF8104BD7
:10116000704701F1040150F8042BCC0721F0030172
:1011700051F8043B48D824D222F07F4482FA4CF53F
:1011800094EA1325A5FA8CF50AD165B951F8043B08
:1011900084EA0204B4EB036F0ED150F8042BEBE7A2
:1011A0004FEA132355E035F07F454DD10878FDE82F
:1011B0000445C0F1000070474FEA126203F0FF03DC
:1011C00047E002EA1C4482FA4CF594EA1345A5FA7A
:1011D0008CF50AD165B951F8043B84EA0204B4EBFA
:1011E000034F0CD150F8042BEBE74FEA134330E0E8
:1011F00015EA1C4528D10B884FEA124229E04FEA34
:10120000124203EA1C4324E002F0FF0482FA4CF588
:1012100094EA1365A5FA8CF50AD165B951F8043B37
:1012200084EA0204B4EB032F09D150F8042BEBE756
:101230004FEA13630DE015F0FF0F05D10B684FEA7D
:10124000122223F07F4304E04FF00000FDE8044544
:10125000704712BA1BBA82FA4CF482EA0304A4FA69
:101260008CF5B5FA85F402FA04F203FA04F34FEAB6
:101270001260FDE80445A0EB136070470000000019
:1012800090F800F06DE9024520F007016FF0000CC6
:1012900010F0070491F820F040F049804FF000046E
:1012A0006FF00700D1E9002391F840F000F1080049
:1012B00082FA4CF2A4FA8CF283FA4CF3A2FA8CF381
:1012C0004BBBD1E9022382FA4CF200F10800A4FAE8
:1012D0008CF283FA4CF3A2FA8CF3E3B9D1E904233C
:1012E00082FA4CF200F10800A4FA8CF283FA4CF373
:1012F000A2FA8CF37BB9D1E9062301F1200182FA2D
:101300004CF200F10800A4FA8CF283FA4CF3A2FA32
:101310008CF3002BC6D0002A04BF04301A4612BA40
:10132000B2FA82F2FDE8024500EBD2007047D1E943
:10133000002304F00305C4F100004FEAC50514F0D2
:10134000040F91F840F00CFA05F562EA05021CBFA3
:1013500063EA050362464FF00004A9E700000000BD
:1013600001F0FF01102A2BDB10F0070F08D010F856
:10137000013B013A8B422DD010F0070F42B3F6D15A
:10138000F0B441EA012141EA014122F007047FF073
:1013900000070023F0E80256083C85EA010586EACA
:1013A000010685FA47F5A3FA87F586FA47F6A5FA06
:1013B00087F68EB9EED1F0BC01F0FF0102F0070212
:1013C00032B110F8013B013A83EA010313B1F8D1BD
:1013D0000020704701387047002D06BF354603389E
:1013E000073815F0010F07D1013015F4807F02BFD7
:1013F000013015F4C03F0130F0BC0138704700BF28
:101400002C2088F025BC00BF43699B698B422DE9E5
:10141000F04F894683B025D10029D0F80080D0E96B
:1014200006671BDD15460024DFF850B0DFF850A03A
:101430002346424639463046CDE900B518F0CEF88D
:10144000234601340195424639463046CDF800A086
:1014500018F0F4F8A14505F10805E9D1002003B022
:10146000BDE8F08F07480A4607490068C06888F061
:10147000AFF9012003B0BDE8F08F00BFE4F5080824
:10148000E8F508080C00002008F508080D2B70B5D9
:1014900016D1436905469B698B420FDD00290DDBA0
:1014A0006824406A164604FB01F411462044836810
:1014B0009847A86A3146204483689847002070BD49
:1014C0000D221946024888F05DFF012087F0A0FF39
:1014D000F0F50808000000002DE9F04F0D23AFB033
:1014E00004468A46099008462362179217F0B6FE12
:1014F000012205216061034601709245C1680272B4
:101500004FF00000087040F3DC87D968885401323E
:101510009245FAD1DA6802F80A00002211461869E9
:1015200081545868815401329245F8DC00221046FB
:101530005969885401329245FADC0AF10106596969
:1015400003F110020024350101F80A4006EB860879
:101550001D9507CA8DE807000FCB17F0D9FE099B30
:101560008346986106EB0610800088F071FB074601
:1015700010902C2006EB4601A24500FB0670C6EB3E
:10158000C60306EBC6020A904FF0340000FB06705B
:101590001C90A5EB060007EB80000C90384607EB8B
:1015A00086070544189700EBC607139500EB8805DE
:1015B000119700EB8107149500EBC805129716955B
:1015C00000EBC10500EB011115950B9100EB8301B8
:1015D000199100EB46111A914FEA820100EB820249
:1015E0001E911B924FEAC30200EBC3031F920F939D
:1015F0004FEA8613209300EB86130D9367DB189A4E
:10160000109B043A1699043BCDF88CA0079204393C
:101610001C9A0E910321A2F104091B9A21932346DF
:10162000A2F104080F9ADDF838A0A2F1040E119A75
:101630000E96A2F1040C129A219E171F139ACDF850
:1016400088B0043A0692149A151F159A043A059226
:10165000199A101F1A9A043A08920422DDF820B051
:101660000890079846F8041F40F8042F07900720B9
:1016700049F8043F48F8041F4EF8040F06984CF848
:10168000043F47F8042F40F8043F0690059845F8BA
:10169000043F40F8041F0590089840F8043F089064
:1016A0000A984BF8043F4AF8042F40F824300B986E
:1016B00040F824300C9840F824300D9840F824303D
:1016C00001340E988442CCD10646DDE922BA0323C8
:1016D000109A0025189F42F8363016461D9A584633
:1016E000DDF87080B5501E9ADDF86C90B350209AEA
:1016F0000B99B35007231F9AB3500F9B119A47F8C9
:101700002A5048F82A5049F82A5043F82A5042F8FB
:101710002A50129A42F82A50169A42F82A500A9AE7
:1017200042F82A5002EB8A0241F82A500A920C9998
:10173000139A41F82A5042F82A50149A1A9942F8FA
:101740002A50159A42F82A50199A42F82A5002EB68
:101750008A0241F82A500B9217F002FF099A0446B8
:1017600001463346D0615846714A11F013FF3B469B
:10177000704A2146584611F00DFF43466E4A2146F5
:10178000584611F007FF0F9E4B466C4A06EB8A063F
:1017900021465846089611F0FDFEAA45C0F2828502
:1017A000119BCDF81CA00693DDF850900D9EDDE94D
:1017B0001232DDE9157805929A464246A046144653
:1017C000069B2A46414658460093043306935C4BD9
:1017D00012F018F92A465B4B41465846CDF800A056
:1017E00012F010F9059B2A464146009304335846EF
:1017F0000AF1040A0593544B12F004F92A46534B9C
:1018000041465846CDF8009012F0FCF82A46504B5D
:1018100041465846009412F0F5F82A464D4B414691
:101820005846009712F0EEF82A464B4B4146009678
:10183000584612F0E7F80135079B09F10409043412
:101840000437AB4206F10406BADA0F9B0022DDF83A
:101850001CA0414600935846404B444612F0D8F92C
:10186000BAF1010F40F326850F9E01253B4F043648
:101870002A46013500963B462146584612F0C8F9E3
:10188000AA4506F10406F3D10A9B21465246584662
:1018900000936825324B4FF0000812F0B3F80B9B11
:1018A00021465246584600932E4B12F0ABF8089B47
:1018B0002146524658460093284B12F0A9F9109839
:1018C00088F0CEF905FB0AF3DFF89C9018460593E3
:1018D00088F0BEF9099B06944446244F9846244E4E
:1018E000586201E0D8F8240005FB0400214B0134C4
:1018F0000D214361204BC0F8249083621F4BC0E947
:101900000776836117F08EFCA245EBDC069C0598F8
:101910004FF0000888F09CF9099B0594682544461F
:10192000DFF85C90174F9846174E986230E000BF82
:101930006CF6080870F6080874F6080878F60808C7
:1019400080F6080884F6080888F6080890F6080863
:1019500098FD080898F608089CF608087CF6080820
:10196000A4F60808A8F60808451301084D13010855
:1019700061130108B94000084913010875130108F3
:10198000013F0008193F0008293F0008D8F8280047
:1019900005FB0400C44B01340D214361C34B866138
:1019A000C0E90939C24BC0E9073717F03BFCA24533
:1019B000ECDC059C5846214617F0F0FD099B0546D6
:1019C0001860179B002B00F01484179A5146099851
:1019D000FFF71AFD2CAB0793BAF1000F40F32D84EB
:1019E000CDF814A00026AA46DFF8C8924FF0680888
:1019F000099D696A08FB06F7AF4A334639445846E1
:101A0000009252460191214617F004FEA96A33461E
:101A10005246394458460136CDE90091214617F027
:101A2000F9FD059BB342E4D108213120554600273A
:101A3000DDF814A087F09EFCDFF880820646DFF810
:101A4000809200232A46214601905846CDF8009006
:101A5000C6E9207817F0F2FD304688F001F9082138
:101A6000072087F087FC974B06462A4621460093BD
:101A700001900023584617F0E1FD304688F0F0F859
:101A80000821312087F076FC00228C4B0746082184
:101A9000C0E92023072087F06DFCBAF1010F8046D2
:101AA00015DD012633462A4621465846CDE90097E2
:101AB00017F0C4FD83493346013600912A4621467A
:101AC0005846CDF8048017F0B9FDB245EAD1384642
:101AD000002688F0C5F8404688F0C2F80821152095
:101AE000794F87F047FC794B8046019000932A4656
:101AF000002321465846DFF8D891C8E90067C8E9B5
:101B00001067C8E9206717F099FD404688F0A8F8EB
:101B100008211C2087F02EFC804601900023CDF880
:101B200000902A462146C0E90667C0E91667C0E969
:101B30002667C0E93667584617F080FD404688F0B2
:101B40008FF80821152087F015FCBAF1010FC0E9C4
:101B50000067C0E91067C0E9206740F311842B4695
:101B600001260546984659483346374601360090C7
:101B7000424621465846019517F060FDB245F2D124
:101B80004346A84640461D4688F06AF808211C20B6
:101B90004FF0010887F0EEFB00224B4B0646C0E9F0
:101BA0000623C0E91623C0E92623C0E936234346AD
:101BB0002A4621465846CDE9009617F03FFDB84524
:101BC00008F10108F3D13046002688F049F80821D1
:101BD0000C2087F0CFFB00F1180300F148080746FE
:101BE000059300F130092EA3D3E90023C0E90E23A9
:101BF000C0E91023C0E91423C0E91623354B0022A5
:101C0000C0E90C23C0E912232B4645469846324BC7
:101C100042462146584600933346019717F00EFD81
:101C2000059B42462146019358462C4B0093334670
:101C300017F004FD2A4B424621460093584633468E
:101C4000CDF8049017F0FAFC264B4246214600934B
:101C5000334601365846019517F0F0FCB245D6DC04
:101C6000454638464FF0020987F0FAFF0C2087F00E
:101C7000EFFF002701230646C0F8089008214FF027
:101C80000008DFF86490C0E90073062087F072FB5B
:101C90000196164B2A460596064629E0AFF30080CA
:101CA0007B14AE47E17A843F61250008FD3E0008C1
:101CB000053F0008C8F60808B8F6080800004940C3
:101CC000ACF60808B0F608080000F03FD8F608089F
:101CD000DCF6080800006940E0F60808E4F60808A9
:101CE000E8F60808ECF6080800003040F0F60808AE
:101CF000009321463B465846C6E90089C6E9068955
:101D000017F0AEFCBC4B2A4621460196584600937C
:101D10003B4617F0A5FC06F118032A46214601931D
:101D20005846B64B4FF0020900933B4617F098FC1B
:101D3000059887F095FF304687F092FF0C2087F0DA
:101D400087FF0123019006462A4621460760C0E925
:101D50000139AB4B584600933B4617F081FC3046A7
:101D600087F07EFF102087F073FF01230821C0F861
:101D700008908046C0E900730323C360084687F0DB
:101D8000F9FABA4500F120038146059340F34083F8
:101D90002B463E46454698469A4B42462146584673
:101DA000009333460195374617F05AFC964B42464E
:101DB0002146009358463346CDF8049017F050FC66
:101DC000059A3346013601922146904A58460092C0
:101DD000424617F045FCB245DED14346A846404690
:101DE0001D4687F03DFF484687F03AFF0C2087F0FC
:101DF0002FFF002306460322036002200821994694
:101E0000B846C6E90102062087F0B4FA00F11803CB
:101E1000CDF814A0AA461F4605467D4B52462146E2
:101E2000584600934B46019617F01AFC794B5246E0
:101E30002146009358464B46019517F011FC764B0E
:101E400052462146009358464B46019717F008FC2E
:101E5000C14509F10109E0D1A8465546DDF814A0B5
:101E6000304687F0FDFE404687F0FAFE082110203C
:101E700087F080FA082180460C2087F07BFA082141
:101E80000590084687F076FA0022644B0146BAF1C5
:101E9000000F8146E1E80823C8E90023C8E90823C8
:101EA000C8E91023C8E91823C8E90223C8E90A23AE
:101EB000C8E91223C8E91A23C8E90C23C8E9062394
:101EC000C0E90223C0E90823C0E90A234FF0000259
:101ED000534B0691C8E91C23C8E9162340F3AD8291
:101EE00043460026A0461C464E4B2A4641465846CD
:101EF000009333460194374617F0B2FB059B2A4600
:101F0000414601935846484B0093334617F0A8FBCF
:101F1000464B2A464146009358463346CDF8049036
:101F200017F09EFB069A3346013601924146404A1D
:101F3000584600922A4617F093FBB245D4D1234667
:101F400044460DF19206184687F08AFE059887F000
:101F500087FE484687F084FE414658464FF0000809
:101F600017F088FC099B0146324A18615846324BEB
:101F700017F0A4FC53460594AA46DFF8C0905D46CE
:101F8000099C9B468DF89280424621694B46284623
:101F9000009617F099FCB84508F10108F4D15B46AA
:101FA000AB4655464FF000089A46012325AEDFF8B0
:101FB000909025935346099CAA465D469B4642460F
:101FC00021694B462846009617F07EFCB84508F17B
:101FD0000108F4D15B46AB4655464FF000089A46DF
:101FE000022326AEDFF85C9026935346099CAA464E
:101FF0005D469B4628E000BFF8F60808FCF6080896
:1020000000F7080808F7080810F7080814F7080888
:1020100018F7080820F7080824F708080000F03F20
:102020000000F0BF2813090884FD080828F70808F5
:102030002CF7080800F80808F4F7080830F7080833
:102040004CF7080860F70808424621694B462846C5
:10205000009617F039FC474508F10108F4D15B46BA
:10206000AB4655464FF000089A46032327AEDFF8EB
:10207000C89227935346099CAA465D469B46424612
:1020800021694B462846009617F01EFCB84508F11A
:102090000108F4D15B464FF000080DF19306DFF81C
:1020A0009C92099C9B468DF89380424621694B4641
:1020B0002846009617F008FCB84508F10108F4D14D
:1020C0005B46059CAB4655469A46099F4FF0000873
:1020D000DFF86C922AAB396958469A4A0026CDE956
:1020E0002A894FF000084FF0000917F0E7FB396923
:1020F000079B5846944ACDE92C8917F0DFFB322321
:1021000039695846914AB846289328AB17F0D6FB50
:1021100029AB8F4A58463969299617F0CFFB2146DB
:10212000584617F0AFFA2146C8F80400074658464B
:1021300017F0A8FA0821C8F80800072087F01AF954
:1021400000228146834BB2458046E9E8062340F3EE
:1021500095812B46054698467F4933463A46584670
:1021600000912146019517F0ADFA7C4933460136BE
:1021700000913A4621465846CDF8049017F0A2FA4D
:10218000B245E9D14346A84621463A461D46724B20
:102190005846CDE90038534617F094FA404687F088
:1021A0005FFDDDF8248021465846D8F81020002431
:1021B00017F090FB0821C8F80C000D2087F0DAF822
:1021C0000646214601340D2332464046FFF75EF9AC
:1021D000A245F6DA304687F043FD099B3A46294688
:1021E000D86817F0D7FB002840F089812FB0BDE8F0
:1021F000F08F0DF1B009179EDFF86481594FCDF8CB
:102200001C904BA3D3E90023CDE92C2333462A4667
:1022100021465846CDE9008917F0E0F933460136EA
:102220002A4621465846CDE9007917F007FAB2450B
:10223000ECDCBAF1000F3FF7D3AB0821312087F077
:1022400099F84FF000080646474BDFF820912A46E0
:1022500021460190009358460023C6E9208917F0D3
:10226000EDF9304687F0FCFC0821072087F082F862
:102270003F4B06462A4621460190009358460023CC
:1022800017F0DCF9304687F0EBFC0821312087F0AD
:1022900071F808210746C0E92089072087F06AF80D
:1022A000804614E40F9B2A46214658460093314B42
:1022B00011F0AEFC0A9B52462146584600932E4B25
:1022C00011F0A0FB0B9B52462146584600932B4B26
:1022D00011F098FB089B5246214658460093254B27
:1022E00011F096FC109887F0BBFC682303FB0AF3FF
:1022F0001846059387F0ACFC099ABAF1010F5062B9
:1023000000F0EC80059887F0A3FC099E2146B0629E
:10231000584617F043F9179B05463060002B7FF4B1
:1023200054AB2CAB0793FFF757BB00BFAFF3008054
:102330007B14AE47E17A943F74F708088CF70808DD
:102340000000F03FA0F70808ACF70808C0F708083D
:10235000CCF7080800003040F4F60808285B0908AC
:10236000E4F50808E8F50808ACF60808000049405C
:10237000B0F608087CF60808A4F60808A8F60808CD
:1023800087F06EFC08210C2086F0F4FFBAF1010FF3
:1023900007465FA3D3E90023C0E90E23C0E9102359
:1023A000C0E91423C0E916234FF000025A4BC0E9DC
:1023B0000C23C0E912237FF454AC584B2A46214623
:1023C000584600930023019717F038F907F11803D6
:1023D0002A46214601935846514B0093002317F09B
:1023E0002DF907F130032A462146019358464D4BFB
:1023F0000093002317F022F907F148032A462146EB
:1024000001935846484B0093002317F017F928E42E
:10241000404687F025FC484687F022FC0C2087F0D8
:1024200017FC02220323076006460821C0E90123A6
:10243000062086F09FFF804612E5404687F010FC9C
:10244000059887F00DFC484687F00AFC214658465F
:1024500017F010FA099B0146344A18615846344B6C
:1024600017F02CFA002301218DF892308DF893306B
:102470000223CDE925130323279326E62D4B21467E
:102480003A46019000935846534617F01BF94046D0
:1024900087F0E6FB2146099C5846226917F01AFA94
:1024A0000821E0600D2086F065FF0646BAF1000FB6
:1024B0007FF490AE024651460D230998FEF7E6FFE1
:1024C00088E6DA6802F80A007FF437A81A69107003
:1024D0005A6810705A691070FFF72FB8164A0D210C
:1024E0004261164A4262164A8262164AC261164A1E
:1024F0000262164A826116F095FEFFF708BA144888
:1025000087F0E4FF012086F083FF00BFAFF3008077
:102510007B14AE47E17A843F00006940E0F608088A
:10252000E4F60808E8F60808ECF6080800F80808D9
:10253000F4F70808F4F60808B94000084513010844
:10254000491301084D1301086113010875130108AF
:10255000D8F7080800220221FEF7BEBF00000000E5
:102560002DE9F04F0B68BBB04168044607931E91FC
:10257000002901F0FC83C44B0022D1E90001FEF7E1
:102580001BF8A3680093002B01F06583009BD3E93F
:102590000A23FDF759FE9CA3D3E90023FEF736F981
:1025A0000022B94BCDE920011E99D1E90201FEF7C5
:1025B00003F8009DD5E90C23FDF746FE92A3D3E96D
:1025C0000023FEF723F902460B46DDE92001CDE9A1
:1025D0002A23FDF73BFE07468846D5E90056CDE99C
:1025E0002C7828463146CDE90E5684F03FFD024650
:1025F0000B4638464146CDE92223FDF7DDFFCDE904
:1026000032012846314684F07FFE2468CDE90C0172
:10261000002C01F04F83D4E904677DA3D3E90023A4
:1026200030463946FDF7C8FF82468B4652465B4628
:10263000D4E9028940464946FDF708FE76A3D3E96E
:102640000023CDE9120130463946CDE90267FDF796
:10265000B3FF00228D4BFDF7AFFF06460F46324613
:102660003B46D4E9004520462946FDF7EDFD3246BC
:102670003B46CDE9140120462946FDF7E7FDDDE99B
:102680000223CDE9160140464946FDF795FF06466F
:102690000F4652465B4640464946CDE93467FDF752
:1026A000D3FD22462B46CDE9180120462946FDF7E9
:1026B00083FF82468B465AA3D3E90023FDF77CFFB4
:1026C0000022724BFDF778FF06460F4656A3D3E96A
:1026D0000023FDF771FF8046894622462B46DDE93F
:1026E0000201CDE91A89FDF767FF02460B46304625
:1026F0003946CDE936234EA3D3E90023FDF75CFF2D
:1027000002460B465046594692469B464AA3D3E999
:102710000023FDF751FF02460B46CDE93823002286
:102720005A4BFDF749FF46A3D3E90023FEF76EF8A5
:1027300045A3D3E90023FDF73FFFCDE90401DDE91F
:102740001423DDE91201FEF761F884F0F9FADDE9FE
:102750000E23FDF779FD02460B46CDE910233CA37D
:10276000D3E90023FDF770FD3BA3D3E90023FDF778
:1027700023FF84F0E5FA84F079FC39A3D3E9002340
:10278000FDF71AFF009ECDE90201002E01F006833D
:1027900035A3D3E90023D6E91201FDF70DFF044666
:1027A0000D4622462B4632A1D1E90001FDF74CFD32
:1027B00002460B46CDE9282352465B46FDF746FD0F
:1027C0008946009980462CA3D3E90023D1E914015E
:1027D000FDF7F2FE02460B464046494690469946B2
:1027E000D6E90267DDE90423CDE91C89FDF72CFD5C
:1027F00042464B46FDF728FD21A3D3E90023CDE94E
:1028000008013046394643E014AE47E17A14CE3F22
:102810007B14AE47E17AE83F52B81E85EB51F43F96
:10282000560E2DB29D2F09407D7C7C7C7C7CDC3F4C
:10283000C2C1C1C1C1C1E13FCD5D4BC807BDF03FC1
:102840007B14AE47E17AF83F3BDF4F8D976EE23F56
:10285000AD2F12DA722EA53FE5D022DBF9BE28405B
:10286000E7FBA9F1D2CD2B40753A9D4EA7D33E4050
:102870006766666666B184409696969696963940E7
:10288000666666666626304000002B400000E03F2A
:10289000FDF792FE84F054FAC5A3D3E90023FDF7B7
:1028A0008BFE84F031FD02460B4620462946CDE9D9
:1028B0002E23C1A3D3E90023FDF7C8FC02460B4633
:1028C00050465946CDE93023FDF7C0FCDDE904232D
:1028D000FDF7BAFC42464B46FDF7B6FCCDE90A01CE
:1028E0000022E14BDDE90801FDF7AEFC0022DE4BE2
:1028F000FDF78CFF80468946B1A3D3E90023FDF79D
:102900005BFEB1A3D3E90023FDF79EFC32463B46B4
:1029100082468B46FDF79AFCDDE90223FDF74CFE6B
:1029200004460D4640464946A9A3D3E90023FDF7D6
:1029300043FEA9A3D3E90023FDF786FC06460F4614
:102940002046294684F0FCF902460B4620462946DB
:10295000FDF77AFC02460B4630463946FDF72CFE61
:1029600002460B4620462946FDF76EFC84F0E8F946
:102970009BA3D3E90023FDF71FFE84F077FB0446F9
:102980000D4652465B46A246AB46DDE90201FDF725
:1029900013FE04460D4684F0D3F902460B4620464A
:1029A0002946FDF751FC32463B46FDF705FE02463F
:1029B0000B4620462946FDF747FC84F0C1F988A361
:1029C000D3E90023FDF7F8FD84F050FB02460B46E7
:1029D00050465946FDF71AFF83A3D3E90023CDE9FA
:1029E000240140464946FDF7E7FD81A3D3E90023D2
:1029F000FDF72CFC009B002B01F0AB81D3E91634D2
:102A0000CDE90234DDE90223FDF7D6FDDDE9084515
:102A100022462B46FDF7D0FD002282468B46924B84
:102A200020462946FDF7F2FE73A3D3E90023FDF704
:102A3000EDFE84F085F902460B46FDF707FC84F0B5
:102A400063FC6FA3D3E90023FDF7B6FD6EA3D3E9C2
:102A50000023FDF7B1FD04460D46504659466CA3D0
:102A6000D3E90023FDF7A8FD6BA3D3E90023FDF70D
:102A7000EDFB02460B4620462946FDF7C7FE0446FD
:102A80000D464046494666A3D3E90023FDF794FD71
:102A900065A3D3E90023FDF7D7FB02460B46DDE92A
:102AA0001001FDF7D3FB06460F4620462946324665
:102AB0003B46FDF781FD04460D46404649465CA372
:102AC000D3E90023FDF778FD5BA3D3E90023FDF7ED
:102AD000BDFB00220023CDE9260130463946FDF733
:102AE000DDFF002841F002810022002330463946F4
:102AF000FDF7F2FF002801F0738151A3D3E9002311
:102B0000DDE92601FDF758FD06460F462046294619
:102B100084F016F902460B4620462946FDF794FB41
:102B200032463B46FDF748FD02460B462046294605
:102B3000FDF78AFB84F004F935A3D3E90023FDF700
:102B40003BFD84F0E1FB02460B4650465946FDF73B
:102B500033FD04460D46404649463BA3D3E90023D6
:102B6000FDF72AFD3AA3D3E90023FDF76DFBDDE96C
:102B70000823FDF721FD02460B46DDE90201FDF7C2
:102B80001BFD22462B46FDF761FBDDE92423FDF703
:102B900013FD04460D46404649462FA3D3E90023C2
:102BA000FDF70AFD2EA3D3E900235FE0AFF3008019
:102BB0000EBE30992A18FF3F6766666666B184408C
:102BC00026AB22DC645439BF302DEA93DC61433FED
:102BD00037894160E5D0F43F8FE4F21FD26FF03FB8
:102BE0000E2DB29DEFA7EE3F234A7B832F4CDABF19
:102BF000CA54C1A8A44EFB3F107A36AB3E57F23FF1
:102C000000000000C0FEE3C0A4703D0AD7A3EA3F65
:102C1000F38E53742497F13F7B14AE47E17A843FDF
:102C20000F4757E9EE3A6BBFE10D6954E0646B3F23
:102C3000D5E76A2BF697E53F93A98251499DCC3F92
:102C4000B09DEFA7C64BC7BFE08442041C4265BFDE
:102C50005839B4C876BEAF3F64247B849A21853F3F
:102C60000ABFD4CF9B8A843F00408F40FDF7EEFA25
:102C700052465B46FDF7A0FC0022DB4B06460F46A2
:102C8000DDE91001FDF798FC84F05AF884F0EEF9C4
:102C900002460B4630463946FDF78EFCDDE92E2311
:102CA000FDF78AFC22462B46FDF7D0FA02460B467A
:102CB000DDE91201CDE91023DDE91623FDF7A6FDBC
:102CC00084F03EF8DDE90E23FDF7BEFA02460B461E
:102CD000CDE908239AA3D3E90023FDF7B5FA9AA317
:102CE000D3E90023FDF768FC84F02AF884F0BEF9EC
:102CF00097A3D3E90023FDF75FFC009BCDE90E010C
:102D0000002B01F02C80D3E9044593A3D3E90023E1
:102D100020462946FDF750FC84F012F890A3D3E931
:102D20000023FDF749FC84F0EFFACDE924010022ED
:102D3000AE4BDDE90A01FDF787FA0022AB4BFDF748
:102D400065FD82468B4688A3D3E90023FDF734FC5A
:102D500087A3D3E90023FDF777FA22462B46804666
:102D60008946FDF773FADDE90E23FDF725FC0446DD
:102D70000D465046594680A3D3E90023FDF71CFCBD
:102D80007FA3D3E90023FDF75FFA06460F462046EE
:102D9000294683F0D5FF02460B4620462946FDF71B
:102DA00053FA02460B4630463946FDF705FC02460B
:102DB0000B4620462946FDF747FA83F0C1FF72A370
:102DC000D3E90023FDF7F8FB84F050F942464B4667
:102DD00004460D46DDE90E01FDF7EEFB804689460F
:102DE00083F0AEFF02460B4640464946FDF72CFAFB
:102DF00032463B46FDF7E0FB02460B46404649465D
:102E0000FDF722FA83F09CFF5FA3D3E90023FDF7CF
:102E1000D3FB84F02BF902460B4620462946FDF7EA
:102E2000F5FC5BA3D3E90023CDE90E0150465946DA
:102E3000FDF7C2FB58A3D3E90023FDF707FA0246CA
:102E40000B46DDE90201FDF7B7FBDDE90A45224645
:102E50002B46FDF7B1FB06460F460022634B20468A
:102E60002946CDE91267FDF7D1FC4DA3D3E9002334
:102E7000FDF7CCFC83F064FF02460B46FDF7E6F954
:102E800084F042FA48A3D3E90023FDF795FB48A359
:102E9000D3E90023FDF790FB04460D463046394642
:102EA00045A3D3E90023FDF787FB45A3D3E900231E
:102EB000FDF7CCF902460B4620462946FDF7A6FC55
:102EC00004460D46504659463FA3D3E90023FDF77B
:102ED00073FB3FA3D3E90023FDF7B6F902460B4687
:102EE000DDE90801FDF7B2F906460F4620462946FE
:102EF00032463B46FDF760FB04460D4650465946B8
:102F000035A3D3E90023FDF757FB35A3D3E900230D
:102F1000FDF79CF900228046894600233046394659
:102F2000FDF7BCFD002840F0EA8600220023304671
:102F30003946FDF7D1FD002800F0848758E000BF36
:102F4000AD2F12DA722EA53FE5D022DBF9BE284064
:102F5000E7FBA9F1D2CD2B40666666666626304057
:102F60000EBE30992A18FF3F26AB22DC645439BFCD
:102F7000302DEA93DC61433F37894160E5D0F43F6F
:102F80008FE4F21FD26FF03F0E2DB29DEFA7EE3F00
:102F9000234A7B832F4CDABFCA54C1A8A44EFB3FFF
:102FA000107A36AB3E57F23F00000000C0FEE3C08F
:102FB000A4703D0AD7A3EA3FF38E53742497F13FE0
:102FC0007B14AE47E17A843F0F4757E9EE3A6BBF77
:102FD000E10D6954E0646B3FD5E76A2BF697E53F56
:102FE00093A98251499DCC3F00002E4000408F4064
:102FF000C5A3D3E9002340464946FDF7DDFA06465E
:103000000F462046294683F09BFE02460B4620468B
:103010002946FDF719F932463B46FDF7CDFA02463F
:103020000B4620462946FDF70FF983F089FEB8A329
:10303000D3E90023FDF7C0FA84F066F902460B4697
:10304000DDE9126730463946FDF7B6FA04460D460B
:1030500050465946B0A3D3E90023FDF7ADFAB0A31B
:10306000D3E90023FDF7F0F8DDE90A23FDF7A4FA20
:1030700002460B46DDE90201FDF79EFA22462B4689
:10308000FDF7E4F8DDE90E23FDF796FA04460D4658
:1030900050465946A4A3D3E90023FDF78DFAA4A313
:1030A000D3E90023FDF7D2F832463B46FDF784FA18
:1030B0000022B94B06460F46DDE90801FDF77CFA10
:1030C00083F03EFE83F0D2FF02460B46304639467F
:1030D000FDF772FADDE92423FDF76EFA22462B464E
:1030E000FDF7B4F802460B46DDE91001CDE92E23C9
:1030F000FDF7ACF81E9E04460D46002E00F00C862F
:103100000022A64BD6E90401FDF756FA009A002AE0
:1031100000F0AE86D2E90E23FDF796F886A3D3E938
:103120000023FDF773FB00229C4BCDE92401D6E977
:103130000601FDF741FA009BD3E91023FDF784F85F
:103140007DA3D3E90023FDF761FBCDE91E01079BB9
:103150003BB320462946DDE90C23FDF72DFA024654
:103160000B46DDE93201FDF76FF806460F46DDE953
:103170001E23DDE92401FDF769F832463B46FDF7E1
:1031800065F8DDE93823FDF75FF8DDE93423FDF765
:103190005DF86BA3D3E90023FDF70EFA079BC3E9A3
:1031A000000120462946DDE92223FDF705FA044601
:1031B0000D46DDE90C23DDE92C01FDF7FDF90246A2
:1031C0000B4620462946FDF741F8DDE91423CDE9F9
:1031D0001201DDE91801FDF719FB83F0B1FD02468C
:1031E0000B46CDE9082358A3D3E90023FDF72CF8BB
:1031F00057A3D3E90023FDF7DFF983F0A1FD83F0A6
:1032000035FF55A3D3E90023FDF7D6F9009BCDE99F
:103210000A01002B00F07885D3E9064550A3D3E9D5
:10322000002320462946FDF7C7F983F089FD4EA308
:10323000D3E90023FDF7C0F984F066F8CDE9260153
:10324000DDE91A23DDE92801FDF700F8DDE90423B3
:10325000FCF7FCFFDDE91C23FCF7F8FF02460B46F8
:10326000CDE90E2300224E4BFCF7EEFF00224C4B23
:10327000FDF7CCFA82468B463DA3D3E90023FDF748
:103280009BF93DA3D3E90023FCF7DEFF22462B4642
:1032900080468946FCF7DAFFDDE90A23FDF78CF961
:1032A00004460D465046594635A3D3E90023FDF7A1
:1032B00083F935A3D3E90023FCF7C6FF06460F4682
:1032C0002046294683F03CFD02460B46204629460F
:1032D000FCF7BAFF02460B4630463946FDF76CF95B
:1032E00002460B4620462946FCF7AEFF83F028FD38
:1032F00027A3D3E90023FDF75FF983F0B7FE424629
:103300004B4604460D464DE0B09DEFA7C64BC7BFE8
:10331000F38E53742497F13FE08442041C4265BF4E
:103320005839B4C876BEAF3F64247B849A21853F68
:103330000ABFD4CF9B8A843F14AE47E17A14CE3FB4
:1033400074E501C93A576E3FAD2F12DA722EA53FD0
:10335000E5D022DBF9BE2840E7FBA9F1D2CD2B4016
:1033600066666666662630400EBE30992A18FF3FB4
:1033700026AB22DC645439BF302DEA93DC61433F35
:1033800037894160E5D0F43F8FE4F21FD26FF03F00
:103390000E2DB29DEFA7EE3F00002E4000002B4007
:1033A00000408F40DDE90A01FDF706F980468946B5
:1033B00083F0C6FC02460B4640464946FCF744FFF4
:1033C00032463B46FDF7F8F802460B464046494672
:1033D000FCF73AFF83F0B4FCBFA3D3E90023FDF769
:1033E000EBF883F043FE02460B4620462946FDF7E4
:1033F0000DFABBA3D3E90023CDE90A015046594693
:10340000FDF7DAF8B8A3D3E90023FCF71FFF024663
:103410000B46DDE90201FDF7CFF8DDE90E45224656
:103420002B46FDF7C9F806460F460022DA4B204628
:103430002946CDE91467FDF7E9F9ADA3D3E90023E7
:10344000FDF7E4F983F07CFC02460B46FCF7FEFE38
:1034500083F05AFFA8A3D3E90023FDF7ADF8A8A392
:10346000D3E90023FDF7A8F804460D463046394657
:10347000A5A3D3E90023FDF79FF8A5A3D3E9002373
:10348000FCF7E4FE02460B4620462946FDF7BEF94E
:1034900004460D46504659469FA3D3E90023FDF745
:1034A0008BF89FA3D3E90023FCF7CEFE02460B4620
:1034B000DDE90801FCF7CAFE06460F46204629460C
:1034C00032463B46FDF778F804460D4650465946CD
:1034D00095A3D3E90023FDF76FF895A3D3E9002363
:1034E000FCF7B4FE00228046894600233046394668
:1034F000FDF7D4FA002840F0FE8300220023304676
:103500003946FDF7E9FA002800F08B848AA3D3E955
:10351000002340464946FDF74FF806460F46204631
:10352000294683F00DFC02460B4620462946FCF74F
:103530008BFE32463B46FDF73FF802460B462046DF
:103540002946FCF781FE83F0FBFB6FA3D3E9002340
:10355000FDF732F883F0D8FE02460B46DDE914672A
:1035600030463946FDF728F804460D465046594680
:1035700073A3D3E90023FDF71FF873A3D3E9002356
:10358000FCF762FE02460B46DDE90E01FDF714F87A
:1035900002460B46DDE90201FDF70EF822462B46F6
:1035A000FCF754FEDDE90A23FDF706F804460D4654
:1035B0005046594666A3D3E90023FCF7FDFF66A3F6
:1035C000D3E90023FCF742FE32463B46FCF7F4FF0A
:1035D0000022724B06460F46DDE90801FCF7ECFFBE
:1035E00083F0AEFB83F042FD02460B46304639467F
:1035F000FCF7E2FFDDE92623FCF7DEFF22462B463F
:10360000FCF724FE04460D46DDE91623DDE918012A
:10361000CDE90E45FDF7FAF883F092FB02460B4622
:10362000CDE908234EA3D3E90023FCF70DFE4EA3FA
:10363000D3E90023FCF7C0FF83F082FB83F016FD83
:103640004BA3D3E90023FCF7B7FF009BCDE90A01A8
:10365000002B00F07783D3E9084547A3D3E9002383
:1036600020462946FCF7A8FF83F06AFB44A3D3E970
:103670000023FCF7A1FF83F047FECDE91601DDE949
:103680003023DDE91A01FCF7E1FDDDE90423FCF755
:10369000DDFDDDE91C23FCF7D9FD02460B46CDE933
:1036A000042300223C4BFCF7CFFD00223A4BFDF7F0
:1036B000ADF882468B4634A3D3E90023FCF77CFFA8
:1036C00033A3D3E90023FCF7BFFD22462B468046F7
:1036D000894665E0AFF300800E2DB29DEFA7EE3F67
:1036E000234A7B832F4CDABFCA54C1A8A44EFB3FA8
:1036F000107A36AB3E57F23F00000000C0FEE3C038
:10370000A4703D0AD7A3EA3FF38E53742497F13F88
:103710007B14AE47E17A843F0F4757E9EE3A6BBF1F
:10372000E10D6954E0646B3FD5E76A2BF697E53FFE
:1037300093A98251499DCC3FB09DEFA7C64BC7BF0F
:10374000E08442041C4265BF5839B4C876BEAF3F1E
:1037500064247B849A21853F0ABFD4CF9B8A843F0F
:10376000AD2F12DA722EA53FE5D022DBF9BE28403C
:10377000E7FBA9F1D2CD2B4066666666662630402F
:103780000EBE30992A18FF3F26AB22DC645439BFA5
:10379000302DEA93DC61433F00408F4000002E4013
:1037A000FCF754FDDDE90A23FCF706FF04460D464D
:1037B00050465946C4A3D3E90023FCF7FDFEC4A339
:1037C000D3E90023FCF740FD06460F462046294674
:1037D00083F0B6FA02460B4620462946FCF734FD34
:1037E00002460B4630463946FCF7E6FE02460B46DB
:1037F00020462946FCF728FD83F0A2FAB6A3D3E9B8
:103800000023FCF7D9FE83F031FC42464B460446C8
:103810000D46DDE90A01FCF7CFFE8046894683F0BC
:103820008FFA02460B4640464946FCF70DFD3246EC
:103830003B46FCF7C1FE02460B4640464946FCF7B4
:1038400003FD83F07DFAA4A3D3E90023FCF7B4FEC3
:1038500083F00CFC02460B4620462946FCF7D6FFB7
:103860009FA3D3E90023CDE90A0150465946FCF74E
:10387000A3FE9DA3D3E90023FCF7E8FC02460B4618
:10388000DDE90201FCF798FEDDE9044522462B46FE
:10389000FCF792FE06460F460022B34B204629460F
:1038A000CDE91467FCF7B2FF91A3D3E90023FCF73D
:1038B000ADFF83F045FA02460B46FCF7C7FC83F0E8
:1038C00023FD8DA3D3E90023FCF776FE8CA3D3E977
:1038D0000023FCF771FE04460D46304639468AA3A4
:1038E000D3E90023FCF768FE89A3D3E90023FCF7A2
:1038F000ADFC02460B4620462946FCF787FF0446EE
:103900000D465046594684A3D3E90023FCF754FEE4
:1039100083A3D3E90023FCF797FC02460B46DDE9BD
:103920000801FCF793FC06460F462046294632461E
:103930003B46FCF741FE04460D46504659467AA3E5
:10394000D3E90023FCF738FE79A3D3E90023FCF781
:103950007DFC002280468946002330463946FDF72B
:103960009DF8002840F0BE810022002330463946F1
:10397000FDF7B2F8002800F044826FA3D3E90023DA
:1039800040464946FCF718FE06460F4620462946A3
:1039900083F0D6F902460B4620462946FCF754FC34
:1039A00032463B46FCF708FE02460B4620462946B7
:1039B000FCF74AFC83F0C4F953A3D3E90023FCF7D6
:1039C000FBFD83F0A1FC02460B46DDE9146730469F
:1039D0003946FCF7F1FD04460D465046594658A3BA
:1039E000D3E90023FCF7E8FD57A3D3E90023FCF754
:1039F0002BFC02460B46DDE90401FCF7DDFD024627
:103A00000B46DDE90201FCF7D7FD22462B46FCF709
:103A10001DFCDDE90A23FCF7CFFD04460D465046A8
:103A200059464BA3D3E90023FCF7C6FD4AA3D3E9CB
:103A30000023FCF70BFC32463B46FCF7BDFD0022A1
:103A40004A4B06460F46DDE90801FCF7B5FD83F059
:103A500077F983F00BFB02460B4630463946FCF7FC
:103A6000ABFDDDE91623FCF7A7FD22462B46FCF74C
:103A7000EDFBDDE90E23FCF7E9FB079C82468B4654
:103A8000002C00F0E48002460B46DDE91201FCF751
:103A9000DDFBDDE93623FCF7D7FB31A3D3E90023B7
:103AA000FCF78AFD009BC4E90201002B00F0DB81DA
:103AB000009B0022D3E918012D4BFCF77DFDCDE9D9
:103AC000000157E0AFF3008037894160E5D0F43F53
:103AD0008FE4F21FD26FF03F0E2DB29DEFA7EE3FA5
:103AE000234A7B832F4CDABFCA54C1A8A44EFB3FA4
:103AF000107A36AB3E57F23F00000000C0FEE3C034
:103B0000A4703D0AD7A3EA3FF38E53742497F13F84
:103B10007B14AE47E17A843F0F4757E9EE3A6BBF1B
:103B2000E10D6954E0646B3FD5E76A2BF697E53FFA
:103B300093A98251499DCC3FB09DEFA7C64BC7BF0B
:103B4000E08442041C4265BF5839B4C876BEAF3F1A
:103B500064247B849A21853F0ABFD4CF9B8A843F0B
:103B600074E501C93A576E3F00408F4000002E4077
:103B700000006940DDE92423DDE91E01FCF764FB58
:103B800004460D46DDE91023DDE92E01FCF75CFB60
:103B900080468946DDE92023DDE92A01FCF754FB54
:103BA000DDE92223FCF708FD06460F46404649465C
:103BB000DDE90C23FCF700FD02460B463046394692
:103BC000FCF742FB06460F46B9A3D3E90023DDE923
:103BD0001201FCF7F1FC8046894650465946B4A3D1
:103BE000D3E90023FCF7E8FC02460B464046494671
:103BF000FCF72AFB02460B463046394616461F465E
:103C00000022B74BFCF7D8FCABA3D3E90023FCF7A9
:103C1000D3FC32463B46FCF719FB02460B462046D6
:103C2000294614461D460022AD4BFCF7C5FCA2A355
:103C3000D3E90023FCF7C0FC22462B46FCF706FB29
:103C4000DDE90023FCF7E2FD079BC3E90401002046
:103C50003BB0BDE8F08F9AA3D3E90023FCF7D6FD73
:103C60000022A04BCDE920011E99D1E90201FCF709
:103C7000A3FC93A3D3E90023FCF7C8FDCDE92A01F7
:103C800000230025984E0093DDE92001DDE92A2379
:103C9000FCF7DCFA002200232468CDE92C01CDE9F1
:103CA0000C23CDE92256CDE93201CDE90E23002CBB
:103CB0007EF4B1AC002300249A46A346CDE9043437
:103CC000CDE93834CDE93634CDE91A34CDE91834AC
:103CD000CDE93434CDE91634CDE91434CDE91234CC
:103CE000FEF72DBD78A3D3E9002349E676A3D3E9F7
:103CF0000023FEF705BF74A3D3E9002309E472A3F0
:103D0000D3E90023FFF777B9002400232546CDE946
:103D100026341C46FFF794BA009B002B00F0BF80AE
:103D2000009B00200021D3E90E23FCF78DFA64A349
:103D3000D3E90023FCF76AFDCDE92401002000212E
:103D4000FFF7F9B9002400232546CDE916341C46B7
:103D500095E400230024CDE90234FEF753BE00248D
:103D600000232546CDE924341C46FEF7E0BF8368D6
:103D70000093002B00F0BA80009B00200021D3E9C3
:103D80000A23FCF761FA4EA3D3E90023FCF73EFDBA
:103D9000CDE9200100200021FEF70BBC4CA3D3E9A4
:103DA000002350465946FCF751FA0024DDE904236C
:103DB000FCF74AFA00230E460546274644A2D2E9FC
:103DC0000012CDE90856CDE90A56CDE92E341E463B
:103DD000CDE93012CDE91C34CDE92812FEF780BDC3
:103DE0003DA3D3E9002330463946FCF7E5FB024604
:103DF0000B4600203C49FCF727FA02460B46FEF72B
:103E00007FBE35A3D3E9002330463946FCF7D4FB07
:103E100002460B4600203449FCF716FA02460B46D0
:103E2000AEE52DA3D3E9002330463946FCF7C4FBA9
:103E300002460B4600202C49FCF706FA02460B46C8
:103E4000FFF767BB24A3D3E9002330463946FCF7CC
:103E5000B3FB02460B4600202349FCF7F5F9024666
:103E60000B46FFF7C8B800230024CDE9003481E6F3
:103E700013A3D3E90023FCF7C9FC1E9B0022CDE964
:103E80002401D3E90601174BFCF796FB0CA3D3E9F9
:103E90000023FCF7BBFCCDE91E01FFF758B9002257
:103EA0000023CDE91E23CDE92423FFF750B900BF3D
:103EB0007B14AE47E17AE83F52B81E85EB51F43FE0
:103EC00014AE47E17A14CE3FDBF97E6ABC74014040
:103ED0006766666666B18440B6F3FDD478E9F23F62
:103EE0000000E03F00002B400000F03F00220023D4
:103EF000CDE92A23CDE92023C2E600BF0320704785
:103F000001207047022803D8024B53F82000704765
:103F10000020704710F808080028024B14BF00204A
:103F2000184670471CF8080870B110B405240460E6
:103F300009B1022008600AB1002111600BB12022F2
:103F40001A60002010BC704709B1022008600AB155
:103F5000002111600BB120221A600020704700BFC1
:103F60002DE9F04FD1E90075144683B005FB07F247
:103F7000EE1C80469B46002A01EB860901F1080AE7
:103F80004FEA860604DDD2000021204686F09CF927
:103F9000B8F1000F2CD0BBF1000F2CD0002D27DD85
:103FA000A9F10403D64600200193DEF800B05EF8C4
:103FB00004AFD34519D06FF04042019BA8F108012E
:103FC0005A4403EB8A0C09EB820252F8043F03FBCC
:103FD0000503944504EBC303F1E90267C3E90067F5
:103FE000F3D1AAEB0B0A08EBCA0801308542DCD1F9
:103FF00003B0BDE8F08F002DFADD0C3ED646A9F1E6
:1040000004034FEAC70BB2440193DEF800C05EF828
:10401000045FAC4517D06FF04042019BA8F1080146
:10402000624403EB850009EB820252F8043FF1E998
:10403000026704EBC3038242C3E90067F5D1A5EB35
:104040000C0508EBC508D6455C44DED103B0BDE8DD
:10405000F08F00BFF0B5D1F804C05C680CF1020528
:10406000059E002C51F8257009DD043303EB840E06
:10407000341F53F8045F734544F8045FF9D1002FEF
:1040800016DD0C4B0838634400EBC70E01EB830CC4
:104090005CF8041FF0E9024556F82130864503F12B
:1040A000010702EBC30346F82170C3E90045EFD1D5
:1040B000F0BD00BF020000402DE9F04FADF20C7DD5
:1040C000D0F80CB0CDF8C42603F550622593CDF896
:1040D000F02503F55762CDF8F805CDF8C82603F5AD
:1040E0005C6203F56263CDF8FC15CDF8C026CDF80F
:1040F000E435BBF1000F0DF04D8004460022B64BB5
:10410000DBE90001FCF758FAD4F810A0BAF1000F6F
:104110000CF05587DAE90A23FCF796F898A3D3E95F
:104120000023FCF773FB0022AB4BCDE96001DBE918
:104130000201FCF741FADAE90C23FCF785F890A3B9
:10414000D3E90023FCF762FB02460B46CDE9BA2314
:10415000DDE96023FCF77AF806460F46DAE90089C4
:10416000CDE91E674046494682F080FF04460D4671
:104170003046224639462B46CDE95E45FCF71CFA0F
:10418000CDE93A014046494683F0BEF87EA3D3E923
:104190000023CDE9140120462946FCF70DFA064616
:1041A0000F467BA3D3E90023FCF706FA0DF5C463A1
:1041B000C3E9000174A3D3E90023DDE91401FCF78E
:1041C000FBF904460D4672A3D3E90023FCF7F4F98A
:1041D00002460B4620460DF5C5642946C4E9002376
:1041E0006DA3D3E90023FCF7E7F9002204460D464E
:1041F00030463946794BFCF7DFF969A3D3E9002350
:10420000FCF7DAF906460F462046324629463B4679
:10421000FCF71AF832460DF5D6663B46CDE90201A9
:1042200020462946DDE90245C6E90045FCF70EF8BF
:104230000DF5D763C3E90001DDF8F8351E68002EDF
:104240000CF00687D6E90245D6E9040152A3D3E96A
:104250000023CDE93845CDE91A01FCF7ADF9044654
:104260000D4622462B46DDE93801FBF7EFFFD6E984
:1042700000674BA3D3E90023CDE91201DDE91A0160
:10428000CDE92867FCF798F90022544BFCF794F924
:1042900006460F4632463B46DDE92801FBF7D4FFD0
:1042A00032463B46DDE92867CDE904013046394610
:1042B000FBF7CCFFDDE91A23CDE90E01DDE938017A
:1042C000FCF77AF922462B46CDE93C01DDE93801BD
:1042D000FBF7BAFF32463B46CDE92201304639466C
:1042E000FCF76AF904460D462FA3D3E90023FCF737
:1042F00063F90022394BFCF75FF906460F462CA301
:10430000D3E90023FCF758F9DDE92823CDE926019C
:10431000DDE91A01FCF750F9CDE9C601DDE9280114
:1043200002460B46FBF792FF02460B4630463946E3
:10433000CDE9C82320A3D3E90023FCF73DF90246C9
:104340000B462046294614461D461DA3D3E90023EB
:10435000FCF732F902460B46CDE93E2300221F4B03
:10436000FCF72AF918A3D3E90023FCF74FFA18A3A6
:10437000D3E90023FCF720F9CDE9180130E000BFB4
:1043800014AE47E17A14CE3F0B62720531B94C404E
:1043900074E501C93A576E3F7B14AE47E17AE83FB6
:1043A00052B81E85EB51F43F560E2DB29D2F094099
:1043B0007D7C7C7C7C7CDC3FC2C1C1C1C1C1E13F52
:1043C000CD5D4BC807BDF03F7B14AE47E17AF83FA7
:1043D0003BDF4F8D976EE23F00002B400000E03F37
:1043E000DDE90423DDE91201FCF710FA02460B4671
:1043F000CDE9B82382F0A4FC42464B46FBF724FFEC
:1044000002460B46CDE90823BDA3D3E90023FBF701
:104410001BFFBDA3D3E90023FCF7CEF802460B46F1
:10442000CDE9C02382F08CFC02460B46CDE9B223D5
:1044300082F01CFEB6A3D3E90023FCF7BDF8CDE95A
:104440002A01BAF1000F0CF0BE86B3A3D3E9002312
:10445000DAE91201FCF7B0F802460B46B0A1D1E947
:104460000001CDE90223FBF7EFFE02460B46CDE942
:104470001C2322462B46FBF7E9FEABA3D3E900231E
:10448000CDE90601DAE91401FCF796F802460B467D
:10449000DAE90267CDE92023DDE90601DDE9182329
:1044A000FBF7D2FEDDE92023FBF7CEFEA0A3D3E984
:1044B0000023CDE90A0130463946FCF77DF882F049
:1044C0003FFC9DA3D3E90023FCF776F882F01CFFA4
:1044D00002460B46DDE90201CDE9522390A3D3E960
:1044E0000023FBF7B3FE02460B46204629461C4636
:1044F0001346CDE940342346FBF7A8FEDDE9182337
:10450000FBF7A2FEDDE92023FBF79EFECDE90C01BF
:104510000022A14BDDE90A01FBF796FE00229E4B2B
:10452000FCF774F904460D4685A3D3E90023FCF794
:1045300043F885A3D3E90023FBF786FE32463B46CA
:1045400006460F46CDE90201CDE94267FBF77EFE44
:1045500002460B46DDE92A01CDE97E23FCF72CF863
:1045600006460F462046294679A3D3E90023CDE924
:10457000C267FCF721F878A3D3E90023FBF764FEB8
:10458000CDE910013046394682F0DAFB02460B468F
:1045900030463946FBF758FE02460B46DDE910016E
:1045A000CDE98023FCF708F802460B463046394631
:1045B000FBF74AFE02460B46CDE9FA2382F0C0FB28
:1045C00067A3D3E90023FBF7F7FF02460B46CDE9CB
:1045D000FC2382F04BFD06460F46DDE94223DDE970
:1045E0002A01FBF7E9FF02460B46CDE9B62382F02C
:1045F000A7FB02460B46DDE9B601FBF725FE0246A6
:104600000B46DDE91001CDE98223FBF7D5FF024619
:104610000B46DDE9B601FBF717FE02460B46CDE976
:10462000FE2382F08DFB4EA3D3E90023FBF7C4FFEA
:1046300002460B46CDE9B02382F018FD02460B4638
:1046400030463946CDE94423FCF7E0F846A3D3E9E8
:104650000023CDE92C0120462946FBF7ADFF44A3FA
:10466000D3E90023FBF7F2FDBAF1000F0CF0498506
:10467000DAE91623CDE90223DDE90223FBF79CFFEB
:1046800002460B46DDE90A67CDE9842332463B4604
:10469000FBF792FF0022404BCDE906013046394638
:1046A000FCF7B4F80DF5806633A3D3E90023FCF7DB
:1046B000ADF802460B46C6E9002382F041FB0246F4
:1046C0000B460DF58266FBF7C1FD02460B46C6E9B7
:1046D000002382F019FE2AA3D3E90023FBF76CFF25
:1046E00029A3D3E90023FBF767FF06460F4628A35B
:1046F000D3E90023DDE90601FBF75EFF4EE000BFD2
:10470000AD2F12DA722EA53FE5D022DBF9BE28408C
:10471000E7FBA9F1D2CD2B40753A9D4EA7D33E4081
:104720006766666666B18440969696969696394018
:1047300066666666662630400EBE30992A18FF3FD0
:1047400026AB22DC645439BF302DEA93DC61433F51
:1047500037894160E5D0F43F8FE4F21FD26FF03F1C
:104760000E2DB29DEFA7EE3F234A7B832F4CDABF7D
:10477000CA54C1A8A44EFB3F107A36AB3E57F23F55
:1047800000000000C0FEE3C0A4703D0AD7A3EA3FCA
:10479000F38E53742497F13F00408F40C0A3D3E9B8
:1047A0000023FBF753FD02460B4630463946CDE960
:1047B0008623FCF72BF806460F4620462946BAA367
:1047C000D3E90023CDE94667FBF7F6FEB8A3D3E9AA
:1047D0000023FBF739FD02460B46DDE90801FBF734
:1047E00035FD02460B4630463946CDE93223FBF70C
:1047F000E3FEB1A3D3E90023CDE9BC01204629465D
:10480000FBF7DAFEAEA3D3E90023FBF71FFD00227E
:1048100006460F460023DDE93201FCF73FF9002888
:104820004CF03D8400220023DDE93201FCF754F90D
:1048300000280CF01D85A4A3D3E90023CDE956235D
:10484000DDE9562330463946FBF7B6FEDDE9BC67A5
:10485000CDE948013046394682F072FA02460B46ED
:1048600030463946FBF7F0FC02460B46DDE94801CD
:10487000CDE98823FBF7A0FE02460B4630463946B9
:104880000DF58366FBF7E0FC02460B46C6E9002304
:1048900082F056FA0DF584668DA3D3E90023FBF769
:1048A0008BFE02460B46C6E9002382F02DFD024630
:1048B0000B46DDE90601CDE98A23FBF77DFE0646BE
:1048C0000F462046294684A3D3E90023FBF774FE54
:1048D00083A3D3E90023FBF7B7FC02460B46CDE9DF
:1048E0008C23DDE90A23FBF767FE02460B46DDE970
:1048F0000201FBF761FE32463B46FBF7A7FC02468E
:104900000B46DDE92C01CDE98E23FBF755FE02466F
:104910000B462046294614461D4673A3D3E90023BF
:10492000FBF74AFE72A3D3E90023FBF78FFC024694
:104930000B46DDE90601CDE99023FBF73DFE02467B
:104940000B46164600221F467B4BDDE90801CDE9E8
:104950009267FBF731FE0DF5856C02460B46CCE9FC
:10496000002382F0EDF90DF5866C02460B46CCE98A
:10497000002382F07BFB02460B4630463946CDE9E8
:104980009423FBF719FEDDE95223FBF715FE2246BF
:104990002B460DF58764FBF759FC02460B46DDE913
:1049A0001201CDE93623DDE90E23FBF72FFF024686
:1049B0000B46CDE9F62382F0C3F942464B46FBF79E
:1049C00043FC804689464CA3D3E90023FBF73CFC1B
:1049D0004BA3D3E90023FBF7EFFD02460B46C4E9E6
:1049E000002382F0ADF90DF5886402460B46C4E958
:1049F000002382F03BFB44A3D3E90023FBF7DCFD5B
:104A0000CDE92E01BAF1000F0CF05E83DAE90467FC
:104A10003FA3D3E9002330463946FBF7CDFD82F0B2
:104A20008FF93DA3D3E90023FBF7C6FD82F06CFCB0
:104A3000CDE954010022414BDDE90C01FBF704FCF8
:104A400000223E4BFBF7E2FE04460D4634A3D3E9B9
:104A50000023FBF7B1FD34A3D3E90023FBF7F4FBFC
:104A600032463B4606460F46CDE90801CDE94A6786
:104A7000FBF7ECFB02460B46DDE92E01CDE9962360
:104A8000FBF79AFD0DF5896306460F462046294639
:104A9000C3E9006726A3D3E90023FBF78DFD4FE0B0
:104AA0007B14AE47E17A843F0F4757E9EE3A6BBF7C
:104AB000E10D6954E0646B3FD5E76A2BF697E53F5B
:104AC00093A98251499DCC3FB09DEFA7C64BC7BF6C
:104AD000F38E53742497F13FE08442041C4265BF77
:104AE0005839B4C876BEAF3F64247B849A21853F91
:104AF0000ABFD4CF9B8A843FAD2F12DA722EA53F16
:104B0000E5D022DBF9BE2840E7FBA9F1D2CD2B404E
:104B100066666666662630400EBE30992A18FF3FEC
:104B200026AB22DC645439BF302DEA93DC61433F6D
:104B300037894160E5D0F43F00002E4000408F40AF
:104B4000C5A3D3E90023FBF77FFBCDE91201304673
:104B5000394682F0F5F802460B4630463946FBF7F7
:104B600073FB02460B46DDE91201CDE99823FBF702
:104B700023FD02460B46304639460DF58B66FBF7A2
:104B800063FB02460B46C6E9002382F0D9F80DF517
:104B90008C66B3A3D3E90023FBF70EFD02460B4658
:104BA000C6E9002382F062FA06460F46DDE94A2391
:104BB000DDE92E01FBF700FD02460B46CDE9C423DB
:104BC00082F0BEF802460B46DDE9C401FBF73CFB70
:104BD00002460B46DDE91201CDE99A23FBF7ECFC16
:104BE00002460B46DDE9C401FBF72EFB0DF58D6C8B
:104BF00002460B46CCE9002382F0A2F898A3D3E941
:104C00000023FBF7D9FC0DF58E6C02460B46CCE970
:104C1000002382F02BFA02460B4630463946CDE996
:104C20004C23FBF7F3FD90A3D3E90023CDE930013A
:104C300020462946FBF7C0FC8DA3D3E90023FBF7F0
:104C400005FB02460B46DDE90201FBF7B5FC024617
:104C50000B46DDE90C67CDE99C2332463B46FBF76A
:104C6000ABFC00229E4BCDE9080130463946FBF7EC
:104C7000CDFD0DF58F6680A3D3E90023FBF7C6FDBC
:104C800002460B46C6E9002382F05AF802460B465C
:104C90000DF59066FBF7DAFA02460B46C6E90023EB
:104CA00082F032FB76A3D3E90023FBF785FC76A3E1
:104CB000D3E90023FBF780FC06460F4674A3D3E933
:104CC0000023DDE90801FBF777FC73A3D3E9002398
:104CD000FBF7BCFA02460B4630463946CDE99E2327
:104CE000FBF794FD06460F46204629466CA3D3E900
:104CF0000023CDE94E67FBF75FFC6BA3D3E90023EC
:104D0000FBF7A2FA02460B4640464946FBF79EFADD
:104D100002460B4630463946CDE93423FBF74CFCBE
:104D200063A3D3E90023CDE9F80120462946FBF728
:104D300043FC61A3D3E90023FBF788FA002206466F
:104D40000F460023DDE93401FBF7A8FE00284CF0F4
:104D5000B48100220023DDE93401FBF7BDFE002809
:104D60000CF0758256A3D3E90023CDE95823DDE981
:104D7000582330463946FBF71FFCDDE9F867CDE9DB
:104D800050013046394681F0DBFF02460B46304683
:104D90003946FBF759FA02460B46DDE95001CDE9E9
:104DA000A023FBF709FC02460B46304639460DF5B9
:104DB0009166FBF749FA02460B46C6E9002381F0EB
:104DC000BFFF0DF5926632A3D3E90023FBF7F4FB96
:104DD00002460B46C6E9002382F096FA02460B46CD
:104DE000DDE90801CDE9A223FBF7E6FB06460F4605
:104DF0002046294634A3D3E90023FBF7DDFB34A387
:104E0000D3E90023FBF720FA02460B46CDE9A423A1
:104E1000DDE90C23FBF7D0FB02460B46DDE902017E
:104E2000FBF7CAFB32463B46FBF710FA02460B463D
:104E3000DDE93001CDE9A623FBF7BEFB02460B46B8
:104E40002046294614461D4623A3D3E90023FBF739
:104E5000B3FB47E0AFF300808FE4F21FD26FF03F67
:104E60000E2DB29DEFA7EE3F234A7B832F4CDABF76
:104E7000CA54C1A8A44EFB3F107A36AB3E57F23F4E
:104E800000000000C0FEE3C0A4703D0AD7A3EA3FC3
:104E9000F38E53742497F13F7B14AE47E17A843F3D
:104EA0000F4757E9EE3A6BBFE10D6954E0646B3F81
:104EB000D5E76A2BF697E53F93A98251499DCC3FF0
:104EC000B09DEFA7C64BC7BFE08442041C4265BF3C
:104ED0005839B4C876BEAF3F64247B849A21853F9D
:104EE00000408F40B6A3D3E90023FBF7AFF9024699
:104EF0000B46DDE90801CDE9A823FBF75DFB02467F
:104F00000B464046164649461F460022C64BCDE991
:104F1000AA67FBF751FB0DF5936C02460B46CCE9F3
:104F2000002381F00DFF0DF5956C02460B46CCE990
:104F3000002382F09BF802460B4630463946CDE905
:104F4000AC23FBF739FBDDE95423FBF735FB2246A5
:104F50002B46FBF77BF902460B46DDE93601CDE92E
:104F6000BE23FBF773F9CDE91601BBF1000F0CF07E
:104F7000B3800022AD4BDBE90401FBF71DFBBAF166
:104F8000000F0CF08681DAE90E23FBF75DF98EA3A2
:104F9000D3E90023FBF73AFC002206460F46A34B59
:104FA000DBE90601FBF708FBDAE91023FBF74CF914
:104FB00085A3D3E90023FBF729FC804689463046C8
:104FC000424639464B46FBF741F9324604460D4608
:104FD0003B4640464946FBF737F90022944BFBF726
:104FE000EBFA7BA3D3E90023FBF7E6FA0DF5A16307
:104FF000C3E90001DDF8FC35D3F800B0BBF1000FC8
:105000001ED0DDE91423DDE91601FBF7D5FA0246CF
:105010000B46DDE93A01FBF717F922462B46FBF771
:1050200015F9DDE93E23FBF70FF9DDE93C23FBF73A
:105030000DF969A3D3E90023FBF7BEFACBE9000120
:10504000DDE95E23DDE91601FBF7B6FA04460D46FD
:10505000DDE91423DDE91E01FBF7AEFA22462B46FB
:105060000DF59664FBF7F2F8DDE90423CDE9AE0116
:10507000DDE92201FBF7CAFB02460B46C4E9002327
:1050800081F05EFE804689460DF5976454A3D3E90E
:105090000023FBF7D9F854A3D3E90023FBF78CFADC
:1050A00002460B46C4E9002381F04AFE0DF59864E0
:1050B00002460B46C4E9002381F0D8FF4CA3D3E994
:1050C0000023FBF779FACDE93A01BAF1000F0CF0B1
:1050D0001E80DAE9066748A3D3E900233046394643
:1050E000FBF76AFA81F02CFE45A3D3E90023FBF716
:1050F00063FA82F009F9CDE97601DDE91C01DDE909
:105100002623FBF7A3F8DDE91823FBF79FF8DDE979
:105110002023FBF79BF802460B46CDE91C23002217
:10512000444BFBF791F80022424BFBF76FFB044620
:105130000D4635A3D3E90023FBF73EFA34A3D3E9A8
:105140000023FBF781F832463B4606460F46CDE981
:105150001601CDE96267FBF779F802460B46DDE9F7
:105160003A01CDE9CA23FBF727FA0DF59963064604
:105170000F4620462946C3E9006727A3D3E9002349
:10518000FBF71AFA26A3D3E90023FBF75DF8CDE974
:105190001E013046394681F0D3FD02460B463046AB
:1051A0003946FBF751F802460B46DDE91E01CDE911
:1051B000CC23FBF701FA02460B4630463CE000BF29
:1051C0000ABFD4CF9B8A843F14AE47E17A14CE3F06
:1051D00052B81E85EB51F43F74E501C93A576E3F52
:1051E000AD2F12DA722EA53FE5D022DBF9BE2840A2
:1051F000E7FBA9F1D2CD2B40666666666626304095
:105200000EBE30992A18FF3F26AB22DC645439BF0A
:10521000302DEA93DC61433F37894160E5D0F43FAC
:105220008FE4F21FD26FF03F00002E4000002B40B1
:105230000000E03F00408F4039460DF59A66FBF7CD
:1052400003F802460B46C6E9002381F079FD0DF50F
:105250009B66C7A3D3E90023FBF7AEF902460B46D2
:10526000C6E9002381F002FF06460F46DDE962230E
:10527000DDE93A01FBF7A0F90DF5816C02460B461A
:10528000CCE9002381F05CFD0B460DF581610246FF
:10529000D1E90001FAF7D8FF02460B46DDE91E010D
:1052A000CDE9CE23FBF788F90B460DF58161024667
:1052B000D1E90001FAF7C8FF0DF59C6C02460B46D8
:1052C000CCE9002381F03CFDA9A3D3E90023FBF73F
:1052D00073F90DF59E6C02460B46CCE9002381F074
:1052E000C5FE02460B4630463946CDE96423FBF73E
:1052F0008DFAA1A3D3E90023CDE93C01204629463C
:10530000FBF75AF99EA3D3E90023FAF79FFF024661
:105310000B46DDE90201FBF74FF902460B46DDE9DA
:105320001C67CDE9D02330463946FBF745F900220A
:10533000B14BCDE9160130463946FBF767FA0DF55A
:105340009F6691A3D3E90023FBF760FA02460B4660
:10535000C6E9002381F0F4FC02460B460DF5A06679
:10536000FAF774FF02460B46C6E9002381F0CCFF32
:1053700087A3D3E90023FBF71FF987A3D3E9002311
:10538000FBF71AF906460F4685A3D3E90023DDE9AA
:105390001601FBF711F984A3D3E90023FAF756FFAE
:1053A00002460B4630463946CDE96623FBF72EFA16
:1053B00006460F46204629467DA3D3E90023CDE9C2
:1053C0006867FBF7F9F87CA3D3E90023FAF73CFF01
:1053D00002460B4640464946FAF738FF02460B465E
:1053E00030463946CDE95A23FBF7E6F80DF58A63D6
:1053F000C3E9000172A3D3E9002320462946FBF745
:10540000DBF871A3D3E90023FAF720FF0022064658
:105410000F460023DDE95A01FBF740FB00284BF063
:10542000458600220023DDE95A01FBF755FB0028E1
:105430000BF0FC8666A3D3E90023CDE97A23DDE9EE
:105440007A2330463946FBF7B7F80DF58A63D3E97E
:105450000067CDE96A013046394681F071FC0246A9
:105460000B4630463946FAF7EFFE02460B46DDE9B9
:105470006A01CDE9D223FBF79FF802460B4630467E
:1054800039460DF5BA66FAF7DFFE02460B46C6E965
:10549000002381F055FC0DF5C06641A3D3E900233C
:1054A000FBF78AF802460B46C6E9002381F02CFF81
:1054B00002460B46DDE91601CDE9D423FBF77CF863
:1054C00006460F462046294643A3D3E90023FBF7AF
:1054D00073F843A3D3E90023FAF7B6FE02460B465E
:1054E000DDE91C01CDE9D623FBF766F802460B4641
:1054F000DDE90201FBF760F832463B46FAF7A6FE0B
:1055000002460B46DDE93C01CDE9D823FBF754F810
:1055100002460B462046294614461D4632A3D3E9CF
:105520000023FBF749F832A3D3E90023FAF78EFEF4
:1055300002460B46DDE91601CDE9DA23FBF73CF81C
:1055400002460B464046164649461F4600222B4B54
:10555000CDE9DC67FBF730F80DF5C16C02460B4670
:10556000CCE9002381F0ECFB4AE000BFAFF3008000
:105570000E2DB29DEFA7EE3F234A7B832F4CDABF5F
:10558000CA54C1A8A44EFB3F107A36AB3E57F23F37
:1055900000000000C0FEE3C0A4703D0AD7A3EA3FAC
:1055A000F38E53742497F13F7B14AE47E17A843F26
:1055B0000F4757E9EE3A6BBFE10D6954E0646B3F6A
:1055C000D5E76A2BF697E53F93A98251499DCC3FD9
:1055D000B09DEFA7C64BC7BFE08442041C4265BF25
:1055E0005839B4C876BEAF3F64247B849A21853F86
:1055F0000ABFD4CF9B8A843F00408F4000002E40DA
:105600000DF5C76C02460B46CCE9002381F02EFD58
:1056100002460B4630463946CDE9DE23FAF7CCFF89
:10562000DDE97623FAF7C8FF22462B460DF5C8645C
:10563000FAF70CFE02460B46DDE92201CDE9B42360
:10564000DDE90E23FBF7E2F802460B46C4E900232E
:1056500081F076FB804689460DF5C964C6A3D3E97F
:105660000023FAF7F1FDC6A3D3E90023FAF7A4FF5C
:1056700002460B46C4E9002381F062FB0DF5CA64C3
:1056800002460B46C4E9002381F0F0FCBEA3D3E937
:105690000023FAF791FFCDE93E01BAF1000F0BF0BC
:1056A0003E85DAE90867BAA3D3E9002330463946D4
:1056B000FAF782FF81F044FBB7A3D3E90023FAF79E
:1056C0007BFF81F021FECDE97801DDE94023DDE9B2
:1056D0002601FAF7BBFDDDE91823FAF7B7FDDDE98E
:1056E0002023FAF7B3FD02460B46CDE92023002222
:1056F000CB4BFAF7A9FD0022C94BFBF787F804460C
:105700000D46A7A3D3E90023FAF756FFA6A3D3E9D2
:105710000023FAF799FD32463B4606460F46CDE98F
:105720001801CDE96C67FAF791FD02460B46DDE9F9
:105730003E01CDE9E023FAF73FFF0DF5CB630646C6
:105740000F4620462946C3E9006799A3D3E9002301
:10575000FAF732FF98A3D3E90023FAF775FDCDE9F4
:1057600022013046394681F0EBFA02460B463046BC
:105770003946FAF769FD02460B46DDE92201CDE91B
:10578000E223FAF719FF02460B46304639460DF57B
:10579000CC66FAF759FD02460B46C6E9002381F0B4
:1057A000CFFA0DF5CD6686A3D3E90023FAF704FFFF
:1057B00002460B46C6E9002381F058FC06460F4618
:1057C000DDE96C23DDE93E01FAF7F6FE0DF5946C98
:1057D00002460B46CCE9002381F0B2FA0B460DF5E8
:1057E00094610246D1E90001FAF72EFD02460B460C
:1057F000DDE92201CDE9E423FAF7DEFE0B460DF5E3
:1058000094610246D1E90001FAF71EFD0DF5CE6C58
:1058100002460B46CCE9002381F092FA68A3D3E953
:105820000023FAF7C9FE0DF5CF6C02460B46CCE912
:10583000002381F01BFC02460B4630463946CDE979
:105840006E23FAF7E3FF60A3D3E90023CDE940011B
:1058500020462946FAF7B0FE5DA3D3E90023FAF704
:10586000F5FC02460B46DDE90201FAF7A5FE024609
:105870000B46DDE92067CDE9E62330463946FAF7E5
:105880009BFE0022664BCDE9180130463946FAF7F7
:10589000BDFF0DF5D06650A3D3E90023FAF7B6FF9C
:1058A00002460B46C6E9002381F04AFA02460B463F
:1058B0000DF5D166FAF7CAFC02460B46C6E900238D
:1058C00081F022FD46A3D3E90023FAF775FE46A333
:1058D000D3E90023FAF770FE06460F4644A3D3E946
:1058E0000023DDE91801FAF767FE43A3D3E900239B
:1058F000FAF7ACFC02460B4630463946CDE9702338
:10590000FAF784FF06460F46204629463CA3D3E912
:105910000023CDE97267FAF74FFE3BA3D3E90023DA
:10592000FAF792FC02460B4640464946FAF78EFCCF
:1059300002460B4630463946CDE95C23FAF73CFE79
:105940000DF59D63C3E9000131A3D3E9002320468F
:105950002946FAF731FE30A3D3E90023FAF776FCA3
:10596000002206460F460023DDE95C01FBF796F8AE
:1059700058E000BFAFF30080AD2F12DA722EA53FC2
:10598000E5D022DBF9BE2840E7FBA9F1D2CD2B40C0
:1059900066666666662630400EBE30992A18FF3F5E
:1059A00026AB22DC645439BF302DEA93DC61433FDF
:1059B00037894160E5D0F43F8FE4F21FD26FF03FAA
:1059C0000E2DB29DEFA7EE3F234A7B832F4CDABF0B
:1059D000CA54C1A8A44EFB3F107A36AB3E57F23FE3
:1059E00000000000C0FEE3C0A4703D0AD7A3EA3F58
:1059F000F38E53742497F13F7B14AE47E17A843FD2
:105A00000F4757E9EE3A6BBFE10D6954E0646B3F15
:105A1000D5E76A2BF697E53F93A98251499DCC3F84
:105A200000408F4000284BF0338300220023DDE943
:105A30005C01FBF751F800280BF0E783A2A3D3E940
:105A40000023CDE97C23DDE97C2330463946FAF793
:105A5000B3FD0DF59D63D3E90067CDE974013046D0
:105A6000394681F06DF902460B4630463946FAF761
:105A7000EBFB02460B46DDE97401CDE9E823FAF7BA
:105A80009BFD02460B46304639460DF5D266FAF7C5
:105A9000DBFB02460B46C6E9002381F051F90DF508
:105AA000D3668BA3D3E90023FAF786FD02460B46A3
:105AB000C6E9002381F028FC02460B46DDE9180107
:105AC000CDE9EA23FAF778FD06460F462046294637
:105AD00081A3D3E90023FAF76FFD81A3D3E9002363
