:020000040800F2
:10000000000005240D550308DD4C0308E94C0308E6
:10001000EF4C0308F54C0308FB4C030800000000FC
:10002000000000000000000000000000014D030877
:100030000D4D030800000000194D0308254D03086D
:100040005D5503085D5503085D5503085D550308BC
:100050005D5503085D5503085D5503085D550308AC
:100060005D5503085D5503085D550308314D0308D0
:10007000454D03085D5503085D5503085D550308AC
:100080005D5503085D5503085D5503085D5503087C
:100090005D5503085D5503085D5503085D5503086C
:1000A0005D5503085D5503085D5503085D5503085C
:1000B0005D5503085D5503085D5503085D5503084C
:1000C0005D5503085D5503085D5503085D5503083C
:1000D0005D5503085D5503085D550308594D030838
:1000E0005D5503085D550308000000005D550308D9
:1000F0005D5503085D5503085D5503085D5503080C
:100100005D5503085D5503085D5503085D550308FB
:100110005D5503085D550308914D03085D550308BF
:100120005D5503085D5503085D5503085D550308DB
:100130005D5503085D5503085D5503085D550308CB
:1001400000000000000000000000000000000000AF
:100150005D5503085D5503085D5503085D550308AB
:100160005D5503085D5503085D5503085D5503089B
:100170005D5503085D5503085D5503080000000048
:100180005D5503085D5503085D5503085D5503087B
:100190005D5503085D5503085D5503085D5503086B
:1001A0005D5503085D5503085D5503080000000018
:1001B0005D5503085D5503085D5503085D5503084B
:1001C0005D5503085D5503080000000000000000B5
:1001D00000000000000000005D5503080000000062
:1001E000000000000000000000000000000000000F
:1001F00000000000000000005D5503085D55030885
:100200005D5503085D550308000000005D550308B7
:100210005D5503085D5503085D5503085D550308EA
:100220005D550308000000005D5503080000000054
:100230005D5503085D550308000000005D55030887
:100240005D5503085D5503085D5503085D550308BA
:100250005D5503085D5503085D5503085D550308AA
:100260005D5503085D5503085D5503085D5503089A
:100270005D5503085D5503085D5503080000000047
:100280005D5503085D5503085D5503085D5503087A
:10029000000000005D5503085D55030800000000E4
:1002A000000000005D5503085D5503085D55030817
:1002B0005D5503085D5503085D5503085D5503084A
:0C02C0005D5503085D5503085D550308FB
:1003000010B5054C237833B9044B13B10448AFF34F
:1003100000800123237010BDC009002400000000EC
:10032000049B0A0808B5034B1BB103490348AFF30C
:10033000008008BD00000000C4090024049B0A08D6
:1003400081F0004102E000BF83F0004330B54FEA86
:1003500041044FEA430594EA050F08BF90EA020FF3
:100360001FBF54EA000C55EA020C7FEA645C7FEA86
:10037000655C00F0E2804FEA5454D4EB5555B8BFA9
:100380006D420CDD2C4480EA020281EA030382EA1A
:10039000000083EA010180EA020281EA0303362DAC
:1003A00088BF30BD11F0004F4FEA01314FF4801C7F
:1003B0004CEA113102D0404261EB410113F0004F91
:1003C0004FEA03334CEA133302D0524263EB430348
:1003D00094EA050F00F0A780A4F10104D5F1200EE6
:1003E0000DDB02FA0EFC22FA05F2801841F1000141
:1003F00003FA0EF2801843FA05F359410EE0A5F115
:1004000020050EF1200E012A03FA0EFC28BF4CF045
:10041000020C43FA05F3C01851EBE37101F00045FB
:1004200007D54FF0000EDCF1000C7EEB00006EEB08
:100430000101B1F5801F1BD3B1F5001F0CD3490892
:100440005FEA30004FEA3C0C04F101044FEA4452E9
:1004500012F5800F80F09A80BCF1004F08BF5FEA70
:10046000500C50F1000041EB045141EA050130BD50
:100470005FEA4C0C404141EB0101013C28BFB1F562
:10048000801FE9D291F0000F04BF01460020B1FAAD
:1004900081F308BF2033A3F10B03B3F120020CDA80
:1004A0000C3208DD02F1140CC2F10C0201FA0CF05E
:1004B00021FA02F10CE002F11402D8BFC2F1200CC3
:1004C00001FA02F120FA0CFCDCBF41EA0C01904079
:1004D000E41AA2BF01EB0451294330BD6FEA0404C2
:1004E0001F3C1CDA0C340EDC04F11404C4F12002AD
:1004F00020FA04F001FA02F340EA030021FA04F3BF
:1005000045EA030130BDC4F10C04C4F1200220FA15
:1005100002F001FA04F340EA0300294630BD21FA53
:1005200004F0294630BD94F0000F83F4801306BF19
:1005300081F480110134013D4EE77FEA645C18BF0D
:100540007FEA655C29D094EA050F08BF90EA020FA4
:1005500005D054EA000C04BF1946104630BD91EA9C
:10056000030F1EBF0021002030BD5FEA545C05D19F
:100570004000494128BF41F0004130BD14F58004DE
:100580003CBF01F5801130BD01F0004545F0FE4152
:1005900041F470014FF0000030BD7FEA645C1ABF87
:1005A000194610467FEA655C1CBF0B46024650EABE
:1005B000013406BF52EA033591EA030F41F40021EA
:1005C00030BD00BF90F0000F04BF0021704730B570
:1005D0004FF4806404F132044FF000054FF0000145
:1005E00050E700BF90F0000F04BF0021704730B506
:1005F0004FF4806404F1320410F0004548BF4042DB
:100600004FF000013EE700BF42004FEAE2014FEA2F
:1006100031014FEA02701FBF12F07F4393F07F4F0A
:1006200081F06051704732F07F4208BF704793F00D
:100630007F4F04BF41F40021704730B54FF4607420
:1006400001F0004521F000411CE700BF50EA010223
:1006500008BF704730B54FF000050AE050EA0102CC
:1006600008BF704730B511F0004502D5404261EB3C
:1006700041014FF4806404F132045FEA915C3FF47D
:10068000D8AE4FF003025FEADC0C18BF03325FEA1A
:10069000DC0C18BF033202EBDC02C2F1200300FACB
:1006A00003FC20FA02F001FA03FE40EA0E0021FAF0
:1006B00002F11444BDE600BF70B54FF0FF0C4CF4DE
:1006C000E06C1CEA11541DBF1CEA135594EA0C0F90
:1006D00095EA0C0F00F0DEF82C4481EA030621EACB
:1006E0004C5123EA4C5350EA013518BF52EA033506
:1006F00041F4801143F4801338D0A0FB02CE4FF0B8
:100700000005E1FB02E506F00042E0FB03E54FF0E7
:100710000006E1FB03569CF0000F18BF4EF0010EDF
:10072000A4F1FF04B6F5007F64F5407404D25FEADB
:100730004E0E6D4146EB060642EAC62141EA55518E
:100740004FEAC52040EA5E504FEACE2EB4F1FD0CD0
:1007500088BFBCF5E06F1ED8BEF1004F08BF5FEA4E
:10076000500E50F1000041EB045170BD06F0004600
:1007700046EA010140EA020081EA0301B4EB5C04AD
:10078000C2BFD4EB0C0541EA045170BD41F48011A5
:100790004FF0000E013C00F3AB8014F1360FDEBFCA
:1007A000002001F0004170BDC4F10004203C35DAA6
:1007B0000C341BDC04F11404C4F1200500FA05F329
:1007C00020FA04F001FA05F240EA020001F00042CA
:1007D00021F0004110EBD37021FA04F642EB060140
:1007E0005EEA430E08BF20EAD37070BDC4F10C046A
:1007F000C4F1200500FA04F320FA05F001FA04F22E
:1008000040EA020001F0004110EBD37041F1000119
:100810005EEA430E08BF20EAD37070BDC4F1200524
:1008200000FA05F24EEA020E20FA04F301FA05F28C
:1008300043EA020321FA04F001F0004121FA04F234
:1008400020EA020000EBD3705EEA430E08BF20EA04
:10085000D37070BD94F0000F0FD101F0004640003E
:1008600041EB010111F4801F08BF013CF7D041EAC0
:10087000060195F0000F18BF704703F000465200C4
:1008800043EB030313F4801F08BF013DF7D043EA95
:100890000603704794EA0C0F0CEA135518BF95EA4B
:1008A0000C0F0CD050EA410618BF52EA4306D1D1D2
:1008B00081EA030101F000414FF0000070BD50EAF1
:1008C000410606BF1046194652EA430619D094EA7B
:1008D0000C0F02D150EA013613D195EA0C0F05D165
:1008E00052EA03361CBF104619460AD181EA0301B9
:1008F00001F0004141F0FE4141F470014FF0000071
:1009000070BD41F0FE4141F4780170BD70B54FF00B
:10091000FF0C4CF4E06C1CEA11541DBF1CEA13558B
:1009200094EA0C0F95EA0C0F00F0A7F8A4EB05046D
:1009300081EA030E52EA03354FEA013100F0888064
:100940004FEA03334FF0805545EA131343EA12632D
:100950004FEA022245EA111545EA10654FEA0026E2
:100960000EF000419D4208BF964244F1FD0404F59B
:10097000407402D25B084FEA3202B61A65EB0305F7
:100980005B084FEA32024FF480104FF4002CB6EBB4
:10099000020E75EB030E22BFB61A754640EA0C0034
:1009A0005B084FEA3202B6EB020E75EB030E22BF74
:1009B000B61A754640EA5C005B084FEA3202B6EBB5
:1009C000020E75EB030E22BFB61A754640EA9C0074
:1009D0005B084FEA3202B6EB020E75EB030E22BF44
:1009E000B61A754640EADC0055EA060E18D04FEA02
:1009F000051545EA16754FEA06164FEAC30343EAA2
:100A000052734FEAC2025FEA1C1CC0D111F4801F6E
:100A10000BD141EA00014FF000004FF0004CB6E767
:100A200011F4801F04BF01430020B4F1FD0C88BF06
:100A3000BCF5E06F3FF6AFAEB5EB030C04BFB6EB11
:100A4000020C5FEA500C50F1000041EB045170BD04
:100A50000EF0004E4EEA113114EB5C04C2BFD4EB31
:100A60000C0541EA045170BD41F480114FF0000EB5
:100A7000013C90E645EA060E8DE60CEA135594EA31
:100A80000C0F08BF95EA0C0F3FF43BAF94EA0C0F34
:100A90000AD150EA01347FF434AF95EA0C0F7FF4A9
:100AA00025AF104619462CE795EA0C0F06D152EAFD
:100AB00003353FF4FDAE1046194622E750EA4106E1
:100AC00018BF52EA43067FF4C5AE50EA41047FF4F2
:100AD0000DAF52EA43057FF4EBAE12E74FF0FF3C57
:100AE00006E000BF4FF0010C02E000BF4FF0010C28
:100AF0004DF804CD4FEA410C7FEA6C5C4FEA430CA1
:100B000018BF7FEA6C5C1BD001B050EA410C0CBFEF
:100B100052EA430C91EA030F02BF90EA020F002051
:100B2000704710F1000F91EA030F58BF994208BFB8
:100B300090422CBFD8176FEAE37040F00100704775
:100B40004FEA410C7FEA6C5C02D150EA013C07D1CC
:100B50004FEA430C7FEA6C5CD6D152EA033CD3D017
:100B60005DF8040B704700BF8446104662468C4611
:100B70001946634600E000BF01B5FFF7B7FF002844
:100B800048BF10F1000F01BD4DF808EDFFF7F4FF6D
:100B90000CBF012000205DF808FB00BF4DF808EDF8
:100BA000FFF7EAFF34BF012000205DF808FB00BF1B
:100BB0004DF808EDFFF7E0FF94BF012000205DF83D
:100BC00008FB00BF4DF808EDFFF7CEFF94BF0120F2
:100BD00000205DF808FB00BF4DF808EDFFF7C4FFEB
:100BE00034BF012000205DF808FB00BF4FEA410C34
:100BF0007FEA6C5C02D150EA013C0AD14FEA430C17
:100C00007FEA6C5C02D152EA033C02D14FF0000053
:100C100070474FF0010070474FEA410212F5001291
:100C200015D211D56FF47873B3EB625212D94FEA33
:100C3000C12343F0004343EA505311F0004F23FA1D
:100C400002F018BF404270474FF00000704750EA72
:100C5000013005D111F0004008BF6FF0004070472F
:100C60004FF00000704700BF80F0004002E000BF7E
:100C700081F0004142001FBF5FEA410392EA030F87
:100C80007FEA226C7FEA236C6AD04FEA1262D2EBD1
:100C90001363C1BFD218414048404140B8BF5B42D6
:100CA000192B88BF704710F0004F40F4000020F06F
:100CB0007F4018BF404211F0004F41F4000121F085
:100CC0007F4118BF494292EA030F3FD0A2F10102CF
:100CD00041FA03FC10EB0C00C3F1200301FA03F10D
:100CE00000F0004302D5494260EB4000B0F5000F30
:100CF00013D3B0F1807F06D340084FEA310102F1EF
:100D00000102FE2A51D2B1F1004F40EBC25008BFA0
:100D100020F0010040EA03007047490040EB00006A
:100D2000013A28BFB0F5000FEDD2B0FA80FCACF16B
:100D3000080CB2EB0C0200FA0CF0AABF00EBC25098
:100D400052421843BCBFD0401843704792F0000F86
:100D500081F4000106BF80F400000132013BB5E7D9
:100D60004FEA41037FEA226C18BF7FEA236C21D04F
:100D700092EA030F04D092F0000F08BF08467047B4
:100D800090EA010F1CBF0020704712F07F4F04D182
:100D9000400028BF40F00040704712F100723CBF95
:100DA00000F50000704700F0004343F0FE4040F4BF
:100DB000000070477FEA226216BF08467FEA23637D
:100DC0000146420206BF5FEA412390EA010F40F468
:100DD000800070474FF0000304E000BF10F00043B4
:100DE00048BF40425FEA000C08BF704743F096439B
:100DF00001464FF000001CE050EA010208BF7047B6
:100E00004FF000030AE000BF50EA010208BF70473C
:100E100011F0004302D5404261EB41015FEA010C51
:100E200002BF84460146002043F0B64308BFA3F149
:100E30008053A3F50003BCFA8CF2083AA3EBC2532B
:100E400010DB01FA02FC634400FA02FCC2F120024A
:100E5000BCF1004F20FA02F243EB020008BF20F081
:100E60000100704702F1200201FA02FCC2F12002E7
:100E700050EA4C0021FA02F243EB020008BF20EADC
:100E8000DC7070474FF0FF0C1CEAD0521EBF1CEA0A
:100E9000D15392EA0C0F93EA0C0F6FD01A4480EAF8
:100EA000010C400218BF5FEA41211ED04FF00063E1
:100EB00043EA501043EA5111A0FB01310CF000400D
:100EC000B1F5000F3EBF490041EAD3715B0040EA33
:100ED000010062F17F02FD2A1DD8B3F1004F40EB03
:100EE000C25008BF20F00100704790F0000F0CF0D6
:100EF000004C08BF49024CEA502040EA51207F3A9A
:100F0000C2BFD2F1FF0340EAC250704740F4000074
:100F10004FF00003013A5DDC12F1190FDCBF00F065
:100F200000407047C2F10002410021FA02F1C2F113
:100F3000200200FA02FC5FEA310040F1000053EAAF
:100F40004C0308BF20EADC70704792F0000F00F0FD
:100F5000004C02BF400010F4000F013AF9D040EA03
:100F60000C0093F0000F01F0004C02BF490011F497
:100F7000000F013BF9D041EA0C018FE70CEAD15395
:100F800092EA0C0F18BF93EA0C0F0AD030F0004C15
:100F900018BF31F0004CD8D180EA010000F00040C9
:100FA000704790F0000F17BF90F0004F084691F087
:100FB000000F91F0004F14D092EA0C0F01D14202C1
:100FC0000FD193EA0C0F03D14B0218BF084608D18A
:100FD00080EA010000F0004040F0FE4040F40000D4
:100FE000704740F0FE4040F4400070474FF0FF0C67
:100FF0001CEAD0521EBF1CEAD15392EA0C0F93EAAE
:101000000C0F69D0A2EB030280EA010C49024FEAFF
:10101000402037D04FF0805343EA111143EA1013B8
:101020000CF000408B4238BF5B0042F17D024FF470
:10103000000C8B4224BF5B1A40EA0C00B3EB510F4B
:1010400024BFA3EB510340EA5C00B3EB910F24BF34
:10105000A3EB910340EA9C00B3EBD10F24BFA3EBB9
:10106000D10340EADC001B0118BF5FEA1C1CE0D181
:10107000FD2A3FF650AF8B4240EBC25008BF20F034
:10108000010070470CF0004C4CEA50207F32C2BF88
:10109000D2F1FF0340EAC250704740F400004FF025
:1010A0000003013A37E792F0000F00F0004C02BF56
:1010B000400010F4000F013AF9D040EA0C0093F020
:1010C000000F01F0004C02BF490011F4000F013B7A
:1010D000F9D041EA0C0195E70CEAD15392EA0C0FE2
:1010E00008D142027FF47DAF93EA0C0F7FF470AF1A
:1010F000084676E793EA0C0F04D14B023FF44CAF5D
:1011000008466EE730F0004C18BF31F0004CCAD1F1
:1011100030F000427FF45CAF31F000437FF43CAF2D
:101120005FE700BF42000ED2B2F1FE4F0BD34FF08B
:101130009E03B3EB126209D44FEA002343F000434D
:1011400023FA02F070474FF00000704712F1610F70
:1011500001D1420202D14FF0FF3070474FF0000042
:10116000704700BF53B94AB9002908BF00281CBF07
:101170004FF0FF314FF0FF3000F074B9ADF1080CC3
:101180006DE904CE00F006F8DDF804E0DDE90223A5
:1011900004B070472DE9F047089E0D460446884686
:1011A000002B4DD18A42944668D9B2FA82F252B1EC
:1011B00001FA02F3C2F1200120FA01F10CFA02FC5B
:1011C00041EA030894404FEA1C45210CB8FBF5FEA8
:1011D0001FFA8CF705FB1E8341EA03430EFB07F160
:1011E00099420BD91CEB03030EF1FF3080F01E81F6
:1011F000994240F21B81AEF1020E63445B1AA4B225
:10120000B3FBF5F005FB103344EA034400FB07F79A
:10121000A7420AD91CEB040400F1FF3380F00881D7
:10122000A74240F2058164440238E41B40EA0E40C4
:1012300000211EB1D4400023C6E90043BDE8F08779
:101240008B4208D9002E00F0EE800021C6E900058F
:101250000846BDE8F087B3FA83F100294AD1AB42D2
:1012600002D3824200F2F980841A65EB0303012065
:101270009846002EE2D0C6E90048DFE702B9FFDE5B
:10128000B2FA82F2002A40F09180A1EB0C054FEAFD
:101290001C471FFA8CFE0121B5FBF7F307FB135027
:1012A000250C45EA00450EFB03F0A84208D91CEBCB
:1012B000050503F1FF3802D2A84200F2CB80434675
:1012C0002D1AA4B2B5FBF7F007FB105544EA05440C
:1012D0000EFB00FEA64508D91CEB040400F1FF3507
:1012E00002D2A64500F2BB802846A4EB0E0440EAD9
:1012F00003409EE7C1F120078B4022FA07FC4CEA2D
:10130000030C20FA07F405FA01F31C43FD404FEAF1
:101310001C4900FA01F3B5FBF9F8200C1FFA8CFE0A
:1013200009FB185540EA054508FB0EF0A84202FAF1
:1013300001F20BD91CEB050508F1FF3A80F088801B
:10134000A84240F28580A8F1020865442D1AA4B293
:10135000B5FBF9F009FB105544EA054500FB0EFE0C
:10136000AE4508D91CEB050500F1FF346CD2AE4543
:101370006AD90238654440EA0840A0FB0294A5EB14
:101380000E05A542C846A64656D353D05EB1B3EB70
:10139000080265EB0E0505FA07F722FA01F3CD40C6
:1013A0001F43C6E900750021BDE8F087C2F12003A4
:1013B00020FA03F10CFA02FC25FA03F395400D43E1
:1013C0004FEA1C471FFA8CFEB3FBF7F107FB113005
:1013D0002B0C43EA004301FB0EF0984204FA02F49E
:1013E00008D91CEB030301F1FF382FD298422DD905
:1013F000023963441B1AADB2B3FBF7F007FB10339D
:1014000045EA034500FB0EF3AB4208D91CEB05058A
:1014100000F1FF3816D2AB4214D902386544ED1AF8
:1014200040EA014138E73146304607E78646E5E6BF
:101430001846FAE64B45A9D2B9EB020864EB0C0E4C
:101440000138A3E74046EAE7204694E74146D1E762
:10145000D0467BE7023B654432E7084609E764442F
:10146000023842E7704700BF844641EA000313F0A8
:1014700003036DD1403A41D351F8043B40F8043B9B
:1014800051F8043B40F8043B51F8043B40F8043B5E
:1014900051F8043B40F8043B51F8043B40F8043B4E
:1014A00051F8043B40F8043B51F8043B40F8043B3E
:1014B00051F8043B40F8043B51F8043B40F8043B2E
:1014C00051F8043B40F8043B51F8043B40F8043B1E
:1014D00051F8043B40F8043B51F8043B40F8043B0E
:1014E00051F8043B40F8043B51F8043B40F8043BFE
:1014F00051F8043B40F8043B403ABDD2303211D39E
:1015000051F8043B40F8043B51F8043B40F8043BDD
:1015100051F8043B40F8043B51F8043B40F8043BCD
:10152000103AEDD20C3205D351F8043B40F8043B9D
:10153000043AF9D2043208D0D2071CBF11F8013B9B
:1015400000F8013B01D30B8803806046704700BF61
:10155000082A13D38B078DD010F003038AD0C3F170
:101560000403D21ADB071CBF11F8013B00F8013B52
:1015700080D331F8023B20F8023B7BE7043AD9D311
:10158000013A11F8013B00F8013BF9D20B780370E6
:101590004B7843708B788370604670470000000082
:1015A000A2EB0300704700BF02780B78012A28BF26
:1015B0009A42F5D16DE9044540EA0104CDE902679C
:1015C0006FF0000C4FEA447212B380EA010414F089
:1015D000070F6AD100F0070420F0070004F00305AC
:1015E00021F007014FEAC505F0E8042314F0040FC9
:1015F000F1E804670CFA05F462EA040266EA0406FC
:101600000AD063EA0403624667EA0407664603E019
:10161000F0E80423F1E8046782FA4CF582EA060454
:10162000A4FA8CF46CBB83FA4CF583EA0705A5FA9F
:101630008CF595B950E9022351E9026782FA4CF51D
:1016400082EA0604A4FA8CF483FA4CF583EA0705CF
:10165000A5FA8CF52543DBD09CB92DBAB5FA85F4F3
:1016600024F0070427FA04F1DDE9026723FA04F302
:1016700003F0FF0001F0FF01FDE80445A0EB0100CD
:10168000704724BAB4FA84F424F0070426FA04F16B
:10169000DDE9026722FA04F202F0FF0001F0FF0127
:1016A000FDE80445A0EB0100704714F0030F3CD1A6
:1016B00010F0030428D150F8082B51F8083B82FAA7
:1016C0004CF582EA0305A5FA8CF55DB950F8042CB7
:1016D00051F8043C82FA4CF582EA0305A5FA8CF530
:1016E000002DE8D02DBAB5FA85F424F0070423FACA
:1016F00004F122FA04F202F0FF0001F0FF01FDE81C
:101700000445A0EB010070474FEAC40420F0030039
:1017100050F8082B21F0030151F8083B0CFA04F4AF
:1017200062EA040263EA0403C9E710F003041AD072
:10173000A1EB040120F00300E40750F8042B06D0CD
:101740000FD28B785FFAA2F4E41A06D12BB1CB78D2
:101750005FFAB2F4E41A00D11BB920465DF8104BD1
:10176000704701F1040150F8042BCC0721F003016C
:1017700051F8043B48D824D222F07F4482FA4CF539
:1017800094EA1325A5FA8CF50AD165B951F8043B02
:1017900084EA0204B4EB036F0ED150F8042BEBE79C
:1017A0004FEA132355E035F07F454DD10878FDE829
:1017B0000445C0F1000070474FEA126203F0FF03D6
:1017C00047E002EA1C4482FA4CF594EA1345A5FA74
:1017D0008CF50AD165B951F8043B84EA0204B4EBF4
:1017E000034F0CD150F8042BEBE74FEA134330E0E2
:1017F00015EA1C4528D10B884FEA124229E04FEA2E
:10180000124203EA1C4324E002F0FF0482FA4CF582
:1018100094EA1365A5FA8CF50AD165B951F8043B31
:1018200084EA0204B4EB032F09D150F8042BEBE750
:101830004FEA13630DE015F0FF0F05D10B684FEA77
:10184000122223F07F4304E04FF00000FDE804453E
:10185000704712BA1BBA82FA4CF482EA0304A4FA63
:101860008CF5B5FA85F402FA04F203FA04F34FEAB0
:101870001260FDE80445A0EB136070470000000013
:1018800090F800F06DE9024520F007016FF0000CC0
:1018900010F0070491F820F040F049804FF0000468
:1018A0006FF00700D1E9002391F840F000F1080043
:1018B00082FA4CF2A4FA8CF283FA4CF3A2FA8CF37B
:1018C0004BBBD1E9022382FA4CF200F10800A4FAE2
:1018D0008CF283FA4CF3A2FA8CF3E3B9D1E9042336
:1018E00082FA4CF200F10800A4FA8CF283FA4CF36D
:1018F000A2FA8CF37BB9D1E9062301F1200182FA27
:101900004CF200F10800A4FA8CF283FA4CF3A2FA2C
:101910008CF3002BC6D0002A04BF04301A4612BA3A
:10192000B2FA82F2FDE8024500EBD2007047D1E93D
:10193000002304F00305C4F100004FEAC50514F0CC
:10194000040F91F840F00CFA05F562EA05021CBF9D
:1019500063EA050362464FF00004A9E700000000B7
:1019600001F0FF01102A2BDB10F0070F08D010F850
:10197000013B013A8B422DD010F0070F42B3F6D154
:10198000F0B441EA012141EA014122F007047FF06D
:1019900000070023F0E80256083C85EA010586EAC4
:1019A000010685FA47F5A3FA87F586FA47F6A5FA00
:1019B00087F68EB9EED1F0BC01F0FF0102F007020C
:1019C00032B110F8013B013A83EA010313B1F8D1B7
:1019D0000020704701387047002D06BF3546033898
:1019E000073815F0010F07D1013015F4807F02BFD1
:1019F000013015F4C03F0130F0BC0138704700BF22
:101A000080B582B000AF032000F054F902F0E4FF8B
:101A10000246154B9B691B0A03F00F031349CB5C6D
:101A200003F01F0322FA03F37B600F4B9B6903F063
:101A30000F030E4AD35C03F01F037A6822FA03F304
:101A40000B4A13600B4A7B681360002000F014F807
:101A50000346002B01D0012302E033F025F90023D7
:101A600018460837BD4680BD0044025870A10A08D8
:101A70000C0000240800002480B582B000AF78601C
:101A8000154B1B78002B01D1012321E0134B1A6861
:101A9000114B1B7819464FF47A73B3FBF1F3B2FB89
:101AA000F3F3184600F039F90346002B01D0012367
:101AB0000EE07B680F2B0AD8002279684FF0FF30C8
:101AC00000F003F9064A7B681360002300E001235D
:101AD00018460837BD4680BD0400002408000024D5
:101AE0000000002480B400AF054B1B781A46054B5C
:101AF0001B681344034A136000BFBD4680BC704797
:101B000004000024DC09002480B400AF024B1B68F1
:101B10001846BD4680BC7047DC09002480B485B0FF
:101B200000AF78607B6803F00703FB600B4BDB685A
:101B3000BB60BA684FF6FF031340BB60FB681A0234
:101B4000BB681A43064B1343BB60044ABB68D360AF
:101B500000BF1437BD4680BC704700BF00ED00E0F9
:101B60000000FA0580B400AF044BDB681B0A03F0E9
:101B700007031846BD4680BC704700BF00ED00E07B
:101B800080B483B000AF0346FB80B7F90630002B6A
:101B90000BDBFB8803F01F020649B7F906305B092F
:101BA000012000FA02F241F8232000BF0C37BD46A5
:101BB00080BC704700E100E080B483B000AF034612
:101BC0003960FB80B7F90630002B0ADB3B68DAB2DC
:101BD0000C49B7F906301201D2B20B4483F8002346
:101BE0000AE03B68DAB20849FB8803F00F03043BC4
:101BF0001201D2B20B441A7600BF0C37BD4680BC2E
:101C0000704700BF00E100E000ED00E080B489B063
:101C100000AFF860B9607A60FB6803F00703FB610E
:101C2000FB69C3F10703042B28BF0423BB61FB69D5
:101C30000433062B02D9FB69033B00E000237B61E0
:101C40004FF0FF32BB6902FA03F3DA43BB681A4074
:101C50007B699A404FF0FF317B6901FA03F3D94366
:101C60007B680B40134318462437BD4680BC704741
:101C700080B582B000AF78607B68013BB3F1807FB4
:101C800001D301230FE00A4A7B68013B53600F2117
:101C90004FF0FF30FFF790FF054B00229A60044B96
:101CA00007221A60002318460837BD4680BD00BFD2
:101CB00010E000E080B582B000AF78607868FFF790
:101CC0002DFF00BF0837BD4680BD80B586B000AF90
:101CD0000346B9607A60FB81FFF744FF78617A6858
:101CE000B9687869FFF792FF0246B7F90E301146DE
:101CF0001846FFF761FF00BF1837BD4680BD80B5AD
:101D000082B000AF0346FB80B7F906301846FFF7F4
:101D100037FF00BF0837BD4680BD80B582B000AF39
:101D200078607868FFF7A4FF034618460837BD4679
:101D300080BD000080B586B000AF7860FFF7E4FE9C
:101D400038617B68002B01D1012314E37B681B6899
:101D5000664A93424AD07B681B68654A934245D0E5
:101D60007B681B68634A934240D07B681B68624A69
:101D700093423BD07B681B68604A934236D07B68B5
:101D80001B685F4A934231D07B681B685D4A93426F
:101D90002CD07B681B685C4A934227D07B681B6809
:101DA0005A4A934222D07B681B68594A93421DD0FD
:101DB0007B681B68574A934218D07B681B68564A59
:101DC000934213D07B681B68544A93420ED07B68C1
:101DD0001B68534A934209D07B681B68514A93425F
:101DE00004D07B681B68504A934201D1012300E074
:101DF0000023002B00F03C817B68002283F8342014
:101E00007B68022283F835207B681B68374A93423F
:101E10004AD07B681B68364A934245D07B681B6872
:101E2000344A934240D07B681B68334A93423BD08C
:101E30007B681B68314A934236D07B681B68304A06
:101E4000934231D07B681B682E4A93422CD07B682A
:101E50001B682D4A934227D07B681B682B4A93420C
:101E600022D07B681B682A4A93421DD07B681B687E
:101E7000284A934218D07B681B68274A934213D0A4
:101E80007B681B68254A93420ED07B681B68244AF6
:101E9000934209D07B681B68224A934204D07B6836
:101EA0001B68214A934208D17B681B681A687B68CB
:101EB0001B6822F001021A6007E07B681B681A6841
:101EC0007B681B6822F001021A602FE0FFF71CFEFE
:101ED00002463B69D31A052B28D97B6820225A6514
:101EE0007B68032283F83520012344E2100002407E
:101EF00028000240400002405800024070000240AA
:101F000088000240A0000240B800024010040240D5
:101F10002804024040040240580402407004024079
:101F200088040240A0040240B80402407B681B6899
:101F30001B6803F00103002BC8D17B681B681B687A
:101F40007B617A69844B13407B617B689A687B680C
:101F5000DB681A437B681B691A437B685B691A4319
:101F60007B689B691A437B68DB691A437B681B6A41
:101F700013437A6913437B617B685B6A042B07D147
:101F80007B68DA6A7B681B6B13437A6913437B6156
:101F90007B685B68282B03D97B685B682E2B1FD975
:101FA0007B685B683E2B03D97B685B68422B17D943
:101FB0007B685B68462B03D97B685B68482B0FD92D
:101FC0007B685B684E2B03D97B685B68522B07D913
:101FD0007B685B68732B05D97B685B68772B01D8BE
:101FE000012300E00023002B03D07B6943F480131E
:101FF0007B617B681B687A691A607B681B685B6918
:102000007B617B6923F007037B617B685B6A7A698C
:1020100013437B617B685B6A042B17D17B689B6AE7
:102020007A6913437B617B68DB6A002B0ED078688A
:1020300001F0FCFB0346002B08D07B6840225A6568
:102040007B68012283F83520012394E17B681B68BB
:102050007A695A61786801F037FB0346BB607B6898
:10206000DB6D03F01F033F229A40BB689A60CAE011
:102070007B681B68394A934222D07B681B68384AC8
:1020800093421DD07B681B68364A934218D07B6808
:102090001B68354A934213D07B681B68334A9342CE
:1020A0000ED07B681B68324A934209D07B681B685C
:1020B000304A934204D07B681B682F4A934201D177
:1020C000012300E00023002B00F094807B681B6854
:1020D000224A934221D07B681B68214A93421CD03C
:1020E0007B681B681F4A934217D07B681B681E4A97
:1020F000934212D07B681B681C4A93420DD07B68C8
:102100001B681B4A934208D07B681B68194A93429C
:1021100003D07B681B68184A934200BF7B6800228B
:1021200083F834207B68022283F835207B681B68A3
:102130001B687B617A69114B13407B617B689B68EC
:10214000402B1DD07B689B68802B02D14FF48043CD
:1021500017E0002315E000BF3F8010FE085402582E
:102160001C540258305402584454025858540258CF
:102170006C54025880540258945402580F00FEFFC9
:1021800010237A68D268D2081A437B681B69DB087F
:102190001A437B685B69DB081A437B689B69DB0831
:1021A0001A437B68DB69DB081A437B681B6A1B09DF
:1021B00013437A6913437B617B681B687A691A60F1
:1021C0007B681B681A466E4B13446E4AA2FB0323BE
:1021D0001B099A007B68DA65786801F075FA034696
:1021E000FB607B68DB6D03F01F0301229A40FB68F4
:1021F0005A6008E07B6840225A657B68032283F8B6
:1022000035200123B7E07B681B685F4A934272D098
:102210007B681B685D4A93426DD07B681B685C4A93
:10222000934268D07B681B685A4A934263D07B68AC
:102230001B68594A93425ED07B681B68574A934299
:1022400059D07B681B68564A934254D07B681B6800
:10225000544A93424FD07B681B68534A93424AD0FA
:102260007B681B68514A934245D07B681B68504A83
:10227000934240D07B681B684E4A93423BD07B68B8
:102280001B684D4A934236D07B681B684B4A934289
:1022900031D07B681B684A4A93422CD07B681B680C
:1022A000484A934227D07B681B68474A934222D012
:1022B0007B681B68454A93421DD07B681B68444A73
:1022C000934218D07B681B68424A934213D07B68C4
:1022D0001B68414A93420ED07B681B683F4A934279
:1022E00009D07B681B683E4A934204D07B681B6818
:1022F0003C4A934201D1012300E00023002B32D05D
:10230000786801F00DFB7B689B68802B02D17B68AD
:1023100000225A607B685A687B681B6ED2B21A60D2
:102320007B685B6E7A68926E5A607B685B68002B94
:1023300010D07B685B68082B0CD8786801F08AFBAA
:102340007B68DB6E00221A607B681B6F7A68526FB5
:102350005A6008E07B680022DA667B6800221A6710
:102360007B6800225A677B6800225A657B680122DD
:1023700083F83520002318461837BD4680BD00BFBE
:10238000F8ABFDA7CDCCCCCC100002402800024019
:1023900040000240580002407000024088000240A5
:1023A000A0000240B800024010040240280402408D
:1023B0004004024058040240700402408804024075
:1023C000A0040240B8040240085402581C540258A9
:1023D0003054025844540258585402586C5402580D
:1023E000805402589454025880B584B000AF78608D
:1023F0007B68002B01D1012337E27B6893F83530ED
:10240000DBB2022B04D07B6880225A6501232CE2C8
:102410007B681B685C4A93424AD07B681B685B4AB6
:10242000934245D07B681B68594A934240D07B68F1
:102430001B68584A93423BD07B681B68564A9342BC
:1024400036D07B681B68554A934231D07B681B6845
:10245000534A93422CD07B681B68524A934227D040
:102460007B681B68504A934222D07B681B684F4AA6
:1024700093421DD07B681B684D4A934218D07B68FD
:102480001B684C4A934213D07B681B684A4A9342AC
:102490000ED07B681B68494A934209D07B681B6851
:1024A000474A934204D07B681B68464A934201D155
:1024B000012300E00023002B00F086807B680422CB
:1024C00083F835207B681B682F4A93424AD07B688B
:1024D0001B682E4A934245D07B681B682C4A934266
:1024E00040D07B681B682B4A93423BD07B681B68BB
:1024F000294A934236D07B681B68284A934231D0E0
:102500007B681B68264A93422CD07B681B68254A4F
:10251000934227D07B681B68234A934222D07B6872
:102520001B68224A93421DD07B681B68204A934255
:1025300018D07B681B681F4A934213D07B681B68C6
:102540001D4A93420ED07B681B681C4A934209D0F7
:102550007B681B681A4A934204D07B681B68194A3F
:10256000934208D17B681B681A687B681B6822F05D
:1025700001021A6078E17B681B681A687B681B6837
:1025800022F001021A606FE11000024028000240B0
:1025900040000240580002407000024088000240A3
:1025A000A0000240B800024010040240280402408B
:1025B0004004024058040240700402408804024073
:1025C000A0040240B80402407B681B681A687B685C
:1025D0001B6822F00E021A607B681B686C4A9342EB
:1025E0004AD07B681B686B4A934245D07B681B6866
:1025F000694A934240D07B681B68684A93423BD04B
:102600007B681B68664A934236D07B681B68654AC4
:10261000934231D07B681B68634A93422CD07B681D
:102620001B68624A934227D07B681B68604A9342CA
:1026300022D07B681B685F4A93421DD07B681B6871
:102640005D4A934218D07B681B685C4A934213D062
:102650007B681B685A4A93420ED07B681B68594AB4
:10266000934209D07B681B68574A934204D07B6829
:102670001B68564A934208D17B681B681A687B68BE
:102680001B6822F001021A6007E07B681B681A6869
:102690007B681B6822F001021A607B681B683C4A59
:1026A000934272D07B681B683A4A93426DD07B6834
:1026B0001B68394A934268D07B681B68374A93424B
:1026C00063D07B681B68364A93425ED07B681B6888
:1026D000344A934259D07B681B68334A934254D0A2
:1026E0007B681B68314A93424FD07B681B68304A35
:1026F00093424AD07B681B682E4A934245D07B6840
:102700001B682D4A934240D07B681B682B4A93423A
:102710003BD07B681B682A4A934236D07B681B6893
:10272000284A934231D07B681B68274A93422CD0B9
:102730007B681B68254A934227D07B681B68244A24
:10274000934222D07B681B68224A93421DD07B684B
:102750001B68214A934218D07B681B681F4A93422A
:1027600013D07B681B681E4A93420ED07B681B689F
:102770001C4A934209D07B681B681B4A934204D0D1
:102780007B681B68194A934232D1012331E000BFB4
:102790001000024028000240400002405800024061
:1027A0007000024088000240A0000240B8000240D1
:1027B0001004024028040240400402405804024031
:1027C0007004024088040240A0040240B8040240A1
:1027D000085402581C5402583054025844540258A9
:1027E000585402586C540258805402589454025859
:1027F0000023002B28D07B681B6E1A687B681B6E39
:1028000022F480721A607B689B6DFB607B68DB6DD5
:1028100003F01F0301229A40FB685A607B685B6EDD
:102820007A68926E5A607B68DB6E002B0CD07B68F6
:10283000DB6E1A687B68DB6E22F480721A607B683C
:102840001B6F7A68526F5A607B68002283F83420CD
:102850007B68012283F835207B681B6D002B03D039
:102860007B681B6D78689847002318461037BD4673
:1028700080BD00BF80B58AB000AF78600023FB60E8
:10288000674B1B68674AA2FB03239B0A7B627B683A
:102890009B6D3B627B689B6DFB613B6A1B68BB6108
:1028A000FB691B687B617B681B685F4A93424AD067
:1028B0007B681B685D4A934245D07B681B685C4A15
:1028C000934240D07B681B685A4A93423BD07B6856
:1028D0001B68594A934236D07B681B68574A93421B
:1028E00031D07B681B68564A93422CD07B681B68AA
:1028F000544A934227D07B681B68534A934222D0A4
:102900007B681B68514A93421DD07B681B68504A04
:10291000934218D07B681B684E4A934213D07B6861
:102920001B684D4A93420ED07B681B684B4A93420A
:1029300009D07B681B684A4A934204D07B681B68B5
:10294000484A934201D1012300E00023002B00F00C
:102950002B847B68DB6D03F01F0308229A40BB6960
:102960001340002B00F0A2807B681B682E4A934224
:102970004AD07B681B682D4A934245D07B681B6810
:102980002B4A934240D07B681B682A4A93423BD033
:102990007B681B68284A934236D07B681B68274AAD
:1029A000934231D07B681B68254A93422CD07B68C8
:1029B0001B68244A934227D07B681B68224A9342B3
:1029C00022D07B681B68214A93421DD07B681B681C
:1029D0001F4A934218D07B681B681E4A934213D04B
:1029E0007B681B681C4A93420ED07B681B681B4A9D
:1029F000934209D07B681B68194A934204D07B68D4
:102A00001B68184A93422FD17B681B681B6803F030
:102A10000403002B14BF01230023DBB22EE000BF10
:102A200008000024B5814E1B10000240280002401F
:102A300040000240580002407000024088000240FE
:102A4000A0000240B80002401004024028040240E6
:102A500040040240580402407004024088040240CE
:102A6000A0040240B80402407B681B681B6803F0A6
:102A70000803002B14BF01230023DBB2002B15D069
:102A80007B681B681A687B681B6822F004021A6066
:102A90007B68DB6D03F01F0308229A403B6A9A6053
:102AA0007B685B6D43F001027B685A657B68DB6D78
:102AB00003F01F03BA6922FA03F303F00103002BAA
:102AC0006ED07B681B68694A93424AD07B681B685A
:102AD000674A934245D07B681B68664A934240D060
:102AE0007B681B68644A93423BD07B681B68634ADF
:102AF000934236D07B681B68614A934231D07B6831
:102B00001B68604A93422CD07B681B685E4A9342E4
:102B100027D07B681B685D4A934222D07B681B6884
:102B20005B4A93421DD07B681B685A4A934218D077
:102B30007B681B68584A934213D07B681B68574ACE
:102B400093420ED07B681B68554A934209D07B683C
:102B50001B68544A934204D07B681B68524A9342D4
:102B60000AD17B681B685B6903F08003002B14BFEC
:102B700001230023DBB203E07B681B681B68002392
:102B8000002B0DD07B68DB6D03F01F0301229A4000
:102B90003B6A9A607B685B6D43F002027B685A6512
:102BA0007B68DB6D03F01F0304229A40BB6913406E
:102BB000002B00F08F807B681B682C4A93424AD020
:102BC0007B681B682A4A934245D07B681B68294A68
:102BD000934240D07B681B68274A93423BD07B6876
:102BE0001B68264A934236D07B681B68244A93426E
:102BF00031D07B681B68234A93422CD07B681B68CA
:102C0000214A934227D07B681B68204A934222D0F6
:102C10007B681B681E4A93421DD07B681B681D4A57
:102C2000934218D07B681B681B4A934213D07B6881
:102C30001B681A4A93420ED07B681B68184A93425D
:102C400009D07B681B68174A934204D07B681B68D5
:102C5000154A93422AD17B681B681B6803F0020364
:102C6000002B14BF01230023DBB223E0100002403D
:102C7000280002404000024058000240700002401C
:102C800088000240A0000240B80002401004024048
:102C900028040240400402405804024070040240EC
:102CA00088040240A0040240B80402407B681B680C
:102CB0001B680023002B0DD07B68DB6D03F01F0326
:102CC00004229A403B6A9A607B685B6D43F0040281
:102CD0007B685A657B68DB6D03F01F0310229A4006
:102CE000BB691340002B00F0A6807B681B68854AF7
:102CF00093424AD07B681B68834A934245D07B68E5
:102D00001B68824A934240D07B681B68804A93428A
:102D10003BD07B681B687F4A934236D07B681B6838
:102D20007D4A934231D07B681B687C4A93422CD009
:102D30007B681B687A4A934227D07B681B68794A74
:102D4000934222D07B681B68774A93421DD07B68F0
:102D50001B68764A934218D07B681B68744A93427A
:102D600013D07B681B68734A93420ED07B681B6844
:102D7000714A934209D07B681B68704A934204D021
:102D80007B681B686E4A93420AD17B681B681B688C
:102D900003F00803002B14BF01230023DBB209E07A
:102DA0007B681B681B6803F00403002B14BF01231E
:102DB0000023DBB2002B3ED07B68DB6D03F01F03EA
:102DC00010229A403B6A9A607B681B681B6803F478
:102DD0008023002B18D07B681B681B6803F400233A
:102DE000002B08D17B681B6C002B24D07B681B6CEC
:102DF000786898471FE07B689B6C002B1BD07B6832
:102E00009B6C7868984716E07B681B681B6803F426
:102E10008073002B07D17B681B681A687B681B686E
:102E200022F008021A607B681B6C002B03D07B68C1
:102E30001B6C786898477B68DB6D03F01F032022CA
:102E40009A40BB691340002B00F010817B681B681F
:102E50002C4A93424AD07B681B682B4A934245D048
:102E60007B681B68294A934240D07B681B68284ACC
:102E700093423BD07B681B68264A934236D07B68DE
:102E80001B68254A934231D07B681B68234A9342D2
:102E90002CD07B681B68224A934227D07B681B6832
:102EA000204A934222D07B681B681F4A93421DD060
:102EB0007B681B681D4A934218D07B681B681C4ABC
:102EC000934213D07B681B681A4A93420ED07B68EA
:102ED0001B68194A934209D07B681B68174A9342C2
:102EE00004D07B681B68164A93422BD17B681B6811
:102EF0001B6803F01003002B14BF01230023DBB277
:102F00002AE000BF100002402800024040000240BA
:102F1000580002407000024088000240A0000240B9
:102F2000B80002401004024028040240400402405D
:102F3000580402407004024088040240A004024089
:102F4000B80402407B681B681B6803F00203002B77
:102F500014BF01230023DBB2002B00F087807B68C5
:102F6000DB6D03F01F0320229A403B6A9A607B6866
:102F700093F83530DBB2042B39D17B681B681A68B3
:102F80007B681B6822F016021A607B681B685A690E
:102F90007B681B6822F080025A617B681B6C002BE7
:102FA00003D17B689B6C002B07D07B681B681A6879
:102FB0007B681B6822F008021A607B68DB6D03F0F7
:102FC0001F033F229A403B6A9A607B68002283F885
:102FD00034207B68012283F835207B681B6D002B31
:102FE00000F04A837B681B6D7868984744E37B68F0
:102FF0001B681B6803F48023002B18D07B681B68B8
:103000001B6803F40023002B08D17B685B6C002B4A
:103010002CD07B685B6C7868984727E07B68DB6B1B
:10302000002B23D07B68DB6B786898471EE07B68B9
:103030001B681B6803F48073002B0FD17B681B682F
:103040001A687B681B6822F010021A607B680022F5
:1030500083F834207B68012283F835207B68DB6BA2
:10306000002B03D07B68DB6B786898477B685B6DCF
:10307000002B00F006837B685B6D03F00103002BDF
:1030800000F088807B68042283F835207B681B6809
:103090007A4A93424AD07B681B68794A934245D06A
:1030A0007B681B68774A934240D07B681B68764AEE
:1030B00093423BD07B681B68744A934236D07B684E
:1030C0001B68734A934231D07B681B68714A9342F4
:1030D0002CD07B681B68704A934227D07B681B68A2
:1030E0006E4A934222D07B681B686D4A93421DD082
:1030F0007B681B686B4A934218D07B681B686A4ADE
:10310000934213D07B681B68684A93420ED07B6859
:103110001B68674A934209D07B681B68654A9342E3
:1031200004D07B681B68644A934208D17B681B68A3
:103130001A687B681B6822F001021A6007E07B684E
:103140001B681A687B681B6822F001021A60FB6822
:103150000133FB607A6A9A4207D37B681B681B685D
:1031600003F00103002BF2D100E000BF7B680022D6
:1031700083F834207B681B681B6803F00103002B75
:1031800004D07B68032283F8352003E07B680122AA
:1031900083F835207B68DB6C002B00F072827B6843
:1031A000DB6C786898476CE27B681B68434A934203
:1031B00022D07B681B68424A93421DD07B681B6803
:1031C000404A934218D07B681B683F4A934213D011
:1031D0007B681B683D4A93420ED07B681B683C4A63
:1031E000934209D07B681B683A4A934204D07B68BB
:1031F0001B68394A934201D1012300E00023002BD0
:1032000000F03F827B681B681B683B617B68DB6D5D
:1032100003F01F0304229A407B691340002B00F047
:10322000CD803B6903F00403002B00F0C7807B686E
:10323000DB6D03F01F0304229A40FB695A603B696F
:1032400003F40043002B49D03B6903F48033002B87
:1032500009D17B689B6C002B00F010827B689B6C13
:10326000786898470AE27B681B6C002B00F00682A6
:103270007B681B6C7868984700E200BF1000024032
:103280002800024040000240580002407000024006
:1032900088000240A0000240B80002401004024032
:1032A00028040240400402405804024070040240D6
:1032B00088040240A0040240B804024008540258A6
:1032C0001C5402583054025844540258585402585E
:1032D0006C54025880540258945402583B6903F0CD
:1032E0002003002B60D17B681B687F4A93424AD041
:1032F0007B681B687D4A934245D07B681B687C4A8B
:10330000934240D07B681B687A4A93423BD07B68EB
:103310001B68794A934236D07B681B68774A934290
:1033200031D07B681B68764A93422CD07B681B683F
:10333000744A934227D07B681B68734A934222D019
:103340007B681B68714A93421DD07B681B68704A7A
:10335000934218D07B681B686E4A934213D07B68F7
:103360001B686D4A93420ED07B681B686B4A934280
:1033700009D07B681B686A4A934204D07B681B684B
:10338000684A934208D17B681B681A687B681B688F
:1033900022F008021A6007E07B681B681A687B68E5
:1033A0001B6822F004021A607B681B6C002B00F083
:1033B00065817B681B6C786898475FE17B68DB6D93
:1033C00003F01F0302229A407B691340002B00F098
:1033D000C5803B6903F00203002B00F0BF807B68CF
:1033E000DB6D03F01F0302229A40FB695A603B69C0
:1033F00003F40043002B18D03B6903F48033002B07
:1034000009D17B685B6C002B00F03A817B685B6CB8
:103410007868984734E17B68DB6B002B00F03081E3
:103420007B68DB6B786898472AE13B6903F02003EF
:10343000002B40F089807B681B682B4A93424AD05E
:103440007B681B68294A934245D07B681B68284AE1
:10345000934240D07B681B68264A93423BD07B68EE
:103460001B68254A934236D07B681B68234A9342E7
:1034700031D07B681B68224A93422CD07B681B6842
:10348000204A934227D07B681B681F4A934222D070
:103490007B681B681D4A93421DD07B681B681C4AD1
:1034A000934218D07B681B681A4A934213D07B68FA
:1034B0001B68194A93420ED07B681B68174A9342D7
:1034C00009D07B681B68164A934204D07B681B684E
:1034D000144A934228D17B681B681A687B681B6872
:1034E00022F014021A6027E0100002402800024077
:1034F0004000024058000240700002408800024034
:10350000A0000240B800024010040240280402401B
:103510004004024058040240700402408804024003
:10352000A0040240B80402407B681B681A687B68EC
:103530001B6822F00A021A607B68002283F834209C
:103540007B68012283F835207B68DB6B002B00F061
:1035500097807B68DB6B7868984791E07B68DB6DD0
:1035600003F01F0308229A407B691340002B00F0F0
:1035700088803B6903F00803002B00F082807B68A1
:103580001B68414A93424AD07B681B683F4A93427A
:1035900045D07B681B683E4A934240D07B681B68DD
:1035A0003C4A93423BD07B681B683B4A934236D0EF
:1035B0007B681B68394A934231D07B681B68384A64
:1035C00093422CD07B681B68364A934227D07B6895
:1035D0001B68354A934222D07B681B68334A93426A
:1035E0001DD07B681B68324A934218D07B681B68E9
:1035F000304A934213D07B681B682F4A93420ED007
:103600007B681B682D4A934209D07B681B682C4A53
:10361000934204D07B681B682A4A934208D17B6896
:103620001B681A687B681B6822F01C021A6007E09E
:103630007B681B681A687B681B6822F00E021A60A0
:103640007B68DB6D03F01F0301229A40FB695A601F
:103650007B6801225A657B68002283F834207B68EE
:10366000012283F835207B68DB6C002B09D07B6856
:10367000DB6C7868984704E000BF02E000BF00E020
:1036800000BF2837BD4680BD100002402800024020
:103690004000024058000240700002408800024092
:1036A000A0000240B800024010040240280402407A
:1036B0004004024058040240700402408804024062
:1036C000A0040240B804024080B485B000AF786026
:1036D0007B681B68424A93424AD07B681B68414A18
:1036E000934245D07B681B683F4A934240D07B6839
:1036F0001B683E4A93423BD07B681B683C4A93421E
:1037000036D07B681B683B4A934231D07B681B688C
:10371000394A93422CD07B681B68384A934227D0A1
:103720007B681B68364A934222D07B681B68354A07
:1037300093421DD07B681B68334A934218D07B6844
:103740001B68324A934213D07B681B68304A93420D
:103750000ED07B681B682F4A934209D07B681B6898
:103760002D4A934204D07B681B682C4A934201D1B6
:10377000012300E00023002B24D07B681B68DBB210
:10378000103B274AA2FB03231B09FB60FB6803F0E5
:103790000703244AD35C1A467B68DA65FB68032B6F
:1037A00008D97B681B681A461F4B13401A1D7B689B
:1037B0009A650DE07B681B681A461B4B13407A68BC
:1037C000936505E07B681B6823F0FF027B689A65C0
:1037D0007B689B6D18461437BD4680BC704700BFA0
:1037E0001000024028000240400002405800024001
:1037F0007000024088000240A0000240B800024071
:1038000010040240280402404004024058040240D0
:103810007004024088040240A0040240B804024040
:10382000ABAAAAAA8C9F0A0800FCFFFF80B485B04F
:1038300000AF78600023FB737B689B69002B20D16D
:103840007B689B6A032B58D801A252F823F000BF73
:10385000613800087338000861380008FB38000838
:103860007B68DB6A03F08073002B48D00123FB7375
:1038700045E07B68DB6AB3F1C07F42D10123FB7373
:103880003FE07B689B69B3F5005F23D17B689B6A4F
:10389000032B38D801A252F823F000BFAD3800083E
:1038A000B3380008AD380008C53800080123FB73A1
:1038B00030E07B68DB6A03F08073002B25D00123A6
:1038C000FB7322E07B68DB6AB3F1C07F1FD1012369
:1038D000FB731CE07B689B6A022B02D9032B03D08D
:1038E00018E00123FB7315E07B68DB6A03F080734B
:1038F000002B0ED00123FB730BE000BF0AE000BFDA
:1039000008E000BF06E000BF04E000BF02E000BF27
:1039100000E000BFFB7B18461437BD4680BC7047F3
:1039200080B485B000AF78607B681B68BB607B6843
:103930001B68384A934222D07B681B68364A934200
:103940001DD07B681B68354A934218D07B681B6882
:10395000334A934213D07B681B68324A93420ED09D
:103960007B681B68304A934209D07B681B682F4AEA
:10397000934204D07B681B682D4A934201D10123F6
:1039800000E00023002B1AD07B681B68DBB2083BE9
:10399000284AA2FB03231B09FB60FA68264B134449
:1039A0009B001A467B681A667B68244A5A66FB6845
:1039B00003F01F0301229A407B689A6624E07B682B
:1039C0001B68DBB2103B1E4AA2FB03231B09FB60F2
:1039D000BB681C4A934206D8BB681B4A934202D973
:1039E000FB680833FB60FA68184B13449B001A46C7
:1039F0007B681A667B68164A5A66FB6803F01F03E9
:103A000001229A407B689A6600BF1437BD4680BC8D
:103A1000704700BF085402581C54025830540258D2
:103A200044540258585402586C5402588054025856
:103A300094540258CDCCCCCC009600168058025835
:103A4000ABAAAAAAB80402400F04024000820010E8
:103A50008008024080B485B000AF78607B685B6806
:103A6000DBB2FB60FB68002B4AD0FB68082B47D811
:103A70007B681B68254A934222D07B681B68244AD6
:103A800093421DD07B681B68224A934218D07B6802
:103A90001B68214A934213D07B681B681F4A9342DC
:103AA0000ED07B681B681E4A934209D07B681B6856
:103AB0001C4A934204D07B681B681B4A934201D185
:103AC000012300E00023002B0AD0FA68174B1344AF
:103AD0009B001A467B68DA667B68154A1A6709E01C
:103AE000FA68144B13449B001A467B68DA667B68BD
:103AF000114A1A67FB68013B01229A407B685A67AA
:103B000000BF1437BD4680BC704700BF0854025840
:103B10001C54025830540258445402585854025805
:103B20006C54025880540258945402583F96001620
:103B3000405902583F8200104009024080B489B0C9
:103B400000AF786039600023FB61864B7B618CE1BC
:103B50003B681A680121FB6901FA03F313403B61DA
:103B60003B69002B00F07E813B685B68012B0BD02A
:103B70003B685B68022B07D03B685B68112B03D066
:103B80003B685B68122B30D17B689B68BB61FB692B
:103B90005B00032202FA03F3DB43BA691340BB6103
:103BA0003B68DA68FB695B0002FA03F3BA69134306
:103BB000BB617B68BA699A607B685B68BB61012204
:103BC000FB6902FA03F3DB43BA691340BB613B684C
:103BD0005B681B0903F00102FB6902FA03F3BA698F
:103BE0001343BB617B68BA695A607B68DB68BB6161
:103BF000FB695B00032202FA03F3DB43BA6913405B
:103C0000BB613B689A68FB695B0002FA03F3BA691F
:103C10001343BB617B68BA69DA603B685B68022B5F
:103C200003D03B685B68122B23D1FB69DA087B6801
:103C3000083253F82230BB61FB6903F007039B0095
:103C40000F2202FA03F3DB43BA691340BB613B68FE
:103C50001A69FB6903F007039B0002FA03F3BA69D0
:103C60001343BB61FB69DA087B680832B96943F822
:103C700022107B681B68BB61FB695B00032202FAB0
:103C800003F3DB43BA691340BB613B685B6803F035
:103C90000302FB695B0002FA03F3BA691343BB61D9
:103CA0007B68BA691A603B685B6803F08053002B3D
:103CB00000F0D8802C4BD3F8F4302B4A43F00203A9
:103CC000C2F8F430284BD3F8F43003F00203FB6061
:103CD000FB68264AFB699B08023352F82330BB611C
:103CE000FB6903F003039B000F2202FA03F3DB439B
:103CF000BA691340BB617B681D4A93424AD07B6816
:103D00001C4A93422BD07B681B4A934225D07B6888
:103D10001A4A93421FD07B68194A934219D07B6894
:103D2000184A934213D07B68174A93420DD07B68A0
:103D3000164A934207D07B68154A934201D1092362
:103D400029E00A2327E0072325E0062323E00523B3
:103D500021E004231FE003231DE002231BE00123D5
:103D600019E000BF800000580044025800040058C9
:103D7000000002580004025800080258000C0258C3
:103D8000001002580014025800180258001C025873
:103D9000002402580023FA6902F0030292009340C3
:103DA000BA691343BB613849FB699B080233BA699E
:103DB00041F823207B691B68BB613B69DB43BA691F
:103DC0001340BB613B685B6803F48033002B03D076
:103DD000BA693B691343BB617B69BA691A607B6945
:103DE0005B68BB613B69DB43BA691340BB613B68FD
:103DF0005B6803F40033002B03D0BA693B691343BB
:103E0000BB617B69BA695A604FF0B0431B68BB6104
:103E10003B69DB43BA691340BB613B685B6803F4F1
:103E20008013002B03D0BA693B691343BB614FF089
:103E3000B042BB6913604FF0B0435B68BB613B6944
:103E4000DB43BA691340BB613B685B6803F4001352
:103E5000002B03D0BA693B691343BB614FF0B042FA
:103E6000BB695360FB690133FB613B681A68FB69FE
:103E700022FA03F3002B7FF46BAE00BF00BF2437A0
:103E8000BD4680BC704700BF0004005880B483B0BA
:103E900000AF78600B467B8013467B707B78002BED
:103EA00003D07A887B689A6103E07B881A047B6878
:103EB0009A6100BF0C37BD4680BC704780B584B0A6
:103EC00000AF7860194BDB6803F00403042B0AD0C1
:103ED000164BDB6803F007037A689A4201D001238E
:103EE0001FE000231DE0114BDB6823F007020F49A0
:103EF0007B681343CB60FDF707FEF86009E0FDF730
:103F000003FE0246FB68D31AB3F57A7F01D9012379
:103F100007E0064B5B6803F40053B3F5005FEED196
:103F2000002318461037BD4680BD00BF0048025828
:103F300080B400AF044BDB68034A43F08073D36066
:103F400000BFBD4680BC70470048025880B58CB0A9
:103F500000AF78607B68002B01D101237BE37B6895
:103F60001B6803F00103002B00F08780954B1B6951
:103F700003F03803FB62934B9B6ABB62FB6A102B16
:103F800007D0FB6A182B10D1BB6A03F00303022B86
:103F90000BD18C4B1B6803F40033002B6CD07B6877
:103FA0005B68002B68D1012355E37B685B68B3F540
:103FB000803F06D1834B1B68824A43F480331360F1
:103FC0002EE07B685B68002B0CD17E4B1B687D4A22
:103FD00023F4803313607B4B1B687A4A23F48023DD
:103FE00013601DE07B685B68B3F5A02F0CD1754BA7
:103FF0001B68744A43F480231360724B1B68714A38
:1040000043F4803313600BE06E4B1B686D4A23F45E
:10401000803313606B4B1B686A4A23F48023136060
:104020007B685B68002B13D0FDF76EFD786208E0BB
:10403000FDF76AFD02467B6AD31A642B01D903237C
:1040400009E3604B1B6803F40033002BF0D014E04D
:10405000FDF75AFD786208E0FDF756FD02467B6ADF
:10406000D31A642B01D90323F5E2564B1B6803F4E2
:104070000033002BF0D100E000BF7B681B6803F029
:104080000203002B6DD04F4B1B6903F038033B62DA
:104090004C4B9B6AFB613B6A002B07D03B6A182B99
:1040A0001BD1FB6903F00303002B16D1454B1B68A2
:1040B00003F00403002B05D07B68DB68002B01D1E3
:1040C0000123C8E23F4B5B6823F0FE427B681B691B
:1040D0001B063C4913434B6043E07B68DB68002BC5
:1040E00026D0384B1B6823F019027B68DB68354902
:1040F00013430B60FDF708FD786208E0FDF704FD4F
:1041000002467B6AD31A022B01D90323A3E22D4B6B
:104110001B6803F00403002BF0D02A4B5B6823F0EC
:10412000FE427B681B691B06264913434B6018E05F
:10413000244B1B68234A23F001031360FDF7E4FCC2
:10414000786208E0FDF7E0FC02467B6AD31A022B96
:1041500001D903237FE21B4B1B6803F00403002BF0
:10416000F0D17B681B6803F01003002B6DD0154B5A
:104170001B6903F03803BB61124B9B6A7B61BB690F
:10418000082B07D0BB69182B1ED17B6903F00303F2
:10419000012B19D10B4B1B6803F48073002B05D046
:1041A0007B68DB69802B01D0012354E2054BDB687F
:1041B00023F07C527B681B6A1B0602491343CB60C9
:1041C00043E000BF004402587B68DB69002B23D02A
:1041D0009C4B1B689B4A43F080031360FDF794FCE3
:1041E000786208E0FDF790FC02467B6AD31A022B46
:1041F00001D903232FE2934B1B6803F48073002B38
:10420000F0D0904BDB6823F07C527B681B6A1B0666
:104210008C491343CB6018E08A4B1B68894A23F012
:1042200080031360FDF770FC786208E0FDF76CFC1A
:1042300002467B6AD31A022B01D903230BE2814B7E
:104240001B6803F48073002BF0D17B681B6803F0BC
:104250000803002B36D07B685B69002B19D0794BA3
:104260005B6F784A43F001035367FDF74DFC7862BA
:1042700008E0FDF749FC02467B6AD31A022B01D9FC
:104280000323E8E16F4B5B6F03F00203002BF0D0D8
:1042900018E06C4B5B6F6B4A23F001035367FDF72B
:1042A00033FC786208E0FDF72FFC02467B6AD31AE4
:1042B000022B01D90323CEE1624B5B6F03F00203B3
:1042C000002BF0D17B681B6803F02003002B36D055
:1042D0007B689B69002B19D05A4B1B68594A43F4E1
:1042E00080531360FDF710FC786208E0FDF70CFCCA
:1042F00002467B6AD31A022B01D90323ABE1514B4F
:104300001B6803F40053002BF0D018E04D4B1B68E2
:104310004C4A23F480531360FDF7F6FB786208E003
:10432000FDF7F2FB02467B6AD31A022B01D9032365
:1043300091E1444B1B6803F40053002BF0D17B68E0
:104340001B6803F00403002B00F086803E4B1B68C3
:104350003D4A43F480731360FDF7D6FB786208E0B2
:10436000FDF7D2FB02467B6AD31A642B01D90323E3
:1043700071E1354B1B6803F48073002BF0D07B6830
:104380009B68012B06D12F4B1B6F2E4A43F0010374
:1043900013672DE07B689B68002B0CD1294B1B6FAA
:1043A000284A23F001031367264B1B6F254A23F08D
:1043B000040313671CE07B689B68052B0CD1214B21
:1043C0001B6F204A43F0040313671E4B1B6F1D4AEB
:1043D00043F0010313670BE01A4B1B6F194A23F0DC
:1043E00001031367174B1B6F164A23F0040313676F
:1043F0007B689B68002B15D0FDF786FB78620AE08E
:10440000FDF782FB02467B6AD31A41F2883293425F
:1044100001D903231FE10B4B1B6F03F00203002B99
:10442000EED019E0FDF770FB78620FE0FDF76CFB52
:1044300002467B6AD31A41F28832934206D903239B
:1044400009E100BF0044025800480258844B1B6F2A
:1044500003F00203002BE9D17B685B6A002B00F0BC
:10446000F9807F4B1B6903F03803182B00F0B480F0
:104470007B685B6A022B40F09580794B1B68784A19
:1044800023F080731360FDF73FFB786208E0FDF7CF
:104490003BFB02467B6AD31A022B01D90323DAE0E5
:1044A0006F4B1B6803F00073002BF0D16C4B9A6AC2
:1044B0006C4B13407A68916A7A68D26A12010A4397
:1044C000674913438B627B681B6B013BC3F3080294
:1044D0007B685B6B013B5B029BB21A437B689B6B07
:1044E000013B1B0403F4FE031A437B68DB6B013BB7
:1044F0001B0603F0FE435A4913430B63584BDB6A18
:10450000574A23F00103D362554B5A6B564B134065
:104510007A68926CD200524913434B63504BDB6A6A
:1045200023F00C027B681B6C4D491343CB624C4B50
:10453000DB6A23F002027B685B6C49491343CB6260
:10454000474BDB6A464A43F48033D362444BDB6A11
:10455000434A43F40033D362414BDB6A404A43F49D
:104560008023D3623E4BDB6A3D4A43F00103D362B2
:104570003B4B1B683A4A43F080731360FDF7C4FA63
:10458000786208E0FDF7C0FA02467B6AD31A022B74
:1045900001D903235FE0324B1B6803F00073002B4B
:1045A000F0D057E02E4B1B682D4A23F08073136028
:1045B000FDF7AAFA786208E0FDF7A6FA02467B6AE0
:1045C000D31A022B01D9032345E0254B1B6803F0C6
:1045D0000073002BF0D13DE0214B9B6A3B61204BE7
:1045E0001B6BFB607B685B6A012B31D03B6903F07E
:1045F00003027B689B6A9A422AD13B691B0903F03C
:104600003F027B68DB6A9A4222D1FB68C3F308024F
:104610007B681B6B013B9A421AD1FB685B0A03F073
:104620007F027B685B6B013B9A4211D1FB681B0CDC
:1046300003F07F027B689B6B013B9A4208D1FB68C9
:104640001B0E03F07F027B68DB6B013B9A4201D0BB
:10465000012300E0002318463037BD4680BD00BF6F
:10466000004402580CFCFFFF0700FFFF80B586B036
:1046700000AF786039607B68002B01D101239CE199
:104680008A4B1B6803F00F033A689A4210D9874B94
:104690001B6823F00F0285493B6813430B60834B73
:1046A0001B6803F00F033A689A4201D0012384E1AA
:1046B0007B681B6803F00403002B10D07B681A6929
:1046C0007B4B9B6903F070039A4208D9784B9B6936
:1046D00023F070027B681B69754913438B617B680B
:1046E0001B6803F00803002B10D07B685A69704BDD
:1046F000DB6903F070039A4208D96D4BDB6923F044
:1047000070027B685B696A491343CB617B681B68F5
:1047100003F01003002B10D07B689A69644BDB69AF
:1047200003F4E0639A4208D9614BDB6923F4E06249
:104730007B689B695E491343CB617B681B6803F010
:104740002003002B10D07B68DA69594B1B6A03F0F9
:1047500070039A4208D9564B1B6A23F070027B689B
:10476000DB69534913430B627B681B6803F0020348
:10477000002B10D07B68DA684D4B9B6903F00F0368
:104780009A4208D94A4B9B6923F00F027B68DB6889
:10479000474913438B617B681B6803F00103002BBF
:1047A00055D0434B9B6923F470627B689B684049FA
:1047B00013438B617B685B68022B07D13C4B1B6802
:1047C00003F40033002B21D10123F6E07B685B6802
:1047D000032B07D1364B1B6803F00073002B15D158
:1047E0000123EAE07B685B68012B07D1304B1B6833
:1047F00003F48073002B09D10123DEE02C4B1B68EE
:1048000003F00403002B01D10123D6E0284B1B69E0
:1048100023F007027B685B68254913430B61FDF7B2
:1048200073F978610AE0FDF76FF902467B69D31AE4
:1048300041F28832934201D90323BEE01C4B1B692D
:1048400003F038027B685B68DB009A42EBD17B683F
:104850001B6803F00203002B10D07B68DA68144B4E
:104860009B6903F00F039A4208D2114B9B6923F016
:104870000F027B68DB680E4913438B610B4B1B688F
:1048800003F00F033A689A4214D2084B1B6823F0D6
:104890000F0206493B6813430B60044B1B6803F08F
:1048A0000F033A689A4205D0012386E000200052A7
:1048B000004402587B681B6803F00403002B10D0EF
:1048C0007B681A693F4B9B6903F070039A4208D2D8
:1048D0003C4B9B6923F070027B681B693949134389
:1048E0008B617B681B6803F00803002B10D07B688A
:1048F0005A69344BDB6903F070039A4208D2314B9A
:10490000DB6923F070027B685B692E491343CB613E
:104910007B681B6803F01003002B10D07B689A693A
:10492000284BDB6903F4E0639A4208D2254BDB692C
:1049300023F4E0627B689B6922491343CB617B6867
:104940001B6803F02003002B10D07B68DA691D4B35
:104950001B6A03F070039A4208D21A4B1B6A23F0B9
:1049600070027B68DB69174913430B6200F034F86F
:104970000246144B9B691B0A03F00F031249CB5CE0
:1049800003F01F0322FA03F33B610E4B9B6903F014
:104990000F030D4AD35C03F01F033A6922FA03F3B5
:1049A0000A4A13600A4A3B6913600A4B1B6818469F
:1049B000FDF762F80346FB73FB7B18461837BD46CC
:1049C00080BD00BF0044025870A10A080C000024FA
:1049D0000800002400000024B0B588B000AFA04B50
:1049E0001B6903F03803182B00F28B8101A252F8E7
:1049F00023F000BF594A0008034D0008034D00088A
:104A0000034D0008034D0008034D0008034D000846
:104A1000034D00087F4A0008034D0008034D0008BD
:104A2000034D0008034D0008034D0008034D000826
:104A3000034D0008854A0008034D0008034D000897
:104A4000034D0008034D0008034D0008034D000806
:104A5000034D00088B4A0008814B1B6803F02003BC
:104A6000002B09D07E4B1B68DB0803F003037D4A53
:104A700022FA03F3BB6147E17A4BBB6144E17A4B15
:104A8000BB6141E1794BBB613EE1754B9B6A03F031
:104A900003037B61724B9B6A1B0903F03F033B617D
:104AA0006F4BDB6A03F00103FB606D4B5B6BDB0854
:104AB000C3F30C03FA6802FB03F31846FCF78AF908
:104AC0000346BB603B69002B00F018817B69022B19
:104AD00000F09C807B69022B00F2D0807B69002B68
:104AE00003D07B69012B67D0C8E05D4B1B6803F0E6
:104AF0002003002B36D05A4B1B68DB0803F003035E
:104B0000584A22FA03F37B607868FCF763F904469D
:104B10003869FCF75FF9034619462046FCF766FA48
:104B200003461D464E4B1B6BC3F308031846FCF7A8
:104B300051F904464FF08C41B868FCF757FA034628
:104B400019462046FCF796F803464FF07E5118466A
:104B5000FCF790F8034619462846FCF793F90346FC
:104B6000FB61B5E03869FCF735F903461946404862
:104B7000FCF73CFA03461D46394B1B6BC3F3080395
:104B80001846FCF727F904464FF08C41B868FCF74B
:104B90002DFA034619462046FCF76CF803464FF001
:104BA0007E511846FCF766F8034619462846FCF77E
:104BB00069F90346FB618BE03869FCF70BF90346A2
:104BC00019462C48FCF712FA03461D46244B1B6B72
:104BD000C3F308031846FCF7FDF804464FF08C4178
:104BE000B868FCF703FA034619462046FCF742F87A
:104BF00003464FF07E511846FCF73CF80346194631
:104C00002846FCF73FF90346FB6161E03869FCF791
:104C1000E1F8034619461848FCF7E8F903461D4633
:104C20000F4B1B6BC3F308031846FCF7D3F804467D
:104C30004FF08C41B868FCF7D9F903461946204675
:104C4000FCF718F803464FF07E511846FCF712F8AF
:104C5000034619462846FCF715F90346FB6137E081
:104C6000004402580090D00300093D0000127A0071
:104C70000024744C0024744A0024F44A3869FCF778
:104C8000A9F8034619462348FCF7B0F903461D4628
:104C9000214B1B6BC3F308031846FCF79BF8044633
:104CA0004FF08C41B868FCF7A1F90346194620463D
:104CB000FBF7E0FF03464FF07E511846FBF7DAFFA3
:104CC000034619462846FCF7DDF80346FB6100BFA2
:104CD000114B1B6B5B0A03F07F0301333B603868A9
:104CE000FCF778F803461946F869FCF77FF90346A4
:104CF0001846FCF717FA0346BB6105E00023BB61C9
:104D000002E0064BBB6100BFBB6918462037BD46B9
:104D1000B0BD00BF0024744A0044025800093D00A1
:104D200080B582B000AFFFF757FE0246104B9B697B
:104D30001B0A03F00F030F49CB5C03F01F0322FA99
:104D400003F37B600A4B9B6903F00F03094AD35CB2
:104D500003F01F037A6822FA03F3074A1360074A35
:104D60007B681360044B1B6818460837BD4680BD3E
:104D70000044025870A10A080C0000240800002416
:104D800080B500AFFFF7CCFF0246064BDB691B097D
:104D900003F007030449CB5C03F01F0322FA03F37B
:104DA000184680BD0044025870A10A0880B500AFC3
:104DB000FFF7B6FF0246064BDB691B0A03F0070349
:104DC0000449CB5C03F01F0322FA03F3184680BDAD
:104DD0000044025870A10A0880B586B000AF786020
:104DE0000023FB750023BB757B681B6803F0006321
:104DF000002B3FD07B681B6EB3F5401F2AD0B3F564
:104E0000401F24D8B3F5001F18D0B3F5001F1ED8DB
:104E1000002B03D0B3F5801F07D018E0A44BDB6A4A
:104E2000A34A43F40033D36215E07B6804330221C4
:104E3000184601F0D9F90346FB750CE07B68243372
:104E40000221184601F082FA0346FB7503E00123B4
:104E5000FB7500E000BFFB7D002B09D1944B1B6D5F
:104E600023F440127B681B6E914913430B6501E0EC
:104E7000FB7DBB757B681B6803F48073002B3DD002
:104E80007B685B6D042B26D801A252F823F000BF8B
:104E9000A54E0008B34E0008C54E0008DD4E0008C0
:104EA000DD4E0008824BDB6A814A43F40033D36253
:104EB00015E07B6804330021184601F095F903469C
:104EC000FB750CE07B6824330021184601F03EFAA4
:104ED0000346FB7503E00123FB7500E000BFFB7D8B
:104EE000002B09D1724B1B6D23F007027B685B6DB1
:104EF0006F4913430B6501E0FB7DBB757B681B6845
:104F000003F48063002B51D07B68D3F8A030B3F555
:104F1000200F36D0B3F5200F30D8B3F5000F32D0C4
:104F2000B3F5000F2AD8B3F5C00F2ED0B3F5C00FDC
:104F300024D8B3F5800F18D0B3F5800F1ED8002BFE
:104F400003D0B3F5001F07D018E0594BDB6A584A6D
:104F500043F40033D36219E07B6804330021184620
:104F600001F042F90346FB7510E07B682433002111
:104F7000184601F0EBF90346FB7507E00123FB75CA
:104F800004E000BF02E000BF00E000BFFB7D002B9B
:104F90000AD1474B9B6D23F460027B68D3F8A030A5
:104FA000434913438B6501E0FB7DBB757B681B6840
:104FB00003F40063002B51D07B68D3F8A430B3F125
:104FC000A06F36D0B3F1A06F30D8B3F1806F32D07C
:104FD000B3F1806F2AD8B3F1407F2ED0B3F1407F78
:104FE00024D8B3F1007F18D0B3F1007F1ED8002B76
:104FF00003D0B3F1807F07D018E02D4BDB6A2C4A39
:1050000043F40033D36219E07B680433002118466F
:1050100001F0EAF80346FB7510E07B6824330021B9
:10502000184601F093F90346FB7507E00123FB7571
:1050300004E000BF02E000BF00E000BFFB7D002BEA
:105040000AD11B4B9B6D23F0E0627B68D3F8A43040
:10505000174913438B6501E0FB7DBB757B681B68BB
:1050600003F00073002B35D07B689B6C302B1CD079
:10507000302B17D8202B0CD0202B13D8002B19D075
:10508000102B0FD10A4BDB6A094A43F40033D36279
:1050900011E07B6804330221184601F0A5F80346AD
:1050A000FB7508E00123FB7505E000BF03E000BFCE
:1050B0000044025800BFFB7D002B09D1A34BDB6CE1
:1050C00023F030027B689B6CA0491343CB6401E062
:1050D000FB7DBB757B681B6803F48053002B47D0B6
:1050E0007B689B6DB3F5804F30D0B3F5804F2AD8E5
:1050F000B3F5405F2CD0B3F5405F24D8B3F5005F23
:1051000018D0B3F5005F1ED8002B03D0B3F5805F35
:1051100007D018E08D4BDB6A8C4A43F40033D3622E
:1051200017E07B6804330021184601F05DF8034660
:10513000FB750EE07B6824330021184601F006F968
:105140000346FB7505E00123FB7502E000BF00E0AC
:1051500000BFFB7D002B09D17C4B1B6D23F4E0428B
:105160007B689B6D794913430B6501E0FB7DBB7543
:105170007B681B6803F40053002B49D07B68DB6D10
:10518000B3F5A02F2ED0B3F5A02F28D8B3F5802FDC
:105190002AD0B3F5802F22D8B3F5403F26D0B3F5FF
:1051A000403F1CD8B3F5003F10D0B3F5003F16D8F0
:1051B000002B1DD0B3F5803F11D17B680433012152
:1051C000184601F011F80346FB7512E07B682433A2
:1051D0000121184601F0BAF80346FB7509E00123E6
:1051E000FB7506E000BF04E000BF02E000BF00E086
:1051F00000BFFB7D002B09D1544B1B6D23F4E02233
:105200007B68DB6D514913430B6501E0FB7DBB758A
:105210007B681B6803F48043002B4BD07B68D3F87A
:10522000A830B3F1A04F2ED0B3F1A04F28D8B3F1DE
:10523000804F2AD0B3F1804F22D8B3F1405F26D0FF
:10524000B3F1405F1CD8B3F1005F10D0B3F1005F41
:1052500016D8002B1DD0B3F1805F11D17B680433C9
:105260000121184600F0C0FF0346FB7512E07B6881
:1052700024330121184601F069F80346FB7509E063
:105280000123FB7506E000BF04E000BF02E000BFA1
:1052900000E000BFFB7D002B0AD12C4B9B6D23F05F
:1052A000E0427B68D3F8A830284913438B6501E0BE
:1052B000FB7DBB757B681B6803F40043002B2FD07C
:1052C0007B689B6EB3F1005F0ED0B3F1005F14D822
:1052D000002B15D0B3F1805F0FD11C4BDB6A1B4A4A
:1052E00043F40033D3620CE07B6804330121184699
:1052F00000F07AFF0346FB7503E00123FB7500E035
:1053000000BFFB7D002B09D1104B1B6D23F04052D9
:105310007B689B6E0D4913430B6501E0FB7DBB75FC
:105320007B681B6803F08073002B34D07B685B6C58
:10533000032B1DD801A252F823F000BF77530008B9
:10534000515300085F530008775300080044025887
:10535000B14BDB6AB04A43F40033D3620CE07B68A4
:1053600004330221184600F03FFF0346FB7503E0BB
:105370000123FB7500E000BFFB7D002B09D1A64B8C
:10538000DB6C23F003027B685B6CA3491343CB64A3
:1053900001E0FB7DBB757B681B6803F48003002B79
:1053A00000F086809D4B1B689C4A43F48073136019
:1053B000FCF7AAFB386109E0FCF7A6FB02463B6953
:1053C000D31A642B02D90323FB7505E0934B1B68AA
:1053D00003F48073002BEFD0FB7D002B66D18E4B46
:1053E0001A6F7B68D3F8AC30534003F44073002B42
:1053F00013D0894B1B6F23F44073FB60864B1B6FEC
:10540000854A43F480331367834B1B6F824A23F42E
:1054100080331367804AFB6813677B68D3F8AC302E
:10542000B3F5807F15D1FCF76FFB38610BE0FCF71B
:105430006BFB02463B69D31A41F28832934202D990
:105440000323FB7505E0744B1B6F03F00203002B75
:10545000EDD0FB7D002B26D17B68D3F8AC3003F474
:105460004073B3F5407F0DD16B4B1B6923F47C5225
:105470007B68D3F8AC301909694B0B40664913437C
:105480000B6105E0644B1B69634A23F47C53136191
:10549000614B1A6F7B68D3F8AC30C3F30B035E49E2
:1054A00013430B6704E0FB7DBB7501E0FB7DBB751F
:1054B0007B681B6803F00103002B7ED07B685B6F69
:1054C000282B67D801A252F823F000BF9B55000893
:1054D0009555000895550008955500089555000804
:1054E0009555000895550008955500087155000818
:1054F00095550008955500089555000895550008E4
:1055000095550008955500089555000883550008E5
:1055100095550008955500089555000895550008C3
:105520009555000895550008955500089B550008AD
:1055300095550008955500089555000895550008A3
:105540009555000895550008955500089B5500088D
:105550009555000895550008955500089555000883
:105560009555000895550008955500089B5500086D
:105570007B6804330121184600F036FE0346FB75B4
:105580000CE07B6824330121184600F0DFFE03465F
:10559000FB7503E00123FB7500E000BFFB7D002BE2
:1055A00009D11D4B5B6D23F038027B685B6F1A4994
:1055B00013434B6501E0FB7DBB757B681B6803F003
:1055C0000203002B3ED07B681B6F052B20D801A265
:1055D00052F823F025560008ED550008FF55000845
:1055E0002556000825560008255600087B68043318
:1055F0000121184600F0F8FD0346FB7513E07B68B7
:1056000024330121184600F0A1FE0346FB750AE091
:105610000123FB7507E000BF004402580048025810
:10562000CFFFFF0000BFFB7D002B09D19F4B5B6DBF
:1056300023F007027B681B6F9C4913434B6501E015
:10564000FB7DBB757B681B6803F00403002B39D01E
:105650007B68D3F88C30052B20D801A252F823F0B8
:10566000A3560008795600088B560008A356000878
:10567000A3560008A35600087B680433012118468E
:1056800000F0B2FD0346FB750CE07B68243301217A
:10569000184600F05BFE0346FB7503E00123FB7533
:1056A00000E000BFFB7D002B0AD1804B9B6D23F0F7
:1056B00007027B68D3F88C307C4913438B6501E08B
:1056C000FB7DBB757B681B6803F02003002B4BD070
:1056D0007B68D3F88830B3F1A04F2ED0B3F1A04F40
:1056E00028D8B3F1804F2AD0B3F1804F22D8B3F13C
:1056F000405F26D0B3F1405F1CD8B3F1005F10D0FB
:10570000B3F1005F16D8002B1DD0B3F1805F11D12B
:105710007B6804330021184600F066FD0346FB75E4
:1057200012E07B6824330221184600F00FFE034686
:10573000FB7509E00123FB7506E000BF04E000BF34
:1057400002E000BF00E000BFFB7D002B0AD1574BF9
:105750005B6D23F0E0427B68D3F8883053491343F4
:105760004B6501E0FB7DBB757B681B6803F0400364
:10577000002B4BD07B68D3F89430B3F5A05F2ED0CC
:10578000B3F5A05F28D8B3F5805F2AD0B3F5805F6A
:1057900022D8B3F5406F26D0B3F5406F1CD8B3F5CF
:1057A000006F10D0B3F5006F16D8002B1DD0B3F5E5
:1057B000806F11D17B6804330021184600F014FD7E
:1057C0000346FB7512E07B6824330221184600F083
:1057D000BDFD0346FB7509E00123FB7506E000BF34
:1057E00004E000BF02E000BF00E000BFFB7D002B33
:1057F0000AD12E4B9B6D23F4E0527B68D3F8943092
:105800002A4913438B6501E0FB7DBB757B681B68F0
:1058100003F08003002B4DD07B68D3F89830B3F5AC
:10582000204F2ED0B3F5204F28D8B3F5004F2AD003
:10583000B3F5004F22D8B3F5C04F26D0B3F5C04F13
:105840001CD8B3F5804F10D0B3F5804F16D8002B7D
:105850001DD0B3F5005F11D17B68043300211846D9
:1058600000F0C2FC0346FB7512E07B682433022182
:10587000184600F06BFD0346FB7509E00123FB753C
:1058800006E000BF04E000BF02E000BF00E000BF90
:10589000FB7D002B0CD1054B9B6D23F460427B6894
:1058A000D3F89830014913438B6503E00044025854
:1058B000FB7DBB757B681B6803F00803002B18D0C9
:1058C0007B68DB6FB3F5805F0AD17B6824330221EC
:1058D000184600F03BFD0346002B01D00123BB75A9
:1058E0008A4B5B6D23F440527B68DB6F874913431F
:1058F0004B657B681B6803F01003002B1AD07B6894
:10590000D3F89030B3F5807F0AD17B68243302212D
:10591000184600F01BFD0346002B01D00123BB7588
:105920007A4B9B6D23F440727B68D3F890307749B3
:1059300013438B657B681B6803F40023002B34D072
:105940007B68D3F89C30B3F5003F1DD0B3F5003F22
:1059500017D8002B03D0B3F5803F09D011E07B6846
:1059600004330021184600F03FFC0346FB750CE0B1
:105970007B6824330221184600F0E8FC0346FB75DF
:1059800003E00123FB7500E000BFFB7D002B0AD183
:105990005E4B9B6D23F440327B68D3F89C305B49AF
:1059A00013438B6501E0FB7DBB757B681B6803F4CB
:1059B0008023002B33D07B68D3F88030B3F5401FB1
:1059C0001CD0B3F5401F16D8B3F5801F03D0B3F534
:1059D000001F07D00FE04D4BDB6A4C4A43F4003305
:1059E000D3620CE07B6824330121184600F0AEFC42
:1059F0000346FB7503E00123FB7500E000BFFB7D60
:105A0000002B0AD1414B5B6D23F440127B68D3F825
:105A100080303E4913434B6501E0FB7DBB757B68DD
:105A20001B6803F48033002B29D07B68DB6C002BD0
:105A300003D0B3F5803F07D00FE0344BDB6A334A25
:105A400043F40033D3620BE07B6804330221184631
:105A500000F0CAFB0346FB7502E00123FB7500BFA3
:105A6000FB7D002B09D1294BDB6C23F480327B6852
:105A7000DB6C26491343CB6401E0FB7DBB757B687F
:105A80001B6803F00053002B0AD07B6824330221EB
:105A9000184600F05BFC0346002B01D00123BB75C8
:105AA0007B681B6803F40033002B33D07B689B6F4B
:105AB000B3F5407F17D0B3F5407F11D8B3F5007F21
:105AC00013D0B3F5007F0BD8002B10D0B3F5807F37
:105AD00006D10E4BDB6A0D4A43F40033D36207E074
:105AE0000123FB7504E000BF02E000BF00E000BF3F
:105AF000FB7D002B0CD1054B5B6D23F440727B6862
:105B00009B6F024913434B6504E000BF00440258F9
