:020000040800F2
:100000000000052471500008FD4C0008FF4C00085A
:10001000014D0008034D0008054D000800000000D8
:10002000000000000000000000000000074D000874
:10003000094D0008000000000B4D00080D4D0008A0
:10004000C1500008C1500008C1500008C15000084C
:10005000C1500008C1500008C1500008C15000083C
:10006000C1500008C1500008C1500008154D0008DB
:10007000254D0008C1500008C1500008C1500008BB
:10008000C1500008C1500008C1500008C15000080C
:10009000C1500008C1500008C1500008C1500008FC
:1000A000C1500008C1500008C1500008C1500008EC
:1000B000C1500008C1500008C1500008C1500008DC
:1000C000C1500008C1500008C1500008C1500008CC
:1000D000C1500008C1500008C1500008354D00084B
:1000E000C1500008C150000800000000C1500008C5
:1000F000C1500008C1500008C1500008C15000089C
:10010000C1500008C1500008C1500008C15000088B
:10011000C1500008C1500008454D0008C1500008FA
:10012000C1500008C1500008C1500008C15000086B
:10013000C1500008C1500008C1500008C15000085B
:1001400000000000000000000000000000000000AF
:10015000C1500008C1500008C1500008C15000083B
:10016000C1500008C1500008C1500008C15000082B
:10017000C1500008C1500008C15000080000000034
:10018000C1500008C1500008C1500008C15000080B
:10019000C1500008C1500008C1500008C1500008FB
:1001A000C1500008C1500008C15000080000000004
:1001B000C1500008C1500008C1500008C1500008DB
:1001C000C1500008C15000080000000000000000FD
:1001D0000000000000000000C15000080000000006
:1001E000000000000000000000000000000000000F
:1001F0000000000000000000C1500008C1500008CD
:10020000C1500008C150000800000000C1500008A3
:10021000C1500008C1500008C1500008C15000087A
:10022000C150000800000000C1500008000000009C
:10023000C1500008C150000800000000C150000873
:10024000C1500008C1500008C1500008C15000084A
:10025000C1500008C1500008C1500008C15000083A
:10026000C1500008C1500008C1500008C15000082A
:10027000C1500008C1500008C15000080000000033
:10028000C1500008C1500008C1500008C15000080A
:1002900000000000C1500008C1500008000000002C
:1002A00000000000C1500008C1500008C150000803
:1002B000C1500008C1500008C1500008C1500008DA
:0C02C000C1500008C1500008C1500008E7
:1002CC0010B5054C237833B9044B13B10448AFF384
:1002DC0000800123237010BD3C04002400000000AA
:1002EC009052000808B5034B1BB103490348AFF308
:1002FC00008008BD0000000040040024905200085B
:10030C0080F0004002E000BF81F0004142001FBFBE
:10031C005FEA410392EA030F7FEA226C7FEA236CC7
:10032C006AD04FEA1262D2EB1363C1BFD2184140BC
:10033C0048404140B8BF5B42192B88BF704710F052
:10034C00004F40F4000020F07F4018BF404211F0F5
:10035C00004F41F4000121F07F4118BF494292EA5D
:10036C00030F3FD0A2F1010241FA03FC10EB0C0089
:10037C00C3F1200301FA03F100F0004302D5494216
:10038C0060EB4000B0F5000F13D3B0F1807F06D3C3
:10039C0040084FEA310102F10102FE2A51D2B1F1BB
:1003AC00004F40EBC25008BF20F0010040EA0300B0
:1003BC007047490040EB0000013A28BFB0F5000F30
:1003CC00EDD2B0FA80FCACF1080CB2EB0C0200FAE6
:1003DC000CF0AABF00EBC25052421843BCBFD04035
:1003EC001843704792F0000F81F4000106BF80F4AF
:1003FC0000000132013BB5E74FEA41037FEA226C72
:10040C0018BF7FEA236C21D092EA030F04D092F03C
:10041C00000F08BF0846704790EA010F1CBF002070
:10042C00704712F07F4F04D1400028BF40F00040CD
:10043C00704712F100723CBF00F50000704700F0ED
:10044C00004343F0FE4040F4000070477FEA226214
:10045C0016BF08467FEA23630146420206BF5FEAE5
:10046C00412390EA010F40F4800070474FF00003E5
:10047C0004E000BF10F0004348BF40425FEA000CAC
:10048C0008BF704743F0964301464FF000001CE054
:10049C0050EA010208BF70474FF000030AE000BFAA
:1004AC0050EA010208BF704711F0004302D54042E8
:1004BC0061EB41015FEA010C02BF8446014600205A
:1004CC0043F0B64308BFA3F18053A3F50003BCFA75
:1004DC008CF2083AA3EBC25310DB01FA02FC634422
:1004EC0000FA02FCC2F12002BCF1004F20FA02F229
:1004FC0043EB020008BF20F00100704702F120021C
:10050C0001FA02FCC2F1200250EA4C0021FA02F27C
:10051C0043EB020008BF20EADC7070474FF0FF0C81
:10052C001CEAD0521EBF1CEAD15392EA0C0F93EA7C
:10053C000C0F6FD01A4480EA010C400218BF5FEA1E
:10054C0041211ED04FF0006343EA501043EA511191
:10055C00A0FB01310CF00040B1F5000F3EBF49008B
:10056C0041EAD3715B0040EA010062F17F02FD2A8F
:10057C001DD8B3F1004F40EBC25008BF20F0010072
:10058C00704790F0000F0CF0004C08BF49024CEA89
:10059C00502040EA51207F3AC2BFD2F1FF0340EA1B
:1005AC00C250704740F400004FF00003013A5DDC8C
:1005BC0012F1190FDCBF00F000407047C2F10002CD
:1005CC00410021FA02F1C2F1200200FA02FC5FEABA
:1005DC00310040F1000053EA4C0308BF20EADC7004
:1005EC00704792F0000F00F0004C02BF400010F476
:1005FC00000F013AF9D040EA0C0093F0000F01F023
:10060C00004C02BF490011F4000F013BF9D041EA44
:10061C000C018FE70CEAD15392EA0C0F18BF93EA46
:10062C000C0F0AD030F0004C18BF31F0004CD8D170
:10063C0080EA010000F00040704790F0000F17BFF7
:10064C0090F0004F084691F0000F91F0004F14D03D
:10065C0092EA0C0F01D142020FD193EA0C0F03D195
:10066C004B0218BF084608D180EA010000F0004098
:10067C0040F0FE4040F40000704740F0FE4040F473
:10068C00400070474FF0FF0C1CEAD0521EBF1CEA12
:10069C00D15392EA0C0F93EA0C0F69D0A2EB030230
:1006AC0080EA010C49024FEA402037D04FF08053CA
:1006BC0043EA111143EA10130CF000408B4238BF8F
:1006CC005B0042F17D024FF4000C8B4224BF5B1A9D
:1006DC0040EA0C00B3EB510F24BFA3EB510340EAEB
:1006EC005C00B3EB910F24BFA3EB910340EA9C0099
:1006FC00B3EBD10F24BFA3EBD10340EADC001B0109
:10070C0018BF5FEA1C1CE0D1FD2A3FF650AF8B42AC
:10071C0040EBC25008BF20F0010070470CF0004CB9
:10072C004CEA50207F32C2BFD2F1FF0340EAC250E4
:10073C00704740F400004FF00003013A37E792F0A5
:10074C00000F00F0004C02BF400010F4000F013A03
:10075C00F9D040EA0C0093F0000F01F0004C02BFFE
:10076C00490011F4000F013BF9D041EA0C0195E767
:10077C000CEAD15392EA0C0F08D142027FF47DAF00
:10078C0093EA0C0F7FF470AF084676E793EA0C0FF0
:10079C0004D14B023FF44CAF08466EE730F0004CEE
:1007AC0018BF31F0004CCAD130F000427FF45CAF7E
:1007BC0031F000437FF43CAF5FE700BF42000ED244
:1007CC00B2F1FE4F0BD34FF09E03B3EB126209D480
:1007DC004FEA002343F0004323FA02F070474FF036
:1007EC000000704712F1610F01D1420202D14FF0AB
:1007FC00FF3070474FF00000704700BF53B94AB943
:10080C00002908BF00281CBF4FF0FF314FF0FF300C
:10081C0000F074B9ADF1080C6DE904CE00F006F8E7
:10082C00DDF804E0DDE9022304B070472DE9F04760
:10083C00089E0D4604468846002B4DD18A429446AC
:10084C0068D9B2FA82F252B101FA02F3C2F1200174
:10085C0020FA01F10CFA02FC41EA030894404FEA39
:10086C001C45210CB8FBF5FE1FFA8CF705FB1E830B
:10087C0041EA03430EFB07F199420BD91CEB03032E
:10088C000EF1FF3080F01E81994240F21B81AEF1D7
:10089C00020E63445B1AA4B2B3FBF5F005FB1033F4
:1008AC0044EA034400FB07F7A7420AD91CEB0404F3
:1008BC0000F1FF3380F00881A74240F205816444C7
:1008CC000238E41B40EA0E4000211EB1D440002344
:1008DC00C6E90043BDE8F0878B4208D9002E00F032
:1008EC00EE800021C6E900050846BDE8F087B3FAA2
:1008FC0083F100294AD1AB4202D3824200F2F98043
:10090C00841A65EB030301209846002EE2D0C6E959
:10091C000048DFE702B9FFDEB2FA82F2002A40F0AB
:10092C009180A1EB0C054FEA1C471FFA8CFE0121AC
:10093C00B5FBF7F307FB1350250C45EA00450EFBFE
:10094C0003F0A84208D91CEB050503F1FF3802D2CD
:10095C00A84200F2CB8043462D1AA4B2B5FBF7F0A7
:10096C0007FB105544EA05440EFB00FEA64508D9CA
:10097C001CEB040400F1FF3502D2A64500F2BB804B
:10098C002846A4EB0E0440EA03409EE7C1F1200781
:10099C008B4022FA07FC4CEA030C20FA07F405FA08
:1009AC0001F31C43FD404FEA1C4900FA01F3B5FB6F
:1009BC00F9F8200C1FFA8CFE09FB185540EA054586
:1009CC0008FB0EF0A84202FA01F20BD91CEB05054C
:1009DC0008F1FF3A80F08880A84240F28580A8F1A7
:1009EC00020865442D1AA4B2B5FBF9F009FB1055A9
:1009FC0044EA054500FB0EFEAE4508D91CEB050587
:100A0C0000F1FF346CD2AE456AD90238654440EA35
:100A1C000840A0FB0294A5EB0E05A542C846A646CD
:100A2C0056D353D05EB1B3EB080265EB0E0505FA55
:100A3C0007F722FA01F3CD401F43C6E900750021E8
:100A4C00BDE8F087C2F1200320FA03F10CFA02FC96
:100A5C0025FA03F395400D434FEA1C471FFA8CFE11
:100A6C00B3FBF7F107FB11302B0C43EA004301FBFE
:100A7C000EF0984204FA02F408D91CEB030301F1BE
:100A8C00FF382FD298422DD9023963441B1AADB2CC
:100A9C00B3FBF7F007FB103345EA034500FB0EF3FD
:100AAC00AB4208D91CEB050500F1FF3816D2AB425E
:100ABC0014D902386544ED1A40EA014138E7314651
:100ACC00304607E78646E5E61846FAE64B45A9D2D6
:100ADC00B9EB020864EB0C0E0138A3E74046EAE7D9
:100AEC00204694E74146D1E7D0467BE7023B65447C
:100AFC0032E7084609E76444023842E7704700BF12
:100B0C00104B1B780BB90120704710B504464FF4FD
:100B1C007A70B0FBF3F30C4A1068B0FBF3F000F002
:100B2C00ADF868B90F2C01D901200AE0002221464A
:100B3C004FF0FF3000F05EF8044B1C60002000E02A
:100B4C00012010BD00000024080000240400002433
:100B5C0010B5032000F03CF801F064FC0F498B69E0
:100B6C00C3F303230E4AD35C03F01F03D8408B69F5
:100B7C0003F00F03D35C03F01F0320FA03F3094ABD
:100B8C001360094B18600020FFF7BAFF10B1012465
:100B9C00204610BD044604F099F8F9E700440258C9
:100BAC00DC5200080C00002408000024034B1B78C6
:100BBC00034A11680B441360704700BF0000002407
:100BCC0058040024014B1868704700BF58040024D7
:100BDC000649CB6823F4E0631B041B0C000200F4F1
:100BEC00E0600343024A1A43CA60704700ED00E01C
:100BFC000000FA0500B5174BDB68C3F30223C3F101
:100C0C00070CBCF1040F28BF4FF0040C03F1040EC9
:100C1C00BEF1060F14D9033B4FF0FF3E0EFA0CFC4D
:100C2C0021EA0C0199400EFA03F322EA030319435B
:100C3C00002807DB0901C9B2074B19545DF804FB06
:100C4C000023E9E700F00F000901C9B2034B195466
:100C5C00F4E700BF00ED00E000E400E014ED00E07C
:100C6C00002807DB00F01F02400901239340024AD1
:100C7C0042F82030704700BF00E100E00138B0F1CD
:100C8C00807F0BD24FF0E0235861054AF02182F8A7
:100C9C0023100020986107221A61704701207047C9
:100CAC0000ED00E003682749274A934218BF8B42A6
:100CBC002FD0183293422CD01832934229D01832AC
:100CCC00934226D01832934223D01832934220D02C
:100CDC00183293421DD002F55672934219D0183235
:100CEC00934216D01832934213D01832934210D03C
:100CFC00183293420DD0183293420AD018329342D4
:100D0C0007D01832934204D023F0FF038365806D23
:100D1C00704710B4D9B210390C4AA2FB0142C2F38D
:100D2C0002120B4CA25CC2655F2906D9094A1A4013
:100D3C0004328265806D10BC7047064A1A40826589
:100D4C00F8E700BF1000024028000240ABAAAAAA94
:100D5C00B052000800FCFFFF83699BB9836A012B2A
:100D6C000AD0022B02D00BB100207047C36A13F0DB
:100D7C00807F2AD100207047C36AB3F1C07F26D090
:100D8C0000207047B3F5005F0AD0836A022B26D986
:100D9C00032B26D1C36A13F0807F24D10020704727
:100DAC00836A032B03D8DFE803F01404140A002031
:100DBC007047C36A13F0807F0DD100207047C36A5F
:100DCC00B3F1C07F09D0002070470120704701208B
:100DDC0070470120704701207047012070470120A7
:100DEC0070470020704701207047000003682249BB
:100DFC00224A934218BF8B4228D01432934225D0FA
:100E0C001432934222D0143293421FD014329342A4
:100E1C001CD01432934219D01432934216D0DAB249
:100E2C00103A1749A1FB0212120916491944A829B4
:100E3C001FD9154B13449B000366144B436602F0F9
:100E4C001F02012303FA02F282667047DBB2083BF1
:100E5C000F4AA2FB03230F4A02EB13129200026605
:100E6C000D4A4266C3F30413012202FA03F38366AC
:100E7C0070470832DDE700BF085402581C54025872
:100E8C00ABAAAAAAF0FBFDBF0082001080080240AA
:100E9C00CDCCCCCC009600168058025801794A1E55
:100EAC00072A2CD830B40368154D164CA34218BF32
:100EBC00AB4218D01434A34215D01434A34212D030
:100ECC001434A3420FD01434A3420CD01434A342D4
:100EDC0009D01434A34206D00B4B0B449B00C366C1
:100EEC000A4B036705E00A4B0B449B00C366094B96
:100EFC000367012303FA02F2426730BC7047704764
:100F0C00085402581C5402583F82001040090240F9
:100F1C003F9600164059025870B50446FFF752FE32
:100F2C00002C00F0B381054623685349534A934281
:100F3C0018BF8B420CBF0122002250D030318B42A3
:100F4C004DD018318B424AD018318B4247D01831D2
:100F5C008B4244D018318B4241D018318B423ED059
:100F6C0001F556718B423AD018318B4237D018317B
:100F7C008B4234D018318B4231D018318B422ED069
:100F8C0018318B422BD018318B4228D018318B4220
:100F9C0025D03B493B4A934218BF8B4200F02E812F
:100FAC00394A934200F02A811432934200F0268190
:100FBC001432934200F022811432934200F01E81CD
:100FCC001432934200F01A811432934200F01681CD
:100FDC0040236365032384F8353001204AE0002167
:100FEC0084F83410022184F835107ABB274A9342D6
:100FFC002CD01832934229D01832934226D0183272
:10100C00934223D01832934220D0183293421DD0F1
:10101C0002F55672934219D01832934216D01832F8
:10102C00934213D01832934210D0183293420DD001
:10103C00183293420AD01832934207D01832934296
:10104C0004D01A6822F001021A6003E01A6822F038
:10105C0001021A6023681A6812F0010F18D0FFF70A
:10106C00B1FD431B052BF5D920236365032384F8BD
:10107C003530012070BD00BF100002402800024036
:10108C00085402581C540258305402584000024074
:10109C001A687F481040A168E2680A4321690A4334
:1010AC0061690A43A1690A43E1690A43216A0A4357
:1010BC000243616A042900F096806168A1F1290558
:1010CC00A1F13F00032888BF052D0AD9A1F14700E3
:1010DC00012806D9A1F14F00032802D9743903293C
:1010EC0001D842F480121A602668756925F007054C
:1010FC00636A1D43042B08D1A36A1D43E36A23B121
:10110C002046FFF729FE002872D175612046FFF7B3
:10111C00C9FDE36D03F01F023F23934083602368F6
:10112C005C495D4A934218BF8B4242D018329342BD
:10113C003FD0183293423CD01832934239D01832F7
:10114C00934236D01832934233D01832934230D077
:10115C0002F5567293422CD01832934229D0183291
:10116C00934226D01832934223D01832934220D087
:10117C00183293421DD0183293421AD0183293422F
:10118C0017D0464A934214D01432934211D01432E1
:10119C0093420ED0143293420BD01432934208D0A7
:1011AC001432934205D01432934202D0143293423B
:1011BC0013D12046FFF71AFEA368802B59D0236E5B
:1011CC0022791A60636EA26E5A606368013B072B2A
:1011DC0052D90023E366236763670020606501230F
:1011EC0084F8353046E7E16A206B01430A4364E733
:1011FC0040236365012084F835003BE7002284F826
:10120C003420022284F835201A6825491140A2683E
:10121C00402A2CD0802A27D00022E06842EAD00253
:10122C00206942EAD002606942EAD002A06942EA2F
:10123C00D002E06942EAD002206A42EA10120A4364
:10124C001A602268174B1344174AA2FB03231B098D
:10125C009B00E3652046FFF725FDE26D02F01F01C0
:10126C0001228A4042605AE74FF48042D5E71022AF
:10127C00D3E700236360A2E72046FFF70FFEE36E7F
:10128C0000221A60236F626F5A60A6E70120F1E614
:10129C003F8010FE10000240280002400854025803
:1012AC000F00FEFFF8ABFDA7CDCCCCCC002800F096
:1012BC00298108B5024690F83530DBB2022B03D0F9
:1012CC0080234365012008BD0368904890498B42F8
:1012DC0018BF83420CBF0121002166D030308342FD
:1012EC0063D01830834260D0183083425DD0183000
:1012FC0083425AD01830834257D01830834254D08E
:10130C0000F55670834250D0183083424DD01830BF
:10131C0083424AD01830834247D01830834244D09D
:10132C001830834241D0183083423ED0183083426B
:10133C003BD0196821F00E0119601368A0F5956077
:10134C0073498B4218BF83426AD072498B4267D073
:10135C0018318B4264D018318B4261D018318B42DA
:10136C005ED018318B425BD018318B4258D001F5CE
:10137C0056718B4254D018318B4251D018318B425C
:10138C004ED018318B424BD018318B4248D018318B
:10139C008B4245D018318B4242D018318B423FD012
:1013AC00196821F0010119603EE0042082F8350033
:1013BC0081BB584A93422DD0183293422AD018320E
:1013CC00934227D01832934224D01832934221D022
:1013DC00183293421ED002F5567293421AD018322C
:1013EC00934217D01832934214D01832934211D032
:1013FC00183293420ED0183293420BD018329342CB
:10140C0008D01832934205D01A6822F001021A60F3
:10141C00002058E71A6822F001021A60002052E7F7
:10142C00196821F0010119601368384838498B425A
:10143C0018BF834242D018318B423FD018318B42B7
:10144C003CD018318B4239D018318B4236D0183100
:10145C008B4233D018318B4230D001F556718B4210
:10146C002CD018318B4229D018318B4226D0183110
:10147C008B4223D018318B4220D018318B421DD097
:10148C0018318B421AD018318B4217D022498B421B
:10149C0014D014318B4211D014318B420ED0143134
:1014AC008B420BD014318B4208D014318B4205D0B7
:1014BC0014318B4202D014318B4217D1116E0B6850
:1014CC0023F480730B60906DD36D03F01F01012327
:1014DC008B404360536E916E5960D36E33B1196873
:1014EC0021F480711960136F516F5960002382F8D9
:1014FC003430012382F83530136D2BB110469847E8
:10150C000020E0E6012070470020DCE610000240DD
:10151C00280002404000024008540258F0B583B045
:10152C000446002301937D4B1D687D4BA3FB0535C1
:10153C00AD0A876D3E68D7F800C0036879497A48D0
:10154C00834218BF8B420CBF0120002061D0774A28
:10155C0093425ED0183293425BD01832934258D0EB
:10156C001832934255D01832934252D018329342CB
:10157C004FD002F5567293424BD01832934248D05A
:10158C001832934245D01832934242D018329342CB
:10159C003FD0183293423CD01832934239D0183293
:1015AC00934236D06249634A934218BF8B4212D0A1
:1015BC00614A93420FD0143293420CD014329342AE
:1015CC0009D01432934206D01432934203D0143211
:1015DC00934240F061821A68E16D01F01F01042012
:1015EC00884010EA0C0F00F0A78212F0040F00F0F4
:1015FC00A382786012F4004F00F05A8212F4803FFC
:10160C0040F05082A36C002B00F046822046984795
:10161C0042E2E26D02F01F0108228A40324241D0C0
:10162C0070BB424A93422BD01832934228D01832C6
:10163C00934225D01832934222D0183293421FD0B5
:10164C00183293421CD002F55672934218D01832BD
:10165C00934215D01832934212D0183293420FD0C5
:10166C00183293420CD01832934209D0183293425C
:10167C0006D01832934203D01A68C2F3C00202E0BB
:10168C001A68C2F380026AB11A6822F004021A6066
:10169C00E36D03F01F0208239340BB60636D43F0BE
:1016AC0001036365E26D02F01F0226FA02F313F0E8
:1016BC00010F47D023681B481B498B4218BF83423C
:1016CC003CD018318B4239D018318B4236D018317E
:1016DC008B4233D018318B4230D018318B422DD005
:1016EC0018318B422AD001F556718B4226D0183115
:1016FC008B4223D018318B4220D018318B421DD015
:10170C0018318B421AD018318B4217D018318B42BA
:10171C0014D018318B4211D01B6813E00800002440
:10172C00B5814E1B100002402800024040000240D0
:10173C00085402581C540258305402585B6913F078
:10174C00800F3BD1E36D03F01F03042202FA03F375
:10175C00334240D02268964896498A4218BF82424A
:10176C0035D018318A4232D018318A422FD01831F4
:10177C008A422CD018318A4229D018318A4226D07C
:10178C0018318A4223D001F556718A421FD0183184
:10179C008A421CD018318A4219D018318A4216D08C
:1017AC0018318A4213D018318A4210D018318A422B
:1017BC000DD018318A420AD013680CE0012303FAC9
:1017CC0002F2BA60636D43F002036365BAE7126814
:1017DC0012F0020F3DD1E36D03F01F03102202FA49
:1017EC0003F333425FD02268714872498A4218BFB2
:1017FC00824234D018318A4231D018318A422ED0EC
:10180C0018318A422BD018318A4228D018318A429A
:10181C0025D018318A4222D001F556718A421ED049
:10182C0018318A421BD018318A4218D018318A429A
:10183C0015D018318A4212D018318A420FD0183183
:10184C008A420CD018318A4209D01268C2F3800245
:10185C0008E0BB60636D43F004036365BBE712688B
:10186C00C2F3C002FAB1BB6023681A6812F4802F6D
:10187C000DD01B6813F4002F04D1236C9BB12046B0
:10188C00984710E0A36C73B1204698470BE01A6898
:10189C0012F4807F03D11A6822F008021A60236CBC
:1018AC000BB120469847E36D03F01F03202202FA88
:1018BC0003F3334200F0928022683D483D498A424E
:1018CC0018BF82422ED018318A422BD018318A424E
:1018DC0028D018318A4225D018318A4222D01831AA
:1018EC008A421FD018318A421CD001F556718A42A7
:1018FC0018D018318A4215D018318A4212D01831BA
:10190C008A420FD018318A420CD018318A4209D041
:10191C0018318A4206D018318A4203D01268C2F3B9
:10192C00400202E01268C2F30012002A56D0BB60DB
:10193C0094F83530DBB2042B0ED023681A6812F4FD
:10194C00802F39D01B6813F4002F2CD1636C002B23
:10195C0044D02046984741E02268136823F01603D0
:10196C0013602268536923F080035361236CB3B175
:10197C002268136823F008031360E36D03F01F0261
:10198C003F239340BB60002384F83430012384F858
:10199C003530236D002B7FD0204698477CE0A36C1C
:1019AC00002BE5D1E9E7E36BC3B12046984715E07E
:1019BC0010000240280002401A6812F4807F09D1FE
:1019CC001A6822F010021A60002384F834300123C4
:1019DC0084F83530E36B0BB120469847636D002BD0
:1019EC005AD0636D13F0010F52D0042384F83530B4
:1019FC0023689649964A934218BF8B422FD01832CF
:101A0C0093422CD01832934229D01832934226D0CC
:101A1C001832934223D01832934220D0183293427A
:101A2C001DD002F55672934219D01832934216D03B
:101A3C001832934213D01832934210D0183293427A
:101A4C000DD0183293420AD01832934207D0183274
:101A5C00934204D01A6822F001021A6003E01A685B
:101A6C0022F001021A60019B01330193AB4204D8AE
:101A7C0023681B6813F0010FF5D1002384F8343070
:101A8C0023681B6813F0010F08D0032384F835304A
:101A9C00E36C0BB12046984703B0F0BD012384F8EA
:101AAC003530F5E7236C002BF6D020469847F3E74A
:101ABC0012F0200F3AD123686449654A934218BF4B
:101ACC008B422FD0183293422CD01832934229D00B
:101ADC001832934226D01832934223D018329342B4
:101AEC0020D0183293421DD002F55672934219D071
:101AFC001832934216D01832934213D018329342B4
:101B0C0010D0183293420DD0183293420AD01832AA
:101B1C00934207D01832934204D01A6822F0040280
:101B2C001A6003E01A6822F008021A60236C002B7A
:101B3C00B2D020469847AFE70220884010EA0C0F3D
:101B4C0060D012F0020F5DD0786012F4004F0ED00E
:101B5C0012F4803F05D1636C002B9DD02046984732
:101B6C009AE7E36B002B97D02046984794E712F046
:101B7C00200F40D123683549354A934218BF8B4218
:101B8C002FD0183293422CD01832934229D01832CD
:101B9C00934226D01832934223D01832934220D04D
:101BAC00183293421DD002F55672934219D0183256
:101BBC00934216D01832934213D01832934210D05D
:101BCC00183293420DD0183293420AD018329342F5
:101BDC0007D01832934204D01A6822F00A021A6015
:101BEC0003E01A6822F014021A60002384F83430DF
:101BFC00012384F83530E36B002B3FF44DAF2046C6
:101C0C00984749E7082000FA01F111EA0C0F3FF45C
:101C1C0043AF12F0080F3FF43FAF1A6822F00E02E8
:101C2C001A60E36D03F01F03012202FA03F37B60D9
:101C3C006265002384F8343084F83520E36C002B83
:101C4C003FF42AAF2046984726E700BF1000024019
:101C5C0028000240F0B583B0002340E0092400E0E6
:101C6C000024B44044EA0C040235734E46F8254077
:101C7C004FF0B044D4F88050D44325EA02064F68A4
:101C8C0017F4803F01D042EA05064FF0B045C5F885
:101C9C008060D5F8845004EA05064F6817F4003FBD
:101CAC0001D042EA05064FF0B045C5F884602D68B6
:101CBC0004EA05064F6817F4801F01D042EA0506B6
:101CCC004FF0B0452E606D682C404E6816F4001F26
:101CDC0001D042EA05044FF0B042546001330A6867
:101CEC0032FA03F400F0A5804FF0010C0CFA03FC5F
:101CFC001CEA0202F2D04C68651E112C18BF012D93
:101D0C0001D9122C13D185685E000324B44025EA56
:101D1C000405CC68B4402C438460446824EA0C0C61
:101D2C004C68C4F300149C4044EA0C044460C6683C
:101D3C004FEA430C032505FA0CF5EC4326EA050E95
:101D4C008D6805FA0CF545EA0E05C5604D68122D37
:101D5C0018BF022D12D1DE08083650F8267003F099
:101D6C0007054FEA850E0F2505FA0EF527EA05073C
:101D7C000D6905FA0EF53D4340F8265005682540DF
:101D8C004C6804F0030404FA0CF42C4304604C6813
:101D9C0014F0805FA2D0294CD4F8F45045F0020521
:101DAC00C4F8F450D4F8F44004F002040194019CFB
:101DBC009D08AE1C204C54F8267003F00304A600BA
:101DCC000F24B44027EA040C1D4CA0423FF448AF4A
:101DDC0004F58064A0421ED004F58064A0421CD09F
:101DEC0004F58064A0421AD004F58064A04218D097
:101DFC0004F58064A04216D004F58064A04214D08F
:101E0C0004F58064A04212D004F50064A0423FF4B3
:101E1C0025AF0A2425E7012423E7022421E7032424
:101E2C001FE704241DE705241BE7062419E70724F4
:101E3C0017E703B0F0BD00BF00040058004402587F
:101E4C00000002580AB18161704709048161704732
:101E5C00134BDB6813F0040F07D1114BDB6803F055
:101E6C00070383421AD00120704710B50C4AD3687F
:101E7C0023F007031843D060FEF7A4FE0446084B7A
:101E8C005B6813F4005F07D1FEF79CFE001BB0F5F6
:101E9C007A7FF4D9012000E0002010BD00207047AB
:101EAC0000480258024AD36843F08073D3607047ED
:101EBC0000480258002800F0958238B504460368A3
:101ECC0013F0010F25D09E4A136903F03803926A70
:101EDC00102B15D0182B0FD06368B3F5803F3DD075
:101EEC00002B51D1964B1A6822F480321A601A6872
:101EFC0022F480221A6036E002F00302022AEBD1AF
:101F0C008F4B1B6813F4003F03D06368002B00F069
:101F1C007382236813F0020F70D0894A1369926A96
:101F2C0013F0380359D0182B54D0E368002B00F071
:101F3C00928083490A6822F0190213430B60FEF762
:101F4C0041FE05467E4B1B6813F0040F7AD1FEF759
:101F5C0039FE401B0228F5D9032054E2784A136855
:101F6C0043F48033136063682BB3FEF72BFE0546F6
:101F7C00734B1B6813F4003FCBD1FEF723FE401BC1
:101F8C006428F5D903203EE2B3F5A02F09D06C4BA1
:101F9C001A6822F480321A601A6822F480221A60BD
:101FAC00E1E7674B1A6842F480221A601A6842F41F
:101FBC0080321A60D7E7FEF705FE0546604B1B68BA
:101FCC0013F4003FA5D0FEF7FDFD401B6428F5D9A6
:101FDC00032018E212F0030FA7D1594B1B6813F022
:101FEC00040F03D0E368002B00F00882544A5368B6
:101FFC0023F0FE43216943EA01635360236813F025
:10200C00100F51D04E4A136903F03803926A082B13
:10201C0039D0182B33D0E369002B68D0484A1368A9
:10202C0043F080031360FEF7CDFD0546444B1B685F
:10203C0013F4807F52D1FEF7C5FD401B0228F5D961
:10204C000320E0E13E4A536823F0FE43216943EA52
:10205C0001635360D2E73A4A136823F0010313601B
:10206C00FEF7B0FD0546364B1B6813F0040FC5D0C8
:10207C00FEF7A8FD401B0228F5D90320C3E102F0AE
:10208C000302012AC7D12E4B1B6813F4807F03D0A7
:10209C00E369802B40F0B481294AD36823F07C5348
:1020AC00216A43EA0163D360236813F0080F49D017
:1020BC00636983B3224A536F43F001035367FEF7FE
:1020CC0081FD05461E4B5B6F13F0020F3AD1FEF7F4
:1020DC0079FD401B0228F5D9032094E1184AD368F6
:1020EC0023F07C53216A43EA0163D360DCE7144A92
:1020FC00136823F080031360FEF764FD0546104B54
:10210C001B6813F4807FCFD0FEF75CFD401B0228C8
:10211C00F5D9032077E10A4A536F23F00103536783
:10212C00FEF750FD0546064B5B6F13F0020F09D00E
:10213C00FEF748FD401B0228F5D9032063E100BFE0
:10214C0000440258236813F0200F29D0A3699BB1D7
:10215C00A54A136843F480531360FEF733FD05461C
:10216C00A14B1B6813F4005F1AD1FEF72BFD401B2B
:10217C000228F5D9032046E19B4A136823F48053C7
:10218C001360FEF71FFD0546974B1B6813F4005FA9
:10219C0006D0FEF717FD401B0228F5D9032032E1CB
:1021AC00236813F0040F21D1636A002B00F02A81FD
:1021BC008D4A126902F03802182A00F0EA80022BCC
:1021CC0075D0894A136823F080731360FEF7FAFC0C
:1021DC000446854B1B6813F0007F00F0D880FEF797
:1021EC00F1FC001B0228F4D903200CE17F4A136890
:1021FC0043F480731360FEF7E5FC05467B4B1B68CC
:10220C0013F4807F06D1FEF7DDFC401B6428F5D962
:10221C000320F8E0A368012B0AD00BBB724B1A6F9A
:10222C0022F001021A671A6F22F004021A6704E006
:10223C006D4A136F43F001031367A36833B3FEF7C2
:10224C00C1FC0546684B1B6F13F0020FACD1FEF7B7
:10225C00B9FC401B41F288339842F3D90320D2E0F9
:10226C00052B09D0604B1A6F22F001021A671A6F06
:10227C0022F004021A67E0E75B4B1A6F42F004028B
:10228C001A671A6F42F001021A67D6E7FEF79AFC3A
:10229C000546554B1B6F13F0020F85D0FEF792FCD1
:1022AC00401B41F288339842F3D90320ABE04E4AED
:1022BC00136823F080731360FEF784FC05464A4BC9
:1022CC001B6813F0007F06D0FEF77CFC401B022835
:1022DC00F5D9032097E0444B996A454A0A40A16A14
:1022EC00E06A41EA00110A439A62226B013AC2F396
:1022FC000802616B0139490289B20A43A16B0139A9
:10230C00090401F4FE010A43E16B0139090601F0ED
:10231C00FE410A431A63DA6A22F00102DA62596B4F
:10232C00344A0A40A16C42EAC1025A63DA6A22F0CA
:10233C000C02216C0A43DA62DA6A22F00202616C46
:10234C000A43DA62DA6A42F48032DA62DA6A42F416
:10235C000032DA62DA6A42F48022DA62DA6A42F035
:10236C000102DA621A6842F080721A60FEF72AFCE7
:10237C0004461D4B1B6813F0007F06D1FEF722FCB0
:10238C00001B0228F5D903203DE000203BE0002093
:10239C0039E015498A6A086B012B35D002F003032A
:1023AC00A16A8B4232D1C2F30512E36A9A422FD151
:1023BC00C0F30802236B013B9A422BD1C0F3462297
:1023CC00636B013B9A4227D1C0F30642A36B013BDE
:1023DC009A4223D1C0F30660E36B013B98421FD1B4
:1023EC00002010E0012070470044025800480258B9
:1023FC000CFCFFFF0700FFFF012004E0012002E0BE
:10240C00012000E0002038BD0120FCE70120FAE7A4
:10241C000120F8E70120F6E70120F4E70120F2E7BC
:10242C000120F0E7F8B57E4B1B6903F03803102B45
:10243C0000F0F280182B10D013B17A4C2046F8BD66
:10244C00774B1B6813F0200F00F0E880744B186872
:10245C00C0F3C100744CC440F0E7714B9D6A05F0A9
:10246C0003059C6AC4F30514D86A00F001005B6B89
:10247C00C3F3CC0303FB00F0FDF7F8FF0646002C7A
:10248C00DCD0012D76D0022D00F0A4800DB32046B7
:10249C00FDF7ECFF01466548FEF7F4F80446604B87
:1024AC00186BC0F30800FDF7E1FF05464FF06451CF
:1024BC003046FEF733F801462846FDF727FF4FF06C
:1024CC007E51FDF723FF01462046FEF727F8044610
:1024DC0071E0534B1B6813F0200F29D0504F3B6811
:1024EC00C3F3C1035048D840FDF7C0FF0546204652
:1024FC00FDF7BCFF01462846FEF7C4F80446386BCE
:10250C00C0F30800FDF7B2FF05464FF064513046AA
:10251C00FEF704F801462846FDF7F8FE4FF07E5111
:10252C00FDF7F4FE01462046FDF7F8FF044642E0B5
:10253C002046FDF79BFF01463D48FEF7A3F80446F5
:10254C00374B186BC0F30800FDF790FF05464FF0B2
:10255C0064513046FDF7E2FF01462846FDF7D6FEF2
:10256C004FF07E51FDF7D2FE01462046FDF7D6FF17
:10257C00044620E02046FDF779FF01462B48FEF784
:10258C0081F80446264B186BC0F30800FDF76EFF6C
:10259C0005464FF064513046FDF7C0FF0146284612
:1025AC00FDF7B4FE4FF07E51FDF7B0FE014620461C
:1025BC00FDF7B4FF04461A4B1B6BC3F34623581CA0
:1025CC00FDF754FF01462046FEF75CF8FEF7F6F8DF
:1025DC00044633E72046FDF749FF01461548FEF750
:1025EC0051F804460E4B186BC0F30800FDF73EFF84
:1025FC0005464FF064513046FDF790FF01462846E2
:10260C00FDF784FE4FF07E51FDF780FE014620461B
:10261C00FDF784FF0446CEE7074C0FE7024C0DE7AD
:10262C000044025800093D000090D0030024744A75
:10263C000024744C0024F44A00127A00002800F0A4
:10264C00328170B50D4604469B4B1B6803F00F039B
:10265C008B420BD2984A136823F00F030B43136081
:10266C00136803F00F038B4240F01F81236813F0B3
:10267C00040F0CD02269914B9B6903F070039A42B2
:10268C0005D98E498B6923F070031A438A6123683C
:10269C0013F0080F0CD06269884BDB6903F07003F0
:1026AC009A4205D98549CB6923F070031A43CA6154
:1026BC00236813F0100F0CD0A269804BDB6903F474
:1026CC00E0639A4205D97D49CB6923F4E0631A4350
:1026DC00CA61236813F0200F0CD0E269774B1B6A98
:1026EC0003F070039A4205D974490B6A23F0700306
:1026FC001A430A62236813F0020F0CD0E2686F4B86
:10270C009B6903F00F039A4205D96C498B6923F03E
:10271C000F031A438A61236813F0010F41D0674AF3
:10272C00936923F47063A1680B4393616368022B74
:10273C000AD0032B27D0012B2CD0604A126812F040
:10274C00040F06D10120ADE0126812F4003F00F036
:10275C00AE805A490A6922F0070213430B61FEF757
:10276C0031FA0646554B1B6903F038036268B3EB2C
:10277C00C20F16D0FEF726FA801B41F2883398421E
:10278C00F0D903208EE04D4A126812F0007FE0D1A0
:10279C00012087E0494A126812F4807FD9D10120C8
:1027AC0080E0236813F0020F0CD0E268434B9B6966
:1027BC0003F00F039A4205D240498B6923F00F03B3
:1027CC001A438A613C4B1B6803F00F03AB420AD9D6
:1027DC00394A136823F00F032B431360136803F07B
:1027EC000F03AB4265D1236813F0040F0CD02269A0
:1027FC00324B9B6903F070039A4205D22F498B69C7
:10280C0023F070031A438A61236813F0080F0CD06D
:10281C0062692A4BDB6903F070039A4205D227499F
:10282C00CB6923F070031A43CA61236813F0100FAD
:10283C000CD0A269214BDB6903F4E0639A4205D208
:10284C001E49CB6923F4E0631A43CA61236813F071
:10285C00200F0CD0E269194B1B6A03F070039A42EB
:10286C0005D216490B6A23F070031A430A62FFF76C
:10287C00D9FD12498B69C3F30323114AD35C03F0CE
:10288C001F03D8408B6903F00F03D35C03F01F03C5
:10289C0020FA03F30B4A13600B4B18600B4B1868B0
:1028AC00FEF72EF970BD012070470120FAE70120D8
:1028BC00F8E70120F6E700BF002000520044025860
:1028CC00DC5200080C000024080000240400002442
:1028DC0008B5FFF7A7FD0B4A9369C3F303230A4915
:1028EC00CB5C03F01F0320FA03F3926902F00F0292
:1028FC00885C00F01F0023FA00F0044A1060044AC0
:10290C00136008BD00440258DC5200080C0000247F
:10291C000800002408B5FFF7DBFF054BDB69C3F3A8
:10292C000213044AD35C03F01F03D84008BD00BF58
:10293C0000440258DC52000808B5FFF7C9FF054BEC
:10294C00DB69C3F30223044AD35C03F01F03D840B2
:10295C0008BD00BF00440258DC520008404B9B6A83
:10296C0003F00303032B79D070B505460E463C4AA1
:10297C00136823F080631360FEF724F90446384B88
:10298C001B6813F0006F06D0FEF71CF9031B022B1B
:10299C00F5D9032070BD324B9A6A22F47C32296837
:1029AC0042EA01329A626A68013AC2F30802A968E3
:1029BC000139490289B20A43E9680139090401F471
:1029CC00FE010A4329690139090601F0FE410A4357
:1029DC009A63DA6A22F0C00269690A43DA62DA6A37
:1029EC0022F02002A9690A43DA62DA6A22F01002A4
:1029FC00DA62D96B1B4A0A40E96942EAC102DA631E
:102A0C00DA6A42F01002DA62C6B91A46DB6A43F49B
:102A1C000023D362124A136843F080631360FEF7FD
:102A2C00D1F804460E4B1B6813F0006F14D1FEF75F
:102A3C00C9F8001B0228F5D90320ABE7012E05D0FD
:102A4C00074AD36A43F40013D362E3E7044AD36A18
:102A5C0043F48013D362DDE700209BE7012070472D
:102A6C00004402580700FFFF404B9B6A03F003032E
:102A7C00032B79D070B505460E463C4A136823F0FB
:102A8C0080531360FEF79EF80446384B1B6813F016
:102A9C00005F06D0FEF796F8031B022BF5D9032036
:102AAC0070BD324B9A6A22F07C72296842EA01525C
:102ABC009A626A68013AC2F30802A96801394902AC
:102ACC0089B20A43E9680139090401F4FE010A4399
:102ADC0029690139090601F0FE410A431A64DA6AD0
:102AEC0022F4406269690A43DA62DA6A22F40072FB
:102AFC00A9690A43DA62DA6A22F48072DA62596CE2
:102B0C001B4A0A40E96942EAC1025A64DA6A42F491
:102B1C008072DA62C6B91A46DB6A43F48003D36268
:102B2C00124A136843F080531360FEF74BF80446C7
:102B3C000E4B1B6813F0005F14D1FEF743F8001B1B
:102B4C000228F5D90320ABE7012E05D0074AD36A3A
:102B5C0043F08073D362E3E7044AD36A43F400037F
:102B6C00D362DDE700209BE7012070470044025848
:102B7C000700FFFFF8B50446036813F0006F30D070
:102B8C00036EB3F5001F26D00ED8EBB1B3F5801F42
:102B9C0007D102210430FFF7E1FE054645B12E4670
:102BAC0021E0012635461EE0B3F5401F09D1002572
:102BBC009D4A136D23F44013216E0B4313650026BD
:102BCC0011E0012635460EE0974AD36A43F40033F0
:102BDC00D3620025ECE702212430FFF745FF0546C0
:102BEC00DCE700263546236813F4807F26D0636D1E
:102BFC00042B1FD8DFE803F00311170808008A4ADA
:102C0C00D36A43F40033D362BDB9874A136D23F002
:102C1C000703616D0B43136510E00021201DFFF7C6
:102C2C009DFE0546F0E7002104F12400FFF71CFF90
:102C3C000546E9E70126354600E02E46236813F4E5
:102C4C00806F21D0D4F8A030B3F5800F3DD00CD8D4
:102C5C00ABB3B3F5001F05D10021201DFFF77EFE9D
:102C6C00054608E0012635460EE0B3F5000F02D00C
:102C7C00B3F5200F1DD17DBB6B4A936D23F460031C
:102C8C00D4F8A0100B439365236813F4006F38D06D
:102C9C00D4F8A430B3F1007F59D022D8002B50D0F7
:102CAC00B3F1807F1AD10021201DFFF757FE054696
:102CBC001DE0B3F5C00FDED001263546E4E75A4AD5
:102CCC00D36A43F40033D362D5E7002104F1240026
:102CDC00FFF7CAFE0546CEE72E46D5E70126354658
:102CEC000FE0B3F1806F02D0B3F1A06F23D1002DB0
:102CFC0034D14D4A936D23F0E063D4F8A4100B4308
:102D0C009365236813F0007F31D0A36C202B41D046
:102D1C0029D833B1102B23D1434AD36A43F400335F
:102D2C00D362002D3CD1404AD36C23F03003A16C0C
:102D3C000B43D3641BE0B3F1407FD8D0012635465A
:102D4C00DFE7394AD36A43F40033D362CFE700217B
:102D5C0004F12400FFF788FE0546C8E72E46D0E7AD
:102D6C000126354603E0302BDBD00126354623689F
:102D7C0013F4805F39D0A36DB3F5005F2DD014D858
:102D8C002BB3B3F5805F0DD10021201DFFF7E6FDBD
:102D9C00054610E00221201DFFF7E0FD0546C0E7C7
:102DAC002E46E4E7012635461FE0B3F5405F02D01E
:102DBC00B3F5804F08D1BDB91B4A136D23F4E04322
:102DCC00A16D0B43136510E0012635460DE0164A44
:102DDC00D36A43F40033D362EDE7002104F12400FD
:102DEC00FFF742FE0546E6E72E46236813F4005F24
:102DFC0027D0E36DB3F5003F41D017D83BB1B3F505
:102E0C00803F0ED10121201DFFF7A8FD0546002DA6
:102E1C003CD1054A136D23F4E023E16D0B4313659C
:102E2C000FE0012635460CE000440258B3F5802F24
:102E3C00EDD0B3F5A02FEAD0B3F5403FE7D0012693
:102E4C003546236813F4804F30D0D4F8A830B3F152
:102E5C00005F44D01FD83BB1B3F1805F18D1012182
:102E6C00201DFFF77BFD0546002D3FD18E4A936D4B
:102E7C0023F0E043D4F8A8100B43936516E001212E
:102E8C0004F12400FFF7F0FD0546C0E72E46D8E715
:102E9C00012635460AE0B3F1804FE5D0B3F1A04FDF
:102EAC00E2D0B3F1405FDFD001263546236813F43E
:102EBC00004F09D0A36EB3F1805F19D0B3F1005F5E
:102ECC0024D0D3B101263546236813F0807F32D04D
:102EDC00636C032B59D8DFE803F02621522601211D
:102EEC0004F12400FFF7C0FD0546BDE72E46DDE7E3
:102EFC006D4AD36A43F40033D3626DB96A4A136DD9
:102F0C0023F04053A16E0B431365DDE70121201D17
:102F1C00FFF724FD0546F0E72E46D5E7624AD36A53
:102F2C0043F40033D3629DBB5F4AD36C23F003039D
:102F3C00616C0B43D364236813F4800F2AD123688C
:102F4C0013F0010F00F0A180636F282B00F29B801F
:102F5C00DFE803F0899999999999999984999999A4
:102F6C0099999999929999999999999989999999DC
:102F7C00999999998999999999999999890002217D
:102F8C00201DFFF7EBFC0546CDE701263546D2E7C1
:102F9C002E46D0E7454A136843F480731360FDF75F
:102FAC0011FE0746414B1B6813F4807F05D1FDF7DA
:102FBC0009FEC01B6428F5D90325002D4AD13A4BD4
:102FCC001B6FD4F8AC20534013F4407F0CD0364B1D
:102FDC001A6F22F44072196F41F480311967196F1E
:102FEC0021F4803119671A67D4F8AC30B3F5807FBF
:102FFC0015D08DBBD4F8AC3003F44072B2F5407FE1
:10300C001ED0294A136923F47C53136126490B6F94
:10301C00D4F8AC20C2F30B0213430B678FE7FDF718
:10302C00D1FD0746204B1B6F13F0020FE1D1FDF7CA
:10303C00C9FDC01B41F288339842F3D90325D8E768
:10304C001948026922F47C52194901EA13131343FB
:10305C000361DBE72E4672E72E4670E70121201D47
:10306C00FFF77CFC0546E5B90F4A536D23F0380396
:10307C00616F0B43536508E0012104F12400FFF755
:10308C00F3FC0546EFE701263546236813F0020FE3
:10309C001DD0236F052B2ED8DFE803F0110C261161
:1030AC0011112E46F1E700BF0044025800480258A7
:1030BC00CFFFFF000121201DFFF750FC0546EDB9A5
:1030CC00A44A536D23F00703216F0B435365236808
:1030DC0013F0040F22D0D4F88C30052B43D8DFE842
:1030EC0003F0140F3B141414012104F12400FFF716
:1030FC00BBFC0546E3E701263546E8E72E46E6E746
:10310C000121201DFFF72AFC05467DBB914A936DDA
:10311C0023F00703D4F88C100B439365236813F04A
:10312C00200F33D0D4F88830B3F1005F4CD022D8C4
:10313C003BB1B3F1805F1BD10021201DFFF70EFCCA
:10314C000546002D47D1834A536D23F0E043D4F854
:10315C0088100B43536519E0012104F12400FFF79B
:10316C0083FC0546D1E701263546D7E72E46D5E741
:10317C00012635460AE0B3F1804FE2D0B3F1A04FFF
:10318C00DFD0B3F1405FDCD001263546236813F065
:10319C00400F30D0D4F89430B3F5006F4BD01FD81B
:1031AC003BB1B3F5806F18D10021201DFFF7D6FB82
:1031BC000546002D46D1674A936D23F4E053D4F8AD
:1031CC0094100B43936516E0022104F12400FFF7E1
:1031DC004BFC0546B5E72E46D8E7012635460AE0F6
:1031EC00B3F5805FE5D0B3F5A05FE2D0B3F5406FE7
:1031FC00DFD001263546236813F0800F32D0D4F887
:10320C009830B3F5804F00F09C8020D83BB1B3F5DB
:10321C00005F19D10021201DFFF7A0FB0546002DF2
:10322C0040F096804B4A936D23F46043D4F8981089
:10323C000B43936516E0022104F12400FFF714FC04
:10324C000546B6E72E46D6E7012635460AE0B3F525
:10325C00004FE4D0B3F5204FE1D0B3F5C04FDED032
:10326C0001263546236813F0080F0AD0E36FB3F537
:10327C00805F71D0374A536D23F44053E16F0B4399
:10328C005365236813F0100F0CD0D4F89030B3F5BD
:10329C00807F6AD02F4A936D23F44073D4F890103A
:1032AC000B439365236813F4002F0BD0D4F89C3098
:1032BC00B3F5803F71D0B3F5003F64D0002B5DD0E7
:1032CC0001263546236813F4802F0CD0D4F88030B7
:1032DC00B3F5001F79D0B3F5401F6CD0B3F5801F48
:1032EC0064D001263546236813F4803F07D0E36C85
:1032FC00002B73D0B3F5803F7ED001263546236872
:10330C0013F0005F40F08080236813F4003F00F05E
:10331C008880A36FB3F5807F00F0B0807ED9B3F5C1
:10332C00007F03D0B3F5407F40F0A680002D40F025
:10333C00AB80084A536D23F44073A16F0B43536564
:10334C006FE0022104F12400FFF78EFB054666E7CF
:10335C002E4687E700440258022104F12400FFF7AF
:10336C0083FB002886D0012684E7022104F1240087
:10337C00FFF77AFB00288DD001268BE70021201D5A
:10338C00FFF7ECFA05467DB9444A936D23F44033BC
:10339C00D4F89C100B43936594E7022104F12400AC
:1033AC00FFF762FB0546EEE72E468BE73B4AD36AF6
:1033BC0043F40033D3627DB9384A536D23F4401380
:1033CC00D4F880100B4353658DE7012104F12400E0
:1033DC00FFF74AFB0546EEE72E4684E72F4AD36AF1
:1033EC0043F40033D3626DB92C4AD36C23F480338D
:1033FC00E16C0B43D36482E70221201DFFF7AEFA88
:10340C000546F0E72E467AE7022104F12400FFF787
:10341C002BFB00283FF478AF012675E7002B85D0F5
:10342C000126236813F4801F06D01C4A136D23F069
:10343C000043E16E0B431365236813F4001F06D0A1
:10344C00164A136D23F08073616E0B43136523686A
:10345C0013F0804F09D0114B1A6922F400421A6103
:10346C001A69D4F8B0100A431A612368002B0DDBDB
:10347C0006B101263046F8BD0126D2E7074AD36AC9
:10348C0043F40033D36251E72E46CAE7034AD36CA8
:10349C0023F04053216D0B43D364E9E700440258F9
:1034AC0008B5FFF715FA054B1B6AC3F30213044A60
:1034BC00D35C03F01F03D84008BD00BF0044025882
:1034CC00DC5200082DE9F0410446864B9D6A9E6A49
:1034DC00C6F30536D86AC0F30010DB6BC3F3CC031C
:1034EC0003FB00F0FCF7C2FF002E00F0F58005F0A6
:1034FC0003050746012D79D0022D00F0CB800DB3CA
:10350C003046FCF7B3FF01467748FDF7BBF805469C
:10351C00744B986BC0F30800FCF7A8FF06464FF0FD
:10352C0064513846FCF7FAFF01463046FCF7EEFED4
:10353C004FF07E51FCF7EAFE01462846FCF7EEFF01
:10354C00054674E0674B1B6813F0200F2CD0DFF896
:10355C009481D8F80030C3F3C1036448D840FCF719
:10356C0085FF05463046FCF781FF01462846FDF7EE
:10357C0089F80546D8F83800C0F30800FCF776FF48
:10358C0006464FF064513846FCF7C8FF01463046FA
:10359C00FCF7BCFE4FF07E51FCF7B8FE0146284606
:1035AC00FCF7BCFF054642E03046FCF75FFF0146E6
:1035BC004F48FDF767F805464A4B986BC0F3080077
:1035CC00FCF754FF06464FF064513846FCF7A6FF53
:1035DC0001463046FCF79AFE4FF07E51FCF796FE02
:1035EC0001462846FCF79AFF054620E03046FCF7DA
:1035FC003DFF01463C48FDF745F80546394B986BB5
:10360C00C0F30800FCF732FF06464FF06451384611
:10361C00FCF784FF01463046FCF778FE4FF07E51F4
:10362C00FCF774FE01462846FCF778FF05462D4E44
:10363C00B06BC0F34620FCF719FF4FF07E51FCF73E
:10364C0065FE01462846FDF71DF8FDF7B7F820602A
:10365C00B06BC0F30640FCF709FF4FF07E51FCF74E
:10366C0055FE01462846FDF70DF8FDF7A7F86060FA
:10367C00B06BC0F30660FCF7F9FE4FF07E51FCF71F
:10368C0045FE01462846FCF7FDFFFDF797F8A060C4
:10369C00BDE8F0813046FCF7E9FE01461548FCF721
:1036AC00F1FF05460F4B986BC0F30800FCF7DEFEEC
:1036BC0006464FF064513846FCF730FF0146304661
:1036CC00FCF724FE4FF07E51FCF720FE0146284605
:1036DC00FCF724FF0546AAE7002323606360A36080
:1036EC00D6E700BF004402580024744A0090D0036F
:1036FC000024744C0024F44A2DE9F0410446864B16
:10370C009D6A9E6AC6F30556D86AC0F300205B6CAE
:10371C00C3F3CC0303FB00F0FCF7A8FE002E00F073
:10372C00F58005F003050746012D79D0022D00F038
:10373C00CB800DB33046FCF799FE01467748FCF779
:10374C00A1FF0546744B186CC0F30800FCF78EFE05
:10375C0006464FF064513846FCF7E0FE0146304611
:10376C00FCF7D4FD4FF07E51FCF7D0FD0146284606
:10377C00FCF7D4FE054674E0674B1B6813F0200F72
:10378C002CD0DFF89481D8F80030C3F3C10364481F
:10379C00D840FCF76BFE05463046FCF767FE014649
:1037AC002846FCF76FFF0546D8F84000C0F3080028
:1037BC00FCF75CFE06464FF064513846FCF7AEFE53
:1037CC0001463046FCF7A2FD4FF07E51FCF79EFD02
:1037DC0001462846FCF7A2FE054642E03046FCF7BF
:1037EC0045FE01464F48FCF74DFF05464A4B186C09
:1037FC00C0F30800FCF73AFE06464FF06451384619
:10380C00FCF78CFE01463046FCF780FD4FF07E51F4
:10381C00FCF77CFD01462846FCF780FE054620E0BF
:10382C003046FCF723FE01463C48FCF72BFF0546CF
:10383C00394B186CC0F30800FCF718FE06464FF025
:10384C0064513846FCF76AFE01463046FCF75EFDD3
:10385C004FF07E51FCF75AFD01462846FCF75EFE00
:10386C0005462D4E306CC0F34620FCF7FFFD4FF0A3
:10387C007E51FCF74BFD01462846FCF703FFFCF795
:10388C009DFF2060306CC0F30640FCF7EFFD4FF05D
:10389C007E51FCF73BFD01462846FCF7F3FEFCF796
:1038AC008DFF6060306CC0F30660FCF7DFFD4FF0FD
:1038BC007E51FCF72BFD01462846FCF7E3FEFCF796
:1038CC007DFFA060BDE8F0813046FCF7CFFD0146DE
:1038DC001548FCF7D7FE05460F4B186CC0F30800D3
:1038EC00FCF7C4FD06464FF064513846FCF716FE53
:1038FC0001463046FCF70AFD4FF07E51FCF706FD01
:10390C0001462846FCF70AFE0546AAE70023236079
:10391C006360A360D6E700BF004402580024744AD9
:10392C000090D0030024744C0024F44A7047704774
:10393C0070477047704710B5044603681A6912F057
:10394C00020F11D0DA6812F0020F0DD06FF00202E4
:10395C001A610123037703689B6913F0030F79D075
:10396C00FFF7E6FF0023237723681A6912F0040F90
:10397C0012D0DA6812F0040F0ED06FF004021A6144
:10398C000223237723689B6913F4407F68D0204679
:10399C00FFF7CEFF0023237723681A6912F0080F74
:1039AC0012D0DA6812F0080F0ED06FF008021A610C
:1039BC00042323772368DB6913F0030F57D02046C9
:1039CC00FFF7B6FF0023237723681A6912F0100F54
:1039DC0012D0DA6812F0100F0ED06FF010021A61CC
:1039EC00082323772368DB6913F4407F46D02046F5
:1039FC00FFF79EFF0023237723681A6912F0010F4B
:103A0C0003D0DA6812F0010F3FD123681A6912F063
:103A1C00800F03D0DA6812F0800F3DD123681A6949
:103A2C0012F4807F03D0DA6812F0800F3BD1236848
:103A3C001A6912F0400F03D0DA6812F0400F39D136
:103A4C0023681A6912F0200F03D0DA6812F0200FE5
:103A5C0037D110BDFFF76BFF2046FFF76AFF81E7F8
:103A6C002046FFF764FF2046FFF763FF92E72046EE
:103A7C00FFF75DFF2046FFF75CFFA3E72046FFF74B
:103A8C0056FF2046FFF755FFB4E76FF001021A61AD
:103A9C002046FFF74BFFB8E76FF080021A61204613
:103AAC0000F02FF9BAE76FF480721A61204600F02B
:103ABC0029F9BCE76FF040021A612046FFF73AFF84
:103ACC00BEE76FF020021A61204600F019F9C0E73A
:103ADC0030B503683E4A904214BF4FF0000E4FF0D1
:103AEC00010EB0F1804F14BF72464EF00102AAB91C
:103AFC00384CA04214BF00240124374DA8420DD0ED
:103B0C0064B904F1804404F58234A04214BF00244B
:103B1C00012405F50065A84200D01CB123F0700308
:103B2C004C68234362BB2B4A904214BF00220122F3
:103B3C00294CA04224D01ABB02F1804202F58232F9
:103B4C00904214BF0022012204F50064A04217D059
:103B5C00B2B9224A904214BF0022012204F59A34D1
:103B6C00A0420DD062B91E4A904214BF002201221D
:103B7C0004F50064A04203D012B91A4A904204D151
:103B8C0023F4407CCB6843EA0C0323F080034A699E
:103B9C00134303608A68C2620A688262124A9042C6
:103BAC0014BF73464EF0010363B90C4B984214BF1B
:103BBC000023012302F57052904203D013B90B4B32
:103BCC00984201D10B6903630123436130BD00BFEF
:103BDC000000014000080040000400400044014087
:103BEC0000E0004000E400400004014000480140B7
:103BFC0060B310B5044690F83D3013B3022384F83B
:103C0C003D30214651F8040BFFF762FF012384F885
:103C1C00483084F83E3084F83F3084F8403084F8E3
:103C2C00413084F8423084F8433084F8443084F8CE
:103C3C00453084F8463084F8473084F83D30002015
:103C4C0010BD80F83C3001F023F9D7E70120704714
:103C5C0090F83C30012B4DD070B4012380F83C30EF
:103C6C00022380F83D3003685A689C68224E234D2D
:103C7C00AB4218BFB34203D122F470024D682A4301
:103C8C0022F070020D682A435A6003681A4AB3F195
:103C9C00804F18BF93421FD0A2F57C4293421BD099
:103CAC0002F58062934217D002F58062934213D0E2
:103CBC0002F5784293420FD0A2F56C4293420BD09E
:103CCC0002F59432934207D0A2F5C042934203D03E
:103CDC0002F58062934204D124F080048A68144374
:103CEC009C60012380F83D30002380F83C3018465E
:103CFC0070BC704702207047000001400004014076
:103D0C0070477047704700000268136823F4907383
:103D1C00136002689168044B0B4093602023C0F839
:103D2C0084300023C3667047FEFFFFEF704708B571
:103D3C0001680A6822F040020A602022C0F8802044
:103D4C0000220267FFF7F2FF08BD704770B504460A
:103D5C000168CB690D68886840F60F021A4008D1DB
:103D6C0013F0200F05D015F0200F30D110F0805F2C
:103D7C002DD12AB16D4A02402FD16D4E35422CD136
:103D8C0013F4801F03D010F4800F40F0B48013F0B4
:103D9C00800F07D015F0800F40F0B48010F4000FA6
:103DAC0040F0B08013F0400F03D015F0400F40F0FE
:103DBC00B08013F4000F03D015F0804F40F0AD80AD
:103DCC0013F0807F02D0002DC0F2AB8070BDE36E8B
:103DDC00002BFBD020469847F8E713F0010F09D0D1
:103DEC0015F4807F06D001260E62D4F8881031437A
:103DFC00C4F8881013F0020F0BD010F0010F08D08C
:103E0C00216802260E62D4F8881041F00401C4F82F
:103E1C00881013F0040F0BD010F0010F08D021689C
:103E2C0004260E62D4F8881041F00201C4F8881000
:103E3C0013F0080F0BD015F0200F00D13AB1226807
:103E4C0008211162D4F888200A43C4F8882013F49E
:103E5C00006F0CD015F0806F09D022684FF4006110
:103E6C001162D4F8882042F02002C4F88820D4F8DB
:103E7C008820002AAAD013F0200F09D015F0200FAB
:103E8C0002D110F0805F03D0E36E0BB1204698474F
:103E9C00D4F8882023689B6813F0400F02D112F0ED
:103EAC00280F21D02046FFF72FFF23689A6812F0C5
:103EBC00400F15D09A6822F040029A60A36F5BB154
:103ECC001C4A1A65A06FFDF7F1F900283FF47EAF8C
:103EDC00A06F036D984779E72046FFF736FF75E72B
:103EEC002046FFF732FF71E72046FFF72EFF002335
:103EFC00C4F888306AE74FF480130B62204600F058
:103F0C00E7FC63E7236F002B3FF460AF2046984734
:103F1C005CE72046FFF70BFF58E7204600F0DAFC81
:103F2C0054E7204600F0D5FC50E700BF010000101C
:103F3C0020010004453F000808B5806B0023A0F861
:103F4C005E30A0F85630FFF700FF08BD70B586B0A4
:103F5C000446016883680269134342691343C269CA
:103F6C001343426E13430868904A02401A430A6096
:103F7C002268536823F44053E1680B435360A169F2
:103F8C0022688B4B9A4201D0236A19439068894B63
:103F9C0003400B4393602268D36A23F00F03616ADA
:103FAC000B43D3622268844B9A4229D0834B9A42AA
:103FBC0000F09480824B9A4200F0AA80814B9A4286
:103FCC0000F0C080804B9A4200F0D6807F4B9A4222
:103FDC0000F008817E4B9A4200F02D817D4B9A4275
:103FEC0000F040817C4B9A4200F053817B4B9A420B
:103FFC0000F078816E4B9A4200F09D81802333E073
:10400C00774B5B6D03F03803282B65D8DFE813F092
:10401C0029006400640064006400640064006400AF
:10402C00AB0164006400640064006400640064001C
:10403C002B0064006400640064006400640064008D
:10404C005E0064006400640064006400640064004A
:10405C006000640064006400640064006400640038
:10406C006200012300E0082351498A4200F0948148
:10407C00E069B0F5004F00F00A82202B00F262825A
:10408C00202B00F2AC82DFE813F079027F02AA0247
:10409C00AA028202AA02AA02AA028702AA02AA02FF
:1040AC00AA02AA02AA02AA02AA028C02AA02AA02C2
:1040BC00AA02AA02AA02AA02AA02AA02AA02AA0294
:1040CC00AA02AA02AA02AA02AA0298021023CBE709
:1040DC002023C9E74023C7E78023C5E7404B5B6D2E
:1040EC0003F00703052B11D8DFE813F006003F019E
:1040FC0008000A000C000E000023B5E70823B3E704
:10410C001023B1E72023AFE74023ADE78023ABE7D3
:10411C00334B5B6D03F00703052B11D8DFE813F06D
:10412C000600270108000A000C000E0000239BE784
:10413C00082399E7102397E7202395E7402393E77B
:10414C00802391E7264B5B6D03F00703052B11D8F9
:10415C00DFE813F006000F0108000A000C000E0047
:10416C00002381E708237FE710237DE720237BE7EB
:10417C00402379E7802377E7194B5B6D03F0070346
:10418C00052B11D8DFE813F00600F70008000A0031
:10419C000C000E00002367E7082365E7102363E794
:1041AC00202361E740235FE780235DE7F369FFCFBE
:1041BC00000C0058FFF4FF110010014000440040B7
:1041CC0000480040004C00400050004000140140EA
:1041DC0000780040007C004000180140001C0140A9
:1041EC0000440258694B5B6D03F03803282B20D830
:1041FC00DFE803F0151F1F1F1F1F1F1FC31F1F1FEB
:10420C001F1F1F1F171F1F1F1F1F1F1F191F1F1FC0
:10421C001F1F1F1F1B1F1F1F1F1F1F1F1D000123E1
:10422C0022E7082320E710231EE720231CE7402366
:10423C001AE7802318E7554B5B6D03F00703052B3A
:10424C000ED8DFE803F0039C0507090B00230BE7EE
:10425C00082309E7102307E7202305E7402303E79A
:10426C00802301E7494B5B6D03F00703052B0ED848
:10427C00DFE803F003870507090B0023F4E60823A6
:10428C00F2E61023F0E62023EEE64023ECE6802352
:10429C00EAE63E4B5B6D03F03803282B20D8DFE8B1
:1042AC0003F0151F1F1F1F1F1F1F721F1F1F1F1F14
:1042BC001F1F171F1F1F1F1F1F1F191F1F1F1F1F10
:1042CC001F1F1B1F1F1F1F1F1F1F1D000123CBE6BE
:1042DC000823C9E61023C7E62023C5E64023C3E61E
:1042EC008023C1E6294B5B6D03F03803282B20D8C3
:1042FC00DFE803F0151F1F1F1F1F1F1F4E1F1F1F5F
:10430C001F1F1F1F171F1F1F1F1F1F1F191F1F1FBF
:10431C001F1F1F1F1B1F1F1F1F1F1F1F1D000123E0
:10432C00A2E60823A0E610239EE620239CE6402369
:10433C009AE6802398E603F50E339B6D03F0070392
:10434C00052B0ED8DFE803F003260507090B022323
:10435C008AE6082388E6102386E6202384E6402399
:10436C0082E6802380E604237EE604237CE6042395
:10437C007AE6042378E6042376E6042374E6042321
:10438C0072E6042370E604236EE600BF0044025874
:10439C00042369E6042367E6202B27D8022BC0F000
:1043AC001081023B1E2B00F20E81DFE813F050004F
:1043BC000C0156000C010C010C015B000C010C01F2
:1043CC000C010C010C010C010C0160000C010C0126
:1043DC000C010C010C010C010C010C010C010C0169
:1043EC000C010C010C010C010C016C00402B2CD1AC
:1043FC004FF40040626A804B33F81220B0FBF2F3AA
:10440C00656805EB4501994200F2DF80B3EB053F8F
:10441C0000F2DD80002633463146FCF7EFF9090245
:10442C0041EA106100026B08C0182A46334641F17C
:10443C000001FCF7E3F9A0F54072704B9A4200F2D0
:10444C00C8802368D8603046CAE00120C8E0FFF776
:10445C0027F80028CED10020C2E003A8FFF732F8DD
:10446C000498F6E76846FFF747F90198F1E7644BC3
:10447C001B6813F0200F08D0614B1B68C3F3C103FA
:10448C006048D840E5E76048B4E75E48B2E7202BC7
:10449C0015D8202B00F29F80DFE803F031379D9D6B
:1044AC003A9D9D9D3F9D9D9D9D9D9D9D449D9D9D4A
:1044BC009D9D9D9D9D9D9D9D9D9D9D9D5000402BD9
:1044CC001BD1626A4C4B33F81230B0FBF3F06268CC
:1044DC00530803EB4000B0FBF2F080B2A0F11002E5
:1044EC004FF6EF739A4278D820F00F03C0F34200D6
:1044FC0018432368D860002072E0012070E0FEF7BA
:10450C0009FA0028DDD100206AE0FEF715FAF8E779
:10451C0003A8FEF7D7FF0498F3E76846FFF7ECF81B
:10452C000198EEE7364B1B6813F0200F08D0344B84
:10453C001B68C3F3C1033348D840E2E73248C0E7F5
:10454C003048BEE7402B17D14FF40040626A2A4B2B
:10455C0033F81230B0FBF3F0636800EB5300B0FBA0
:10456C00F3F080B2A0F110024FF6EF739A4241D8EB
:10457C002368D860002033E0012031E0FEF7CAF94F
:10458C000028E3D100202BE0FEF7D6F9F8E703A8CA
:10459C00FEF798FF0498F3E76846FFF7ADF801982B
:1045AC00EEE7174B1B6813F0200F08D0144B1B6859
:1045BC00C3F3C1031348D840E2E71348C6E71148D8
:1045CC00C4E701200CE001200AE0012008E00120F2
:1045DC0006E0012004E0012002E0012000E00120BF
:1045EC000123A4F86A30A4F868300023E36623673B
:1045FC0006B070BD0120F3E7B8520008FFFC0F00B5
:10460C00004402580090D00300093D00836A13F067
:10461C00010F06D00268536823F40033C16A0B43C0
:10462C005360836A13F0020F06D00268536823F4B8
:10463C008033016B0B435360836A13F0040F06D075
:10464C000268536823F48023416B0B435360836AE5
:10465C0013F0080F06D00268536823F40043816BF3
:10466C000B435360836A13F0100F06D002689368F3
:10467C0023F48053C16B0B439360836A13F0200FB8
:10468C0006D00268936823F40053016C0B439360CB
:10469C00836A13F0400F0AD00268536823F4801326
:1046AC00416C0B435360436CB3F5801F0BD0836A92
:1046BC0013F0800F06D00268536823F40023C16CFA
:1046CC000B43536070470268536823F4C003816C3A
:1046DC000B435360EBE72DE9F84305460F461646AE
:1046EC009946DDF820802C68E46937EA04030CBF96
:1046FC004FF0010C4FF0000CB44541D1B8F1FF3F25
:10470C00F1D0FCF75FFAA0EB0900404524D8B8F1D2
:10471C00000F21D02B681A6812F0040FE3D0DA696D
:10472C0012F4006FDFD04FF400621A622A6813682B
:10473C0023F4D07313602A68936823F00103936009
:10474C002023C5F88030C5F88430C5F888300023A4
:10475C0085F87C30032014E02A68136823F4D073A6
:10476C0013602A68936823F0010393602023C5F833
:10477C008030C5F88430002385F87C30032000E0BD
:10478C000020BDE8F88330B583B004460023C0F8A0
:10479C008830FCF717FA05462268126812F0080FE9
:1047AC000ED123681B6813F0040F17D12023C4F813
:1047BC008030C4F88430002084F87C0003B030BD15
:1047CC006FF07E430093034600224FF40011204605
:1047DC00FFF781FF0028E4D00320EFE76FF07E4362
:1047EC0000932B4600224FF480012046FFF773FF05
:1047FC000028DBD00320E1E778B310B50446D0F8ED
:10480C0080300BB32423C4F880302268136823F063
:10481C00010313602046FFF799FB012813D0A36A0C
:10482C00BBB92268536823F49043536022689368A1
:10483C0023F02A0393602268136843F0010313608A
:10484C002046FFF7A0FF10BD80F87C3000F08AFBFB
:10485C00D8E72046FFF7DAFEE3E7012070470000B7
:10486C0084B00346184A92E8030004AA02E9030044
:10487C0016496A4603C982E803005A6E32B901220E
:10488C00A3F86A20A3F8682004B0704719688A68F6
:10489C00C2F34262886804A901EB507010F8081C3E
:1048AC00090110F8100C91FBF0F1A3F86A1010320A
:1048BC006A4412F8081C090112F8102C91FBF2F250
:1048CC00A3F86820E0E700BFA8520008D052000807
:1048DC0070477047704790F87C30012B18D001233B
:1048EC0080F87C302423C0F8803003681A6819687B
:1048FC0021F00101196022F0005200234366016887
:10490C000A602022C0F8802080F87C30184670475E
:10491C000220704738B590F87C30012B1DD004462E
:10492C00012380F87C302423C0F8803003681D6894
:10493C001A6822F001021A600268936823F060433F
:10494C0019439160FFF78CFF23681D602023C4F886
:10495C008030002084F87C0038BD0220FCE738B59C
:10496C0090F87C30012B1DD00446012380F87C305C
:10497C002423C0F8803003681D681A6822F00102F5
:10498C001A600268936823F0606319439160FFF723
:10499C0067FF23681D602023C4F88030002084F852
:1049AC007C0038BD0220FCE700B583B00F4BD3F878
:1049BC00D82042F00102C3F8D820D3F8D83003F045
:1049CC0001030193019B002211460B20FCF712F905
:1049DC000B20FCF745F9002211460C20FCF70AF9D4
:1049EC000C20FCF73DF903B05DF804FB00440258C1
:1049FC002DE9F04F8DB000240794089409940A9483
:104A0C000B94714BD3F8E02042F00402C3F8E02081
:104A1C00D3F8E02002F004020092009AD3F8E020D0
:104A2C0042F08002C3F8E020D3F8E02002F08002CC
:104A3C000192019AD3F8E02042F00102C3F8E02081
:104A4C00D3F8E02002F001020292029AD3F8E0209F
:104A5C0042F00202C3F8E020D3F8E02002F0020298
:104A6C000392039AD3F8E02042F00802C3F8E02046
:104A7C00D3F8E02002F008020492049AD3F8E02064
:104A8C0042F04002C3F8E020D3F8E02002F04002EC
:104A9C000592059AD3F8E02042F01002C3F8E0200A
:104AAC00D3F8E03003F010030693069BDFF81C915B
:104ABC00224644F201014846FDF7C4F9DFF810B173
:104ACC0022464FF480615846FDF7BCF9224602217C
:104ADC004048FDF7B7F94FF4005ACDF81CA00894E4
:104AEC0009943D4F07A93846FDF7B4F832230793D4
:104AFC000225089509940A940B260B9607A93846AB
:104B0C00FDF7A8F886230793089509940A940B9649
:104B1C00DFF8C88007A94046FDF79CF844F2010372
:104B2C0007930127089709940A9407A94846FDF7AB
:104B3C0091F8CDF81CA0089509940A940B9607A936
:104B4C004846FDF787F84FF48069CDF81C9008971C
:104B5C0009940A9407A95846FDF77CF8802307931B
:104B6C001F4B089309940BF5406B07A95846FDF7AA
:104B7C0071F84FF4007307930894099407A9404601
:104B8C00FDF768F8CDF81C90089509940A940A234F
:104B9C000B9307A94046FDF75DF84FF4205307939C
:104BAC00089509940A940B9607A95846FDF752F8F4
:104BBC000795089709940A9407A90648FDF74AF83F
:104BCC000DB0BDE8F08F00BF00440258000402583D
:104BDC00000C02580010025800080258000002583D
:104BEC000000111110B5CAB04C22002137A800F0FA
:104BFC0087FA202200212FA800F082FAB42200218B
:104C0C0002A800F07DFA0220FDF722F9002301939F
:104C1C00224B9A6922F440429A619B6903F4404307
:104C2C000193019B1D4B9B6913F4005FFAD0212368
:104C3C0037934FF4A023389301213D9102224092E7
:104C4C0041920423429340F21310439044914593B4
:104C5C004692479300244894499437A8FDF72AF9C3
:104C6C003F232F9303213091319408233293402317
:104C7C00339334934FF48062359236932FA8FDF71B
:104C8C00DDFC074B02931E944FF44013229302A8B1
:104C9C00FDF770FFFDF706F94AB010BD0048025849
:104CAC000200040008B5FBF753FFFFF79BFFFFF76B
:104CBC009FFEFFF779FE00F099F800F0C1F800F0C4
:104CCC001DF900F0CDF9FEE77047000082B0074BEC
:104CDC00D3F8F42042F00202C3F8F420D3F8F430F5
:104CEC0003F002030193019B02B070470044025889
:104CFC007047FEE7FEE7FEE7FEE770477047704738
:104D0C0008B5FBF753FF08BD08B50248FCF706FCD5
:104D1C0008BD00BFF404002408B50248FCF7FEFBF4
:104D2C0008BD00BF6C05002408B50248FFF70EF85B
:104D3C0008BD00BFE405002408B50248FEF7FBFDE2
:104D4C0008BD00BF5C040024204B1B6803F00F035C
:104D5C00062B06D81D4A136823F00F0343F00703F4
:104D6C0013601B4B1A6842F001021A6000221A6190
:104D7C001968184A0A401A60144B1B6813F0080F84
:104D8C0006D0124A136823F00F0343F00703136095
:104D9C000F4B00229A61DA611A620F4999620F492E
:104DAC00D9620F4919635A639963DA6319645A64B7
:104DBC00196821F4802119601A660A4B43F2D20259
:104DCC001A60094B4FF000629A6070470020005245
:104DDC00004402587FEDF6EA000202020000FF01D7
:104DEC00800201010040005200ED00E000B585B0EA
:104DFC0000230193029303930F48104A02604FF46F
:104E0C0089724260836040F2E732C2608361FEF7D0
:104E1C00EFFE50B900230193039301A90648FEF756
:104E2C0017FF28B905B05DF804FBFFF74DFFF1E75C
:104E3C00FFF74AFFF6E700BF5C04002400100040B7
:104E4C0000B585B000230193029303930E480F4ADB
:104E5C0002604360836047F6FD72C2608361FEF7B7
:104E6C00C7FE50B900230193039301A90648FEF72E
:104E7C00EFFE28B905B05DF804FBFFF725FFF1E75D
:104E8C00FFF722FFF6E700BFA8040024001400403F
:104E9C0000B583B00368164A934205D0154A934275
:104EAC0018D003B05DF804FB134BD3F8E82042F0A4
:104EBC001002C3F8E820D3F8E83003F01003009395
:104ECC00009B002211463620FBF794FE3620FBF7A0
:104EDC00C7FEE6E7084BD3F8E82042F02002C3F8FF
:104EEC00E820D3F8E83003F020030193019BD8E7C6
:104EFC0000100040001400400044025808B5174848
:104F0C00174B03604FF4E133436000238360C360AD
:104F1C0003610C2242618361C36103624362836259
:104F2C00FFF76AFC70B900210C48FFF7F3FC60B97D
:104F3C0000210A48FFF713FD50B90848FFF7CBFCD6
:104F4C0048B908BDFFF7C0FEEDE7FFF7BDFEEFE780
:104F5C00FFF7BAFEF1E7FFF7B7FEF2E7E40500242E
:104F6C000048004010B588B00023039304930593C8
:104F7C00069307930268334B9A4201D008B010BDD8
:104F8C000446314BD3F8E82042F48022C3F8E820E1
:104F9C00D3F8E82002F480220192019AD3F8E020A1
:104FAC0042F00802C3F8E020D3F8E03003F0080325
:104FBC000293029B4FF44073039302230493072341
:104FCC00079303A92148FCF745FE2148214B0360B8
:104FDC002D23436000238360C3604FF48062026121
:104FEC0043618361C36103624362FBF795FF10BBAE
:104FFC00174BA3679C631848184B03602E23436020
:10500C00402383600023C3604FF4806202614361DC
:10501C008361C36103624362FBF77EFF70B90E4B81
:10502C0063679C63002211462720FBF7E3FD2720D2
:10503C00FBF716FEA2E7FFF747FED9E7FFF744FEA2
:10504C00EDE700BF0048004000440258000C025835
:10505C00F4040024100002406C05002428000240D7
:10506C0070470000DFF834D0FFF76EFE002103E03C
:10507C000B4B5B58435004310A480B4B42189A4275
:10508C00F6D30A4A02E0002342F8043B084B9A424A
:10509C00F9D300F011F8FFF705FE70470000052466
:1050AC0004530008000000243C0400243C040024A9
:1050BC0074060024FEE7000070B50D4E0D4D761BF6
:1050CC00B61006D0002455F8043B01349847A6428C
:1050DC00F9D1094E094D761B00F0D4F8B61006D064
:1050EC00002455F8043B01349847A642F9D170BD11
:1050FC00F8520008F852000800530008F852000853
:10510C00830730B548D0541E002A3FD0CAB203469C
:10511C0001E0013C3AD303F8012B9D07F9D1032C94
:10512C002DD9CDB245EA05250F2C45EA054536D9D2
:10513C00A4F1100222F00F0C03F1200EE6444FEA0A
:10514C00121C03F1100242E9045542E902551032D7
:10515C007245F8D10CF1010214F00C0F03EB0212A2
:10516C0004F00F0C13D0ACF1040323F0030304334D
:10517C00134442F8045B9342FBD10CF003042CB1B2
:10518C00CAB21C4403F8012B9C42FBD130BD6446CF
:10519C001346002CF4D1F9E703461446BFE71A4630
:1051AC00A446E0E7024B13B1024800F005B8704783
:1051BC0000000000D1510008002301461A46184691
:1051CC0000F01AB838B5084B084D5B1B9C1007D083
:1051DC00043B1D44013C55F804399847002CF9D187
:1051EC00BDE8384000F054B80453000800530008E0
:1051FC00704700BF704700BF2DE9F047DFF87CA077
:10520C000646DAF8000098460F469146FFF7F0FF85
:10521C001B4B1B68D3F8484124B365681F2D26DC53
:10522C005EB96B1C0235DAF80000636044F8257037
:10523C00FFF7E0FF0020BDE8F08704EB85010123B8
:10524C00C1F88890D4F88821AB401A43022EC4F8D8
:10525C008821C1F80881E4D1D4F88C211343C4F817
:10526C008C31DEE703F5A674C3F84841D5E7DAF8CC
:10527C000000FFF7BFFF4FF0FF30DCE738040024DD
:10528C00EC520008F8B500BFF8BC08BC9E4670474D
:0C529C00F8B500BFF8BC08BC9E46704787
:1052A8000101010307010000000610160006101690
:1052B800010002000400060008000A000C001000AB
:1052C80020004000800000010804020408010101D8
:1052D80000000000000000000102030401020304B2
:0852E80006070809100000246C
:0852F00048B5FF7F010000003A
:0852F800B1510008F1020008A9
:04530000CD020008D2
:1053040001000000100000000090D0030090D003C2
:1053140000000000FC02002464030024CC030024E9
:105324000000000000000000000000000000000079
:105334000000000000000000000000000000000069
:105344000000000000000000000000000000000059
:105354000000000000000000000000000000000049
:105364000000000000000000000000000000000039
:105374000000000000000000000000000000000029
:105384000000000000000000000000000000000019
:105394000000000000000000000000000000000009
:1053A40000000000000000000000000000000000F9
:1053B40000000000000000000100000000000000E8
:1053C4000E33CDAB34126DE6ECDE05000B000000AD
:1053D40000000000000000000000000000000000C9
:1053E40000000000000000000000000000000000B9
:1053F40000000000000000000000000000000000A9
:105404000000000000000000000000000000000098
:0C573400000000000000000070060024CF
:04000005080050712E
:00000001FF
