:020000040800F2
:10000000000008202DAA000869A300086DA30008BD
:1000100071A3000875A3000879A300080000000080
:100020000000000000000000000000007DA30008A8
:1000300081A300080000000085A3000889A3000830
:100040007DAA00087DAA00087DAA00087DAA0008F4
:100050007DAA00087DAA00087DAA00087DAA0008E4
:100060007DAA00087DAA00087DAA00087DAA0008D4
:100070007DAA00087DAA00087DAA00087DAA0008C4
:100080007DAA00087DAA00087DAA00087DAA0008B4
:100090007DAA00087DAA00087DAA00087DAA0008A4
:1000A0007DAA00087DAA00087DAA00087DAA000894
:1000B0007DAA00087DAA00087DAA00087DAA000884
:1000C0007DAA00087DAA00087DAA00087DAA000874
:1000D0007DAA00088DA300087DAA00087DAA00085B
:1000E000BDA300087DAA00087DAA00087DAA00081B
:1000F0007DAA00087DAA00087DAA00087DAA000844
:100100007DAA00087DAA00087DAA00087DAA000833
:100110007DAA00087DAA0008D5A30008E1A3000875
:100120007DAA00087DAA0008EDA300087DAA0008AA
:100130007DAA00087DAA00087DAA00087DAA000803
:100140007DAA00087DAA00087DAA00087DAA0008F3
:100150007DAA00087DAA00087DAA00087DAA0008E3
:100160007DAA00087DAA00087DAA00087DAA0008D3
:100170007DAA00087DAA00087DAA000800000000F2
:100180007DAA00087DAA00087DAA00087DAA0008B3
:100190007DAA00087DAA00087DAA00087DAA0008A3
:1001A00000000000000000007DAA00087DAA0008F1
:1001B0007DAA00087DAA00087DAA00087DAA000883
:1001C0007DAA00087DAA0008000000007DAA0008A2
:1001D0007DAA00087DAA00087DAA00087DAA000863
:1001E0007DAA00087DAA00087DAA00087DAA000853
:0801F000000000007DAA0008D8
:1002000010B5054C237833B9044B13B10448AFF350
:1002100000800123237010BDB809002000000000F9
:1002200064EA060808B5034B1BB103490348AFF362
:10023000008008BD00000000BC09002064EA060838
:1002400081F0004102E000BF83F0004330B54FEA87
:1002500041044FEA430594EA050F08BF90EA020FF4
:100260001FBF54EA000C55EA020C7FEA645C7FEA87
:10027000655C00F0E2804FEA5454D4EB5555B8BFAA
:100280006D420CDD2C4480EA020281EA030382EA1B
:10029000000083EA010180EA020281EA0303362DAD
:1002A00088BF30BD11F0004F4FEA01314FF4801C80
:1002B0004CEA113102D0404261EB410113F0004F92
:1002C0004FEA03334CEA133302D0524263EB430349
:1002D00094EA050F00F0A780A4F10104D5F1200EE7
:1002E0000DDB02FA0EFC22FA05F2801841F1000142
:1002F00003FA0EF2801843FA05F359410EE0A5F116
:1003000020050EF1200E012A03FA0EFC28BF4CF046
:10031000020C43FA05F3C01851EBE37101F00045FC
:1003200007D54FF0000EDCF1000C7EEB00006EEB09
:100330000101B1F5801F1BD3B1F5001F0CD3490893
:100340005FEA30004FEA3C0C04F101044FEA4452EA
:1003500012F5800F80F09A80BCF1004F08BF5FEA71
:10036000500C50F1000041EB045141EA050130BD51
:100370005FEA4C0C404141EB0101013C28BFB1F563
:10038000801FE9D291F0000F04BF01460020B1FAAE
:1003900081F308BF2033A3F10B03B3F120020CDA81
:1003A0000C3208DD02F1140CC2F10C0201FA0CF05F
:1003B00021FA02F10CE002F11402D8BFC2F1200CC4
:1003C00001FA02F120FA0CFCDCBF41EA0C0190407A
:1003D000E41AA2BF01EB0451294330BD6FEA0404C3
:1003E0001F3C1CDA0C340EDC04F11404C4F12002AE
:1003F00020FA04F001FA02F340EA030021FA04F3C0
:1004000045EA030130BDC4F10C04C4F1200220FA16
:1004100002F001FA04F340EA0300294630BD21FA54
:1004200004F0294630BD94F0000F83F4801306BF1A
:1004300081F480110134013D4EE77FEA645C18BF0E
:100440007FEA655C29D094EA050F08BF90EA020FA5
:1004500005D054EA000C04BF1946104630BD91EA9D
:10046000030F1EBF0021002030BD5FEA545C05D1A0
:100470004000494128BF41F0004130BD14F58004DF
:100480003CBF01F5801130BD01F0004545F0FE4153
:1004900041F470014FF0000030BD7FEA645C1ABF88
:1004A000194610467FEA655C1CBF0B46024650EABF
:1004B000013406BF52EA033591EA030F41F40021EB
:1004C00030BD00BF90F0000F04BF0021704730B571
:1004D0004FF4806404F132044FF000054FF0000146
:1004E00050E700BF90F0000F04BF0021704730B507
:1004F0004FF4806404F1320410F0004548BF4042DC
:100500004FF000013EE700BF42004FEAE2014FEA30
:1005100031014FEA02701FBF12F07F4393F07F4F0B
:1005200081F06051704732F07F4208BF704793F00E
:100530007F4F04BF41F40021704730B54FF4607421
:1005400001F0004521F000411CE700BF50EA010224
:1005500008BF704730B54FF000050AE050EA0102CD
:1005600008BF704730B511F0004502D5404261EB3D
:1005700041014FF4806404F132045FEA915C3FF47E
:10058000D8AE4FF003025FEADC0C18BF03325FEA1B
:10059000DC0C18BF033202EBDC02C2F1200300FACC
:1005A00003FC20FA02F001FA03FE40EA0E0021FAF1
:1005B00002F11444BDE600BF53B94AB9002908BF8F
:1005C00000281CBF4FF0FF314FF0FF3000F074B92E
:1005D000ADF1080C6DE904CE00F006F8DDF804E09A
:1005E000DDE9022304B070472DE9F047089D044679
:1005F0008E46002B4DD18A42944669D9B2FA82F2D6
:1006000052B101FA02F3C2F1200120FA01F10CFA11
:1006100002FC41EA030E94404FEA1C48210CBEFB49
:10062000F8F61FFA8CF708FB16E341EA034306FBD2
:1006300007F199420AD91CEB030306F1FF3080F061
:100640001F81994240F21C81023E63445B1AA4B2AE
:10065000B3FBF8F008FB103344EA034400FB07F750
:10066000A7420AD91CEB040400F1FF3380F00A8191
:10067000A74240F207816444023840EA0640E41B86
:1006800000261DB1D4400023C5E900433146BDE832
:10069000F0878B4209D9002D00F0EF800026C5E9D4
:1006A000000130463146BDE8F087B3FA83F6002EEC
:1006B0004AD18B4202D3824200F2F980841A61EB64
:1006C000030301209E46002DE0D0C5E9004EDDE782
:1006D00002B9FFDEB2FA82F2002A40F09280A1EB6A
:1006E0000C014FEA1C471FFA8CFE0126200CB1FBBF
:1006F000F7F307FB131140EA01410EFB03F08842B8
:1007000008D91CEB010103F1FF3802D2884200F244
:10071000CB804346091AA4B2B1FBF7F007FB1011D6
:1007200044EA01440EFB00FEA64508D91CEB040474
:1007300000F1FF3102D2A64500F2BB800846A4EBCF
:100740000E0440EA03409CE7C6F12007B34022FABA
:1007500007FC4CEA030C20FA07F401FA06F31C43E9
:10076000F9404FEA1C4900FA06F3B1FBF9F8200CF6
:100770001FFA8CFE09FB181140EA014108FB0EF03C
:10078000884202FA06F20BD91CEB010108F1FF3A8C
:1007900080F08880884240F28580A8F10208614498
:1007A000091AA4B2B1FBF9F009FB101144EA0141A6
:1007B00000FB0EFE8E4508D91CEB010100F1FF3451
:1007C0006CD28E456AD90238614440EA0840A0FBE9
:1007D0000294A1EB0E01A142C846A64656D353D0BF
:1007E0005DB1B3EB080261EB0E0101FA07F722FAE3
:1007F00006F3F1401F43C5E9007100263146BDE80C
:10080000F087C2F12003D8400CFA02FC21FA03F36E
:10081000914001434FEA1C471FFA8CFEB3FBF7F0EF
:1008200007FB10360B0C43EA064300FB0EF69E4214
:1008300004FA02F408D91CEB030300F1FF382FD2AD
:100840009E422DD9023863449B1B89B2B3FBF7F655
:1008500007FB163341EA034106FB0EF38B4208D92E
:100860001CEB010106F1FF3816D28B4214D9023E6F
:100870006144C91A46EA004638E72E46284605E78D
:100880000646E3E61846F8E64B45A9D2B9EB02085E
:1008900064EB0C0E0138A3E74646EAE7204694E7EE
:1008A0004046D1E7D0467BE7023B614432E7304621
:1008B00009E76444023842E7704700BF844641EAD2
:1008C000000313F003036DD1403A41D351F8043BC8
:1008D00040F8043B51F8043B40F8043B51F8043B1A
:1008E00040F8043B51F8043B40F8043B51F8043B0A
:1008F00040F8043B51F8043B40F8043B51F8043BFA
:1009000040F8043B51F8043B40F8043B51F8043BE9
:1009100040F8043B51F8043B40F8043B51F8043BD9
:1009200040F8043B51F8043B40F8043B51F8043BC9
:1009300040F8043B51F8043B40F8043B51F8043BB9
:1009400040F8043B51F8043B40F8043B403ABDD228
:10095000303211D351F8043B40F8043B51F8043BCA
:1009600040F8043B51F8043B40F8043B51F8043B89
:1009700040F8043B103AEDD20C3205D351F8043B59
:1009800040F8043B043AF9D2043208D0D2071CBF25
:1009900011F8013B00F8013B01D30B88038060464E
:1009A000704700BF082A13D38B078DD010F00303C4
:1009B0008AD0C3F10403D21ADB071CBF11F8013B34
:1009C00000F8013B80D331F8023B20F8023B7BE783
:1009D000043AD9D3013A11F8013B00F8013BF9D2AE
:1009E0000B7803704B7843708B7883706046704748
:1009F00000000000000000000000000000000000F7
:100A0000A2EB0300704700BF02780B78012A28BFD1
:100A10009A42F5D16DE9044540EA0104CDE9026747
:100A20006FF0000C4FEA447212B380EA010414F034
:100A3000070F6AD100F0070420F0070004F0030557
:100A400021F007014FEAC505F0E8042314F0040F74
:100A5000F1E804670CFA05F462EA040266EA0406A7
:100A60000AD063EA0403624667EA0407664603E0C5
:100A7000F0E80423F1E8046782FA4CF582EA060400
:100A8000A4FA8CF46CBB83FA4CF583EA0705A5FA4B
:100A90008CF595B950E9022351E9026782FA4CF5C9
:100AA00082EA0604A4FA8CF483FA4CF583EA07057B
:100AB000A5FA8CF52543DBD09CB92DBAB5FA85F49F
:100AC00024F0070427FA04F1DDE9026723FA04F3AE
:100AD00003F0FF0001F0FF01FDE80445A0EB010079
:100AE000704724BAB4FA84F424F0070426FA04F117
:100AF000DDE9026722FA04F202F0FF0001F0FF01D3
:100B0000FDE80445A0EB0100704714F0030F3CD151
:100B100010F0030428D150F8082B51F8083B82FA52
:100B20004CF582EA0305A5FA8CF55DB950F8042C62
:100B300051F8043C82FA4CF582EA0305A5FA8CF5DB
:100B4000002DE8D02DBAB5FA85F424F0070423FA75
:100B500004F122FA04F202F0FF0001F0FF01FDE8C7
:100B60000445A0EB010070474FEAC40420F00300E5
:100B700050F8082B21F0030151F8083B0CFA04F45B
:100B800062EA040263EA0403C9E710F003041AD01E
:100B9000A1EB040120F00300E40750F8042B06D079
:100BA0000FD28B785FFAA2F4E41A06D12BB1CB787E
:100BB0005FFAB2F4E41A00D11BB920465DF8104B7D
:100BC000704701F1040150F8042BCC0721F0030118
:100BD00051F8043B48D824D222F07F4482FA4CF5E5
:100BE00094EA1325A5FA8CF50AD165B951F8043BAE
:100BF00084EA0204B4EB036F0ED150F8042BEBE748
:100C00004FEA132355E035F07F454DD10878FDE8D4
:100C10000445C0F1000070474FEA126203F0FF0381
:100C200047E002EA1C4482FA4CF594EA1345A5FA1F
:100C30008CF50AD165B951F8043B84EA0204B4EB9F
:100C4000034F0CD150F8042BEBE74FEA134330E08D
:100C500015EA1C4528D10B884FEA124229E04FEAD9
:100C6000124203EA1C4324E002F0FF0482FA4CF52E
:100C700094EA1365A5FA8CF50AD165B951F8043BDD
:100C800084EA0204B4EB032F09D150F8042BEBE7FC
:100C90004FEA13630DE015F0FF0F05D10B684FEA23
:100CA000122223F07F4304E04FF00000FDE80445EA
:100CB000704712BA1BBA82FA4CF482EA0304A4FA0F
:100CC0008CF5B5FA85F402FA04F203FA04F34FEA5C
:100CD0001260FDE80445A0EB1360704700000000BF
:100CE0000000000000000000000000000000000004
:100CF00000000000000000000000000000000000F4
:100D000090F800F06DE9024520F007016FF0000C4B
:100D100010F0070491F820F040F049804FF00004F3
:100D20006FF00700D1E9002391F840F000F10800CE
:100D300082FA4CF2A4FA8CF283FA4CF3A2FA8CF306
:100D40004BBBD1E9022382FA4CF200F10800A4FA6D
:100D50008CF283FA4CF3A2FA8CF3E3B9D1E90423C1
:100D600082FA4CF200F10800A4FA8CF283FA4CF3F8
:100D7000A2FA8CF37BB9D1E9062301F1200182FAB2
:100D80004CF200F10800A4FA8CF283FA4CF3A2FAB8
:100D90008CF3002BC6D0002A04BF04301A4612BAC6
:100DA000B2FA82F2FDE8024500EBD2007047D1E9C9
:100DB000002304F00305C4F100004FEAC50514F058
:100DC000040F91F840F00CFA05F562EA05021CBF29
:100DD00063EA050362464FF00004A9E70000000043
:100DE00001F0FF01102A2BDB10F0070F08D010F8DC
:100DF000013B013A8B422DD010F0070F42B3F6D1E0
:100E0000F0B441EA012141EA014122F007047FF0F8
:100E100000070023F0E80256083C85EA010586EA4F
:100E2000010685FA47F5A3FA87F586FA47F6A5FA8B
:100E300087F68EB9EED1F0BC01F0FF0102F0070297
:100E400032B110F8013B013A83EA010313B1F8D142
:100E50000020704701387047002D06BF3546033823
:100E6000073815F0010F07D1013015F4807F02BF5C
:100E7000013015F4C03F0130F0BC0138704700BFAD
:100E80002C2068F06DBA00BF43699B698B422DE945
:100E9000F04F894683B025D10029D0F80080D0E9F1
:100EA00006671BDD15460024DFF858B0DFF858A0B0
:100EB0002346424639463046CDE900B50FF0A0FC46
:100EC000234601340195424639463046CDF800A00C
:100ED0000FF0C6FCA14505F10805E9D1002003B0DB
:100EE000BDE8F08F05480A4605490068C06867F00C
:100EF000F7FF012003B0BDE8F08F00BF0C00002019
:100F000080EA06085CEB060860EB06080D2B70B55E
:100F100016D1436905469B698B420FDD00290DDB25
:100F20006824406A164601FB04F411462044836895
:100F30009847A86A3146204483689847002070BDCE
:100F40000D221946024868F0A5FD012067F0E0FD7A
:100F500068EB0608000000002DE9F04F0D23044661
:100F600089462DED028BABB023620890084618929B
:100F70000FF086FA0122034660610020D96891458E
:100F800018701A72087040F3C386D9688854013209
:100F90009145FAD1DA68012402F809000022042000
:100FA00019698C545968885401329145F8DC002243
:100FB00010465969885401329145FADC09F101065D
:100FC000596903F110020024370101F8094006EBCA
:100FD00086081C9707CA8DE807000FCB0FF0AAFA06
:100FE000089B8246986106EB0610800068F0B8F90D
:100FF000054611902C2006EB4601A14500FB06504A
:10100000C6EBC60306EBC60209904FF0340000FBA6
:1010100006501090A7EB060005EB80000B902846C9
:1010200005EB8605199500EBC605129500EB8105C9
:10103000139500EB0705149500EB8805159500EB5B
:10104000C805179500EBC10500EB011116950A9133
:10105000014600EB83001A9001EB46101B904FEA0B
:10106000820001EB82021D900F924FEAC30201EB56
:10107000C3031E920E934FEA86131F9301EB861350
:101080000C9368DB119B07EE90AA139AA3F1040B53
:10109000199B151F149A043B1A99A2F1040E159A74
:1010A0000693081F109BA2F1040C169A043B1B998F
:1010B000043A059304390F9B20920422A3F10408FB
:1010C0000E9B07911F1F129B043B2193179BDDF87A
:1010D00084A0043BCDF884900D932346DDF8349032
:1010E0000D964646B8462F46209D06994BF8042F8C
:1010F00041F8042F0691059941F8043F0591082114
:1011000046F8043F48F8041F07994AF8043F47F897
:10111000042F4EF8043F4CF8043F45F8043F40F8D4
:10112000043F41F8043F0791099949F8043F41F809
:1011300024300A9941F824300B9941F824300C9955
:1011400041F8243001340D998C42CED117EE90AA8B
:10115000DDF884900E460423119A0025082142F8F8
:10116000363016461C9A199FB5501D9A0F98B550E7
:101170001F9A0E9CB3501E9AB150109A47F82950EE
:1011800042F82950032240F8292044F829101299E6
:101190000A9841F829300523139941F829501799E5
:1011A00041F82930099941F8295001EB890140F8AB
:1011B00029500A910B98149940F82950504641F84B
:1011C0002950159941F82950169941F829201A9962
:1011D0001B9A41F8295001EB890142F829500B91E3
:1011E0000FF0D0FA089904463346744AC8610146A4
:1011F000504609F07DFE3B46714A2146504609F0B3
:1012000077FE109B6F4A2146504609F071FE0E9EF4
:101210000F9B214606EB89066B4A5046099609F05A
:1012200067FEA945C0F2FD84129BCDF81C90A14633
:101230000693DDF854B00C9EDDE91332DDE9167833
:101240001C460592069B2A464946504600930433A5
:1012500006935E4B0AF084F82A465D4B4946504699
:1012600000940AF07DF8059B2A4649460093043312
:10127000504604340593574B0AF072F82A46564BF1
:1012800049465046CDF800B00AF06AF82A46534B5A
:1012900049465046CDF800800AF062F82A46504B85
:1012A0004946504600970AF05BF82A464D4B49469E
:1012B000009650460AF054F80135079B0BF1040BD9
:1012C00008F104080437AB4206F10406BADA0E9BB3
:1012D0004C46DDF81C90002200932146424B5046BC
:1012E0000AF044F9B9F1010F40F3A3840E9E0125E1
:1012F0003D4F04362A46013500963B46214650466E
:101300000AF034F9A94506F10406F3D10A9B2146F7
:101310004A46504600936825344B4FF000080AF0C7
:101320001FF80B9B21464A4650460093304B08EE6F
:10133000904A0AF015F8099B21464A465046009308
:10134000294B44460AF012F9119868F011F805FB90
:1013500009F3284F184608EE103A68F001F8089B88
:10136000254EDFF8ACB09846586201E0D8F824006A
:1013700005FB0400214B01340D214361204BC0E9E2
:101380000937204BC0E9076B83610FF05DF8A14579
:10139000ECDC18EE904A18EE100A4FF0000867F0E7
:1013A000DFFF089B08EE104ADFF868B04446164F8E
:1013B000164E68259846986230E000BFE4EB0608B8
:1013C000E8EB0608ECEB0608F0EB0608F8EB06087D
:1013D000FCEB060800EC060808EC0608DC1D0A0811
:1013E00010EC060814EC0608F4EB06081CEC0608E2
:1013F00020EC0608151F0008191F0008C91D000869
:10140000111F00084D1F000885250008A1250008B0
:101410003D1F0008B9210008D8F8280005FB04008A
:10142000D54B01340D214362D44BC0F814B0836214
:10143000D34B8661C0E907370FF006F8A145EBDC16
:1014400018EE101A50460FF0BBF9089B18EE104A20
:1014500083461860189B002B00F09183189A494628
:101460000898FFF711FD28AB0793B9F1000F40F37F
:10147000A8835A460025CB46DFF82C836827DDF881
:101480002090D9F8241007FB05F6BE482B463144BE
:10149000059200905046019121460FF0CDF9D9F800
:1014A00028102B4601353144059A5046CDE900817C
:1014B00021460FF0C1F9AB45059AE2D10821402041
:1014C000D946934667F0D6FAAF4B05465A462146B1
:1014D000019005935046009300230FF0C1F9284670
:1014E00067F046FFA94B08211D460693084667F0A2
:1014F000C1FA0095054600235A4621460190504600
:101500000FF0AEF9284667F033FF0821402067F05E
:10151000B1FA08210746084667F0ACFAB9F1010FA5
:10152000064618DDD8460125DDF818B005992B468A
:10153000424650460091214601970FF091F92B4603
:101540000135424621465046CDE900B60FF088F9F4
:10155000A945EBD1C3463846B7EE008B67F008FFCC
:10156000304667F005FF08212020DFF8408267F051
:1015700081FA874B0546019000935A460023214685
:10158000504685ED008B85ED128B85ED248B85ED26
:10159000368B0FF065F9284667F0EAFE0821202017
:1015A00067F068FA054601900023CDF800805A469E
:1015B000214680ED088B80ED1A8B80ED2C8B80ED21
:1015C0003E8B50460FF04CF9284667F0D1FE0821BB
:1015D000202067F04FFAB9F1010F074680ED008B2C
:1015E00080ED128B80ED248B80ED368B40F35D8394
:1015F0000125674A2B462E460135009221465A4660
:10160000504601970FF02CF9A945F2D13846012731
:1016100067F0AEFE0821202067F02CFA00225D4B17
:101620000546C0E90823C0E91A23C0E92C23C0E914
:101630003E233B465A4621465046CDE900850FF0F1
:101640000FF9B74207F10107F3D128464FF0000820
:1016500067F08EFE08210127084667F00BFA069B0B
:1016600005465A462146009301904B4650460FF0DE
:10167000F7F8284667F07CFE0821402067F0FAF969
:10168000059B05465A462146009301904B4650461D
:101690000FF0E6F8284667F06BFE0821202067F07F
:1016A000E9F9B7EE007B0546394B01905A460093A5
:1016B00021464B46504685ED007B85ED127B85ED3E
:1016C000247B85ED367B0FF0CBF8284667F050FE83
:1016D00008210C2067F0CEF92F4B054601900093AE
:1016E0005A464B46214650469FED1F7B85ED0E7BAB
:1016F00085ED107B85ED147B85ED167B9FED1C7BC6
:1017000085ED0C7B85ED127B0FF0AAF805F118032F
:101710005A46214601935046204B00934B460FF00A
:101720009FF805F130035A462146019350461C4B61
:1017300000934B460FF094F805F148035A462146B2
:1017400001935046174B00934B460FF089F82846FB
:1017500067F00EFE102067F003FE0222032308212B
:1017600026E000BFAFF300809A9999999999B93F03
:101770000000000000C06240592500085D250008F7
:101780006125000830EC060824EC060828EC060861
:1017900054EC06080000F03F5CEC060860EC06081C
:1017A00064EC060868EC060840EC060858EC0608ED
:1017B0000546C0E90223C0E90087084667F05AF9E8
:1017C000D04B06465A462146019500935046434663
:1017D0000FF05AF8CC4B5A462146019650460093DA
:1017E00043460FF051F8C94B5A462146009306F183
:1017F00020035046019343460FF046F8284667F011
:10180000B7FD304667F0B4FD102067F0A9FD022156
:101810000323019005465A46C0E90213BC4B2146FA
:10182000C0E900870093504643460FF02DF8284644
:1018300067F09EFD102067F093FD03234760064686
:1018400008210220C6F80080C6E90203084667F0B6
:1018500011F9C14500F120030746059326DD4B46EB
:101860004546D946DFF8EC829B46AA4B4A462146BC
:10187000504600932B4601960FF006F8A64B4A46B9
:101880002146009350462B4601970EF0FDFF059B25
:101890004A4621465046CDE900832B4601350EF0DD
:1018A000F3FFAB45E1D15B46CB46994630464FF05E
:1018B000000867F05DFD384667F05AFD102067F0BC
:1018C0004FFD0123032708210546B7EE008BC760B3
:1018D000C0E9008302238360084667F0CBF8894B98
:1018E00006465A4621465046CDE900354B460EF095
:1018F000CBFF854B5A4621465046CDE900364B4634
:101900000EF0C2FF814B5A462146009306F1200398
:10191000504601934B460EF0B7FF284667F028FD6E
:10192000304667F025FD0421384667F0A3F802230E
:1019300005460821C0E90137062067F09BF8774B80
:1019400006465A4621460195009350464B460EF0F6
:101950009BFF734B5A4621460196504600934B46D7
:101960000EF092FF06F118035A46214601935046A5
:101970006C4B00934B460EF087FF284667F0F8FC4F
:10198000304667F0F5FC0821142067F073F8082151
:1019900006460A2067F06EF8634B054601960093F1
:1019A0005A464B462146504685ED008B85ED0A8B05
:1019B00085ED028B85ED0C8B0EF066FF5B4B5A4676
:1019C00021460195504600934B460EF05DFF05F110
:1019D00028035A46214601935046554B00934B46E7
:1019E0000EF052FF304667F0C3FC284667F0C0FC9B
:1019F000214650460FF014F9089D01464D4B4E4AC2
:101A0000286150460FF030F926AB4C4A5046296900
:101A10008DED268B0FF028F9079B494A504629691E
:101A20008DED288B0FF020F90123464A5046296995
:101A3000239323AB0FF018F96423434A50462969D6
:101A4000249324AB0FF010F925AB404A5046296986
:101A5000CDF894800FF008F9214650460EF028FF8B
:101A600021466860064650460EF022FF0821A86015
:101A7000084666F0FFFFC145074600F1200340F32A
:101A80002481454608EE10BADFF8CC80CB46994653
:101A90002B46324621465046CDE900870EF028FFFE
:101AA0002B492B4601350091324621465046CDF850
:101AB00004900EF01DFFAB45EAD1D94621463246CF
:101AC00050464B4618EE10BACDE900870EF010FFD5
:101AD000384667F04DFC089F214650463A6900247D
:101AE0000FF0C8F80821F8600D2066F0C3FF054626
:101AF000214601340D232A463846FFF707FAA1454F
:101B0000F6DA2BE06CEC060874EC060878EC0608B4
:101B10007CEC0608FCEC060804ED060884EC0608DC
:101B20008CEC060890EC0608C81D0A0894EC060820
:101B300098EC06089CEC0608A8EC0608B8EC060829
:101B4000C4EC0608D8EC0608E4EC0608F0EC06083D
:101B5000747D0A0808ED060870EC0608284667F050
:101B600007FC089B32465946D8680FF0F5F8002864
:101B700040F0EE802BB0BDEC028BBDE8F08F28A9C1
:101B8000189D794F794E8846079175A3D3E90023B4
:101B9000CDE928232B465A4621465046CDE9007808
:101BA0000EF02EFE2B4601355A4621465046CDE911
:101BB00000680EF055FEA945ECDCB9F1000F3FF7C7
:101BC00058AC0821402066F055FF694B05465A463F
:101BD0002146019005935046009300230EF040FEED
:101BE000284667F0C5FB634B08211D46069308464F
:101BF00066F040FF0095054600235A4621460190B5
:101C000050460EF02DFE284667F0B2FB082140201A
:101C100066F030FF08210746084666F02BFF0646AF
:101C200099E40E9B2A46214650460093524B09F0F8
:101C30009DFC0A9B4A462146504600934F4B09F0B3
:101C40008FFB0B9B4A462146504600934C4B09F0B4
:101C500087FB099B4A46214650460093464B09F0B4
:101C600085FC119867F084FB682303FB09F3184691
:101C700008EE103A67F074FB089AB9F1010F506250
:101C800055D018EE100A67F06BFB089D2146A8623C
:101C900050460EF095FD189B83462860002B7FF47C
:101CA000DDAB28AB0793FFF7E0BB67F061FB0821D2
:101CB000202066F0DFFE054680ED088B80ED1A8B54
:101CC00080ED2C8B80ED3E8BBFE42E4B21463246BF
:101CD0000190009350464B460EF00AFE384667F0DE
:101CE00047FB2146089C504622690EF0C3FF08219D
:101CF000E0600D2066F0BEFE0546B9F1000F7FF4EE
:101D00002DAF024649460D230898FFF7FFF825E757
:101D1000DA6802F809007FF451A91A69042182F8EF
:101D200000905A6811705A691070FFF747B9164A47
:101D30000D214261154A4262154A8262154AC2610A
:101D4000154A0262154A82610EF07EFBFFF723BB43
:101D5000134867F043FF012066F0DAFEAFF300801E
:101D60007B14AE47E17A943F5CEB060860EB060813
:101D700024EC060828EC0608F4EB06081CEC060820
:101D800020EC060870EC0608C91D0008111F0008A9
:101D9000151F0008191F00083D1F00084D1F0008EF
:101DA0000CED060800220121FFF7D6B8D0E9001299
:101DB000C0680EF0BFBF00BF006870474068704742
:101DC00080697047C06970472DE9F04703F120052D
:101DD000202281460E462846002103F140079A46FC
:101DE00067F0FAFD484B3A4603F1780442A1D1E985
:101DF000000101E0F3E802019C42E2E80201F9D1AE
:101E0000D9F800100AF1C008002969D0434601F151
:101E10002002B1EC027B9142A3EC027BF9D129466E
:101E20000AF1E004A1F120024346083111ED027BE2
:101E300092ED105BB3EC026B2032A5EE067BA34261
:101E400001ED027BF4D1B942ECD1202200214046C1
:101E500067F0C2FD2D4B3A4603F1780C28A1D1E979
:101E6000000101E0F3E802019C45E2E80201F9D13A
:101E7000D9F80410C9B3234601F12002B1EC027B6A
:101E80008A42A3EC027BF9D10AF5807AA8F1C0035B
:101E9000224608F1080818ED027B93ED105BB2ECC6
:101EA000026B2033A5EE067B524508ED027BF4D190
:101EB000A045EBD12B4693ED286BB3EC027B37EEBC
:101EC000067B9F4203ED027BF5D133682BB1F5E829
:101ED0000201AF42E3E80201F9D10020BDE8F0873A
:101EE0002022404667F078FD99E72022204667F0DF
:101EF00073FDC9E7AFF300803201ECA3BE52F03F9F
:101F00008A4C00FBA8AF943F30ED0608B0ED060800
:101F10000320704701207047012805DD0228054B8A
:101F200014BF0020184670470028034BB4BF0020A0
:101F30001846704748EE060828EE06080028024BAF
:101F400014BF00201846704728EE060878B110B478
:101F50000624046009B1022008600AB10021116062
:101F60000BB120221A6000205DF8044B704709B1C4
:101F7000022008600AB1002111600BB120221A6012
:101F8000002070472DE9F04F8BB05D68074601F1E6
:101F90000804159E05F1030E069203F1080A4A682B
:101FA00003EB8E03706806F1080B0332049301EB18
:101FB0008208C11CDDE916C206EB81060296002AE2
:101FC00040F09280002D40F38C804FEA8E035A46F9
:101FD000CDF80CB0A6460C3BCDF814A06FF0404BEA
:101FE000D3180893029B043B0793049B043B09937B
:101FF000A8F104039A46039B1C6853F8042F9442EB
:102000000192039317DA029B04EB0B0201983D4601
:1020100003EB8202149B03EBC401079B03EB8000DC
:1020200052F8043FF1E802670CEBC3039042C3E9A6
:102030000067F5D12F46059B1A461D6852F8043FEC
:102040009D4205922FDA099A05EB0B0602EB8309F4
:10205000069B03EBC505049B03EB860656F8043F7D
:102060000EEB83025EF823105068814217DA01EB11
:102070000B020AEB800007EBC10108EB820252F869
:10208000043F0CEBC3039042B1EC025B95ED006B97
:1020900093ED007BA5EE067B83ED007BEFD1B14590
:1020A00005F10805DAD1019B9C4216DA079B019ADB
:1020B00003EB8201149B04EB0B0203EBC404029BB1
:1020C0000D4603EB820252F8043F0CEBC30395422A
:1020D000D3E90001E4E80201F5D1089B039A934299
:1020E00089D10BB0BDE8F08F0028FADD89006FF0D0
:1020F00040490C390AEB01030193049B043B039311
:10210000029B043B0593DAF800105AF8040F814251
:1021100016DA039B01EB09023D4603EB8000069BA8
:1021200003EBC101049B03EB820252F8043FF1E888
:1021300002670CEBC3039042C3E90067F5D12F4659
:10214000DBF800505BF8043F9D422FDA059A05EB5F
:10215000090602EB830E149B03EBC505029B03EB00
:10216000860656F8043F04EB830154F823204868A0
:10217000824217DA02EB090107EBC00007EBC2024B
:1021800008EB810195ED007B51F8043F0CEBC30394
:10219000B2EC025B93ED006B8242A5EE067B85ED0F
:1021A000007BF1D1B64505F10805DAD1019B534515
:1021B000A9D10BB0BDE8F08F2DE9F04F03F1200558
:1021C000202289B083468946284600211E4603F115
:1021D000400467F001FC264B06F1E00806F5C077E5
:1021E000224603F1780C1EA1D1E9000101E0F3E8D9
:1021F00002016345E2E80201F9D1DBF8001006F1C3
:10220000C00A002900F09181534601F12002B1EC8F
:10221000027B9142A3EC027BF9D12946A1F1200374
:102220005246083111ED027B93ED105BB2EC026B6C
:102230002033A5EE067B904501ED027BF4D18C4264
:10224000ECD120220021504667F0C6FB094B4246E4
:1022500003F1780C04A1D1E900010FE0AFF3008095
:102260003201ECA3BE52F03F8A4C00FBA8AF943F72
:1022700098EE060818EF0608F3E802016345E2E865
:102280000201F9D1DBF8041006F5B073002900F063
:1022900051811A4601F12000B1EC027B8142A2EC8F
:1022A000027BF9D1AAF1C00219460AF1080A1AED17
:1022B000027B92ED385BB1EC026B2032A5EE067B1F
:1022C0008F420AED027BF4D1D045EBD12B4693ED42
:1022D000286BB3EC027B37EE067B9C4203ED027B5E
:1022E000F5D1D9F8002032B12B46F3E802019C4227
:1022F000E2E80201F9D14FF4807200213846DFF89C
:1023000054B267F069FB20220021284667F064FB85
:10231000B7EE007B002306F5207A06AA88490393CE
:102320004046884B02960095CDF804B08DED047BB5
:102330008DED067BFFF726FE574509D006F5E072C6
:102340002B464032F3E802019C4242E92001F8D1D9
:1023500020220021284667F03FFBB7EE007B0023D8
:1023600004AA7749404603930095774BCDE901B61F
:102370008DED067B8DED047BFFF704FE06F5E47220
:102380002B464032F3E802019C4242E92001F8D199
:1023900020220021284667F01FFBB7EE007B0023B8
:1023A00006AA6749404603930095684BCDE901B6FC
:1023B0008DED047B8DED067BFFF7E4FD06F5E872FD
:1023C0002B464032F3E802019C4242E92001F8D159
:1023D00020220021284667F0FFFAB7EE007B002399
:1023E00004AA4046564903930095594BCDE901B6DE
:1023F0008DED067B8DED047BFFF7C4FD06F5EC72D9
:102400002B464032F3E802019C4242E92001F8D118
:1024100020220021284667F0DFFAB7EE007B002378
:1024200006AA4749204603930095464BCDE901B6DD
:102430008DED047B8DED067BFFF7A4FD06F5F072B4
:102440002B464032F3E802019C4242E92001F8D1D8
:1024500020220021284667F0BFFAB7EE007B002358
:1024600004AA3749204603930095374BCDE901B6BE
:102470008DED067B8DED047BFFF784FD06F5F47290
:102480002B464032F3E802019C4242E92001F8D198
:1024900020220021284667F09FFAB7EE007B002338
:1024A00006AA2749204603930095284BCDE901B69B
:1024B0008DED047B8DED067BFFF764FD06F5F8726C
:1024C0002B464032F3E802019C4242E92001F8D158
:1024D00020220021284667F07FFAB7EE007B002318
:1024E000029606F5FC7604AA03932046184B14497D
:1024F000CDF804B000958DED067B8DED047BFFF7E4
:1025000041FD4036F5E80223AC4246E92023F8D1EC
:10251000D9F804302BB1F7E80201BA45E3E802012B
:10252000F9D1002009B0BDE8F08F2022504667F0B5
:1025300053FA72E61846202267F04EFA0346B1E6D7
:10254000C4EF0608B0EF060820F0060834F00608CD
:1025500048F0060890EF06080320704702207047F5
:10256000012805DD0228054B14BF002018467047DE
:102570000028034BB4BF0020184670475CF00608E3
:1025800090EF060828B10128034B14BF002018461D
:1025900070470248704700BFA0F0060890EF060899
:1025A00078B110B40624046009B1042008600AB1AF
:1025B000002111600BB152221A6000205DF8044B1B
:1025C000704709B1042008600AB1002111600BB105
:1025D00052221A600020704790ED007B00B5B4EEE7
:1025E000C07BF1EE10FA14DB30EE470B0A460823ED
:1025F00090ED026B36EE477B80EE076B194492ED4F
:10260000000B91ED007B37EE407BA7EE060B5DF8EB
:1026100004FB00EBC20CD3009CED006BB4EEC06B6E
:10262000F1EE10FA2CDD012A4FEA520334D04FF0BC
:10263000000E00EBC30C9CED007BB4EEC07BF1EE12
:1026400010FAD4BF9E461A46A2EB0E0C0EEB020304
:10265000BCF1010F4FEA5303EBD84FEACE0200EB77
:10266000CE0E02F108030A449EED007B184430EEC2
:10267000470B90ED006B36EE477B80EE076BBDE7B6
:102680001CED027B013A30EE470B01EBC20236EE45
:10269000477B80EE076BB1E70A460823E6E700BFF9
:1026A00090ED007B70B5B4EEC07B049DF1EE10FAA6
:1026B00032DB30EE470B4FF0000E90ED026B36EE42
:1026C000477B80EE076B91ED007BB4EEC17BF1EEB2
:1026D00010FA5BDB31EE471B91ED025B35EE477B79
:1026E00081EE073B754402EBCE0E02EBC5029EED78
:1026F000000B92ED007B9EED024B92ED025B34EEFF
:10270000404B35EE475BA4EE060BA5EE067B37EE9D
:10271000407BA7EE030B70BD1E6800EBC60494ED72
:10272000006BB4EEC06BF1EE10FA6DDD012E4FEAD6
:10273000560C76D94FF0000E00EBCC0494ED007BE4
:10274000B4EEC07BF1EE10FAD4BFE6466646A6EBC7
:102750000E040EEB060C012C4FEA5C0CECD800EBDF
:10276000CE064FEACE0496ED007B0834204430EECE
:10277000470B90ED006B36EE477B80EE076B91EDDB
:10278000007BB4EEC17BF1EE10FAA3DA5C6801EBDA
:10279000C40393ED005BB4EEC15BF1EE10FA27DDEC
:1027A000012C4FEA54033AD9002601EBC30090ED07
:1027B000007BB4EEC17BF1EE10FAD4BF1E461C467E
:1027C000A01B331901284FEA5303EED8F30005FB91
:1027D00006EE01EBC606083396ED007B194431EE98
:1027E000471B91ED005B35EE477B81EE073B79E7B8
:1027F00013ED027B013C31EE471B05FB04EE35EE89
:10280000475B81EE053B6DE714ED027B06F1FF3E71
:1028100030EE470B36EE477B80EE076B53E708231D
:10282000DCE708244FF0000EA0E700BF90ED000B9E
:10283000234A10EE903A2DE9F04103EA020E9A4342
:1028400011D0012400EBC400B0EC027BB4EE407B5D
:10285000F1EE10FA48BFB0EE470B012C4FF0020426
:10286000F2D0BDE8F081C3F3130310EE102A134336
:10287000E7D000F1080C02270024032F4FF00005D9
:10288000CCBF002601264DB901253EB1DCE900236D
:102890003EEA03080BD03C46002DF5D0002CE0D0DA
:1028A00000EBC403022C13ED020BDADCCAE7C3F31E
:1028B000130151EA0203EED001370CF1080CDCE7FA
:1028C0000000F07F90ED007B00B5B4EEC07BF1EE30
:1028D00010FA08DB002000214FF0000EC2E90001D1
:1028E00070465DF804FB00EBC10393ED007BB4EE92
:1028F000C07BF1EE10FA27DD4B084FF0000E00EB25
:10290000C30C9CED007BB4EEC70BF1EE10FA54BF84
:102910009E461946A1EB0E0C0EEB0103BCF1010F14
:102920004FEA5303EBD800EBCE03704693ED006BF8
:1029300093ED027B30EE460B37EE467B80EE076B65
:1029400082ED006B5DF804FBB7EE007B01F1FF3E0A
:10295000704682ED007B5DF804FB00BF154B4FF025
:10296000C90C10B5D0E9002403F5CA600CFB0422A1
:1029700003F5C96C91ED004B03EBC20E91ED023BE8
:102980000CEBC20100EBC2029EED000B91ED007B4F
:102990009EED025B92ED006B35EE405B36EE476BD1
:1029A000A5EE040BA4EE067B37EE407BA7EE030BEF
:1029B00010BD00BF4075070882B03D4A8DED000B89
:1029C000019B9A4327D011EE903A394A9A432CD072
:1029D000384B9DED006B93ED007BB4EE476BF1EE51
:1029E00010FA29D0344B9DED005B93ED006BB4EEF3
:1029F000465BF1EE10FA1FD0B5EE401BF1EE10FA77
:102A000040D19DED007BB5EEC07BF1EE10FA35DDD7
:102A10009FED210B07E0C3F31303009A1343D2D0B9
:102A2000264B93ED000B02B07047C3F3130311EE76
:102A3000102A1343CCD0F3E7B4EE471BF1EE10FAA3
:102A400007D01D4B93ED007BB4EE471BF1EE10FA5F
:102A5000D2D1B7EE006B9DED007BB5EEC07BBFEE33
:102A6000007BF1EE10FAB5EEC01B36FE070BF1EE5F
:102A700010FA36FE071B02B064F0CABF07D49FED00
:102A8000080BD0E79DED000B02B064F0C1BF9FEDD5
:102A9000060BC8E7AFF30080182D4454FB21F93F23
:102AA0000000000000000000182D4454FB21F9BF75
:102AB0000000F07FB80D0020C80D0020D80D0020C8
:102AC0004F4853EC102B984325D011EE901A4C48E8
:102AD000884328D04B4943EC172BB0EEC70B91ED40
:102AE000007BB4EE471BF1EE10FA23D1B7EE006B7A
:102AF000B4EE460BF1EE10FA3AD0B4EEC60B9FEDF1
:102B00003E0BF1EE10FAB5EEC01B35DDF1EE10FA1A
:102B100037FE000B7047C3F313011143D5D03A4B76
:102B200093ED000B7047C1F3130111EE100A01433E
:102B3000D0D0F4E7354991ED006BB4EE461BF1EED1
:102B400010FAD3D0B5EE401BF1EE10FA11D0B0EE72
:102B5000C17BB7EE006BB4EE467BF1EE10FA10D1FC
:102B6000B5EEC01BF1EE10FA32DD43EC102B7047CE
:102B70007047B7EE000B7047F1EE10FA30FE070B0E
:102B80007047B0EE007BB4EE471BF1EE10FA04D1B3
:102B900043EC172B27EE070B7047B6EE007BB4EE25
:102BA000471B43EC172BF1EE10FAB5EEC07B14D1A6
:102BB000F1EE10FA04DAB2D443EC102B64F08CBAC4
:102BC000B5EE407BF1EE10FA11D4B1EEC70B7047B1
:102BD00043EC172B86EE070B7047F1EE10FAEBD59E
:102BE000BBFE417BB4EEC17BF1EE10FAE3E743ECB0
:102BF000102B64F011BF00BF0000000000000000B7
:102C00000000F07FB80D0020D80D0020C80D002076
:102C10002DE9F04FDFF8E0839FEDE35B98ED067B55
:102C20002DED108BADF63C1DB4EEC57B98ED0E6B13
:102C30008DED0E7B9FEDDE7BF1EE10FA26EE077B2D
:102C400098ED04DB8DED187B43F2B782B4EEC5DB63
:102C5000F1EE10FA02F1EF8043F3D687B7EE005B96
:102C6000DF492022B0EE4D0B01F58470FFF7B4FC74
:102C7000DB49B0EEC09B2022B1EE4D0B01F5847014
:102C8000FFF7AAFCB6EE007BB0EEC00B29EE059B69
:102C900020EE058B9DED0E6BB4EEC76BF1EE10FAD6
:102CA00043F31E87B0EE490B64F0EAFDB0EE40BB83
:102CB0008DED500BB0EE490B64F06AFEB0EE4B7B2D
:102CC00098ED08AB9DED0EBB9FEDBBFB20EE0A6BB4
:102CD00098ED18CB8DED520BA7EE0B6BB0EE480BB9
:102CE000B0EE467B9CEE0F7B87EE067B8DED127B74
:102CF00064F0C6FDB0EE40EB8DED560BB0EE480B28
:102D000064F046FE2AEE007BBEEE006BB0EE4B4B4D
:102D1000AEEE0B7B9DED125B98ED1ABB98ED1CEBB4
:102D2000B4EEC65BB0EE475BF1EE10FA9BEE0F5BC4
:102D3000ACBF4FF001094FF0000998ED1EAB8DEDCF
:102D4000580B85EE077BB0EE445B9EEE0F5B85EE85
:102D5000045BB4EEC67B8DED1A7BB0EE447BF1EEE6
:102D600010FA9AEE0F7BACBF4FF0010B4FF0000B47
:102D700087EE047BB4EEC65B8DED0C5BF1EE10FAD2
:102D8000ACBF4FF0010A4FF0000AB4EEC67B8DEDE8
:102D9000147BF1EE10FAACBF012500259149B0EE8D
:102DA0004D0B2022904CA1F58470BCAFFFF714FCB2
:102DB0000DF580636822E8A904F5D8709DED127BBB
:102DC0008DED160B8DEDE80B8DEDEA7B9DED1A7BFD
:102DD0008DEDEC7B9DED0C7B8DEDEE7B9DED147B05
:102DE0008DEDF07B94EDB87B8DEDF27B94EDBA7BAD
:102DF0008DEDF47B94EDBC7B8DEDF67B94EDBE7B8D
:102E00008DEDF87B98ED0C7B8DEDFA7B98ED0A7BD0
:102E10008DEDFC7B9FED6A7B8DEDFE7BB7EE007B3D
:102E200083ED007BFDF74AFDE8A9682204F50670F2
:102E3000FDF744FD6D49022201F1180094EDD87BA5
:102E40009FED590B8DEDA47B94EDDA7B8DEDA67B88
:102E500094EDDC7B8DEDA87B94EDDE7B8DEDAA7B84
:102E6000FFF7BAFBB0EE40DB9FED577B94EDA02B54
:102E70008DED8C0B8DED8E0B37EE422B9FED547B41
:102E8000B5EEC02B2CEE077BF1EE10FA8DED900B1A
:102E9000B5EEC07B94BF01230023F1EE10FA5493EA
:102EA0008DED920B87ED000B87ED020B87ED040B88
:102EB00087ED060B8DED267B03D89FED3B7B8DEDDB
:102EC000267B9DED267B8DEDC47B9FED417B2BEE1C
:102ED000077BB5EEC07B8DED287BF1EE10FA03D8B1
:102EE0009FED317B8DED287B9DED287B8DEDC67BA5
:102EF0009FED377B2EEE077BB5EEC07B8DED247BFF
:102F0000F1EE10FA03D89FED287B8DED247B9DED2B
:102F1000247B8DEDC87B9FED2E7B2AEE077BB5EEE3
:102F2000C07B8DED227BF1EE10FA03D89FED1E7B66
:102F30008DED227B9DED227B70AA2D212C489FEDEB
:102F4000260B8DEDCA7BFFF7BDFCC8217590294883
:102F50009DED707B9DEDC40B8DED7A7BFFF7B2FC90
:102F600078A9749074A8DDE97023CDE97823FFF780
:102F7000F5FC70AAC8211F488DEDC40B9DEDC60B52
:102F8000FFF7A0FC78A9749074A8DDE97023CDE95F
:102F90007823FFF7E3FC70AAC82116488DEDC60B15
:102FA0009DEDC80B2AE000BF0000000000000000FB
:102FB000399D52A246DF913F14AE47E17A14CE3FCD
:102FC0009A9999999999E93F83C8C96D305FB43F3F
:102FD0001C1DD8CE4B1D60400000000000E080406A
:102FE000D0DC0908E0DE0908D8090020E8DF09087C
:102FF000789C080830960808E80D0020FFF762FC6E
:1030000078A9749074A8DDE97023CDE97823FFF7DF
:10301000A5FC70AAC821E6488DEDC80B9DEDCA0B32
:10302000FFF750FC78A9749074A8DDE97023CDE90E
:103030007823FFF793FC94F8C8339FEDC97B9DED8F
:10304000C4BB9DEDC6AB9DEDC86B20EE075B2BEEC0
:10305000074B2AEE073B26EE077B8DED425B8DED9D
:103060003C4B8DED3E3B8DED407B3BB184EDC04B49
:1030700084EDC23B84EDC47B84EDC65BB5EEC02B12
:10308000F1EE10FA42F21C8694F9C433002B42F0A0
:10309000178694EDC07B8DED307B94EDC27B8DED7A
:1030A000327B94EDC47B8DED347B94EDC67B8DED4E
:1030B000367BB3EE055B9DED307BB4EEC57BF1EE68
:1030C00010FA08DCB5EEC07B9FEDA75BF1EE10FABD
:1030D00058BFB0EE475B9DED8C7B97ED006B87FE94
:1030E000466B9FEDA37B86FE476B86FE457BB5EE68
:1030F000C07B8DED1E7BF1EE10FA03D89FED9A7B1D
:103100008DED1E7B9DED1E7BB3EE055B8DED8C7B07
:103110009DED327BB4EEC57BF1EE10FA08DCB5EE26
:10312000C07B9FED915BF1EE10FA58BFB0EE475BAC
:103130009DED8E7B97ED026B87FE466B9FED8C7B42
:1031400086FE476B86FE457BB5EEC07B8DED207B12
:10315000F1EE10FA03D89FED847B8DED207B9DED81
:10316000207BB3EE055B8DED8E7B9DED347BB4EE65
:10317000C57BF1EE10FA08DCB5EEC07B9FED7A5B03
:10318000F1EE10FA58BFB0EE475B97ED046B9DED82
:10319000907B87FE467B9FED766B87FE466B86FEB7
:1031A000457BB5EEC07B8DED107BF1EE10FA03D8B8
:1031B0009FED6D7B8DED107B9DED107BB3EE055B80
:1031C0008DED907B9DED367BB4EEC57BF1EE10FA74
:1031D00008DCB5EEC07B9FED645BF1EE10FA58BFE2
:1031E000B0EE475B97ED066B9DED927B87FE467BCD
:1031F0009FED5F6B87FE467B87FE457BB5EEC07B10
:103200008DED1C7BF1EE10FA03D89FED577B8DED11
:103210001C7B9FED596B98ED0C2B9FED593BB0EE4D
:10322000464BA2EE036BA2EE434B9DED0E0B9DEDC4
:103230001C7B9FED555B20EE00AB8DED927B9FEDEF
:10324000547BAAEE054BAAEE056BB0EE475BA2EEEF
:10325000037BA2EE435B9FED501B9FED513B98ED2E
:103260000A2BAAEE017BAAEE015BAAEE434BAAEE63
:10327000037BAAEE436BAAEE035B9FED4B3BA2EEF2
:10328000037BA2EE434BA2EE436BA2EE035BB0EED8
:1032900044CB8DED2A7B8DEDCA7BB0EE087BB0EE82
:1032A00046EBB0EE45FBB4EEC70B8DEDC44BF1EE33
:1032B00010FA8DEDC66B8DEDC85B03F3B0809FED0A
:1032C0002ABB9DED187BB0EE4B2BB1EE477BB0EEE9
:1032D0004B8BB0EE4B9B87ED00BB87ED02BB87EDC0
:1032E00004BB87ED06BB8DED2C7B1E263149B0EE6D
:1032F000491B314BA1F1F000304AB0EE4C0B009667
:10330000FFF7CEF92B49B0EE481B2B4BA1F1F00093
:103310002A4A00968DED440BB0EE4E0BFFF7C0F934
:103320002449B0EE421B244BA1F1F000234A009641
:103330008DED380BB0EE4F0BFFF7B2F91D49B0EE33
:103340004B1B1D4B1D4AA1F1F00000968DED3A0B71
:103350009DED2A0BFFF7A4F998ED027B30E000BF4A
:103360006FA301BC0512843F0000000000000000B4
:1033700046B6F3FDD4F834402FDD240681DD8340CA
:10338000753A9D4EA7D33E403A6A721E3B95ED3F7B
:103390009FEFA7C64B858540E5EFF11CA4BAE73F38
:1033A000C3A056DB5728CC3F969696969696394002
:1033B0003096080828FD0908401A0A0818E009088C
:1033C0009FEDD76B9DED443B27EE066BB7EE007B80
:1033D000B4EEC76B8DED2E6BF1EE10FA42F313864F
:1033E00001238DED2E7B9FEDD07B4C93B3EE046BD0
:1033F0009FEDCF4B23EE044B24EE064BB5EEC04BB6
:10340000F1EE10FA01D89FEDC84B9DED386B9FEDA2
:10341000C85B9DED1E3B26EE055BB3EE056B83FEA0
:10342000466B86FE446B26EE076B8DEDAC6BB3EE00
:10343000046B25EE065BB5EEC05BF1EE10FA01D829
:103440009FEDB95B9DED3A6B9FEDB94B9DED203B38
:1034500026EE044BB3EE056B83FE466B86FE456B92
:1034600026EE076B8DEDAE6BB3EE046B24EE064BD0
:10347000B5EEC04BF1EE10FA01D89FEDAB4BB3EEB9
:10348000056B9DED103B9FEDAA5B83FE466B86FEB0
:10349000446B26EE076B20EE055B8DEDB06BB3EE53
:1034A000046B25EE065BB5EEC05BF1EE10FA01D8B9
:1034B0009FED9D5B9DED1C4BB3EE056BA64A1E2652
:1034C000B0EE491BA2F1F001A44B84FE466B86FED0
:1034D000456B26EE077BA1F1F0000096B0EE4C0B99
:1034E0008DEDB27BFFF7DCF89B4AB0EE481B9B4B9F
:1034F000A2F1F001B0EE408B0096B0EE4E0BA1F1C0
:10350000F0008DEDC48BFFF7CBF8934AB0EE409BF3
:10351000924BA2F1F001B0EE421BB0EE4F0B0096C1
:10352000A1F1F0008DEDC69BFFF7BAF88A4AB0EE24
:10353000402B8A4BA2F1F001B0EE4B1B0096A1F19B
:10354000F0009DED2A0B8DEDC82BFFF7A9F8B3EE27
:10355000044B70AA2D2182489DED267B9FED763B82
:1035600094EDA41B8DED8C7B9DED287B33EE411BF0
:103570008DED8E7B9DED247BB5EEC01B8DED907B9C
:103580009DED227BF1EE10FA8DED927B9FED687B35
:1035900094BF0123002328EE075B559329EE076BA8
:1035A00022EE072B20EE077B26EE046B27EE047B32
:1035B00025EE045B22EE042B9FED610B87ED00DB13
:1035C00087ED02DB87ED04DB87ED06DB8DEDB66B67
:1035D0008DEDB45B8DEDBA7B8DEDC4DB8DEDC6DB7F
:1035E0008DEDC8DB8DEDCADB8DEDB82BFFF76AF9E9
:1035F000C82177905B489DED707B9DED8C0B8DED28
:103600007E7BFFF75FF97CA9769076A8DDE97023D1
:10361000CDE97C23FFF7A2F970AAC82151488DEDAE
:103620008C0B9DED8E0BFFF74DF97CA9769076A85B
:10363000DDE97023CDE97C23FFF790F970AAC8215A
:1036400048488DED8E0B9DED900BFFF73BF97CA963
:10365000769076A8DDE97023CDE97C23FFF77EF92B
:1036600070AAC8213F488DED900B9DED920BFFF79E
:1036700029F97CA9769076A8DDE97023CDE97C2331
:10368000FFF76CF994F8C9339FED2F7B9DED8E6B9E
:103690009DED8C5B20EE074B26EE073B25EE075B8E
:1036A0009DED906B8DED4A4B8DED445B26EE077BD7
:1036B0008DED463B8DED487B3BB184EDC85B84EDE1
:1036C000CA3B84EDCC7B84EDCE4BB5EEC01BF1EE56
:1036D00010FA42F20F8394F9C533002B42F00A83AB
:1036E00094EDC87B8DED647B94EDCA7B8DED667B9C
:1036F00094EDCC7B8DED687B94EDCE7B8DED6A7B7C
:103700009DED126B9FED127B0022174BB4EEC76B41
:10371000CDE98C23F1EE10FACDE98E2326E000BF2F
:103720002449922449920C4000000000000000004F
:103730009A8317563FD3913F83C8C96D305FB43F1A
:103740000000000000E080406FA301BC0512843F30
:10375000333333333333E3BF18FE0908401A0A0802
:10376000789C0808309608080000354098BF09F199
:103770000209CDE99023CDE9922394F8D533DC4AB0
:1037800003EB4903DFF870939FEDC97B9DED1A5B56
:103790004B44B4EEC75B9A5C5C92D64AF1EE10FAE9
:1037A0009B5C98BF0BF1020BD14A06EE103A94F8DD
:1037B000D63303EB4B03B8EE466B9FEDBD7B9DED1F
:1037C0000C5B4B44B4EEC75B9A5C5D92C94AF1EE68
:1037D00010FA9B5C98BF0AF1020AC54A0EEE103A35
:1037E00094F8D73303EB4A03B8EE4EEB9FEDB07B72
:1037F0009DED145B4B44B4EEC75B9A5CB3EE057B66
:103800005E92BC4AF1EE10FA26EE076B9B5C98BF05
:1038100002350FEE103A94F8D8332EEE07EB03EB97
:103820004505B44B4D44B8EE4FFBEB5C2FEE07FB68
:103830000CEE103AAE4BB8EE4CCBEB5C5F932CEE3B
:1038400007CB637A9DED167B8DED106B87ED006BDA
:10385000B0EEC7BB87ED02EB87ED04FB87ED06CB2F
:103860000BB100236372E66A3368012B02F0B68164
:1038700006F11000B7EE008B0123002183460DF501
:10388000B565C022336033718A469FED8B9B86ED10
:10389000348B86ED029B86ED369B66F09DF8C02248
:1038A00059462846FDF70AF8B0EE49DB3BEE097BA6
:1038B00005EBCA034FEACA0A93ED005B37EE055BDE
:1038C000B3EE086B05EB0A0383ED00BBB4EE468B49
:1038D000F1EE10FA02F05282B5EE40DBB7EE006B6B
:1038E000F1EE10FA38EE068B42F05E82B3EE096B11
:1038F00085EE069B29465846C02286ED027BFCF7E2
:10390000DDFFB5EEC0DB86ED348BF1EE10FA42F34D
:103910004584B7EE007B3DEE47DB9FED697B86ED8E
:1039200036DBB4EEC7BB9FED687BF1EE10FAB4EE68
:10393000C79BACBF02230023F1EE10FA03D594F825
:10394000D02302B1013394F8D92309EB4303134484
:10395000674A9B5C6E93002B02F07982B0EE087B85
:103960009DED0E6BB4EEC76BF1EE10FAC2F26F82F2
:103970009DED107B9DEDAC3B8DED70EB8DED8C7B6B
:10398000B4EEC37B8DED8EEBF1EE10FA8DED90FB76
:103990008DED92CB05DD33EE4E7B8DED107B8DED05
:1039A0008C7B9DEDAE5BB4EEC5EBF1EE10FA42F30D
:1039B000D88535EE4E2B8DED8E2B9DEDB04BB4EEB4
:1039C000C4FBF1EE10FA03DD34EE4EFB8DED90FBFF
:1039D0009DEDB27BB4EEC7CBF1EE10FA02F3CB85CE
:1039E00001234E9333EE058B002301256F9338EEB0
:1039F000048B98ED006B38EE078BB7EE009B9DEDC6
:103A0000101B39EE460B84EDA81B86EE000BBFEEB3
:103A1000081B84EDB25B84EDB44B84EDB67B84ED82
:103A2000AA2B84EDACFB84EDAECB84EDB03BFFF76D
:103A300047F830EE090B4C9A89EE005B9DED2E7B2A
:103A400098ED006B94EDA84B35EE475B9FED207B26
:103A5000B4EEC76BF1EE10FAACBF012300235A405D
:103A600007EE102AB8EEC77B25EE077B9FED1A5BA9
:103A700027EE057BB4EEC87BF1EE10FA42F3D2815B
:103A800094EDAC2B9FED167B28EE077B8DED387BFC
:103A90009FED157B28EE077B8DED3A7B9FED0C7B30
:103AA000B4EEC76BF1EE10FA42F1F88026E000BFE9
:103AB000333333333333E3BF000000000000000032
:103AC000399D52A246DF913F399D52A246DF713F98
:103AD0009A9999999999A93F0000000000005540D2
:103AE000666666666666EE3FCDCCCCCCCCCCF03F4D
:103AF000102903001829030040F106089DED2E6BE4
:103B0000B4EEC76BF1EE10FA42F1C88094F8DA33E4
:103B10009FEDB77B8DED2A7B002B02F0CC8000233C
:103B2000002284F8DA33F84BF849B0EE4B0BB6EECE
:103B3000009BA1F548709FEDB06B9DED567B9DED10
:103B4000581B9DED0E8B27EE063BB0EE48CB9DED4E
:103B5000507BCDE970236423ED4A26EE475B00934A
:103B6000EC4B9FEDA77BA1EE073B9DED521BA1EE19
:103B7000075B94EDB27B8DED4C3B23EE077B8DED27
:103B80002E5BA5EE047B94EDB64BA2EE467BB0EE29
:103B9000082BB4EEC28BA4EE067BF1EE10FA88BFC0
:103BA000B0EE482BB0EE421B8DED107BFEF778FD9A
:103BB00080EE026B9DED1A7B9DED16EB9DED185B83
:103BC0008DED8E7B9DED0C7B8DED907B9DED147BC3
:103BD0008DED927B8EEE0B7B98ED08BBB0EE4BDB50
:103BE00026EE077B9FED886B8DED207B9DED127B94
:103BF000A5EE06DB8DED8C7B9FED857B25EE077BAF
:103C0000A7EE49CBA7EE098B8DEE0C0B63F030FDD0
:103C1000B0EE407B8DEE080B37EE4EDB8DED28DBF2
:103C200063F026FD30EE4E7B9DED2C6B8DED1C7B05
:103C30009FED797BA6EE07BB8BEE0C0B63F018FDB6
:103C4000B0EE407B8BEE080B8DED227B63F010FD18
:103C50009FED737B9FED746B9FED754B2AEE077B99
:103C60009FED755B8DED240B27EE097BB0EE45CB08
:103C700098ED0C0B87EE068BA0EE045BA0EE44CB18
:103C80009FED6F6B9FED702B9FED711B2AEE066B06
:103C90009FED717B98ED0A3B26EE096BB0EE4D9BD4
:103CA000A6EE025BA6EE02CBB0EE472BA0EE047BA5
:103CB000A8EE415BA0EE442BA8EE41CB9FED684BF4
:103CC000A3EE445BA3EE44CBB0EE45BB9FED665B39
:103CD000A6EE057BA6EE052BA8EE017BA8EE012B38
:103CE0009FED638BA3EE047BA3EE042B8DED147B81
:103CF0009FED617B9CEE079B9FED617B8DED0C2B17
:103D000039EE079B9FED607BB5EEC09BADEE078B58
:103D1000F1EE10FA02F1B78242F36484B7EE00AB21
:103D2000B7EE00FB9FED5A6B9FED5B7B9FED5C0B4D
:103D3000A8EE08FBACEE067B2CEE000BB0EE47DBEA
:103D40008DED1E7B63F094FC30EE000B63F020FEE3
:103D5000B5EE40FB9FED546B9FED557B9FED565BA1
:103D60002CEE066BF1EE10FA26EE076B9FED547BFE
:103D7000A6EE0D5B20EE077B9FED536B27EE097BD4
:103D800087EE05DB9FED527BACEE067B8DED1A7B5B
:103D900003F1FB81B1EECF5BB7EE00EBB0EE4D0B64
:103DA0009FED4D7B9FED4E9B9FED4F8BAAEE07EB5A
:103DB0002CEE099B9FED4E7B9FED4FAB8DED525B43
:103DC000ACEE078B9FED4E7B39EE077B28EE4E8BDA
:103DD00027EE0A7B87EE056B8DED506B63F048FC98
:103DE00030EE4D0BA8EE00DB96E000BFAFF3008095
:103DF000000000000000008052B81E85EB51E43F37
:103E00007B14AE47E17AE83F38D6C56D3480E73F92
:103E100052B81E85EB51F43FBE5296218E75E93F94
:103E2000CD5D4BC807BDF03F7B14AE47E17AF83F4C
:103E3000753A9D4EA7D33E402FDD240681DD834099
:103E4000560E2DB29D2F0940C2C1C1C1C1C1E13F73
:103E50003BDF4F8D976EE23F9FEFA7C64B858540B6
:103E600096969696969639407D7C7C7C7C7CDC3F51
:103E7000FCA9F1D24D62E0BFE43C73414320B33E64
:103E8000F94ECC7A3194633FCDCCCCCCCCCC28400D
:103E9000AE6708C72C7B323F295C8FC2F52800C073
:103EA000DCA0F65B3B51423F713D0AD7A370F53F62
:103EB0009A9999999999E93F7B14AE47E17A84BF21
:103EC0000000000080D8E04094F6065F984C553F13
:103ED000A4703D0AD7A302C0A4703D0AD7A3D03F67
:103EE0008C8F0AF46DE7993E79E9263108ACE0BF82
:103EF000990A968F49EB043FCDCCCCCCCCCC2B404F
:103F0000745E6397A8DE2A3F008041C088D9090803
:103F1000E89D0808381A0A089FEDF38B2CEE088BF1
:103F2000B0EE4D0B63F0A4FB9FEDF17B20EE070B91
:103F300063F02EFD20EE080B9FEDEF6B9FEDF07B05
:103F40009DED1E5BACEE067B28EE077BB0EE476B6B
:103F50009FEDED7BA0EE056B9DED525B8DED266B2D
:103F60009DED126B39EE46EB3EEE07EB2EEE0AEBC3
:103F70008EEE050B63F07CFBB5EE40FBB0EE40DB54
:103F8000F1EE10FA03F10D81B1EECF7B8EEE076BEF
:103F90009DED1A7B30EE46DB2DEE07DB36EE0D0B8A
:103FA00063F066FB9FEDDA9B20EE090B63F068FC83
:103FB0009DED267B9DED50DB27EE00ABB0EE4D0B6B
:103FC00063F056FBB0EE4D7B30EE4D0B9DED1A6B62
:103FD000A0EE067BB0EE470B63F04AFB20EE090B28
:103FE00063F04EFC8AEE009B9DED127B9FEDCA0BA9
:103FF00027EE000B63F03CFB9FEDC97B20EE070B27
:1040000063F0C6FC28EE000B9FEDC75B9FEDC86B0D
:104010009DED1E7BACEE056B20EE070B9DED287B26
:1040200020EE068B27EE077BB7EE000B9FEDC26BF1
:10403000A7EE060BB5EE400BF1EE10FA03F1D380BC
:10404000B1EEC07B88EE076B39EE467B9DED1C6BB5
:104050008DED267B9FEDBA7BB0EE46AB9FEDBA9B14
:104060009BEE07AB9FEDBA7B3AEE07AB9FEDBA7BB9
:10407000B5EEC0ABA6EE079BF1EE10FA02F1FF80A1
:1040800042F3E382B7EE008B9FEDB50B9FEDB67B5D
:104090009FEDB7EB2BEE000BABEE07EB63F0E8FA0E
:1040A00030EE000B63F074FC9FED916B9FED8E7B07
:1040B0009FEDB15B2BEE066B9FEDB3FB26EE076B1E
:1040C0009FEDAF7BA6EE0E5B20EE070BB7EE007BFD
:1040D0009FEDAF6BA9EE097B20EE0A0BABEE06FB62
:1040E000B5EE407B80EE05ABF1EE10FA02F17F8772
:1040F000B1EEC75BB7EE004BB0EE4A0B9FEDA89B4D
:104100009FEDB96B9FED80CB2BEE099BA8EE064B84
:104110009FEDB96B9FEDB28B8DED1E7B9FEDBE7B4E
:10412000ABEE068B39EE0C6B8DED1A5B26EE076B52
:104130008DED124B86EE05DB63F09AFA30EE4A0BFA
:104140009DED124B28EE444B9FED678BA4EE00AB28
:104150002BEE088BB0EE4A0B63F08AFA9FED646B8E
:1041600020EE060B63F014FC20EE080B9FED624B73
:104170009FED636B9DED8EAB9FEDA77BABEE046B6C
:104180009DED1A5B28EE066BA0EE0E6B8DED126BAB
:1041900039EE4A6B36EE0C6B26EE074B84EE050BC0
:1041A0008DED1A4B63F064FA9DED1E7B9DED1A4B6D
:1041B000B5EE407BF1EE10FA02F12587B1EEC73B78
:1041C00084EE035B30EE457B27EE0F7B35EE070B6D
:1041D00063F04EFA9FED4E9B20EE090B63F050FB0F
:1041E0009DED127B27EE00CBB0EE4D0B63F040FA55
:1041F00030EE4D0BA0EE0FDBB0EE4D0B63F038FA56
:1042000020EE090B63F03CFB8CEE009B9FED420B14
:104210002AEE000B63F02CFA9FED417B20EE070B9A
:1042200063F0B6FB28EE000B9FED3F5B9FED406B0C
:1042300020EE0EEBABEE056BB7EE000B9DED1C7B9D
:1042400027EE077B2EEE06EB9FED3B6BA7EE060BF2
:10425000B5EE400BF1EE10FA02F10787B1EEC07B2C
:104260008EEE076B9FED363B9DED0C4B9DED241BB9
:104270009FED395B9FED36EBB0EE412B39EE467B7F
:104280009FED316B8DED287B9DED227BB0EE47AB32
:1042900094EE03AB9DED144B94EE032BB0EE464B26
:1042A000A1EE056B3AEE0EABA7EE054BB5EEC0AB3B
:1042B00032EE0EEBB0EE463BF1EE10FA01F1D9878B
:1042C00042F3B881B7EE007B8DED587BB5EEC0EBC5
:1042D000F1EE10FA01F1C78742F37881B7EE007B67
:1042E0008DED6C7BA4E000BF9A9999999999E93F6B
:1042F000713D0AD7A370F53F89D349B6BA9C123FE6
:10430000DF4F8D976E12C3BF745E6397A8DE2A3F9E
:104310000E2DB29DEFA7EE3F9A99999999193040C9
:104320000AD7A3703D0AFF3F0CD58338C599E53EF7
:104330003FABCC94D6DF32BF0000000000206C40C1
:10434000E43C73414320B33EFCA9F1D24D62E0BF8F
:10435000F94ECC7A3194633FCDCCCCCCCCCC284038
:10436000DCA0F65B3B51423FAE6708C72C7B323F77
:10437000295C8FC2F52800C07B14AE47E17A84BF68
:104380000000000080D8E040A4703D0AD7A302C01E
:1043900094F6065F984C553F7B14AE47E17AB43FE4
:1043A0008C8F0AF46DE7993E0000000000806640A3
:1043B00038D6C56D3480E73F9A999999991930405C
:1043C0000AD7A3703D0AFF3F0CD58338C599E53E57
:1043D0003FABCC94D6DF32BF0000000000206C4021
:1043E00079E9263108ACE0BFA4703D0AD7A3D03FDD
:1043F000745E6397A8DE2A3F990A968F49EB043FC3
:104400009A9999999999E93F713D0AD7A370F53F17
:10441000DF4F8D976E12C3BFCDCCCCCCCCCC2B4014
:1044200089D349B6BA9C123F0E2DB29DEFA7EE3F3D
:104430009DED186B9DED207B9DED0CFB1FED38DB9A
:1044400037EE467B2FEE0D0B8DED1A4B8DED1E3B9F
:104450008DED187B63F00CF930EE000B63F098FAE9
:10446000B0EE4F5BB0EE407B9DED143B1FED42CBB9
:104470001FED1B8B1FED42BB1FED1F9B2FEE086B2B
:10448000B0EE4BFBA3EE0CBBA5EE0CFB26EE096BCE
:1044900023EE0D0BB0EE43DB1FED49CB8DED12BBD0
:1044A0001FED49BBB0EE4C3B2DEE088B27EE0B7B8E
:1044B000A6EE0F3B27EE0A7B28EE099B87EE03ABA7
:1044C00063F0D6F830EE000B63F062FAB7EE007BD3
:1044D000B0EE4D3B20EE0B0B9DED1A4B1FED566BD6
:1044E0001FED555BA4EE047BB0EE462BA3EE056BEF
:1044F00020EE0E0BB5EE407B9DED12BB9DED0C4BFF
:10450000F1EE10FAA9EE0BCBA4EE052B9DED1E3BB0
:1045100080EE0CDB8DED1A2B8DED1C6B02F1AB8563
:10452000B1EEC75BB7EE00CB1FED636B9DED0C4B9F
:10453000A3EE03CB24EE064B1FED536B8DED504BDA
:1045400034EE066BB5EE40CB1FED4D4BF1EE10FA9D
:1045500026EE046B86EE05BB02F19D85B1EECC6BB9
:104560008DED1E6B1FED746B8DED607B9DED187BEB
:104570008DED625B1FED585B87EE064BB7EE009B3F
:104580001FED796B9DED147B9DED160B1FED6C8B74
:1045900027EE067B1FED7C6B8DED527B24EE066BC8
:1045A0009DED1E4B8DED566B1FED6F6B37EE066B61
:1045B00026EE056B86EE04EB63F062F99DED584B39
:1045C0001FED776B9DED0C7B9DED283BA4EE069BCC
:1045D0001FED776B9DED264BA7EE068B34EE036B3C
:1045E00026EE000B28EE498B1FED8F6B20EE064B5D
:1045F000B0EE4A0B8DED584B63F03AF830EE4A0BB3
:10460000A8EE00AB1FED828BB0EE4A0B63F030F8E2
:104610001FED836B1FED82AB20EE060B63F0B8F944
:104620009DED0C7B1FED826B9DED504B27EE088BB3
:10463000A7EE06AB20EE080B9DED909B1FED947B43
:1046400028EE0AAB34EE496B1FED8D5BA0EE0FAB8D
:1046500036EE076B8DED5AAB26EE05AB9DED625B3A
:104660008AEE050B63F004F89DED607BB5EE407BB0
:10467000F1EE10FA02F11F85B1EEC75B9DED1A6BEA
:104680008AEE053B30EE437B27EE067B33EE070BCD
:1046900062F0EEFF1FED9C6B20EE060B8DED506B74
:1046A00063F0EEF89DED5A7B27EE00ABB0EE4B0BBE
:1046B00062F0DEFF30EE4B0B9DED1A7BA0EE07BBE8
:1046C000B0EE4B0B62F0D4FF9DED506B20EE060B6D
:1046D00063F0D6F88AEE00BB1FEDC90B29EE000B84
:1046E00062F0C6FF1FEDCA7B20EE070B63F050F9A6
:1046F00028EE000B1FEDCC5B1FEDCB6B9DED0C4B43
:1047000020EE0FFBA4EE056BB7EE000B9DED227BB8
:1047100027EE077B2FEE06FB1FEDD16BA7EE060BF6
:10472000B5EE400BF1EE10FA02F1F584B1EEC07B6C
:104730008FEE076BB7EE009BB0EE4D0B9DED14AB0B
:104740001FEDD98B3BEE467B9DED6C6B8DED0C7BAD
:104750001FEDDB7B1FEDDABBA6EE079B1FEDDA7BBF
:10476000AAEE078B62F084FF30EE4D0B28EE498BEA
:10477000A8EE00DB1FEDDE8B2AEE088BB0EE4D0BB2
:1047800062F076FF1FEDE07B20EE070B63F000F98F
:1047900020EE080B1FEDDE6B1FEDE37B9DED929B82
:1047A000AAEE067B1FEDE4AB28EE07DB9DED127B46
:1047B000A0EE07DB9DED527B37EE497B37EE0B7B9E
:1047C00027EE0AFB9DED1E7B8FEE070B62F050FF7C
:1047D000B5EE40CBF1EE10FA02F1A384B1EECC6B52
:1047E0009DED1C7B8FEE064B30EE44CB2CEE07CBC1
:1047F00034EE0C0B62F03CFF1FEDF5AB20EE0A0B24
:1048000063F03EF82DEE00DBB0EE4E0B62F030FFB1
:1048100030EE4E0B9DED1C7BA0EE07EBB0EE4E0B89
:1048200062F026FF20EE0A0B63F02AF88DEE00AB53
:104830009FEDE90B29EE000B62F01AFF9FEDE87B7C
:1048400020EE070B63F0A4F828EE000B9DED127B21
:104850009FEDE55B9FEDE68B20EE070B9DED247B46
:1048600027EE076B9DED147BA7EE058B9FEDE27B9A
:1048700020EE088BB7EE000BA6EE070BB5EE400B53
:10488000F1EE10FA02F18A83B1EEC07B88EE076B7D
:104890009DED0C7B9DED588B9DED160B3AEE46ABD6
:1048A0003AEE07AB9FEDD67BAAEE478B63F070F82C
:1048B000E74A9DED266B9DED287B37EE467B9FED0D
:1048C000D26B27EE407B27EE067BB6EE006BA7EEA1
:1048D000068B9DED567B37EE487B17EE903A9A4358
:1048E00001F0F0849FEDCA6B27EE067B002D01F0EE
:1048F000A88194F9C633002B41F0378694EDE2EBA2
:1049000094F9C733002B41F0A08194EDE46B9FED47
:10491000C25B9DED2C4B9DED203BA3EE054B94EE31
:10492000056B9DED184BA4EE05EBB0EE085B26EE93
:10493000056B3EEE06EB8DED506B9FEDB96BB4EE63
:10494000C6EBF1EE10FA01F3F3819FEDB76BB4EE15
:10495000C6EBF1EE10FA58BFB0EE4E6B8DED2C6B3E
:104960009DED2C6B36EE076BB3EE047BB4EEC76B9C
:10497000F1EE10FA01F3D881BBEE047BB4EE476B85
:10498000F1EE10FA48BFB0EE476BDDED4E7AB8EEAF
:10499000677B9DED102B27EE067B94EDAA5B94EDD3
:1049A000B06BB4EEC72B94EDB44B94EDAE3BF1EE8F
:1049B00010FA8DED166B8DED1A5B8DED1C4B8DEDA8
:1049C0001E3B16D49DED2E2B26EE026B9DED4C2B3F
:1049D000A5EE026B9FED965BA4EE456BA3EE056B17
:1049E000B4EEC67BF1EE10FA48BFB0EE467B8DED1B
:1049F000107B9DED107BB5EEC07BF1EE10FA01F15E
:104A0000A88341F3A083934B72A9934898ED006B60
:104A10009FED897BCDE9720342F20F73B4EEC76B51
:104A2000B6EE086BF1EE10FA9FED7B7BACBF012276
:104A3000002251F822209A4236FE077B9DED106B32
:104A400026EE077B8DED4E7B9DED387B9DED3A6B21
:104A5000B2EE0BFB002387FE067B8DED287B98EDE5
:104A6000187B9FED770B84F8DB3327EE0FFB8DED82
:104A7000207BB4EEC0FBF1EE10FA01F3F8809FED5D
:104A8000720BB4EEC0FBF1EE10FA01F1F080B0EE63
:104A90004F0B8DED8CFB98ED1A7B9FED699BB0EE73
:104AA000476B8DED227BB2EE0B7B26EE077BB4EEDF
:104AB000C97B8DED0C7BF1EE10FA01F3D4809FEDF4
:104AC000629B9DED0C7BB4EEC97BF1EE10FA01F117
:104AD000CA809DED0C7BB0EE479B8DED8E7B98EDF3
:104AE0001C7BB2EE0BDB9FED568B27EE0DDB8DEDC5
:104AF000247BB4EEC8DBF1EE10FA01F3B0809FED39
:104B0000528BB4EEC8DBF1EE10FA01F1A880B0EEE2
:104B10004D8B8DED90DB98ED1E7BB2EE0BAB9FEDD8
:104B2000482B27EE0AAB8DED267BB4EEC2ABF1EE3F
:104B300010FA01F390809FED442BB4EEC2ABF1EE7E
:104B400010FA01F18880B0EE4A2B8DED92AB9DED0D
:104B5000A87BC8254149424BB0EEC77B0095A1F523
:104B6000C860404A8DED127B87ED047B9DEDA4CBA0
:104B70009DEDAA7B9DEDA6BBB0EECCCBB0EEC76B96
:104B8000B0EECBBBB0EE4C1B87ED066B87ED00CBD8
:104B900087ED02BB8DED146BFDF782FD2F49B0EE62
:104BA000407B2F4BA1F5C860B0EE490BB0EE4B1B1C
:104BB0002C4A00958DED8C7B8DED387BFDF770FDDB
:104BC0002649B0EE409B264BA1F5C860B0EE480BDD
:104BD000244A009548E000BF9A9999999919304064
:104BE0000AD7A3703D0AFF3F0CD58338C599E53E2F
:104BF0003FABCC94D6DF32BF0000000000206C40F9
:104C0000BE5296218E75E93F52B81E85EB51F43F96
:104C10009A8317563FD3913F000000000000000028
:104C2000000000000000494000000000000049C0F2
:104C300052B81E85EB51E43F9A9999999999A93FE9
:104C4000E12916A4D847A0403FD038C6A6F1244099
:104C50000000F07F803801004877FFFFA07407084C
:104C6000481A0A0860F106089DED121B8DED8E9B17
:104C7000FDF716FD8649B0EE408B864BB0EE420B39
:104C8000854AA1F5C86000959DED141B8DED908BB4
:104C9000FDF706FDB7EE006B9DED387B8DED920BB9
:104CA000B4EEC67BF1EE10FA41F34282B0EE467BE1
:104CB000B7EE006BB4EEC69BF1EE10FA41F3DE8165
:104CC000B0EE469B8DED8E6BB7EE006BB4EEC68BEF
:104CD000F1EE10FA41F3E281B0EE468B8DED906B70
:104CE000B7EE006BB4EEC60BF1EE10FA41F3E681BD
:104CF000B0EE460B8DED926B9DED206BB5EEC06B6B
:104D0000F1EE10FA41F3EA819FED5B6B27EE067B33
:104D10009DED226BB5EEC06BF1EE10FA41F3EA8126
:104D20009FED556B29EE069B9DED246BB5EEC06B98
:104D3000F1EE10FA41F3EA819FED4F6B28EE068BFE
:104D40009DED266BB5EEC06BF1EE10FA41F3EA81F2
:104D50009FED496B20EE060B702200210DF582605D
:104D60000DF591658DED3A0B8DED387B64F034FED9
:104D70000DF58163702200210DF592609DED387B69
:104D80009DED0C6B9DED3A0B27EE0F7B29EE069BFC
:104D900028EE0D6B20EE0A0B9FED398B0FF2E80B1E
:104DA000DBE900AB27EE087B29EE089B26EE086BBB
:104DB00020EE080B83ED007B0DF5866383ED009BF1
:104DC0000DF58B6383ED006B0DF59063C7E900ABC8
:104DD00083ED000BC7E902ABC7E904ABC7E906AB3B
:104DE00064F0FAFD4FF4007200210DF5E760C5E9AB
:104DF00000ABC5E90AABC5E914ABC5E91EAB64F06D
:104E0000EBFD0DF5E7630DF5816219462032403167
:104E100012ED086B12ED067B52E904AB954201EDF1
:104E20000A8B01ED106B01ED0E7B41E90CAB06D056
:104E300092ED068BEAE7BFEE005BFDF711BF0DF5C3
:104E4000E7620DF63806002000214032203515EDCE
:104E5000086B15ED067BC2E93E0155E904AB9642AD
:104E600082ED386B82ED3A7BC2E93CAB16D0D5E9D6
:104E70000601EAE7AFF30080B81E85EB51B8EE3FBC
:104E80000000000000000000B81E85EB51B89E3FF6
:104E9000A0740708481A0A0860F106089FEDD46B51
:104EA0000DF6381293ED007B27EE067BA3EC027B18
:104EB0009A42F7D19FEDD00BB4EEC0FBF1EE10FAA1
:104EC00000F3BB869FEDCE0BB4EEC0FBF1EE10FA03
:104ED00000F1B386B0EE4F0B8DED8CFB9FEDC68BD2
:104EE0009DED0C7BB4EEC87BF1EE10FA00F3A186C9
:104EF0009FEDC38B9DED0C7BB4EEC87BF1EE10FAF9
:104F000000F197869DED0C7BB0EE478B8DED8E7B8F
:104F10009FEDB92BB4EEC2DBF1EE10FA00F38586FB
:104F20009FEDB72BB4EEC2DBF1EE10FA00F17D86F7
:104F3000B0EE4D2B8DED90DB9FEDAF4BB4EEC4ABDF
:104F4000F1EE10FA00F36D869FEDAD4BB4EEC4ABFD
:104F5000F1EE10FA00F16586B0EE4A4B8DED92ABA2
:104F60009DED127B9DED146BC825A949B0EE4C1B3D
:104F7000A84BA1F5C860A84A87ED047B87ED066BB6
:104F800087ED00CB87ED02BB00958DED384BFDF72B
:104F900087FB9F49B0EE409B9E4BA1F5C860B0EEE9
:104FA000480BB0EE4B1B9C4A00958DED8C9BFDF79A
:104FB00077FB9749B0EE408B964BA1F5C860B0EEF9
:104FC000420B954A00959DED121B8DED8E8BFDF7E2
:104FD00067FB8F49B0EE402B8E4B8F4AA1F5C8601E
:104FE00000959DED384B9DED141B8DED902BB0EE93
:104FF000440BFDF755FBB7EE007BB4EEC79BF1EE1B
:1050000010FA41F3CF80B0EE479BB7EE007BB4EED1
:10501000C78BF1EE10FA40F3E887B0EE478BB7EE9E
:10502000007BB4EEC72BF1EE10FA40F3D387B0EE5D
:10503000472BB7EE007BB4EEC70BF1EE10FA40F34E
:10504000BE87B0EE470B9DED207BB5EEC07BF1EE49
:1050500010FA40F3AE879FED6C5B29EE055B8FEE97
:10506000057BB0EEC77B8DED207B8DEDAC7B9DEDA0
:10507000227BB5EEC07BF1EE10FA40F394879FEDF2
:10508000626B28EE066B9DED0C7B87EE067BB0EE27
:10509000C77B8DED227B8DEDAE7B9DED247BB5EE48
:1050A000C07BF1EE10FA40F378879FED577B22EE3C
:1050B000077B8DEE076BB0EEC67B8DED247B8DED0F
:1050C000B07B9DED267BB5EEC07BF1EE10FA40F390
:1050D0005E879FED4D7B20EE077B8AEE076BB6EE79
:1050E00000FBB0EEC67B9DED286B8DED267B8DED34
:1050F000B27B9DED2A7B37EE067B27EE0FFBB5EEEC
:10510000C0FBF1EE10FAC0F20887B0EE4F3B9DED08
:10511000167B9DED1E6BD4E9B6238DED907B9DED46
:105120001C7BCDE98E23D4E9A8239DED105B8DED8A
:10513000927B8DEDC66B9DED1A7B94EDB26BCDE944
:10514000C823D4E9AC238DEDC47B8DED8C6BCDE908
:10515000CA238DED0C5B9DED0C5BB5EEC05BF1EEF3
:1051600010FA1FD59DED905B8DED906BDDE99223DC
:10517000B0EE456B8DED8C5B9DEDC85BDDE98E017E
:105180008DEDC87BB0EE457BCDE98E23CDE9920154
:10519000DDE9CA23DDE9C6018DEDC45BCDE9C62397
:1051A000CDE9CA0194AB9CA98EAAA3EC026B9942EB
:1051B00006D09CA9B2EC026BA3EC026B9942F8D129
:1051C000CCABD4A9C6AAA3EC027B994206D0D4A941
:1051D000B2EC027BA3EC027B9942F8D10F4A9DED21
:1051E000CC6B9DED0C7B16EE903A19E0AFF300808E
:1051F0000000000000004940E12916A4D847A04063
:105200003FD038C6A6F12440B81E85EB51B8EE3F1A
:10521000A0740708481A0A0860F106080000F07F29
:10522000B0EEC74B03EA02099A4301F0C78001239D
:10523000CCAA02EBC3020133B2EC027BB4EE467B94
:10524000F1EE10FA37FE066B042BF4D1B0EE005BE2
:105250000DF5A165B0EE467B634A94EDE88BA6EEB2
:10526000057B24EE085B94EDE69B9DED941B36EEEA
:10527000077B9DED962B33EE473B85EE097BB6EE23
:10528000005B31EE461B32EE462B23EE055B8DEDC7
:10529000C06B8DEDC26B15EE903A03EA020A9A4399
:1052A00085ED005B85ED021B85ED042B85ED067B0E
:1052B0009DED987B37EE467B8DED127B9DED9A7BC5
:1052C00037EE467B8DED147B01F03C80B0EE417BE8
:1052D0000120013005EBC003B4EE475BF1EE10FA9C
:1052E00037FE055B042800F101000BD0B3EC027B14
:1052F000F2E7604630B105EBCC03032813ED025B07
:1053000041F3528685EE087B9CA831EE451B32EEB8
:10531000452B8DED9E1BA9EE474BB0EE007BA5EE15
:10532000473B34EE047B36EE055B27EE087B8DEDC4
:105330009C3B87EE090B8DEDA00BFDF777FA80EE15
:10534000087B9CA831EE40ABB6EE001B33EE403B31
:1053500035EE00DB8DED9E2B8DED9C3B8DEDBCDBAA
:1053600029EE477BA7EE014B34EE044B24EE088B6D
:1053700088EE097B8DEDA07BFDF758FA0DF5CE6325
:1053800033EE404B184A32EE402B35EE003B9DED9C
:10539000127B83ED00AB0DF5D06383ED007B9DEDBB
:1053A000147B0DF5D16383ED007BB5EE007B0DF52D
:1053B000CF6383ED002B24EE077B0DF5CD638DEDE0
:1053C000384B83ED007B17EE903A03EA020A9A43CA
:1053D00000F08387B0EE4A5B012001300DF5CD630C
:1053E00003EBC00304E000BF0000F07FB3EC025BFE
:1053F000B4EE457BF1EE10FA35FE077B052800F18F
:105400000100F3D132EE478B9CA8B1EE002B0DF5D5
:105410005E7A36EE076B3DEE074B3AEE47AB33EE66
:10542000073BB0EE00DB9DED125B8DEDC06B8DEDAB
:10543000BC4B35EE479B9DED145B8DEDBE3B8DED7A
:10544000C26B35EE471B9DED385B8DED9EAB8DED50
:10545000A09BA7EE425BB6EE002B25EE027B8DED06
:105460009C7BFDF7E3F9A0EE4D5B9CA839EE409BD9
:1054700034EE004B3AEE40AB8AED049B36EE009BD7
:1054800025EE027B8DED9E8B8DEDA01B8DEDD6ABB9
:105490008DEDC09B8DED9C7B8DEDBC4BFDF7C6F972
:1054A000A0EE4D5BD4A838EE408B33EE003B36EED9
:1054B000006B31EE401B8AED028B25EE027B8DEDF9
:1054C000D81B8DEDBE3B8DEDD47B8DEDC26BFDF712
:1054D000ADF9A0EE4D5B504634EE008B36EE00DBAE
:1054E0008DEDBC8B8DEDC2DB25EE025B8AED005BA2
:1054F000FDF79CF9B5EEC0FB33EE00AB002239EEB0
:10550000009B0023F1EE10FA8DEDBEAB8DEDC09B3C
:10551000C0F2EB870DF5067B9DED0C7BB5EEC07BF5
:10552000F1EE10FA0BD4B0EE4A6BB0EE487BB0EE61
:105530004DABB0EE498BB0EE46DBB0EE479BD022D0
:10554000E5490DF5CD60ACAEFBF7B8F9802200213E
:105550000DF581600DF500799FEDC77B8DED8C7B9E
:105560008DED8E7B8DED907B8DED927B9FEDC47BE1
:105570008DEDC47B8DEDC67B8DEDC87B8DEDCA7B3B
:1055800064F02AFAB7EE005B0DF5CD61C4AB8CAACE
:10559000A4A89DED1A7B9FEDBC6B8DEDD8BB8DED66
:1055A000B67B9DED1E7B8DEDDACBB1EE4BBBB1EE44
:1055B0004CCB8DEDBA7B9DED167B85ED005B8AEDC6
:1055C00004BB8DED9C7B9DED1C7B8AED06CB9FED96
:1055D000B04B8DEDA07B9DED2A7B9FEDAF2B8AED2F
:1055E000007B9DED4E7B8AED087B9DED287B8DED4C
:1055F000D47B9DED107B8DEDDC7B9DED707B8AED8A
:10560000027B9DED207B87EE067B85ED027B9DED89
:10561000227B87EE067B85ED0C7B9DED247B87EE60
:10562000067B85ED167B9DED267B87EE067B85ED63
:10563000207B9FED9B7B85ED047B85ED0A5B94EDE4
:10564000A83B85ED145B85ED1E5B8DEDB43B94EDC1
:10565000AC3B85ED0E5B85ED065B9DED2E5B8DED28
:10566000B83B94EDB23B85ED085B9DED4C5B8DED59
:105670009E3B94EDB63B85ED125B09960DF5E76612
:105680008DEDA23BBFEE003B0596D4AE8DEDD62B43
:10569000CDE903A68DEDAC8B85ED187B85ED223B26
:1056A00085ED1A3B85ED107B85ED247B8BED006B42
:1056B00089ED006B8DEDAE9B8DEDB0AB8DEDB2DB6A
:1056C00089ED024B8BED024B8BED044B89ED044BC6
:1056D000CDF820B00FF2D01BDBE900AB87ED007BEB
:1056E00087ED027B87ED047B87ED067BCDE90659CC
:1056F0000A97C5E91CAB0FF2B81BDBE900ABC5E9A3
:1057000026AB9CAD0295B4AD01950DF58165009574
:1057100004F056FAD4F8B85306468110032D4FEA28
:10572000807013DC05F1EA0CDFF8B0E104EB8C0CBF
:105730005CF8043BDA17920742EA93029B071818B9
:1057400041EB0201F445F3D1002D0FDDDFF890C1EC
:105750000CEB850E5CF8043BDA17920742EA9302E1
:105760009B07181841EB0201E645F3D1B0EE087B28
:105770009DED0E6BB4EEC76BF1EE10FA0EDDFAF78D
:10578000EDFE9FED4D7B41EC160B26EE077BB1EE57
:10579000006BB4EEC67BF1EE10FA11DB98ED007BE6
:1057A0009FED476B27EE066B87ED006B87ED026B75
:1057B000B3EE056B27EE067B87ED047B87ED067B5A
:1057C00094F8CE3398ED020B94ED664B002B40F02D
:1057D000858340F20113A4F8CE339FED2D7BB4EE08
:1057E000C7EBF1EE10FA07DA9FED377BB4EEC7EBAB
:1057F000F1EE10FA3EFE077B3EEE477B9FED283B25
:10580000B4EEC37B2EEE03EBF1EE10FA00F17F83D2
:1058100040F30587B7EE003BB3EE04CB9DED2C6B58
:1058200036EE465B9DED186B26EE0CCB9FED286B9C
:10583000A5EE06CBB5EEC0CBF1EE10FA00F16A830F
:1058400040F3DA86B7EE006BB4EE47EBF1EE10FAF8
:1058500048D0FDEEC37BCDED0C7AFDEEC67B9DF905
:105860003020CDED0E7A9DF938309FED0D7B9A42B8
:1058700007FE0CCB36E000BF000000000088C3C06C
:10588000000000000088C3400000000000408F407E
:1058900000000000000049400000000000005440EB
:1058A000000000000000000052B81E85EB51E4BF6C
:1058B00052B81E85EB51E43F000000000000103E8E
:1058C000333333333333194000000000000049C044
:1058D0000000000000005940880B0020900D0020BF
:1058E000800D0020D4F8BC3394F8CD230133032A73
:1058F000C4F8BC330CBF0121002100F0C884C4F8F7
:10590000C03394F8CC3384F8DC13002B00F0DA8237
:10591000012A00F0D184022A41F08C81032394ED06
:10592000E07B9FEDD56B84F8CD33012327EE067B1A
:1059300084F8DC3384EDE07B94F8CA33002B40F02C
:10594000FB8140F2012398ED007BA4F8CA3394ED6B
:10595000646BB4EEC76BF1EE10FA00F1AA869FED0E
:10596000C80B94F8213113B1002384F82131D4F805
:1059700044110B68012B00F01B82B0EE002B0123B9
:105980009FEDBF6B0B600B71B0EE464B30EE066BBC
:10599000B0EE443BB0EE445BB0EE447BB5EEC07B72
:1059A00081ED026BF1EE10FA81ED040B81ED065BE7
:1059B00081ED083B81ED0A4B81ED0C2B40F32083F8
:1059C000B7EE006B37EE467B549B013D81ED0E7BBD
:1059D0009DED306B9DED3C7B84F8C43348BF0325BF
:1059E000559B37EE46BB84F8C5335C9B9DED447BED
:1059F0009DED646B9DED344B84F8D53337EE465BFB
:105A00005D9B9DED3E7B9DED326B84F8D6335E9BB6
:105A100037EE46AB84F8D7335F9B9DED467B9DED1B
:105A2000666B9DED363B84F8D83337EE466B94F8C1
:105A3000D1339DED407B84F8D033002337EE449B77
:105A4000A4F8C8339DED684B9DED487B9FED8E2BF0
:105A500037EE447B9DED424B34EE438B9DED4A4B3C
:105A60009DED6A3B94EDA01BD4E9D02334EE430BAB
:105A7000B7EE003B81FE021BC4E9B82383EE014B65
:105A8000D4E9D22397ED021BC4E9BA23D4E9D42385
:105A9000D7E90401D7E9069AC4E9BC23D4E9D6239F
:105AA000C4E9DC01C4E9BE236E9B6F9A84F8D93344
:105AB00084F8C62384F8C72384EDDA1BC4E9DE9A90
:105AC0002BEE04BB2AEE04AB29EE049B28EE048BDC
:105AD00094EDA44B84FE024B83EE042B9FED6C3BB4
