:020000040800F2
:100000000000052481F70008A9F10008ADF10008FF
:10001000B1F10008B5F10008B9F1000800000000D6
:10002000000000000000000000000000BDF100081A
:10003000C1F1000800000000C5F10008C9F1000886
:10004000D1F70008D1F70008D1F70008D1F7000870
:10005000D1F70008D1F70008D1F70008D1F7000860
:10006000D1F70008D1F70008D1F70008CDF100085A
:10007000D9F10008D1F70008D1F70008D1F700083E
:10008000D1F70008D1F70008D1F70008D1F7000830
:10009000D1F70008D1F70008D1F70008D1F7000820
:1000A000D1F70008D1F70008D1F70008D1F7000810
:1000B000D1F70008D1F70008D1F70008D1F7000800
:1000C000D1F70008D1F70008D1F70008D1F70008F0
:1000D000D1F70008D1F70008D1F70008E5F10008D2
:1000E000D1F70008D1F7000800000000D1F70008A0
:1000F000D1F70008D1F70008D1F70008D1F70008C0
:10010000D1F70008D1F70008D1F70008D1F70008AF
:10011000D1F70008D1F7000815F20008D1F7000860
:10012000D1F70008D1F70008D1F70008D1F700088F
:10013000D1F70008D1F70008D1F70008D1F700087F
:1001400000000000000000000000000000000000AF
:10015000D1F70008D1F70008D1F70008D1F700085F
:10016000D1F70008D1F70008D1F70008D1F700084F
:10017000D1F70008D1F70008D1F70008000000000F
:10018000D1F70008D1F70008D1F70008D1F700082F
:10019000D1F70008D1F70008D1F70008D1F700081F
:1001A000D1F70008D1F70008D1F7000800000000DF
:1001B000D1F70008D1F70008D1F70008D1F70008FF
:1001C000D1F70008D1F7000800000000000000008F
:1001D0000000000000000000D1F70008000000004F
:1001E000000000000000000000000000000000000F
:1001F0000000000000000000D1F70008D1F700085F
:10020000D1F70008D1F7000800000000D1F700087E
:10021000D1F70008D1F70008D1F70008D1F700089E
:10022000D1F7000800000000D1F70008000000002E
:10023000D1F70008D1F7000800000000D1F700084E
:10024000D1F70008D1F70008D1F70008D1F700086E
:10025000D1F70008D1F70008D1F70008D1F700085E
:10026000D1F70008D1F70008D1F70008D1F700084E
:10027000D1F70008D1F70008D1F70008000000000E
:10028000D1F70008D1F70008D1F70008D1F700082E
:1002900000000000D1F70008D1F7000800000000BE
:1002A00000000000D1F70008D1F70008D1F70008DE
:1002B000D1F70008D1F70008D1F70008D1F70008FE
:0C02C000D1F70008D1F70008D1F70008C2
:1003000010B5054C237833B9044B13B10448AFF34F
:1003100000800123237010BD800C00240000000029
:100320002CCA060808B5034B1BB103490348AFF3B9
:10033000008008BD00000000840C00242CCA0608C0
:1003400081F0004102E000BF83F0004330B54FEA86
:1003500041044FEA430594EA050F08BF90EA020FF3
:100360001FBF54EA000C55EA020C7FEA645C7FEA86
:10037000655C00F0E2804FEA5454D4EB5555B8BFA9
:100380006D420CDD2C4480EA020281EA030382EA1A
:10039000000083EA010180EA020281EA0303362DAC
:1003A00088BF30BD11F0004F4FEA01314FF4801C7F
:1003B0004CEA113102D0404261EB410113F0004F91
:1003C0004FEA03334CEA133302D0524263EB430348
:1003D00094EA050F00F0A780A4F10104D5F1200EE6
:1003E0000DDB02FA0EFC22FA05F2801841F1000141
:1003F00003FA0EF2801843FA05F359410EE0A5F115
:1004000020050EF1200E012A03FA0EFC28BF4CF045
:10041000020C43FA05F3C01851EBE37101F00045FB
:1004200007D54FF0000EDCF1000C7EEB00006EEB08
:100430000101B1F5801F1BD3B1F5001F0CD3490892
:100440005FEA30004FEA3C0C04F101044FEA4452E9
:1004500012F5800F80F09A80BCF1004F08BF5FEA70
:10046000500C50F1000041EB045141EA050130BD50
:100470005FEA4C0C404141EB0101013C28BFB1F562
:10048000801FE9D291F0000F04BF01460020B1FAAD
:1004900081F308BF2033A3F10B03B3F120020CDA80
:1004A0000C3208DD02F1140CC2F10C0201FA0CF05E
:1004B00021FA02F10CE002F11402D8BFC2F1200CC3
:1004C00001FA02F120FA0CFCDCBF41EA0C01904079
:1004D000E41AA2BF01EB0451294330BD6FEA0404C2
:1004E0001F3C1CDA0C340EDC04F11404C4F12002AD
:1004F00020FA04F001FA02F340EA030021FA04F3BF
:1005000045EA030130BDC4F10C04C4F1200220FA15
:1005100002F001FA04F340EA0300294630BD21FA53
:1005200004F0294630BD94F0000F83F4801306BF19
:1005300081F480110134013D4EE77FEA645C18BF0D
:100540007FEA655C29D094EA050F08BF90EA020FA4
:1005500005D054EA000C04BF1946104630BD91EA9C
:10056000030F1EBF0021002030BD5FEA545C05D19F
:100570004000494128BF41F0004130BD14F58004DE
:100580003CBF01F5801130BD01F0004545F0FE4152
:1005900041F470014FF0000030BD7FEA645C1ABF87
:1005A000194610467FEA655C1CBF0B46024650EABE
:1005B000013406BF52EA033591EA030F41F40021EA
:1005C00030BD00BF90F0000F04BF0021704730B570
:1005D0004FF4806404F132044FF000054FF0000145
:1005E00050E700BF90F0000F04BF0021704730B506
:1005F0004FF4806404F1320410F0004548BF4042DB
:100600004FF000013EE700BF42004FEAE2014FEA2F
:1006100031014FEA02701FBF12F07F4393F07F4F0A
:1006200081F06051704732F07F4208BF704793F00D
:100630007F4F04BF41F40021704730B54FF4607420
:1006400001F0004521F000411CE700BF50EA010223
:1006500008BF704730B54FF000050AE050EA0102CC
:1006600008BF704730B511F0004502D5404261EB3C
:1006700041014FF4806404F132045FEA915C3FF47D
:10068000D8AE4FF003025FEADC0C18BF03325FEA1A
:10069000DC0C18BF033202EBDC02C2F1200300FACB
:1006A00003FC20FA02F001FA03FE40EA0E0021FAF0
:1006B00002F11444BDE600BF53B94AB9002908BF8E
:1006C00000281CBF4FF0FF314FF0FF3000F074B92D
:1006D000ADF1080C6DE904CE00F006F8DDF804E099
:1006E000DDE9022304B070472DE9F047089D044678
:1006F0008E46002B4DD18A42944669D9B2FA82F2D5
:1007000052B101FA02F3C2F1200120FA01F10CFA10
:1007100002FC41EA030E94404FEA1C48210CBEFB48
:10072000F8F61FFA8CF708FB16E341EA034306FBD1
:1007300007F199420AD91CEB030306F1FF3080F060
:100740001F81994240F21C81023E63445B1AA4B2AD
:10075000B3FBF8F008FB103344EA034400FB07F74F
:10076000A7420AD91CEB040400F1FF3380F00A8190
:10077000A74240F207816444023840EA0640E41B85
:1007800000261DB1D4400023C5E900433146BDE831
:10079000F0878B4209D9002D00F0EF800026C5E9D3
:1007A000000130463146BDE8F087B3FA83F6002EEB
:1007B0004AD18B4202D3824200F2F980841A61EB63
:1007C000030301209E46002DE0D0C5E9004EDDE781
:1007D00002B9FFDEB2FA82F2002A40F09280A1EB69
:1007E0000C014FEA1C471FFA8CFE0126200CB1FBBE
:1007F000F7F307FB131140EA01410EFB03F08842B7
:1008000008D91CEB010103F1FF3802D2884200F243
:10081000CB804346091AA4B2B1FBF7F007FB1011D5
:1008200044EA01440EFB00FEA64508D91CEB040473
:1008300000F1FF3102D2A64500F2BB800846A4EBCE
:100840000E0440EA03409CE7C6F12007B34022FAB9
:1008500007FC4CEA030C20FA07F401FA06F31C43E8
:10086000F9404FEA1C4900FA06F3B1FBF9F8200CF5
:100870001FFA8CFE09FB181140EA014108FB0EF03B
:10088000884202FA06F20BD91CEB010108F1FF3A8B
:1008900080F08880884240F28580A8F10208614497
:1008A000091AA4B2B1FBF9F009FB101144EA0141A5
:1008B00000FB0EFE8E4508D91CEB010100F1FF3450
:1008C0006CD28E456AD90238614440EA0840A0FBE8
:1008D0000294A1EB0E01A142C846A64656D353D0BE
:1008E0005DB1B3EB080261EB0E0101FA07F722FAE2
:1008F00006F3F1401F43C5E9007100263146BDE80B
:10090000F087C2F12003D8400CFA02FC21FA03F36D
:10091000914001434FEA1C471FFA8CFEB3FBF7F0EE
:1009200007FB10360B0C43EA064300FB0EF69E4213
:1009300004FA02F408D91CEB030300F1FF382FD2AC
:100940009E422DD9023863449B1B89B2B3FBF7F654
:1009500007FB163341EA034106FB0EF38B4208D92D
:100960001CEB010106F1FF3816D28B4214D9023E6E
:100970006144C91A46EA004638E72E46284605E78C
:100980000646E3E61846F8E64B45A9D2B9EB02085D
:1009900064EB0C0E0138A3E74646EAE7204694E7ED
:1009A0004046D1E7D0467BE7023B614432E7304620
:1009B00009E76444023842E7704700BF844641EAD1
:1009C000000313F003036DD1403A41D351F8043BC7
:1009D00040F8043B51F8043B40F8043B51F8043B19
:1009E00040F8043B51F8043B40F8043B51F8043B09
:1009F00040F8043B51F8043B40F8043B51F8043BF9
:100A000040F8043B51F8043B40F8043B51F8043BE8
:100A100040F8043B51F8043B40F8043B51F8043BD8
:100A200040F8043B51F8043B40F8043B51F8043BC8
:100A300040F8043B51F8043B40F8043B51F8043BB8
:100A400040F8043B51F8043B40F8043B403ABDD227
:100A5000303211D351F8043B40F8043B51F8043BC9
:100A600040F8043B51F8043B40F8043B51F8043B88
:100A700040F8043B103AEDD20C3205D351F8043B58
:100A800040F8043B043AF9D2043208D0D2071CBF24
:100A900011F8013B00F8013B01D30B88038060464D
:100AA000704700BF082A13D38B078DD010F00303C3
:100AB0008AD0C3F10403D21ADB071CBF11F8013B33
:100AC00000F8013B80D331F8023B20F8023B7BE782
:100AD000043AD9D3013A11F8013B00F8013BF9D2AD
:100AE0000B7803704B7843708B7883706046704747
:100AF00000000000000000000000000000000000F6
:100B0000A2EB0300704700BF02780B78012A28BFD0
:100B10009A42F5D16DE9044540EA0104CDE9026746
:100B20006FF0000C4FEA447212B380EA010414F033
:100B3000070F6AD100F0070420F0070004F0030556
:100B400021F007014FEAC505F0E8042314F0040F73
:100B5000F1E804670CFA05F462EA040266EA0406A6
:100B60000AD063EA0403624667EA0407664603E0C4
:100B7000F0E80423F1E8046782FA4CF582EA0604FF
:100B8000A4FA8CF46CBB83FA4CF583EA0705A5FA4A
:100B90008CF595B950E9022351E9026782FA4CF5C8
:100BA00082EA0604A4FA8CF483FA4CF583EA07057A
:100BB000A5FA8CF52543DBD09CB92DBAB5FA85F49E
:100BC00024F0070427FA04F1DDE9026723FA04F3AD
:100BD00003F0FF0001F0FF01FDE80445A0EB010078
:100BE000704724BAB4FA84F424F0070426FA04F116
:100BF000DDE9026722FA04F202F0FF0001F0FF01D2
:100C0000FDE80445A0EB0100704714F0030F3CD150
:100C100010F0030428D150F8082B51F8083B82FA51
:100C20004CF582EA0305A5FA8CF55DB950F8042C61
:100C300051F8043C82FA4CF582EA0305A5FA8CF5DA
:100C4000002DE8D02DBAB5FA85F424F0070423FA74
:100C500004F122FA04F202F0FF0001F0FF01FDE8C6
:100C60000445A0EB010070474FEAC40420F00300E4
:100C700050F8082B21F0030151F8083B0CFA04F45A
:100C800062EA040263EA0403C9E710F003041AD01D
:100C9000A1EB040120F00300E40750F8042B06D078
:100CA0000FD28B785FFAA2F4E41A06D12BB1CB787D
:100CB0005FFAB2F4E41A00D11BB920465DF8104B7C
:100CC000704701F1040150F8042BCC0721F0030117
:100CD00051F8043B48D824D222F07F4482FA4CF5E4
:100CE00094EA1325A5FA8CF50AD165B951F8043BAD
:100CF00084EA0204B4EB036F0ED150F8042BEBE747
:100D00004FEA132355E035F07F454DD10878FDE8D3
:100D10000445C0F1000070474FEA126203F0FF0380
:100D200047E002EA1C4482FA4CF594EA1345A5FA1E
:100D30008CF50AD165B951F8043B84EA0204B4EB9E
:100D4000034F0CD150F8042BEBE74FEA134330E08C
:100D500015EA1C4528D10B884FEA124229E04FEAD8
:100D6000124203EA1C4324E002F0FF0482FA4CF52D
:100D700094EA1365A5FA8CF50AD165B951F8043BDC
:100D800084EA0204B4EB032F09D150F8042BEBE7FB
:100D90004FEA13630DE015F0FF0F05D10B684FEA22
:100DA000122223F07F4304E04FF00000FDE80445E9
:100DB000704712BA1BBA82FA4CF482EA0304A4FA0E
:100DC0008CF5B5FA85F402FA04F203FA04F34FEA5B
:100DD0001260FDE80445A0EB1360704700000000BE
:100DE0000000000000000000000000000000000003
:100DF00000000000000000000000000000000000F3
:100E000090F800F06DE9024520F007016FF0000C4A
:100E100010F0070491F820F040F049804FF00004F2
:100E20006FF00700D1E9002391F840F000F10800CD
:100E300082FA4CF2A4FA8CF283FA4CF3A2FA8CF305
:100E40004BBBD1E9022382FA4CF200F10800A4FA6C
:100E50008CF283FA4CF3A2FA8CF3E3B9D1E90423C0
:100E600082FA4CF200F10800A4FA8CF283FA4CF3F7
:100E7000A2FA8CF37BB9D1E9062301F1200182FAB1
:100E80004CF200F10800A4FA8CF283FA4CF3A2FAB7
:100E90008CF3002BC6D0002A04BF04301A4612BAC5
:100EA000B2FA82F2FDE8024500EBD2007047D1E9C8
:100EB000002304F00305C4F100004FEAC50514F057
:100EC000040F91F840F00CFA05F562EA05021CBF28
:100ED00063EA050362464FF00004A9E70000000042
:100EE00001F0FF01102A2BDB10F0070F08D010F8DB
:100EF000013B013A8B422DD010F0070F42B3F6D1DF
:100F0000F0B441EA012141EA014122F007047FF0F7
:100F100000070023F0E80256083C85EA010586EA4E
:100F2000010685FA47F5A3FA87F586FA47F6A5FA8A
:100F300087F68EB9EED1F0BC01F0FF0102F0070296
:100F400032B110F8013B013A83EA010313B1F8D141
:100F50000020704701387047002D06BF3546033822
:100F6000073815F0010F07D1013015F4807F02BF5B
:100F7000013015F4C03F0130F0BC0138704700BFAC
:100F80000F4B1B780BB90120704710B504464FF486
:100F90007A700C4AB0FBF3F31068B0FBF3F000F08A
:100FA000B5F80F2C00D808B1012010BD0022214651
:100FB0004FF0FF3000F05EF8034B00201C6010BDC6
:100FC00000000024080000240400002410B50320C1
:100FD000124C00F03DF801F099FC114B11499A694F
:100FE0009B69C2F3032203F00F038A5CCB5C02F01F
:100FF0001F020D4903F01F03D04020FA03F30860DD
:1010000000202360FFF7BCFF10B10124204610BD73
:1010100004460EF0B7F8204610BD00BF0C000024B7
:101020000044025828D0060808000024034A044B54
:1010300011681B780B441360704700BF9C0C0024A0
:1010400000000024014B1868704700BF9C0C00246E
:1010500006494FF6FF0C0002054BCA6800F4E06039
:1010600002EA0C0210430343CB60704700ED00E03E
:101070000000FA051B4BDB68C3F3022300B5C3F184
:10108000070E03F1040CBEF1040F28BF4FF0040E4D
:10109000BCF1060F1AD9033B4FF0FF3C0CFA03FCDE
:1010A00022EA0C024FF0FF3C00280CFA0EFC21EA69
:1010B0000C0101FA03F141EA02010ADB09010A4BC2
:1010C000C9B2034483F800135DF804FB0022134601
:1010D000E8E700F00F000901044BC9B20344197698
:1010E0005DF804FB00ED00E000E100E0FCEC00E056
:1010F000002807DB00F01F0101234009024A8B4052
:1011000042F82030704700BF00E100E0431EB3F119
:10111000807F0CD24FF0E022002006494FF0F00C07
:101120005361072381F823C0906113617047012048
:10113000704700BF00ED00E00268344B344930B422
:10114000344D354CAA4218BF9A420CBF01230023EC
:101150008A4208BF43F001033031A24208BF43F086
:10116000010330348A4208BF43F001033031A24208
:1011700008BF43F0010330348A4208BF43F0010343
:1011800001F55C71A24208BF43F0010304F55C74F1
:101190008A4208BF43F001033031A24208BF43F046
:1011A000010330348A4208BF43F001033031A242C8
:1011B00008BF43F0010330348A4208BF43F0010303
:1011C0003031A24208BF43F001038A4208BF43F016
:1011D000010313B9114B9A4213D1D3B21049114CE8
:1011E000103BA1FB03515F2B0F4BC1F3021103EA2C
:1011F0000203615C88BF0433C1658365184630BC57
:10120000704722F0FF038365F8E700BF100002403B
:10121000400002402800024058000240B80402404A
:10122000ABAAAAAA50CA060800FCFFFF0368294A15
:10123000294930B4294D2A4CAB4218BF93420CBF08
:10124000012200228B4208BF42F001022831A34252
:1012500008BF42F0010228348B4208BF42F001026D
:101260002831A34208BF42F001028B4208BF42F07E
:10127000010212B91B4A934213D1DBB21A4C1B4A2A
:101280000121083B1A4DA4FB0343456602EB1312F0
:10129000C3F30413920001FA03F30266836630BCC1
:1012A0007047DAB21349144C1944103AA829A4FB28
:1012B00002234FEA131300D80833104A03F01F0526
:1012C00001210F4C1A44A9404466920081660266CF
:1012D000E5E700BF08540258305402581C54025825
:1012E0004454025894540258CDCCCCCC00960016ED
:1012F00080580258F0FBFDBFABAAAAAA00820010DA
:101300008008024090F804C00CF1FF31072934D85E
:1013100002681E4B10B41E4CA24218BF9A4204F140
:1013200014040CBF01230023A24208BF43F00103B1
:101330001434A24208BF43F001031434A24208BF90
:1013400043F001031434A24208BF43F001031434F4
:10135000A24208BF43F0010313B90E4B9A420DD1CC
:101360000D4B0E4A634402679B00C36601235DF880
:10137000044B03FA01F1416770477047084B094A73
:10138000634402679B00C366F0E700BF085402583D
:101390001C540258945402583F9600164059025863
:1013A0003F8200104009024070B50446FFF74AFE34
:1013B000002C00F06A8123680546A04A934248D079
:1013C0001832934245D018329D498B4218BF934240
:1013D00001F118010CBF012200228B4208BF42F02C
:1013E000010218318B4208BF42F0010218318B42D2
:1013F00008BF42F0010218318B4208BF42F00102DF
:1014000001F556718B4208BF42F0010218318B4240
:1014100008BF42F0010218318B4208BF42F00102BE
:1014200018318B4208BF42F0010218318B4208BFCD
:1014300042F0010218318B4208BF42F0010218311C
:101440008B4208BF42F001021AB97E4A934240F033
:101450004C810222002184F8352084F834101A6867
:1014600022F001021A6006E0FFF7ECFD431B052B9A
:1014700000F2DD8023681A68D007F5D4D4E902258C
:1014800020692A43A1691D68024360690243E0693B
:101490000A4302436C482840256A2A430243606A93
:1014A000042803D1D4E90B5635432A436568A5F1D6
:1014B000290CBCF11F0F40F2D380A5F14F06032E7B
:1014C00000F2D58042F480121A6004285A6922F092
:1014D000070242EA00020DD1A06AE56A02434DB15B
:1014E000002940F0DC80012800F0FA8030F0020191
:1014F00000F0DD805A612046FFF71EFEE26D3F23BB
:1015000002F01F029340836022684C4B4F485049C1
:10151000824218BF9A4200F130000CBF0123002321
:101520008A4208BF43F001033031824208BF43F0D2
:10153000010330308A4208BF43F001033031824258
:1015400008BF43F0010330308A4208BF43F0010373
:1015500001F55C71824208BF43F0010300F55C7045
:101560008A4208BF43F001033031824208BF43F092
:10157000010330308A4208BF43F001033031824218
:1015800008BF43F0010330308A4208BF43F0010333
:101590003031824208BF43F0010330308A4208BF35
:1015A00043F001032B49824208BF43F001032A485C
:1015B0008A4208BF43F001032831824208BF43F04A
:1015C000010328308A4208BF43F0010328318242D8
:1015D00008BF43F0010328308A4208BF43F00103EB
:1015E0002831824208BF43F001038A4208BF43F01A
:1015F000010313B9194B9A4213D12046FFF716FE87
:10160000A368802B43D06368226ED9B2013B11607E
:10161000072BD4E9192151602ED90023C4E91B33CB
:10162000636700200123606584F8353070BD202297
:1016300003230120626584F8353070BD100002403C
:1016400058000240B80402403F8010FE28000240CB
:1016500040000240085402581C5402589454025846
:10166000554E26FA0CFC1CF0010F7FF42BAF743D95
:10167000032D3FF629AF25E7FFF744FEE16E00207A
:10168000D4E91C3208605A60CBE7012070BD00230A
:10169000A16ED4E91802636003605160BDE7B1F543
:1016A000005F0ED0022805D903287FF423AFE9019B
:1016B0007FF520AF012340221846626584F835305B
:1016C00070BD03283FF616AF01A151F820F000BF0E
:1016D000B5160008AF160008B5160008E116000898
:1016E000B5F1C07F7FF406AFE4E7344A34483549AA
:1016F000834218BF934200F128000CBF0122002250
:101700008B4208BF42F001022831834208BF42F0F9
:10171000010228308B4208BF42F001022831834287
:1017200008BF42F001028B4208BF42F0010212B929
:10173000254A934238D102220021244D84F83410E6
:1017400084F835201A681540A268402A2AD0802AD9
:101750000CBF4FF480400846266AD4E90312D20831
:1017600042EAD102616942EAD102A16942EAD102A8
:10177000E16942EAD102164942EA161219442A43A3
:1017800002431448A0FB010120461A600B099B008C
:10179000E365FFF7D1FCE26D012302F01F029340E5
:1017A0004360B1E61020D7E74022032301206265A1
:1017B00084F8353070BD00BF3F00C0C308540258E4
:1017C0001C54025830540258945402580F00FEFF23
:1017D000F8ABFDA7CDCCCCCC00285FD038B590F8C5
:1017E00035200346022A55D10168574A914248D014
:1017F0001832914245D03032544C5548A14218BF5E
:10180000914204F148040CBF01220022814208BF2A
:1018100042F001023030A14208BF42F001023034F0
:10182000814208BF42F0010200F55C70A14208BF8E
:1018300042F0010204F55C74814208BF42F00102EB
:101840003030A14208BF42F001023034814208BF6B
:1018500042F001023030A14208BF42F001023034B0
:10186000814208BF42F001023030A14208BF42F07D
:101870000102814208BF42F0010212B9354A914289
:101880000ED10422002083F835200B6823F00103D9
:101890000B6038BD802201205A6538BD0120704799
:1018A0002D4A2E4D0868A94218BF91422C4C20F0B9
:1018B0000E0005F13C050CBF012200220860A14288
:1018C00008BF42F0010208682834A94208BF42F06C
:1018D000010220F00100A14208BF42F001021434CD
:1018E0000860A14208BF42F001021E48814208BFC1
:1018F00042F0010212B91C4A914217D101229D6D9A
:10190000D3E91704216800F01F0021F480718240A0
:1019100021606A60DA6ED3E91910486032B111684B
:10192000D3E91C0421F4807111604460002401217A
:101930001A6D83F8344083F835101AB11846904771
:10194000204638BD104638BD10000240400002401D
:1019500070000240B80402401C5402580854025857
:101960003054025880540258945402582DE9F043E0
:1019700000229C4B83B09C4E1D68814601920368F7
:101980009A4A846D934218BFB342276808BF012664
:10199000216818BF002645D018329548834218BFE9
:1019A000934200F118000CBF01220022834208BFBD
:1019B00042F001021830834208BF42F001021830A1
:1019C000834208BF42F001021830834208BF42F050
:1019D000010200F55670834208BF42F00102183040
:1019E000834208BF42F001021830834208BF42F030
:1019F00001021830834208BF42F0010218308342CE
:101A000008BF42F001021830834208BF42F00102D1
:101A10001830834208BF42F001021AB9754A934256
:101A200040F05082D9F85C10082201F01F0C02FA35
:101A30000CF2174240F0888127FA0CF2D2070CD53D
:101A40005A69100609D5012202FA0CF2A260D9F8EF
:101A5000542042F00202C9F854204FF0040E0EFA4E
:101A60000CF038425BD0002E4FD1634ADFF8808102
:101A7000434518BF934208F118080CBF0122002209
:101A8000434508BF42F0010208F11808434508BF6A
:101A900042F0010208F11808434508BF42F0010274
:101AA00008F11808434508BF42F0010208F55678CE
:101AB000434508BF42F0010208F11808434508BF3A
:101AC00042F0010208F11808434508BF42F0010244
:101AD00008F11808434508BF42F0010208F1180850
:101AE000434508BF42F0010208F11808434508BF0A
:101AF00042F0010208F11808434508BF42F0010214
:101B00001AB93C4A934240F019821A68920706D5E6
:101B1000A060D9F8542042F00402C9F854201022E1
:101B200002FA0CFC1CEA070F6CD0002E45D1324A99
:101B30002F4EB34218BF934206F118060CBF012284
:101B40000022B34208BF42F001021836B34208BF78
:101B500042F001021836B34208BF42F001021836C3
:101B6000B34208BF42F0010206F55676B34208BF01
:101B700042F001021836B34208BF42F001021836A3
:101B8000B34208BF42F001021836B34208BF42F028
:101B900001021836B34208BF42F001021836B342C0
:101BA00008BF42F001021836B34208BF42F00102FA
:101BB0001AB9104A934240F0C9811A68100721D51A
:101BC000C4F808C01A68560300F14C811A68D2059F
:101BD00003D41A6822F008021A60D9F840308BB199
:101BE0000CE000BF08000024100002402800024062
:101BF00058000240B804024040000240484698475E
:101C0000D9F85C1001F01F0120268E403E4268D0BA
:101C1000D9F80020A54BA64FBA4218BF9A4207F147
:101C200018070CBF01230023BA4208BF43F0010389
:101C30001837BA4208BF43F001031837BA4208BF49
:101C400043F001031837BA4208BF43F001031837C5
:101C5000BA4208BF43F001031837BA4208BF43F045
:101C6000010307F55677BA4208BF43F0010318375E
:101C7000BA4208BF43F001031837BA4208BF43F025
:101C800001031837BA4208BF43F001031837BA42BC
:101C900008BF43F001031837BA4208BF43F00103FD
:101CA0001837BA4208BF43F001031BB9814B9A426F
:101CB00040F062811368DB0613D5A66099F83530D1
:101CC000042B136800F0AE8013F4802F136800F02B
:101CD000D3801C0340F1DE80D9F83C300BB148467C
:101CE0009847D9F85430002B00F0B980D9F8543017
:101CF000D8071FD5D9F80020042189F835101368BA
:101D000023F0010313606C4BA3FB0535AD0A02E021
:101D10001368D90704D5019B0133AB420193F7D96E
:101D2000002389F834301368DB074CBF03230123F9
:101D300089F83530D9F84C30002B00F090804846B7
:101D400003B0BDE8F0431847186840070AD5186883
:101D500020F004001860A260D9F8542042F001027B
:101D6000C9F8542027FA0CF2D2077FF576AE534A11
:101D70005348834218BF934200F130000CBF012248
:101D80000022834208BF42F001021830834208BF9C
:101D900042F001021830834208BF42F001021830BD
:101DA000834208BF42F0010200F55670834208BF2B
:101DB00042F001021830834208BF42F0010218309D
:101DC000834208BF42F001021830834208BF42F04C
:101DD00001021830834208BF42F0010218308342EA
:101DE00008BF42F001021830834208BF42F00102EE
:101DF0001830834208BF42F00102002A7FF420AE6F
:101E0000002E7FF41DAE1A68042202FA0CF23A4248
:101E100040F09480102202FA0CFC17EA0C0F3FF4F9
:101E2000F1AE84E623F016031360536923F08003B8
:101E30005361D9F840309BB3136823F00803136053
:101E40003F230025012203FA01F1D9F85030A160A7
:101E500089F8345089F83520002B7FF470AF03B037
:101E6000BDE8F0831B6818037FF5B7AED9F848309A
:101E7000002B7FF4C3AEC5E613F480737FF42CAF60
:101E8000116821F010011160012289F8343089F8BD
:101E9000352021E7D9F84430002B7FF420AF20E72C
:101EA000D9F84830002BC7D1CAE700BF1000024064
:101EB00028000240B8040240B5814E1B5800024081
:101EC000400002404E4A4F4DAB4218BF934205F1CD
:101ED00014050CBF01220022AB4208BF42F00102F0
:101EE0001435AB4208BF42F001021435AB4208BFC3
:101EF00042F001021435AB4208BF42F00102143532
:101F0000AB4208BF42F0010212B93F4A9342A6D148
:101F1000D9F85C5004261A6805F01F05AE400E4241
:101F200019D0570717D5100466604BD5D1034FD48D
:101F3000D9F84830002B7FF402AF90E71A681022DE
:101F400002FA0CFC17EA0C0F3FF45CAE1A68520759
:101F50007FF558AE34E60226AE400E4211D0970708
:101F60000FD56660140439D5D00343D4D9F8443072
:101F7000002B7FF4E4AE72E713689F077FF5B1AEE4
:101F80009BE60826AE400E423FF469AF11077FF58D
:101F900066AF1A68002122F00E021A600123D9F8F8
:101FA0004C2003FA05F56560C9F8543089F83410FF
:101FB00089F83530002A3FF452AF484603B0BDE8F7
:101FC000F0431047920603D41A6822F004021A6004
:101FD000D9F84030002B7FF4B2AE40E712F0200277
:101FE00008D11968012421F00A01196089F8342008
:101FF00089F83540D9F83C30002B7FF4A0AE2EE7AD
:10200000085402581C540258945402582DE9F04FB9
:102010000D6883B0002D00F0E7804FF0000CDFF872
:102020005082634625E003F007024FEAD30E4FF0DB
:102030000F0A04F003044FEA820900EB8E0E04FA43
:102040000CF40AFA09FADEF8202022EA0A0A0A69E0
:1020500002FA09F242EA0A02CEF82020026816408B
:102060002643066001330CF1020C35FA03F200F04E
:10207000BB8001229A4012EA050EF3D04C6824F08E
:10208000100909F1FF36012E4FF0030606FA0CF68F
:1020900000F2AD80D0F808A0CF682AEA060AF6431D
:1020A00007FA0CFB4BEA0A0AC0F808A0C4F3001AAE
:1020B000D0F804B00AFA03FA2BEA02024AEA020252
:1020C0004260C268B9F1020F02EA060A8A6802FA9F
:1020D0000CF242EA0A02C260A5D00268E70002EAF6
:1020E000060204F0030606FA0CF646EA020606604B
:1020F000B8D5584E03F00309574FD6F8F4204FEAED
:102100008909B84242F00202C6F8F420D6F8F42059
:1021100023F0030602F0020246440192019A4FF0B6
:102120000F02D6F808A002FA09F22AEA020222D027
:1021300007F58067B84263D0484FB84267D0484F30
:10214000B84256D0474FB8426FD0474FB84273D0CD
:10215000464FB84262D0DFF81CA1504573D0DFF87B
:1021600018A150450CBF4FF0090A4FF00A0A0AFAAD
:1021700009F942EA0902B2604FF0B042E6036FEAA1
:102180000E09D2F880204FF0B04603F101030CF1A4
:10219000020C54BF09EA02024EEA0202C6F880208D
:1021A000A203D6F884604FF0B04254BF09EA060695
:1021B0004EEA0606E702C2F8846016684FF0B042A5
:1021C00054BF09EA06064EEA0606A4024FF0B044E0
:1021D0001660526854BF09EA02024EEA02026260C7
:1021E00035FA03F27FF445AF03B0BDE8F08FF64354
:1021F00067E74FF0030A0AFA09F942EA0902BAE767
:102200004FF0010A0AFA09F942EA0902B3E74FF06E
:10221000020A0AFA09F942EA0902ACE74FF0060A93
:102220000AFA09F942EA0902A5E74FF0040A0AFA94
:1022300009F942EA09029EE74FF0050A0AFA09F98C
:1022400042EA090297E74FF0070A0AFA09F942EA57
:10225000090290E7004402580000025800080258A2
:10226000000C0258001002580014025800180258BE
:1022700000040058001C02580024025802B9090446
:102280008161704738B5104CE36813F0040FE368C0
:1022900005D103F00703181A18BF012038BD23F039
:1022A00007031843E060FEF7CDFE054605E0FEF7A4
:1022B000C9FE401BB0F57A7F04D863689B04F6D54D
:1022C000002038BD012038BD00480258024AD368BA
:1022D00043F08073D360704700480258454B30B4D8
:1022E0009A6A9C6ADD6A14F47C7F596BC4F305100A
:1022F00038D0C1F3CC0105F0010502F0030205FB63
:1023000001F1012A07EE901AB8EEE77A02D0022A0C
:102310004ED04AB307EE900ADFED376AF8EEE77A5F
:102320001B6B86EEA76A9FED355AC3F3080306EED2
:10233000903AF7EE005AF8EEE66AE7EE056A76EEB6
:10234000A56A66EE266A2B4B1B6BC3F3462301334B
:1023500007EE903AB8EEE77AC6EE877AFCEEE77AB7
:1023600017EE900A30BC70471A68920627D5196894
:1023700007EE900A224AF7EE005A1B6BC1F3C10127
:10238000F8EEE77A9FED1D5AC3F30803CA4006EE44
:10239000903A06EE102AF8EEE66AB8EEC66AE7EE64
:1023A000056A86EE277A76EEA56A66EE876ACAE740
:1023B00007EE900ADFED136AF8EEE77AB0E707EE72
:1023C000900A9FED115A1B6BB7EE006AF8EEE77AA0
:1023D000DFED0A5AC3F30803C5EE276A07EE903A09
:1023E000F8EEE77AE7EE257A77EE867A66EEA76A68
:1023F000A9E700BF004402580024744A00000039D5
:102400000090D0030024F44A0024744C002800F00B
:102410001882F8B503680446D9072ED591490A6990
:10242000896A02F03802102A00F00881182A00F0A8
:1024300000816368B3F5803F00F04381002B00F01A
:102440005181B3F5A02F874B1A6800F02A8222F43D
:1024500080321A601A6822F480221A60FEF7F2FDB8
:10246000804E054605E0FEF7EDFD401B642800F2B6
:10247000378133689B03F6D52368980728D57949B7
:102480000A69896A12F0380200F0A380182A00F065
:102490009D80744DE2682B68002A00F05C8123F077
:1024A000190313432B60FEF7CDFD064605E0FEF74A
:1024B000C9FD801B022800F213812B685F07F6D547
:1024C0006B68226923F0FE4343EA02636B60236872
:1024D000D90653D41D0716D56369624D002B00F051
:1024E0008A806B6F43F001036B67FEF7ABFD064616
:1024F00005E0FEF7A7FD801B022800F2F1806B6F5C
:102500009807F6D523689A0616D5A369554D002B72
:1025100000F0FE802B6843F480532B60FEF792FDA1
:10252000064605E0FEF78EFD801B022800F2D880EB
:102530002B689F04F6D52368590700F18980606AEB
:10254000D0B1484D2B6903F03803182B00F07B8184
:102550002B68022823F080732B6000F00D81FEF7BA
:1025600071FD044605E0FEF76DFD001B022800F238
:10257000B7802B689B01F6D40020F8BD39490A6961
:10258000896A02F03802082A4AD0182A44D0E3693E
:10259000344D002B00F0CD802B6843F080032B607E
:1025A000FEF750FD064605E0FEF74CFD801B0228B5
:1025B00000F296802B68DB05F6D5EB68226A23F0E3
:1025C0007C5343EA0263EB60236883E789077FF467
:1025D00060AF244A1268520701D5E2683AB3214934
:1025E00020694A6822F0FE4242EA00624A60D90647
:1025F0007FF570AFC2E76B6F23F001036B67FEF7E7
:1026000021FD064604E0FEF71DFD801B022867D869
:102610006B6F9907F7D475E701F003010129B6D173
:10262000104A1268D20552D5E269802A4FD00120A3
:10263000F8BD01F0030102297FF4FBAE094A1268DC
:1026400092037FF51AAF6268002A7FF416AFEEE7B7
:10265000054D2B6843F480732B60FEF7F3FC0646B0
:1026600009E000BF0044025800480258FEF7EAFCA7
:10267000801B642834D82B68DA05F7D5A368012BB2
:1026800000F03081002B00F01481052B9C4B1A6F59
:1026900000F02E8122F001021A671A6F22F0040264
:1026A0001A67FEF7CFFC964E41F28837054604E0E4
:1026B000FEF7C8FC401BB84212D8336F9B07F7D512
:1026C0003DE78F4A136843F480331360C6E68C49B4
:1026D000206ACA6822F07C5242EA0062CA60F9E6C7
:1026E0000320F8BD864D2B6823F480332B602B68C4
:1026F00023F480232B60FEF7A5FC064604E0FEF7DA
:10270000A1FC801B6428EBD82B689F03F7D4B3E6A9
:102710002B6823F480532B60FEF794FC064604E0FC
:10272000FEF790FC801B0228DAD82B689804F7D4B7
:1027300001E72B6823F080032B60FEF783FC06463D
:1027400004E0FEF77FFC801B0228C9D82B68DF0558
:10275000F7D42368BEE623F001032B60FEF772FC7A
:10276000064604E0FEF76EFC801B0228B8D82B68F2
:102770005807F7D42368ABE6FEF764FC064604E08E
:10278000FEF760FC801B0228AAD82B689901F7D4B9
:10279000A96A5C4BA26A0B405B49594E1343E26A3B
:1027A00043EA0213AB62D4E90D32013B013A5B020A
:1027B00012049BB202F4FE021343226B013AC2F3ED
:1027C00008021343E26B013A120602F0FE42134381
:1027D0002B63EB6A23F00103EB626A6BA36C11407D
:1027E00041EAC3016963EB6A226C23F00C031343D3
:1027F000EB62EB6A626C23F002031343EB62EB6A59
:1028000043F48033EB62EB6A43F40033EB62EB6A30
:1028100043F48023EB62EB6A43F00103EB622B6825
:1028200043F080732B60FEF70DFC044605E0FEF7D5
:1028300009FC001B02283FF653AF33689A01F6D516
:102840009AE6012070470128AA6A2D6B3FF495AEE5
:1028500002F00303A16A8B427FF4E9AEC2F30512D2
:10286000E36A9A427FF4E3AE236BC5F30802013BAF
:102870009A427FF4DCAE636BC5F34622013B9A4279
:102880007FF4D5AEA36BC5F30642013B9A427FF4B9
:10289000CEAEE06BC5F306650138281A18BF0120DB
:1028A000F8BD42F480221A601A6842F480321A603D
:1028B000D4E5134D41F288372B6F23F001032B67CA
:1028C0002B6F23F004032B67FEF7BCFB064605E0E5
:1028D000FEF7B8FB801BB8423FF602AF2B6F98079C
:1028E000F6D42CE6064A136F43F001031367D8E6CB
:1028F00042F004021A671A6F42F001021A67D0E62A
:10290000004402580CFCFFFF0700FFFF0C4A13694C
:1029100003F03803102B04D0182B0DD01BB109483D
:1029200070470948704713689B0607D51368074826
:10293000C3F3C103D8407047FFF7D0BC03487047CA
:102940000044025800093D0000127A000090D003B4
:10295000002800F00C818C4A136803F00F038B42AF
:102960002DE9F04104460D460CD2136823F00F0305
:102970000B431360136803F00F038B4202D0012056
:10298000BDE8F08123685F070BD5804920698A691B
:1029900002F07002904204D98A6922F07002024368
:1029A0008A611E070BD579496069CA6902F0700215
:1029B000904204D9CA6922F070020243CA61D80663
:1029C0000BD57249A069CA6902F4E062904204D949
:1029D000CA6922F4E0620243CA6199060BD56B49C9
:1029E000E0690A6A02F07002904204D90A6A22F091
:1029F000700202430A629A0740F1AB806348E168C3
:102A0000826902F00F02914204D9826922F00F021A
:102A10000A438261D80730D55C4AA168936923F4E0
:102A200070630B43936161681368022900F0A18011
:102A3000032900F09880012900F0A18058079ED555
:102A4000524E41F28838336923F007030B43336158
:102A5000FEF7F8FA074605E0FEF7F4FAC01B40451A
:102A600000F28B803369626803F03803B3EBC20F66
:102A7000F2D12368990706D5E1684448826902F0DB
:102A80000F028A4269D840490A6802F00F02AA423E
:102A90000AD90A6822F00F022A430A600A6802F083
:102AA0000F02AA427FF46BAF5A070BD53749206952
:102AB0008A6902F07002904204D28A6922F07002A0
:102AC00002438A611F070BD530496069CA6902F069
:102AD0007002904204D2CA6922F070020243CA61B5
:102AE000DE060BD52949A069CA6902F4E06290426A
:102AF00004D2CA6922F4E0620243CA619D060BD582
:102B0000224AE169136A03F07003994204D2136AFE
:102B100023F070030B431362FFF7F8FE1B4A0346D2
:102B20001B4891699269C1F303211A4D02F00F020B
:102B3000194C415C825C01F01F01184802F01F0231
:102B4000CB4000682B60D3402360BDE8F041FEF726
:102B500017BADA073FF560AF95E7826922F00F02F6
:102B6000114381618FE79F013FF56AAF07E70120BD
:102B700070479B033FF564AF01E7032000E7DE05E4
:102B80003FF55EAFFBE600BF002000520044025854
:102B900028D00608080000240C00002404000024AB
:102BA000184A38B5136903F03803102B1AD0182BC4
:102BB00023D0CBB11448134B14499A699B69C2F3D3
:102BC0000322134C03F00F03124D8A5CCB5C02F01E
:102BD0001F0220FA02F203F01F0022FA00F02A601E
:102BE000206038BD0C48E6E713689B0608D51268DC
:102BF0000A48C2F3C102D040DDE7FFF76FFBDAE716
:102C00000648D8E70044025800093D0028D00608CD
:102C10000C0000240800002400127A000090D00369
:102C200008B5FFF7BDFF054B054ADB69C3F3021387
:102C3000D35C03F01F03D84008BD00BF0044025816
:102C400028D0060808B5FFF7ABFF054B054ADB693E
:102C5000C3F30223D35C03F01F03D84008BD00BFB9
:102C60000044025828D00608F8B53A4CA36A03F08D
:102C70000303032B67D0236806460F4623F08063C7
:102C80002360FEF7DFF9054604E0FEF7DBF9431B9E
:102C9000022B56D823681A01F7D4A36A326823F4AA
:102CA0007C3343EA0233A362D6E90232013B013AA4
:102CB0005B0212049BB202F4FE0213437268013AF3
:102CC000C2F3080213433269013A120602F0FE42CF
:102CD0001343A363E36A726923F0C0031343E362FF
:102CE000E26AB36922F020021A431B4BE262E26AF5
:102CF00022F01002E262E16BF2690B4043EAC20388
:102D0000E363E36A43F01003E362E36AEFB1012F88
:102D10000CBF43F4801343F40013E3620D4C2368AB
:102D200043F080632360FEF78DF9054604E0FEF76B
:102D300089F9401B022804D823681B01F7D500201D
:102D4000F8BD0320F8BD0120F8BD43F40023E36281
:102D5000E4E700BF004402580700FFFFF8B53A4C13
:102D6000A36A03F00303032B67D0236806460F46CC
:102D700023F080532360FEF765F9054604E0FEF773
:102D800061F9431B022B56D823689A00F7D4A36A33
:102D9000326823F07C7343EA0253A362D6E902321D
:102DA000013B013A5B0212049BB202F4FE021343A0
:102DB0007268013AC2F3080213433269013A1206FB
:102DC00002F0FE4213432364E36A726923F4406312
:102DD0001343E362E26AB36922F400721A431B4BA5
:102DE000E262E26A22F48072E262616CF2690B4094
:102DF00043EAC2036364E36A43F48073E362E36A11
:102E0000EFB1012F0CBF43F4000343F08073E36282
:102E10000D4C236843F080532360FEF713F90546F9
:102E200004E0FEF70FF9401B022804D823689B003A
:102E3000F7D50020F8BD0320F8BD0120F8BD43F40C
:102E40008003E362E4E700BF004402580700FFFF8D
:102E50002DE9F8430368044613F000661CD0026EA7
:102E6000B2F5001F00F08A8423D8002A00F09E8368
:102E7000B2F5801F20D102210430FFF7F5FE06468F
:102E8000002E40F08D84226E236899480026016D43
:102E900021F440110A430265D80511D5626D042A58
:102EA00000F2CD84DFE812F047044E043F04B5027F
:102EB000B502B2F5401FE8D0D8054FF00106EDD4B9
:102EC000354659051FD5D4F8A020B2F5800F00F083
:102ED0005E8400F2CB80002A00F06283B2F5001F0E
:102EE00040F0CE800021201DFFF7BEFE236805467E
:102EF000002D40F037837E49D4F8A0008A6D22F47B
:102F0000600202438A651A051FD5D4F8A420B2F1E5
:102F1000007F00F0268400F2B680002A00F034839F
:102F2000B2F1807F40F0B9800021201DFFF79CFEA8
:102F300023680546002D40F00F836D49D4F8A400A6
:102F40008A6D22F0E06202438A659F0118D5A26C67
:102F5000202A00F0918300F2A3803AB1102A40F0B9
:102F6000A2806349CA6A42F40032CA62002D40F06E
:102F700048835F49A06CCA6C22F030020243CA64E5
:102F8000D8041DD5A26DB2F5005F00F0E28300F217
:102F90008D80002A00F0FE82B2F5805F40F08E80C6
:102FA0000021201DFFF760FE23680546002D40F03C
:102FB000D7824F49A06D0A6D22F4E04202430A65B0
:102FC000990419D5E26DB2F5003F00F0888378D8F6
:102FD00042B1B2F5803F7CD10121201DFFF744FEB4
:102FE00023680546002D40F0E7824149E06D0A6DF7
:102FF00022F4E02202430A655A041BD5D4F8A82023
:10300000B2F1005F00F0608366D842B1B2F1805F38
:103010006AD10121201DFFF727FE23680546002DF8
:1030200040F0CC823249D4F8A8008A6D22F0E04208
:1030300002438A651F040DD5A26EB2F1805F00F0D5
:103040000A83B2F1005F00F01682002A00F01982B4
:1030500001263546D80157D5626C032A00F2EC836D
:10306000DFE812F04E00010348004E0022F4001188
:10307000B1F5000F3FF43CAFB2F5C00F3FF438AFED
:10308000012635463FE722F08071B1F1806F3FF4B1
:1030900051AFB2F1407F3FF44DAF0126354654E7C2
:1030A000302A3FF463AF0126354669E7B2F5405F49
:1030B0003FF47CAFB2F5804F3FF478AF0126354640
:1030C0007EE722F48031B1F5802F8BD0B2F5403FFE
:1030D00088D0012635468FE722F08051B1F1804F2C
:1030E0009DD0B2F1405F9AD001263546A2E700BFDD
:1030F000004402580221201DFFF7B6FD2368054653
:10310000002D00F061822E46590200F1D981DF07BF
:103110002FD5626F282A2AD8DFE812F0C5012900CE
:103120002900290029002900290029005903290024
:10313000290029002900290029002900BE012900B1
:10314000290029002900290029002900C50129009A
:10315000290029002900290029002900C50129008A
:10316000290029002900290029002900C50101267C
:103170003546980716D5226F052A00F25A83DFE8F4
:1031800012F00D001C0306000D000D000D000121C2
:1031900004F12400FFF7E2FD23680546002D00F04E
:1031A0001F822E46590717D5D4F88C20052A00F225
:1031B0003D83DFE812F00D00F80206000D000D005F
:1031C0000D00012104F12400FFF7C8FD2368054626
:1031D000002D00F00D822E469A061DD5D4F88820C9
:1031E000B2F1005F00F0518200F2D1804AB1B2F139
:1031F000805F40F0D6800021201DFFF735FD236859
:103200000546002D40F0FF81AC49D4F888004A6D96
:1032100022F0E04202434A655F061DD5D4F89420AF
:10322000B2F5006F00F03B8200F2BE804AB1B2F509
:10323000806F40F0C3800021201DFFF715FD23683B
:103240000546002D40F0BC819C49D4F894008A6D5D
:1032500022F4E05202438A6518061DD5D4F898205E
:10326000B2F5804F00F0258200F2AB804AB1B2F592
:10327000005F40F0B0800021201DFFF7F5FC2368BF
:103280000546002D40F09E818C49D4F898008A6D47
:1032900022F4604202438A6519070AD5E16FB1F54D
:1032A000805F00F034828548426D22F440520A4328
:1032B0004265DA060BD5D4F89010B1F5807F00F0A6
:1032C00019827E48826D22F440720A4382651F0390
:1032D0000ED5D4F89C10B1F5803F00F0B980B1F55F
:1032E000003F00F0BC80002900F0A5810126354692
:1032F00058030FD5D4F88020B2F5001F00F0958058
:10330000B2F5401F00F09880B2F5801F00F09B815D
:1033100001263546D90309D5E26C002A00F07981EF
:10332000B2F5803F00F02081012635469A0000F179
:1033300008819F0352D4301E18BF0120DD0206D53C
:103340005E49E56E0A6D22F000422A430A65990241
:1033500006D55A49656E0A6D22F080722A430A65C5
:103360005A0009D5554A116921F4004111611169CA
:10337000D4F8B05029431161002B06DA4F4A216D71
:10338000D36C23F040530B43D364BDE8F88322F0A1
:103390008051B1F1804F3FF434AFB2F1405F3FF460
:1033A00030AF0126354637E722F48061B1F5805F02
:1033B0003FF447AFB2F5406F3FF443AF01263546C7
:1033C0004AE722F40051B1F5004F3FF45AAFB2F58D
:1033D000C04F3FF456AF012635465DE7A26FB2F508
:1033E000807F00F01F8106D922F48071B1F5007F43
:1033F00003D00120A2E7002AFBD1002DF9D12F4DE7
:10340000301E696D18BF012021F440710A436A65BE
:1034100094E73546002D40F0A1802849606D0A6D83
:1034200022F0070202430A654BE5012104F1240062
:10343000FFF794FC23680546002D40F0CF801F491C
:10344000D4F880004A6D22F4401202434A6561E7D5
:10345000022104F12400FFF781FC23680546002DBA
:1034600040F0BA801549D4F89C008A6D22F44032AD
:1034700002438A653CE70121201DFFF7F5FB236825
:103480000546002D40F0C3800C49A06E0A6D22F065
:10349000405202430A65DDE5012104F12400FFF7F3
:1034A0005DFC23680546002D40F0AF800349606F46
:1034B0004A6D22F0380202434A655AE60044025837
:1034C000AC4F3B6843F480733B60FDF7BBFD804627
:1034D00006E0FDF7B7FDA0EB0800642800F281814B
:1034E0003B68DA05F5D5002D40F09D81A24AD4F85D
:1034F000AC30116F594011F4407F0BD0116F106F39
:1035000021F4407140F480301067106F20F4803057
:1035100010671167B3F5807F00F0678103F4407294
:10352000B2F5407F00F0758193490A6922F47C521C
:103530000A61914AC3F30B03116F0B4313672368AE
:10354000E5E5022104F12400FFF708FC23680028C8
:103550003FF4EFAE0126ECE62E46F6E42E46B0E44C
:103560002E462DE52E46CEE40221201DFFF77CFBE2
:1035700005462368002D53D17F49E06CCA6C22F4C4
:1035800080320243CA64D1E67B49CA6A42F40032FF
:10359000CA62CFE47849CA6A42F40032CA6205E5D9
:1035A0007549CA6A42F40032CA62A1E47248C16A2B
:1035B00041F40031C16268E42E461DE52E4639E52E
:1035C0002E4649E62E4667E66B49606CCA6C22F0CF
:1035D00003020243CA6497E52E4689E62E4699E621
:1035E0006549206F4A6D22F0070202434A65D9E51A
:1035F0006149D4F88C008A6D22F0070202438A6583
:10360000EAE52E46BCE42E4606E62E46B1E52E46F9
:1036100020E55949CA6A42F40032CA62002DABD093
:103620002E4683E65448C16A41F40031C162002D40
:103630007FF4DFAEE3E6201DFFF716FB05462368A7
:10364000002DC9D10EE74C49CA6A42F40032CA6261
:10365000002DC3D1F3E64849CA6A42F40032CA6277
:10366000002DD4D110E74449CA6A42F40032CA623C
:10367000002D7FF448ADA7E70221201DFFF7F4FAE3
:1036800005462368002DBCD173E4022104F1240017
:10369000FFF764FB05462368002DB4D1B4E5022191
:1036A00004F12400FFF75AFB05462368002D87D15B
:1036B000CAE5022104F12400FFF750FB0546236808
:1036C000002D7FF47FAFDFE5012104F12400FFF737
:1036D00045FB05462368002D7FF470AFA2E401216D
:1036E00004F12400FFF73AFB05462368002D7FF420
:1036F00063AF7AE4022104F12400FFF72FFBD4F832
:103700009010236800283FF4DCAD0126D9E50221A2
:1037100004F12400FFF722FBE16F236800283FF447
:10372000C2AD0126BFE5002104F12400FFF716FB1E
:10373000236805466EE610493546CA6A42F40032EF
:10374000CA6267E60021201DFFF78EFA236805464E
:1037500060E6002104F12400FFF700FB2368054622
:1037600024E4002104F12400FFF7F8FA2368054659
:10377000FFF7E0BB00480258004402580221243001
:10378000FFF7ECFA0646002E3FF47DAB08E000217F
:1037900004F12400FFF7E2FA23680546FFF7A8BB0F
:1037A0002368FFF779BB0121201DFFF75DFA05466D
:1037B0002368002D7FF40FAD1AE70121201DFFF7CC
:1037C00053FA05462368002D7FF4EBAC08E701218E
:1037D000201DFFF749FA05462368002D7FF415AF39
:1037E00064E603262368354691E4FDF72BFCDFF8F9
:1037F0005480074641F2883904E0FDF723FCC01BE2
:103800004845EED8D8F870309B07F6D5D4F8AC30E0
:1038100084E60C480C4A016902EA131221F47C5137
:103820000A43026185E623682E4670E40126354688
:10383000D2E401263546B5E40126354664E4012686
:10384000FFF73EBB00440258CFFFFF0008B5FFF76B
:10385000A7F9054B054A1B6AC3F30213D35C03F0B7
:103860001F03D84008BD00BF0044025828D00608F6
:10387000584B70B4996A9D6ADE6A15F47C3FC5F3B3
:103880000532DC6B5CD0C4F3CC04C6F3001601F047
:10389000030106FB04F4012907EE904AB8EEE77A2B
:1038A00003D0022975D000294FD007EE902ADFED12
:1038B0004A6AF8EEE77A9B6B86EEA76A9FED475A55
:1038C000C3F3080306EE903AF7EE005AF8EEE66A04
:1038D000E7EE056A76EEA56A66EE266A3D4AB7EE21
:1038E000006A936BC3F3462307EE103AB8EEC77A2B
:1038F00070BC37EE067AC6EE877AFCEEE77AC0ED4A
:10390000007A936BC3F3064307EE103AB8EEC77A1A
:1039100037EE067AC6EE877AFCEEE77AC0ED017ADA
:10392000936BC3F3066307EE903AF8EEE77A77EE0F
:10393000867A86EEA77ABCEEC77A80ED027A704767
:1039400070BCC0E90022826070471968890627D5DB
:103950001C6807EE902A2249F7EE005A9B6BC4F3CD
:10396000C102F8EEE77A9FED1D5AC3F30803D14078
:1039700006EE903A06EE101AF8EEE66AB8EEC66A5F
:10398000E7EE056A86EE277A76EEA56A66EE876A26
:10399000A4E707EE902ADFED136AF8EEE77A8AE7EC
:1039A00007EE902A9FED105A9B6BB7EE006AF8EE77
:1039B000E77ADFED0A5AC3F30803C5EE276A07EE7C
:1039C000903AF8EEE77AE7EE257A77EE867A66EEB9
:1039D000A76A83E7004402580024744A00000039B3
:1039E0000090D0030024F44A0024744C584B70B467
:1039F000996A9D6ADE6A15F07C7FC5F305525C6C9E
:103A00005CD0C4F3CC04C6F3002601F0030106FB2E
:103A100004F4012907EE904AB8EEE77A03D00229B0
:103A200075D000294FD007EE902ADFED4A6AF8EEF4
:103A3000E77A1B6C86EEA76A9FED475AC3F308032B
:103A400006EE903AF7EE005AF8EEE66AE7EE056AFF
:103A500076EEA56A66EE266A3D4AB7EE006A136CFA
:103A6000C3F3462307EE103AB8EEC77A70BC37EEC0
:103A7000067AC6EE877AFCEEE77AC0ED007A136C20
:103A8000C3F3064307EE103AB8EEC77A37EE067A6C
:103A9000C6EE877AFCEEE77AC0ED017A136CC3F3C9
:103AA000066307EE903AF8EEE77A77EE867A86EECE
:103AB000A77ABCEEC77A80ED027A704770BCC0E985
:103AC0000022826070471968890627D51C6807EEB6
:103AD000902A2249F7EE005A1B6CC4F3C102F8EE9B
:103AE000E77A9FED1D5AC3F30803D14006EE903AE2
:103AF00006EE101AF8EEE66AB8EEC66AE7EE056A58
:103B000086EE277A76EEA56A66EE876AA4E707EE68
:103B1000902ADFED136AF8EEE77A8AE707EE902A3B
:103B20009FED105A1B6CB7EE006AF8EEE77ADFEDF6
:103B30000A5AC3F30803C5EE276A07EE903AF8EE77
:103B4000E77AE7EE257A77EE867A66EEA76A83E76C
:103B5000004402580024744A000000390090D00349
:103B60000024F44A0024744C90F83D30012B11D10C
:103B700002210268094B80F83D1091680B40062B2A
:103B80000AD0B3F5803F07D01368002043F001034B
:103B90001360704701207047002070470700010044
:103BA000704700BF704700BF704700BF704700BF3D
:103BB000704700BF03681A69910710B5044602D523
:103BC000DA68920768D41A69520702D5DA68500792
:103BD0004FD41A69110702D5DA68120737D41A6967
:103BE000D00602D5DA68D1061ED41A69D20702D5EA
:103BF000DA68D00769D41A69110602D5DA681206A4
:103C00006BD41A69D00502D5DA6811066DD41A6929
:103C1000520602D5DA6850066FD41A69910602D5A9
:103C2000DA68920649D410BD6FF0100108222046D0
:103C300019612277DB6913F4407F6FD1FFF7B2FF80
:103C40002046FFF7B3FF002223682277CDE76FF00D
:103C500008010422204619612277DB699B075AD1AB
:103C6000FFF7A0FF2046FFF7A1FF0022236822777D
:103C7000B5E76FF0040102222046196122779B69A3
:103C800013F4407F44D1FFF78DFF2046FFF78EFFEE
:103C90000022236822779CE76FF00201012219615C
:103CA00002779B69990730D1FFF77CFF2046FFF729
:103CB0007DFF00222368227785E76FF020022046EF
:103CC0001A61BDE8104000F059B96FF001022046BA
:103CD0001A61FFF765FF23688DE76FF080022046C9
:103CE0001A6100F04DF923688BE76FF4807220466B
:103CF0001A6100F047F9236889E76FF04002204617
:103D00001A61FFF755FF236887E7FFF74DFFD0E7FC
:103D1000FFF74AFFBCE7FFF747FFA6E7FFF744FFBF
:103D200091E700BF434AB0F1804F0368A0EB020265
:103D3000B2FA82F230B44FEA52122BD052BB3E4C50
:103D4000A0424FD004F58064A0424BD004F58064BB
:103D5000A04251D004F57844A0424DD0374A904259
:103D60005AD002F58062904256D0354CA2F5C84236
:103D7000904218BFA0424FD002F5806290424BD0D3
:103D80004D6923F080038C680A682B430360C4628A
:103D9000826223E04C6823F070032343294C041B08
:103DA000B4FA84F46409CD6823F440732B434D695D
:103DB00023F080032B4303608B68C3620B6883622C
:103DC00052B94CB91D4A204B984218BF904203D0BB
:103DD00003F58063984201D10B690363012330BC72
:103DE00043617047174C23F070034D68041B2B434D
:103DF000B4FA84F46409D6E74D6823F07003114CDB
:103E00002B43124D041BA842B4FA84F44FEA541415
:103E1000C9D0002CC7D1A1E7CC6823F440734A690C
:103E200023438C6823F0800313430A680360C46251
:103E30008262C7E7000001400004004000400140EA
:103E4000004801400004014000440140000C0040D3
:103E500070B310B590F83D30044603F0FF0213B381
:103E60002146022384F83D3051F8040BFFF75AFF36
:103E70000123002084F8483084F83E3084F83F3035
:103E800084F8403084F8413084F8423084F843307C
:103E900084F8443084F8453084F8463084F847305C
:103EA00084F83D3010BD80F83C200BF0C7FAD7E70E
:103EB0000120704790F83C30012B53D00368024634
:103EC000022070B4284D82F83D00AB4258689C68CF
:103ED0003ED005F58065AB423AD020F0700523480E
:103EE000234E834218BFB3F1804F0CBF0120002046
:103EF000B34208BF40F0010006F58066B34208BF38
:103F000040F0010006F54066B34208BF40F00100F2
:103F100006F59436B34208BF40F001000E68354301
:103F20005D60144DAB4208BF40F0010010B912486B
:103F3000834204D1896824F080040C439C600023F0
:103F40000121184682F83D1082F83C3070BC704761
:103F50004D6820F4700028430D6820F0700028435D
:103F60005860E7E70220704700000140000400406D
:103F70000008004000E0004000E40040704700BF3F
:103F8000704700BF704700BFD0F88430202B3DD170
:103F9000002939D0B2FA82F35B09002A34D090F8B4
:103FA0007CC0BCF1010F31D04FF0010C30B4816501
:103FB0008168A0F85C20B1F5805F80F87CC0A0F833
:103FC0005E20C3662BD019B3B1F1805F6BD0A0F82F
:103FD0006030016800242223C0F88840446EC0F895
:103FE00084308B68B4F1005F43F001038B603DD0F7
:103FF000304A0023C26680F87C3018460A6842F4D2
:1040000090720A6030BC70470120704702207047F0
:104010000369002B3DD1FF23A0F86030D9E7046984
:104020009CB901682223C0F8884040F2FF14C0F810
:1040300084308B68A0F8604043F001038B60436ECE
:10404000B3F1005F29D01C4AD3E701682225C0F8EC
:104050008830FF24C0F884508B68A0F8604043F09B
:1040600001038B60436EB3F1005FC1D1B0F86830DB
:104070009342BDD8114A0023C26680F87C301846AE
:104080000A6842F480720A608B6843F080538B6048
:10409000B8E77F23A0F860309BE7B0F86830934220
:1040A000D1D8074AE7E70369002BF2D03F23A0F8F5
:1040B00060308EE7CD4000082D4100088D4100089A
:1040C00045420008704700BF704700BFD0F8842009
:1040D000222A026804D0936943F008039361704771
:1040E000526AB0F860C0816D02EA0C020A70B0F842
:1040F0005E20816D013A013192B28165A0F85E20A7
:10410000B0F85E2092B202B17047016810B50C6839
:1041100024F490740C608C6824F001048C602021DD
:10412000C266C0F88410FFF7CFFF10BDD0F884201E
:10413000222A05D00268936943F00803936170470F
:1041400010B50468B0F860C0626A816D02EA0C02C2
:1041500021F8022BB0F85E208165013A92B2A0F8F6
:104160005E20B0F85E2092B202B110BD216821F449
:1041700090712160A16821F00101A1602021C26637
:10418000C0F88410FFF7A0FF10BD00BFD0F8843046
:10419000222B2DE9F041044606D00268936943F0D2
:1041A00008039361BDE8F081B0F86850002D42D05B
:1041B00090F860802026214F02E0013DADB22DB382
:1041C0002368A26D5B6A08EA03031370B4F85E30DB
:1041D000A26D013B01329BB2A265A4F85E30B4F837
:1041E0005E309BB2002BE8D12268013D2046116869
:1041F000ADB221F480711160916839409160E3663D
:10420000C4F88460FFF760FF002DD9D1B4F85E30A8
:104210009BB2002BC6D0B4F868209A42C2D923685A
:1042200007499A6822F080529A601A68E16642F063
:1042300020021A60B6E7B0F85E30B3E7FEFFFFEF8A
:10424000CD400008D0F88430222B2DE9F0410446FF
:1042500006D00268936943F008039361BDE8F081DA
:10426000B0F86850002D40D0B0F860802026204F74
:1042700002E0013DADB21DB32168A26D4B6A08EAB0
:10428000030322F8023BB4F85E30A265013B9BB207
:10429000A4F85E30B4F85E309BB2002BE9D10A6816
:1042A000013D204622F48072ADB20A608A683A402D
:1042B0008A60C4F88460E366FFF706FF002DDBD157
:1042C000B4F85E309BB2002BC8D0B4F868209A4294
:1042D000C4D9236807499A6822F080529A601A6804
:1042E000E16642F020021A60B8E7B0F85E30B5E748
:1042F000FEFFFFEF2D410008704700BF026840F647
:104300000F0CD36913EA0C0F70B515680446916859
:1043100000F09180734E744805EA060C08405CEA90
:1043200000061DD1D80202D54E0200F1AA8018065F
:1043300006D501F4000105F08000014340F09980AA
:104340005E0602D5680600F1A880190202D56A004F
:1043500000F1B080DB0102D5002DC0F2B78070BD46
:10436000DE0709D5EE0507D501261662D4F8886068
:1043700046F00106C4F888609E076DD5CE0709D5C2
:1043800002261662D4F8886046F00406C4F88860F5
:104390005E0765D41E070BD505F02006304307D015
:1043A00008201062D4F8880040F00800C4F88800A3
:1043B0001E050AD5680108D54FF400601062D4F8D4
:1043C000880040F02000C4F88800D4F88800002855
:1043D000C5D09E0606D505F0200501F0805155EAAE
:1043E00001036CD1D4F88850936805F0280503F0D8
:1043F00040031D436FD0116820203C4B21F4907185
:10440000116091680B4000219360C4F884009368A8
:10441000E1665D063DD59368A06F23F0400393608D
:10442000002836D0324B0365FDF7D6F9002896D028
:10443000A06F036D0DE09E067FF574AF05F02006BA
:1044400001F0805C56EA0C063FF46CAFC36E002BA3
:1044500085D0BDE8704018475E079BD5CE0799D53B
:1044600004261662D4F8886046F00206C4F8886014
:1044700090E7236F002B3FF472AF2046BDE87040F9
:1044800018474FF4801320461362BDE8704000F0D7
:1044900031BC2046FFF730FF70BD1368202000219B
:1044A00023F040031360C4F8800020462167FFF723
:1044B00009FE70BD2046BDE8704000F01FBCE36EF1
:1044C000002B8FD02046984722688BE72046BDE816
:1044D000704000F011BC2046FFF70EFFC4F8885072
:1044E00070BD00BF2001000401000010FEFFFFEFBF
:1044F000F544000808B5806B0023A0F85E30A0F8F2
:104500005630FFF7F9FE08BD30B58268044687B023
:104510002368D0E904101D680A43616E0243E06914
:1045200002430A43B1492940B14D0A43E168AB4215
:104530001A605A6822F4405242EA0102A1695A60A4
:104540007DD0226A9D681143AA4A2A40656A1143B8
:104550009960DA6A22F00F022A43DA62A64A93428D
:104560002AD0A64A93425BD0A54A934200F0AF817D
:10457000A44A934200F0D581A34A934200F00C81F3
:10458000A24A934200F0D781A14A934200F02D82C3
:10459000A04A934200F0DB819F4A934200F03182AF
:1045A0009E4A934242D19E4B5B6D03F03803282B09
:1045B0003CD89C4AD35C07E0994B5B6D03F0380311
:1045C000282B33D8984AD35CB0F5004F00F09A807E
:1045D000202B00F23381202B28D8DFE813F00401D0
:1045E000010127002700F900270027002700F2001B
:1045F0002700270027002700270027002700E700C3
:104600002700270027002700270027002700270072
:104610002700270027002700270027002700C201C6
:104620007F4B5B6D03F00703052B65D90120002349
:104630004FF00112C4E91A23236707B030BD986810
:104640006C4A024076480A439A60DA6A616A22F04C
:104650000F020A43DA62836D03F00703052BE5D8E6
:10466000724AD35C202B00F20481012BDED9023B7D
:104670001E2BDBD801A252F823F000BF67490008C7
:104680002D460008974900082D4600082D460008D1
:104690002D460008874900082D4600082D460008D1
:1046A0002D4600082D4600082D4600082D4600081E
:1046B0002D460008734900082D4600082D460008C5
:1046C0002D4600082D4600082D4600082D460008FE
:1046D0002D4600082D4600082D4600082D460008EE
:1046E0002D4600082D4600082D4600082D460008DE
:1046F0002D460008A74900084D4AB0F5004FD35C8D
:104700007FF466AF202B00F2EC80202B8ED801A224
:1047100052F823F0B9490008AB4900082D460008BB
:104720002D460008DD4900082D4600082D460008EA
:104730002D460008D34900082D4600082D460008E4
:104740002D4600082D4600082D4600082D4600087D
:104750002D460008BF4900082D4600082D460008D8
:104760002D4600082D4600082D4600082D4600085D
:104770002D4600082D4600082D4600082D4600084D
:104780002D4600082D4600082D4600082D4600083D
:104790002D460008E7490008214B5B6D03F0070335
:1047A000052B3FF643AF234AD35C0DE71C4B1A6839
:1047B000920640F1CA801B681F48C3F3C103D8406A
:1047C00041E003A8FFF712F9049838B900202EE75A
:1047D0006846FFF74DF801980028F7D0656A32E087
:1047E000FEF730FAF1E7FEF71BFAEEE7F369FFCFC9
:1047F000000C0058FFF4FF1100100140004400407D
:1048000000480040004C00400050004000140140AF
:1048100000780040007C004000180140001C01406E
:104820000044025858CA060858CA06088CCA060826
:1048300084CA060884CA06080090D003402B7FF47F
:10484000F5AE4FF40040754B4FF6EF71626833F8E8
:104850001530B0FBF3F303EB5203B3FBF2F39BB25F
:10486000A3F110028A423FF6E1AE22680020D36035
:10487000DDE6402B7FF4DAAE4FF40040674B626A0E
:10488000656833F8122005EB4501B0FBF2F399425D
:104890003FF6CCAEB3EB053F3FF6C8AE002319465A
:1048A000FBF70AFF2A460902030241EA1061680881
:1048B00018184FF0000341F10001FBF7FDFE584AC4
:1048C000A0F54071034691423FF6B0AECDE7554B9F
:1048D0005B6D03F00703052B3FF6A8AE524AD35C8D
:1048E00072E6402B7FF4A2AE4C4B626833F8151091
:1048F0005308B0FBF1F003EB40004FF6EF73B0FB51
:10490000F2F082B2A2F1100199423FF68FAE20F090
:104910000F03C2F34202216800209BB21343CB6015
:1049200085E6404B5B6D03F00703052B3FF67EAE3B
:104930003E4AD35C48E63B4B5B6D03F03803282BC3
:104940003FF674AE3A4AD35C3EE63A487BE7354BD5
:104950005B6D03F00703052B3FF668AE364AD35C68
:1049600032E636486FE7FEF771FF00283FF42EAFBE
:1049700084E72C4B1A68900641D51B682D48C3F379
:10498000C103D8407AE703A8FFF730F8049800285D
:104990003FF41CAF72E76846FEF76AFF01980028F3
:1049A0003FF414AF6AE7254868E7FEF74BF90028A3
:1049B0003FF40CAF656A97E7FEF732F9F7E7194B5A
:1049C0001A68910627D51B681A48C3F3C103D8405B
:1049D0008AE703A8FFF70AF80498E8E76846FEF7B5
:1049E00047FF0198E3E715487EE70E4B5B6D03F048
:1049F0000703052B3FF61AAE114AD35CE4E50D48D8
:104A00003CE7084B5B6D03F03803282B3FF60EAEF6
:104A10000C4AD35CD8E5074866E700BF94CA06088D
:104A2000FFFC0F000044025884CA060884CA060826
:104A300058CA06080090D00384CA060800093D0041
:104A400084CA060858CA0608836ADA0710B406D56D
:104A50000168C46A4A6822F4003222434A609C0713
:104A600006D50168046B4A6822F4803222434A600A
:104A7000590706D50168446B4A6822F48022224314
:104A80004A601A0706D50168846B4A6822F400421E
:104A900022434A60DC0606D50168C46B8A6822F4AA
:104AA000805222438A60990606D50168046C8A68A0
:104AB00022F4005222438A605A060AD50168446CE7
:104AC0004A68B4F5801F22F4801242EA04024A6068
:104AD0000BD01B0606D50268C16C536823F4002373
:104AE0000B4353605DF8044B70474A68846C22F4B2
:104AF000C00222434A60ECE72DE9F047DDF8208050
:104B000081460F4616469A46056802E0B8F1FF3F17
:104B10000CD1EC6937EA04030CBF4FF0010C4FF0E5
:104B2000000CB445F2D00020BDE8F087FCF78AFA0B
:104B3000A0EB0A00B8FA88F240454FEA521220D89A
:104B4000B8F1000F1DD0D9F800502B685907E0D5F7
:104B5000EB691B05DDD54FF400612023032029629A
:104B6000296821F4D0712960A96821F00101A960A8
:104B7000C9F8803089F87C20C9F88430C9F88830B9
:104B8000D2E7D9F800302021002403201A6822F44B
:104B9000D0721A609A6822F001029A60C9F88010F7
:104BA00089F87C40C9F88410BEE700BF70B50026C4
:104BB000044682B0C0F88860FCF744FA23680546D2
:104BC0001A6812070DD41B685B0719D40023202232
:104BD0001846C4F8802084F87C30C4F8842002B0E1
:104BE00070BD6FF07E4103463246204600914FF47F
:104BF0000011FFF781FF78B923681B685B07E5D5D3
:104C00006FF07E402B4600224FF48001009020463A
:104C1000FFF772FF0028D9D0032002B070BD00BF9B
:104C200080B3D0F8803010B5044633B32268242313
:104C30002046C4F88030136823F001031360FFF7A7
:104C400063FC012817D0A36A8BB9236820465A68F1
:104C500022F490425A609A6822F02A029A601A68F6
:104C600042F00102BDE810401A60FFF79FBF2046E6
:104C7000FFF7EAFEE9E7012010BD80F87C300AF07A
:104C800059FCD3E70120704784B018490346184AFD
:104C9000EC4603C98CE8030092E8030004AA02E989
:104CA00003005A6E22B94FF001129A6604B07047A1
:104CB000196804A88A688968C2F3426200EB5171DE
:104CC000103211F8100C6A4411F8081C000112F897
:104CD00008CCB0FBF1F012F8101CA3F86A000A012E
:104CE000B2FBFCF2A3F8682004B0704748CA06087B
:104CF000ACCA0608704700BF704700BF704700BFCE
:104D000090F87C20012A17D0026803462420002155
:104D100030B4C3F8800020251068146820F00050DB
:104D200024F001041460596610600846C3F88050EE
:104D300083F87C1030BC70470220704738B590F87B
:104D40007C30012B1DD001220368044680F87C20B2
:104D50002422C0F880201D681A6822F001021A601F
:104D60009A6822F0604211439960FFF78DFF00239B
:104D70002168202218460D60C4F8802084F87C3019
:104D800038BD022038BD00BF38B590F87C30012B0B
:104D90001DD001220368044680F87C202422C0F83C
:104DA00080201D681A6822F001021A609A6822F0B9
:104DB000606211439960FFF767FF0023216820229A
:104DC00018460D60C4F8802084F87C3038BD02207D
:104DD00038BD00BF2C2062F053BA00BF43699B6905
:104DE0008B422DE9F04F894683B025D10029D0F8B8
:104DF0000080D0E906671BDD15460024DFF858B0B7
:104E0000DFF858A02346424639463046CDE900B582
:104E100010F0AEFA23460134019542463946304639
:104E2000CDF800A010F0D4FAA14505F10805E9D1AC
:104E3000002003B0BDE8F08F05480A460549006828
:104E4000C06861F0DDFF012003B0BDE8F08F00BF56
:104E5000D0020024B8CA060894CB060898CB0608EE
:104E60000C2B70B516D1436905469B698B420FDD4B
:104E700000290DDB6824406A164601FB04F4114644
:104E8000204483689847A86A31462044836898473D
:104E9000002070BD0C221946024862F08BFD0120F3
:104EA00061F0DAFDA0CB06082DE9F04F0C23044693
:104EB00089462DED028BAFB023620490084618920C
:104EC00010F0D2F80122052160610346017091457E
:104ED000C16802724FF00000087040F3CC87D968B7
:104EE000885401329145FAD1DA6802F809000022AB
:104EF0001146186981545868815401329145F8DC93
:104F0000002210465969885401329145FADC09F1B2
:104F10000106596903F110020024370101F8094024
:104F200006EB86081C9707CA8DE807000FCB10F028
:104F3000E5F8049B8246986106EB0610800062F05B
:104F40009FF9054611902C2006EB4601A14500FB78
:104F50000650C6EBC60306EBC60209904FF03400BC
:104F600000FB06501090A7EB060005EB80000B90AD
:104F7000284605EB8605199500EBC605129500EB52
:104F80008105139500EB0705149500EB8805159531
:104F900000EBC805179500EBC10500EB0111169554
:104FA0000A91014600EB83001A9001EB46101B901A
:104FB0004FEA820001EB82021D900F924FEAC3027A
:104FC00001EBC3031E920E934FEA86131F9301EB6E
:104FD00086130C936CDB119B07EE90AA1A9AA3F12F
:104FE000040B199B1799101F043B1B9A0439CDF829
:104FF00084900793043A109BDA460D910321043BF9
:105000000892DDF83490042206930F9B0D96A3F1CD
:1050100004080E9BDDF820B01F1F129B4646089027
:10502000043B0593139B1D1F149BA3F1040E159BBA
:10503000A846A3F1040C169B043B20932346209D15
:1050400007984AF8041F40F8042F0790069840F884
:10505000043F0690072046F8041F47F8040F059800
:1050600040F8043F0590089848F8042F4EF8043F94
:105070004CF8043F45F8041F40F8043F0890099895
:105080004BF8043F49F8042F40F824300A9840F8C0
:1050900024300B9840F824300C9840F82430013428
:1050A0000D988442CCD117EE90AADDF88490064684
:1050B0000323119A00250E9942F8363016461C9AA1
:1050C000199FB5501D9A1298B3501F9A0A9CB3505D
:1050D00007231E9AB350109B0F9A47F8295043F8A4
:1050E000295042F8295041F8295040F82950139886
:1050F00040F82950179840F82950099840F829504D
:1051000000EB890044F8295009900B9C149844F84E
:10511000295040F8295015981B9C40F829501698A2
:1051200040F829501A9840F8295000EB890044F8BB
:1051300029500A90504610F0F9F804460498334676
:10514000734A2146C46150460AF06AFD3B46714AE3
:10515000214650460AF064FD109B6F4A2146504696
:105160000AF05EFD0E9E0F9B214606EB89066B4AF8
:10517000504608960AF054FDA945C0F25E85129B80
:10518000CDF81C90A1460693DDF854B00C9EDDE9E5
:105190001332DDE916781C460592069B2A464946DD
:1051A00050460093043306935D4B0AF095FF2A4660
:1051B0005C4B4946504600940AF08EFF059B2A46F8
:1051C000494600930433504604340593564B0AF085
:1051D00083FF2A46554B49465046CDF800B00AF0A9
:1051E0007BFF2A46524B49465046CDF800800AF0D4
:1051F00073FF2A464F4B4946504600970AF06CFF12
:105200002A464D4B4946009650460AF065FF013547
:10521000079B0BF1040B08F104080437AB4206F1BD
:105220000406BADA0E9B4C46DDF81C90002200936F
:105230002146424B50460BF055F8B9F1010F40F3AF
:1052400004850E9E01253D4F04362A460135009601
:105250003B46214650460BF045F8A94506F10406A9
:10526000F3D1099B21464A46504600936825344BAA
:105270004FF000080AF030FF0A9B21464A4650468C
:105280000093304B08EE904A0AF026FF089B214617
:105290004A4650460093294B44460BF023F8119898
:1052A00061F0F6FF05FB09F3274F184608EE103AA8
:1052B00061F0E6FF049B254EDFF8A8B098465862DF
:1052C00001E0D8F8240005FB0400214B01340C2137
:1052D0004361204BC0E909371F4BC0E9076B83616D
:1052E0000FF0B4FEA145ECDC18EE904A18EE100A5F
:1052F0004FF0000861F0C4FF049B08EE104ADFF88D
:1053000068B04446154F164E6825984698622FE0BF
:105310001CCC060820CC060824CC060828CC06089D
:1053200030CC060834CC060838CC060840CC060839
:1053300084D1060848CC06084CCC06082CCC0608BC
:1053400054CC060858CC060859ED00085DED00085D
:10535000B171000855ED000885ED000819700008CE
:105360002970000871ED0008F9600008D8F82800DD
:1053700005FB0400CE4B01340C214362CD4BC0F839
:1053800014B08362CC4B8661C0E907370FF05EFE34
:10539000A145EBDC18EE101A50460FF0D7FF049B26
:1053A00018EE104A83461860189B002B00F0F0831B
:1053B000189A49460498FFF711FD2CAB0793B9F1F1
:1053C000000F40F307845A460025CB46DFF81883C8
:1053D0006827DDF81090D9F8241007FB05F6B748C8
:1053E0002B463144059200905046019121460FF022
:1053F000DBFFD9F828102B4601353144059A504679
:10540000CDE9008121460FF0CFFFAB45059AE2D1EF
:1054100008213120D946DFF8D482934661F0CEFAD4
:10542000054600235A46214601905046CDF800809B
:105430009FED9B8B85ED208B0FF0CAFF284661F016
:1054400027FF0821072061F0B9FA9D4B05465A460F
:10545000214600930190002350460FF0B9FF2846E3
:1054600061F016FF0821312061F0A8FA08210646F4
:1054700080ED208B072061F0A1FAB9F1010F0746FA
:1054800014DD01252B465A4621465046CDE90086BB
:105490000FF09EFF8A492B46013500915A4621465E
:1054A000504601970FF094FFA945EBD13046B7EE77
:1054B000008B61F0EDFE384661F0EAFE0821152010
:1054C000DFF82C8261F07AFA7E4B0546019000935A
:1054D0005A4600232146504685ED008B85ED108B02
:1054E00085ED208B0FF074FF284661F0D1FE082176
:1054F0001C2061F063FA054601900023CDF800807E
:105500005A46214680ED068B80ED168B80ED268B6A
:1055100080ED368B50460FF05BFF284661F0B8FEF9
:105520000821152061F04AFAB9F1010F074680ED14
:10553000008B80ED108B80ED208B40F3C383012521
:1055400060482B462E46013500905A46214650466B
:1055500001970FF03DFFA945F2D13846012761F0D0
:1055600097FE08211C2061F029FA0022564B0546BF
:10557000C0E90623C0E91623C0E92623C0E9362383
:105580003B465A4621465046CDE900850FF020FFA4
:10559000B74207F10107F3D128464C4F61F078FE7E
:1055A00008210C20002561F009FA00F1180300F130
:1055B0004808069300F130034646804605933AA317
:1055C000D3E90023C0E90E23C0E91023C0E9142366
:1055D000C0E916233E4B0022C0E90C23C0E9122388
:1055E0004B46A1465C469B462B46224649465046C2
:1055F000CDE900780FF0ECFE069B22464946019368
:105600005046344B00932B460FF0E2FE059B22469A
:10561000494601935046304B00932B460FF0D8FE7D
:105620002E4B2246494600932B46013550460196A3
:105630000FF0CEFEAB45D7DC5B464646A3464C4654
:10564000994630464FF0010861F022FE0C2061F0CF
:1056500017FE00260223054608218360C0E9006882
:10566000062061F0ABF9B3EE007B07461C4A0195BA
:105670003346009221465A46504687ED007B87ED1F
:10568000067B0FF0B9FE174A334621460197504674
:1056900000925A460FF0B0FE07F118022AE000BF50
:1056A00000000000000049402D431CEBE2361A3F89
:1056B000FD6F0008017000080570000868CC06083E
:1056C00060CC060888CC06080000F03F90CC0608A5
:1056D0000000694094CC060898CC06089CCC0608CB
:1056E000A0CC0608A8CC060878CC06085CCC060836
:1056F0008CCC06083346214601925046C04A00929F
:105700005A460FF079FE284661F0C2FD384661F036
:10571000BFFD0C2061F0B4FD0223BA4A07462146C2
:105720000190836033460225C0E90068009250462C
:105730005A460FF061FE384661F0AAFD102061F074
:105740009FFD032308210746C0E90068C0E9025312
:10575000084661F033F9B14500F120038046059316
:1057600040F330834B463546D9469B46A64B4A46C6
:105770002146504600932B4601972E460FF03CFEE3
:10578000A24B4A462146009350462B46CDF8048052
:105790000FF032FE059A2B460135019221469C4AB4
:1057A000504600924A460FF027FEAB45DED15B46DD
:1057B0003846CB46994661F06BFD404661F068FD86
:1057C0000C2061F05DFD00230746032203600220E8
:1057D00008219846C7E90102062061F0EFF800F1C0
:1057E0001803CDF814900546B1461E46894B5A461B
:1057F000214650460093434601970FF0FDFD864B2E
:105800005A46214600935046434601950FF0F4FD59
:10581000824B5A46214600935046434601960FF06C
:10582000EBFDC84508F10108E0D1DDF814903846D9
:1058300061F02EFD284661F02BFD0821102061F05B
:10584000BDF8082107460C2061F0B8F80821059042
:10585000084661F0B3F80022714B0146B9F1000F20
:105860008046E1E80823C7E90023C7E90823C7E920
:105870001023C7E91823C7E90223C7E90A23C7E9A8
:105880001223C7E91A23C7E90C23C7E90623C0E995
:105890000223C0E90823C0E90A234FF00002614B4C
:1058A0000691C7E91C23C7E9162340F3A0824B46A3
:1058B000A04600255C4681469B465B4B22464146FE
:1058C000504600932B4601972E460FF095FD059B01
:1058D0002246414601935046544B00932B460FF00D
:1058E0008BFD534B22464146009350462B46CDF844
:1058F00004900FF081FD069A2B4601350192414636
:105900004C4A5046009222460FF076FDAB45D4D16A
:105910005B463846A3464446C846994661F0B8FC03
:10592000059861F0B5FC404661F0B2FC2146504656
:1059300000270FF027FF049B01463F4A186150469D
:105940003E4B0DF18E050FF033FFDFF8F480CDF8FC
:105950001490DDF810908DF88E703A46D9F810103A
:105960004346504600950FF029FFB74207F1010763
:10597000F3D10123002724ADDFF8C880DDF81090B3
:1059800024933A46D9F810104346504600950FF03C
:1059900015FFB74207F10107F3D10223002725AD18
:1059A000DFF8A480DDF8109025933A46D9F810105E
:1059B0004346504600950FF001FFBE4207F1010734
:1059C000F3D10323002726ADDFF88080DDF81090A7
:1059D00026933A46D9F810104346504600950FF0EA
:1059E000EDFEB74207F10107F3D100270DF18F0556
:1059F000DFF85C80DDF810908DF88F702AE000BF32
:105A0000ACCC0608B0CC0608B8CC0608C0CC06085A
:105A1000C4CC0608C8CC0608D0CC0608D4CC0608EE
:105A20000000F03F0000F0BFD8CC060870D1060897
:105A3000DCCC0608E0CC0608C4CD0608B8CD0608C4
:105A4000E4CC060800CD060814CD060828CD0608CB
:105A500040CD06083A46D9F8101043465046009506
:105A60000FF0ACFEB74207F10107F3D1DDF8149057
:105A7000049F00262AABBE4A39695046BD4F002517
:105A8000CDE92A670FF094FE049F0026079B396931
:105A90000027B94A5046CDE92C670FF089FE049FD4
:105AA0003223B64A39695046279327AB0FF080FE60
:105AB000022339695046B24A289328AB0FF078FE8A
:105AC00029ABB04A5046396929950FF071FE21463D
:105AD00050460FF0A5FC21467860064650460FF070
:105AE0009FFC0821B860072060F068FF0022804614
:105AF000A54BA9450746E8E8062340F39981A34949
:105B00002B46324650460091214601970FF09AFCF1
