:020000040800F2
:1000000000000524C5C7000899C100089DC100086B
:10001000A1C10008A5C10008A9C100080000000096
:10002000000000000000000000000000ADC100085A
:10003000B1C1000800000000B5C10008B9C1000846
:1000400015C8000815C8000815C8000815C800081C
:1000500015C8000815C8000815C8000815C800080C
:1000600015C8000815C8000815C80008BDC100085B
:10007000C9C1000815C8000815C8000815C800083F
:1000800015C8000815C8000815C8000815C80008DC
:1000900015C8000815C8000815C8000815C80008CC
:1000A00015C8000815C8000815C8000815C80008BC
:1000B00015C8000815C8000815C8000815C80008AC
:1000C00015C8000815C8000815C8000815C800089C
:1000D00015C8000815C8000815C80008D5C10008D3
:1000E00015C8000815C800080000000015C8000861
:1000F00015C8000815C8000815C8000815C800086C
:1001000015C8000815C8000815C8000815C800085B
:1001100015C8000815C8000805C2000811C200086B
:1001200015C8000815C8000815C8000815C800083B
:1001300015C8000815C8000815C8000815C800082B
:1001400000000000000000000000000000000000AF
:1001500015C8000815C8000815C8000815C800080B
:1001600015C8000815C8000815C8000815C80008FB
:1001700015C8000815C8000815C8000800000000D0
:1001800015C8000815C8000815C8000815C80008DB
:1001900015C8000815C8000815C8000815C80008CB
:1001A00015C8000815C8000815C8000800000000A0
:1001B00015C8000815C8000815C8000815C80008AB
:1001C00015C8000815C80008000000000000000065
:1001D000000000000000000015C80008000000003A
:1001E000000000000000000000000000000000000F
:1001F000000000000000000015C8000815C8000835
:1002000015C8000815C800080000000015C800083F
:1002100015C8000815C8000815C8000815C800084A
:1002200015C800080000000015C800080000000004
:1002300015C8000815C800080000000015C800080F
:1002400015C8000815C8000815C8000815C800081A
:1002500015C8000815C8000815C8000815C800080A
:1002600015C8000815C8000815C8000815C80008FA
:1002700015C8000815C8000815C8000800000000CF
:1002800015C8000815C8000815C8000815C80008DA
:100290000000000015C8000815C800080000000094
:1002A0000000000015C8000815C8000815C800089F
:1002B00015C8000815C8000815C8000815C80008AA
:0C02C00015C8000815C8000815C8000883
:1003000010B5054C237833B9044B13B10448AFF34F
:1003100000800123237010BD800C00240000000029
:10032000E871060808B5034B1BB103490348AFF356
:10033000008008BD00000000840C0024E87106085D
:1003400081F0004102E000BF83F0004330B54FEA86
:1003500041044FEA430594EA050F08BF90EA020FF3
:100360001FBF54EA000C55EA020C7FEA645C7FEA86
:10037000655C00F0E2804FEA5454D4EB5555B8BFA9
:100380006D420CDD2C4480EA020281EA030382EA1A
:10039000000083EA010180EA020281EA0303362DAC
:1003A00088BF30BD11F0004F4FEA01314FF4801C7F
:1003B0004CEA113102D0404261EB410113F0004F91
:1003C0004FEA03334CEA133302D0524263EB430348
:1003D00094EA050F00F0A780A4F10104D5F1200EE6
:1003E0000DDB02FA0EFC22FA05F2801841F1000141
:1003F00003FA0EF2801843FA05F359410EE0A5F115
:1004000020050EF1200E012A03FA0EFC28BF4CF045
:10041000020C43FA05F3C01851EBE37101F00045FB
:1004200007D54FF0000EDCF1000C7EEB00006EEB08
:100430000101B1F5801F1BD3B1F5001F0CD3490892
:100440005FEA30004FEA3C0C04F101044FEA4452E9
:1004500012F5800F80F09A80BCF1004F08BF5FEA70
:10046000500C50F1000041EB045141EA050130BD50
:100470005FEA4C0C404141EB0101013C28BFB1F562
:10048000801FE9D291F0000F04BF01460020B1FAAD
:1004900081F308BF2033A3F10B03B3F120020CDA80
:1004A0000C3208DD02F1140CC2F10C0201FA0CF05E
:1004B00021FA02F10CE002F11402D8BFC2F1200CC3
:1004C00001FA02F120FA0CFCDCBF41EA0C01904079
:1004D000E41AA2BF01EB0451294330BD6FEA0404C2
:1004E0001F3C1CDA0C340EDC04F11404C4F12002AD
:1004F00020FA04F001FA02F340EA030021FA04F3BF
:1005000045EA030130BDC4F10C04C4F1200220FA15
:1005100002F001FA04F340EA0300294630BD21FA53
:1005200004F0294630BD94F0000F83F4801306BF19
:1005300081F480110134013D4EE77FEA645C18BF0D
:100540007FEA655C29D094EA050F08BF90EA020FA4
:1005500005D054EA000C04BF1946104630BD91EA9C
:10056000030F1EBF0021002030BD5FEA545C05D19F
:100570004000494128BF41F0004130BD14F58004DE
:100580003CBF01F5801130BD01F0004545F0FE4152
:1005900041F470014FF0000030BD7FEA645C1ABF87
:1005A000194610467FEA655C1CBF0B46024650EABE
:1005B000013406BF52EA033591EA030F41F40021EA
:1005C00030BD00BF90F0000F04BF0021704730B570
:1005D0004FF4806404F132044FF000054FF0000145
:1005E00050E700BF90F0000F04BF0021704730B506
:1005F0004FF4806404F1320410F0004548BF4042DB
:100600004FF000013EE700BF42004FEAE2014FEA2F
:1006100031014FEA02701FBF12F07F4393F07F4F0A
:1006200081F06051704732F07F4208BF704793F00D
:100630007F4F04BF41F40021704730B54FF4607420
:1006400001F0004521F000411CE700BF50EA010223
:1006500008BF704730B54FF000050AE050EA0102CC
:1006600008BF704730B511F0004502D5404261EB3C
:1006700041014FF4806404F132045FEA915C3FF47D
:10068000D8AE4FF003025FEADC0C18BF03325FEA1A
:10069000DC0C18BF033202EBDC02C2F1200300FACB
:1006A00003FC20FA02F001FA03FE40EA0E0021FAF0
:1006B00002F11444BDE600BF53B94AB9002908BF8E
:1006C00000281CBF4FF0FF314FF0FF3000F074B92D
:1006D000ADF1080C6DE904CE00F006F8DDF804E099
:1006E000DDE9022304B070472DE9F047089D044678
:1006F0008E46002B4DD18A42944669D9B2FA82F2D5
:1007000052B101FA02F3C2F1200120FA01F10CFA10
:1007100002FC41EA030E94404FEA1C48210CBEFB48
:10072000F8F61FFA8CF708FB16E341EA034306FBD1
:1007300007F199420AD91CEB030306F1FF3080F060
:100740001F81994240F21C81023E63445B1AA4B2AD
:10075000B3FBF8F008FB103344EA034400FB07F74F
:10076000A7420AD91CEB040400F1FF3380F00A8190
:10077000A74240F207816444023840EA0640E41B85
:1007800000261DB1D4400023C5E900433146BDE831
:10079000F0878B4209D9002D00F0EF800026C5E9D3
:1007A000000130463146BDE8F087B3FA83F6002EEB
:1007B0004AD18B4202D3824200F2F980841A61EB63
:1007C000030301209E46002DE0D0C5E9004EDDE781
:1007D00002B9FFDEB2FA82F2002A40F09280A1EB69
:1007E0000C014FEA1C471FFA8CFE0126200CB1FBBE
:1007F000F7F307FB131140EA01410EFB03F08842B7
:1008000008D91CEB010103F1FF3802D2884200F243
:10081000CB804346091AA4B2B1FBF7F007FB1011D5
:1008200044EA01440EFB00FEA64508D91CEB040473
:1008300000F1FF3102D2A64500F2BB800846A4EBCE
:100840000E0440EA03409CE7C6F12007B34022FAB9
:1008500007FC4CEA030C20FA07F401FA06F31C43E8
:10086000F9404FEA1C4900FA06F3B1FBF9F8200CF5
:100870001FFA8CFE09FB181140EA014108FB0EF03B
:10088000884202FA06F20BD91CEB010108F1FF3A8B
:1008900080F08880884240F28580A8F10208614497
:1008A000091AA4B2B1FBF9F009FB101144EA0141A5
:1008B00000FB0EFE8E4508D91CEB010100F1FF3450
:1008C0006CD28E456AD90238614440EA0840A0FBE8
:1008D0000294A1EB0E01A142C846A64656D353D0BE
:1008E0005DB1B3EB080261EB0E0101FA07F722FAE2
:1008F00006F3F1401F43C5E9007100263146BDE80B
:10090000F087C2F12003D8400CFA02FC21FA03F36D
:10091000914001434FEA1C471FFA8CFEB3FBF7F0EE
:1009200007FB10360B0C43EA064300FB0EF69E4213
:1009300004FA02F408D91CEB030300F1FF382FD2AC
:100940009E422DD9023863449B1B89B2B3FBF7F654
:1009500007FB163341EA034106FB0EF38B4208D92D
:100960001CEB010106F1FF3816D28B4214D9023E6E
:100970006144C91A46EA004638E72E46284605E78C
:100980000646E3E61846F8E64B45A9D2B9EB02085D
:1009900064EB0C0E0138A3E74646EAE7204694E7ED
:1009A0004046D1E7D0467BE7023B614432E7304620
:1009B00009E76444023842E7704700BF844641EAD1
:1009C000000313F003036DD1403A41D351F8043BC7
:1009D00040F8043B51F8043B40F8043B51F8043B19
:1009E00040F8043B51F8043B40F8043B51F8043B09
:1009F00040F8043B51F8043B40F8043B51F8043BF9
:100A000040F8043B51F8043B40F8043B51F8043BE8
:100A100040F8043B51F8043B40F8043B51F8043BD8
:100A200040F8043B51F8043B40F8043B51F8043BC8
:100A300040F8043B51F8043B40F8043B51F8043BB8
:100A400040F8043B51F8043B40F8043B403ABDD227
:100A5000303211D351F8043B40F8043B51F8043BC9
:100A600040F8043B51F8043B40F8043B51F8043B88
:100A700040F8043B103AEDD20C3205D351F8043B58
:100A800040F8043B043AF9D2043208D0D2071CBF24
:100A900011F8013B00F8013B01D30B88038060464D
:100AA000704700BF082A13D38B078DD010F00303C3
:100AB0008AD0C3F10403D21ADB071CBF11F8013B33
:100AC00000F8013B80D331F8023B20F8023B7BE782
:100AD000043AD9D3013A11F8013B00F8013BF9D2AD
:100AE0000B7803704B7843708B7883706046704747
:100AF00000000000000000000000000000000000F6
:100B0000A2EB0300704700BF02780B78012A28BFD0
:100B10009A42F5D16DE9044540EA0104CDE9026746
:100B20006FF0000C4FEA447212B380EA010414F033
:100B3000070F6AD100F0070420F0070004F0030556
:100B400021F007014FEAC505F0E8042314F0040F73
:100B5000F1E804670CFA05F462EA040266EA0406A6
:100B60000AD063EA0403624667EA0407664603E0C4
:100B7000F0E80423F1E8046782FA4CF582EA0604FF
:100B8000A4FA8CF46CBB83FA4CF583EA0705A5FA4A
:100B90008CF595B950E9022351E9026782FA4CF5C8
:100BA00082EA0604A4FA8CF483FA4CF583EA07057A
:100BB000A5FA8CF52543DBD09CB92DBAB5FA85F49E
:100BC00024F0070427FA04F1DDE9026723FA04F3AD
:100BD00003F0FF0001F0FF01FDE80445A0EB010078
:100BE000704724BAB4FA84F424F0070426FA04F116
:100BF000DDE9026722FA04F202F0FF0001F0FF01D2
:100C0000FDE80445A0EB0100704714F0030F3CD150
:100C100010F0030428D150F8082B51F8083B82FA51
:100C20004CF582EA0305A5FA8CF55DB950F8042C61
:100C300051F8043C82FA4CF582EA0305A5FA8CF5DA
:100C4000002DE8D02DBAB5FA85F424F0070423FA74
:100C500004F122FA04F202F0FF0001F0FF01FDE8C6
:100C60000445A0EB010070474FEAC40420F00300E4
:100C700050F8082B21F0030151F8083B0CFA04F45A
:100C800062EA040263EA0403C9E710F003041AD01D
:100C9000A1EB040120F00300E40750F8042B06D078
:100CA0000FD28B785FFAA2F4E41A06D12BB1CB787D
:100CB0005FFAB2F4E41A00D11BB920465DF8104B7C
:100CC000704701F1040150F8042BCC0721F0030117
:100CD00051F8043B48D824D222F07F4482FA4CF5E4
:100CE00094EA1325A5FA8CF50AD165B951F8043BAD
:100CF00084EA0204B4EB036F0ED150F8042BEBE747
:100D00004FEA132355E035F07F454DD10878FDE8D3
:100D10000445C0F1000070474FEA126203F0FF0380
:100D200047E002EA1C4482FA4CF594EA1345A5FA1E
:100D30008CF50AD165B951F8043B84EA0204B4EB9E
:100D4000034F0CD150F8042BEBE74FEA134330E08C
:100D500015EA1C4528D10B884FEA124229E04FEAD8
:100D6000124203EA1C4324E002F0FF0482FA4CF52D
:100D700094EA1365A5FA8CF50AD165B951F8043BDC
:100D800084EA0204B4EB032F09D150F8042BEBE7FB
:100D90004FEA13630DE015F0FF0F05D10B684FEA22
:100DA000122223F07F4304E04FF00000FDE80445E9
:100DB000704712BA1BBA82FA4CF482EA0304A4FA0E
:100DC0008CF5B5FA85F402FA04F203FA04F34FEA5B
:100DD0001260FDE80445A0EB1360704700000000BE
:100DE0000000000000000000000000000000000003
:100DF00000000000000000000000000000000000F3
:100E000090F800F06DE9024520F007016FF0000C4A
:100E100010F0070491F820F040F049804FF00004F2
:100E20006FF00700D1E9002391F840F000F10800CD
:100E300082FA4CF2A4FA8CF283FA4CF3A2FA8CF305
:100E40004BBBD1E9022382FA4CF200F10800A4FA6C
:100E50008CF283FA4CF3A2FA8CF3E3B9D1E90423C0
:100E600082FA4CF200F10800A4FA8CF283FA4CF3F7
:100E7000A2FA8CF37BB9D1E9062301F1200182FAB1
:100E80004CF200F10800A4FA8CF283FA4CF3A2FAB7
:100E90008CF3002BC6D0002A04BF04301A4612BAC5
:100EA000B2FA82F2FDE8024500EBD2007047D1E9C8
:100EB000002304F00305C4F100004FEAC50514F057
:100EC000040F91F840F00CFA05F562EA05021CBF28
:100ED00063EA050362464FF00004A9E70000000042
:100EE00001F0FF01102A2BDB10F0070F08D010F8DB
:100EF000013B013A8B422DD010F0070F42B3F6D1DF
:100F0000F0B441EA012141EA014122F007047FF0F7
:100F100000070023F0E80256083C85EA010586EA4E
:100F2000010685FA47F5A3FA87F586FA47F6A5FA8A
:100F300087F68EB9EED1F0BC01F0FF0102F0070296
:100F400032B110F8013B013A83EA010313B1F8D141
:100F50000020704701387047002D06BF3546033822
:100F6000073815F0010F07D1013015F4807F02BF5B
:100F7000013015F4C03F0130F0BC0138704700BFAC
:100F80002C2060F08DBD00BF43699B698B422DE929
:100F9000F04F894683B025D10029D0F80080D0E9F0
:100FA00006671BDD15460024DFF858B0DFF858A0AF
:100FB0002346424639463046CDE900B511F09AFA4B
:100FC000234601340195424639463046CDF800A00B
:100FD00011F0C0FAA14505F10805E9D1002003B0E0
:100FE000BDE8F08F05480A4605490068C06860F012
:100FF00017FB012003B0BDE8F08F00BFD002002432
:1010000008720608E4720608E8720608012B70B53B
:1010100016D1436905469B698B420FDD00290DDB24
:101020006824406A164601FB04F411462044836894
:101030009847A86A3146204483689847002070BDCD
:1010400001221946024861F0C5F8012060F000F95C
:10105000F0720608000000002DE9F04F012405465B
:1010600089462DED048BAFB02C620590084618928E
:1010700011F080F803466861A14504724FF000004A
:10108000DA681870107040F381862246D968885457
:1010900001329145FAD1DA6802F8090000221146BE
:1010A000186981545868815401329145F8DC002256
:1010B00010465969885401329145FADC09F101065C
:1010C000596903F110020024370101F8094006EBC9
:1010D00086081C9707CA8DE807000FCB11F0A4F80B
:1010E000059B8246986106EB0610800060F0D8FCF4
:1010F000054611902C2006EB4601A14500FB065049
:10110000C6EBC60306EBC60209904FF0340000FBA5
:1011100006501090A7EB060005EB80000B902846C8
:1011200005EB8605199500EBC605129500EB8105C8
:10113000139500EB0705149500EB8805159500EB5A
:10114000C805179500EBC10500EB011116950A9132
:10115000014600EB83001A9001EB46101B904FEA0A
:10116000820001EB82021D900F924FEAC30201EB55
:10117000C3031E920E934FEA86131F9301EB86134F
:101180000C9369DB119B07EE90AA1399A3F1040B52
:10119000199B0D1F1499043B0F9AA1F1040E159988
:1011A0000693A2F10408109BA1F1040C0E9A043BD3
:1011B0001699171F129A219304391B9B043A0D911B
:1011C0001A98191F179B209204381A1FDDF884A063
:1011D0002346CDF88490DDF834900D964646B84607
:1011E000209FCDE90721032204214BF8042F069A02
:1011F00042F8041F069207224AF8043F46F8043FCB
:1012000048F8042F089A47F8043F45F8041F4EF8A1
:10121000043F07994CF8043F49F8043F40F8043F65
:1012200042F8043F0892012241F8042F099A0791DD
:1012300042F824300A9A42F824300B9A42F82430BB
:101240000C9A42F8243001340D9A9442CBD117EE17
:1012500090AADDF884901646119A032300250E9972
:1012600042F8363016461C9A199FB5501D9A1298AE
:10127000B5501F9A0A9CB35007231E9AB350109B77
:101280000F9A47F8295043F8295042F8295041F85D
:10129000295040F82950139840F82950179840F8E1
:1012A0002950099840F8295000EB890044F829504A
:1012B0000A900B9C149844F8295040F8295015982E
:1012C0001B9C40F82950169840F829501A9840F86D
:1012D000295000EB890044F829500B90504611F03A
:1012E000CBF8044605983346734A2146C4615046FC
:1012F0000BF0CAFC3B46714A214650460BF0C4FC39
:10130000109B6F4A214650460BF0BEFC0E9E0F9B71
:10131000214606EB89066B4A504609960BF0B4FC51
:10132000A945C0F2A184129BCDF82090A146079355
:10133000DDF854B00C9EDDE91332DDE916781C4669
:101340000692079B2A46494650460093043307936A
:101350005D4B0BF0D1FE2A465C4B4946504600944B
:101360000BF0CAFE069B2A464946009304335046BA
:1013700004340693564B0BF0BFFE2A46554B4946A4
:101380005046CDF800B00BF0B7FE2A46524B494606
:101390005046CDF800800BF0AFFE2A464F4B494631
:1013A000504600970BF0A8FE2A464D4B4946009642
:1013B00050460BF0A1FE0135089B0BF1040B08F120
:1013C00004080437AB4206F10406BADA0E9B4C4619
:1013D000DDF82090002200932146424B50460BF04E
:1013E00091FFB9F1010F40F347840E9E01253D4F57
:1013F00004362A46013500963B46214650460BF0FE
:1014000081FFA94506F10406F3D10A9B21464A460D
:10141000504600936825344B4FF000080BF06CFEEB
:101420000B9B21464A4650460093304B08EE904AAB
:101430000BF062FE099B21464A4650460093294B19
:1014400044460BF05FFF119860F032FB05FB09F397
:10145000274F184608EE103A60F022FB059B254EF8
:10146000DFF8A8B09846586201E0D8F8240005FBE0
:101470000400214B013401214361204BC0E90937AD
:101480001F4BC0E9076B836110F058FEA145ECDCEF
:1014900018EE904A18EE100A4FF0000860F000FBBA
:1014A000059B08EE104ADFF868B04446154F164E0B
:1014B0006825984698622FE06C73060870730608DA
:1014C0007473060878730608807306088473060828
:1014D0008873060890730608847A060898730608CD
:1014E0009C7306087C730608A4730608A873060894
:1014F000057D0008097D0008692B0008017D0008B2
:10150000317D0008CD290008DD2900081D7D000877
:10151000411E0008D8F8280005FB0400CE4B01341A
:1015200001214362CD4BC0F814B08362CC4B86617D
:10153000C0E9073710F002FEA145EBDC18EE101AE7
:10154000504610F0B7FF059B18EE104A834618600E
:10155000189B002B00F06983189A49460598FFF7FD
:1015600013FD2CAB0793B9F1000F26DD5A46002579
:10157000CB46DFF814836827DDF81490D9F82410DF
:1015800007FB05F6B7482B463144069200905046BB
:101590000191214610F0CAFFD9F828102B460135D9
:1015A0003144069A5046CDE90081214610F0BEFF35
:1015B000AB45069AE2D1D9469346082131205FF027
:1015C000F9FDDFF8C882054600235A4621460190FE
:1015D0005046CDF80080B7EE008B9FED9B9B85EDCC
:1015E000209B10F0B7FF284660F062FA0821072020
:1015F0005FF0E0FD9C4B05465A4621460093019062
:101600000023504685ED048B10F0A4FF284660F0BF
:101610004FFA082131205FF0CDFD0821064680ED0C
:10162000209B07205FF0C6FDB9F1010F074680ED52
:10163000048B14DD01252B465A4621465046CDE940
:10164000008610F087FF88492B46013500915A46E5
:1016500021465046019710F07DFFA945EBD1304659
:10166000B7EE008B60F024FA384660F021FA0821CA
:101670001520DFF81C825FF09DFD7C4B0546019034
:1016800000935A4600232146504685ED008B85ED98
:10169000108B85ED208B10F05DFF284660F008FA76
:1016A00008211C205FF086FD054601900023CDF83F
:1016B00000805A46214680ED068B80ED168B80ED2A
:1016C000268B80ED368B504610F044FF284660F0A4
:1016D000EFF9082115205FF06DFDB9F1010F074604
:1016E00080ED008B80ED108B80ED208B40F3FF822E
:1016F00001255E482B462E46013500905A4621466C
:101700005046019710F026FFA945F2D1384601272F
:1017100060F0CEF908211C205FF04CFD0022544BF4
:101720000546C0E90623C0E91623C0E92623C0E91F
:1017300036233B465A4621465046CDE9008510F0F7
:1017400009FFB74207F10107F3D12846002660F0F0
:10175000AFF90C2060F0A4F9012307460821C0E985
:1017600000630223836006205FF024FDB3EE007B5C
:101770000546404B01975A46009321463346504652
:1017800085ED007B85ED067B10F0F8FE3A4B5A465E
:101790002146019550460093334610F0EFFE05F1C7
:1017A00018035A46214601935046344B0093334662
:1017B00010F0E4FE384660F07BF9284660F078F9D6
:1017C0000C2060F06DF901220223019005462146AC
:1017D0000660C0E901232A4B5A465046009333461F
:1017E00010F0CCFE284660F063F9102060F058F944
:1017F0000121022306608046C0E90113032308216A
:10180000C36008465FF0D6FC0146B145074610A309
:10181000D3E90023E1E80823C0E90223C0E9042357
:10182000C0E906234FF00002164B0691C0E90823D9
:10183000C0E90A23C0E90C23C0E90E2340F3678204
:1018400028E000BFAFF30080000000000000594016
:101850000000000000408FC0B1290008B529000831
:10186000B9290008B8730608B0730608D8730608CB
:101870000000F03FE0730608E8730608EC73060802
:10188000F073060800408F40C8730608AC73060862
:10189000DC7306084B464746D94680469B46C24BFA
:1018A0004A4621465046009333460197354610F08C
:1018B00065FEBE4B4A462146009350463346CDF85E
:1018C000048010F05BFE069A3346013601922146F1
:1018D000B74A504600924A4610F050FEB345DED15A
:1018E0004246B8465B46CB4617464046994660F0AE
:1018F000DFF838464FF0000860F0DAF808210420DD
:101900005FF058FC0821064603205FF053FC0821D5
:10191000069002205FF04EFCA649074600F108033E
:1019200000202A46CDF820905D46B9469346C6E988
:101930000001C6E90201C6E90401C6E9060100206A
:101940009D49C7E902011F469C4B2A462146504645
:1019500000934346019610F011FE069B2A4621464D
:1019600001935046964B0093434610F007FE954B6B
:101970002A462146009350464346CDF8049010F085
:10198000FDFD914B2A462146009350464346019760
:1019900010F0F4FDD84508F10108D5D15B464F465B
:1019A0003046DDF82090AB461D4660F081F8069881
:1019B00060F07EF8384660F07BF8214650460027FC
:1019C00010F0B0FF059B0146804A18615046804BDD
:1019D0000DF18E0610F0CAFFDFF81882CDF81890CE
:1019E000DDF814908DF88E703A46D9F81010434601
:1019F0005046009610F0C0FFAF4207F10107F3D147
:101A00000323002724AEDFF8F081DDF8149024933F
:101A10003A46D9F8101043465046009610F0ACFFF5
:101A2000AF4207F10107F3D10423002725AEDFF809
:101A3000CC81DDF8149025933A46D9F8101043462E
:101A40005046009610F098FFAF4207F10107F3D11E
:101A50000323002726AEDFF8A881DDF81490269333
:101A60003A46D9F8101043465046009610F084FFCD
:101A7000AF4207F10107F3D100270DF18F06DFF820
:101A80008481DDF814908DF88F703A46D9F81010E3
:101A900043465046009610F06FFFAF4207F1010732
:101AA000F3D1DDF81890059F00262AAB494A396921
:101AB0005046404F0025CDE92A6710F057FF059F9B
:101AC0000026079B39690027434A5046CDE92C6719
:101AD00010F04CFF059F0523404A39695046279373
:101AE00027AB10F043FF3223396950463C4A289314
:101AF00028AB10F03BFF29AB3A4A5046396929958B
:101B000010F034FF2146504610F04CFD214678601D
:101B10000646504610F046FD0821B86007205FF0E9
:101B200049FB00228046304BA9450746E8E80623DA
:101B300040F309812D492B463246504600912146FB
:101B4000019710F04FFD2A492B460135009132468E
:101B500021465046CDF8048010F044FDA945E9D156
:101B6000224B214632465046CDE900374B4610F015
:101B700039FD38465FF09CFF059F214650463A6983
:101B8000002410F0FFFE0821F86001205FF012FB36
:101B900005462146013401232A463846FFF736FA26
:101BA000A145F6DA30E000BFF873060800740608B5
:101BB000047406080000F03F0040AF4008740608B7
:101BC000707A06080C74060810740608F07406088B
:101BD000E47406088474060890740608A474060861
:101BE000B0740608BC74060800003040E4730608B0
:101BF000C0D5060814740608307406084474060834
:101C0000587406087074060828465FF051FF059B5B
:101C100032465946D86810F027FF002840F0D4809B
:101C20002FB0BDEC048BBDE8F08F2CA9189D6C4F34
:101C30006C4E8846079168A3D3E90023CDE92C2395
:101C40002B465A4621465046CDE9007810F052FC0A
:101C50002B4601355A4621465046CDE9006810F022
:101C600079FCA945ECDC7EE40E9B2A4621465046D1
:101C700000935D4B0BF046FB0A9B4A4621465046BB
:101C800000935A4B0BF038FA0B9B4A4621465046BC
:101C90000093574B0BF030FA099B4A4621465046B9
:101CA0000093514B0BF02EFB11985FF001FF68235E
:101CB00003FB09F3184608EE103A5FF0F1FE059AAF
:101CC000B9F1010F50626ED018EE100A5FF0E8FE15
:101CD000059D2146A862504610F0ECFB189B8346F8
:101CE0002860002B7FF438AC2CAB07933BE45FF00B
:101CF000DFFE08211C205FF05DFA054680ED068BB3
:101D000080ED168B80ED268B80ED368B1DE54046F1
:101D10005FF0CEFE38465FF0CBFE2146504610F015
:101D200001FE059B0146334A18615046324B10F0C4
:101D30001DFE03238DF88E602493269304238DF8D3
:101D40008F602593AFE62D4B2146324601900093DC
:101D500050464B4610F046FC38465FF0A9FE21463F
:101D6000059C5046226910F00DFE0821E06001201C
:101D70005FF020FA0546B9F1000F7FF445AF024647
:101D8000494601230598FFF741F93DE7DA6802F873
:101D900009007FF493A91A6910705A6810705A6983
:101DA0001070FFF78BB9164A49464261154A4262E4
:101DB000154A8262154AC261154A0262154A826159
:101DC00010F0BCF9FFF766BB134860F0A7FA0120DA
:101DD0005FF03EFAAFF300807B14AE47E17A843FB8
:101DE000E4720608E87206087C730608A473060805
:101DF000A8730608F0740608E4740608E47306087D
:101E0000692B0008017D0008057D0008097D000898
:101E10001D7D0008317D0008C874060800220A21D3
:101E2000FFF71AB9D0E90012C06810F00BBE00BF6E
:101E3000006870474068704780697047C0697047A4
:101E400070B5456804460E682DED108BC2B0002DAC
:101E500000F0CE84A36895ED007B95ED026B37EE24
:101E6000065B36EE477B8DED0A5B8DED067B002B26
:101E700000F0C88493ED00FBB0EE4F0B5EF074F9F8
:101E80002FEE0F4BB0EE408B9FEDF96B9FEDFA5BA1
:101E90009FEDFB7B2FEE066B9DED063B8DED260B3C
:101EA000A4EE056B23EE003B9FEDF74B9FEDF85B37
:101EB00036EE077B8DED063B27EE076BB0EEC7AB2A
:101EC000B7EE007BA6EE045BB0EE474B9FEDF23B16
:101ED0009FEDF30B8DED0C5B9FEDF35BA6EE454B99
:101EE0009FEDF35B8DED284BB0EE474BAAEE454BD3
:101EF0009FEDF15BA6EE035B24EE004BB0EE4F0BC3
:101F00008DED2A4B9FEDEE4B25EE045B8DED2C5BAA
:101F10009FEDED5BA6EE057B9FEDED6B8DED0E7BF2
:101F20009FEDED7BAAEE067B8DED007B5EF0A4F9C4
:101F300023689DED0A7B8DED040B27EE087B8DED6C
:101F40003A7B002B00F0888493ED00DB9FEDE44B9F
:101F50009FEDE55B2DEE0D7B9FEDE56B9FEDE69B29
:101F600027EE044B27EE057BB6EE005BB0EE49BBD7
:101F70008DED3C4B24EE054B27EE057B84EE065B96
:101F80009FEDDF3B9FEDE06B93ED042BA7EE039BF2
:101F9000A7EE06BB9FEDDE7B9FEDDF0B9FEDE01B09
:101FA0009FEDE1EB22EE000B9FEDE16B9FEDE23B3D
:101FB0008DED100B9FEDE24BA5EE07BBA5EE479B09
:101FC0009FEDE17B9FEDE25B3BEE470BB0EE49CB33
:101FD00080EE079B3CEE470B80EE078B9FEDDE0B00
:101FE000A8EE01EB9FEDDE1BA8EE015B2CEE0E1BB5
:101FF0002CEE05EB8BEE075B8DED081BB0EE461B60
:10200000A8EE036BA9EE031B8DED36EB8CEE07EB10
:1020100026EE046B21EE047B9FEDD33B9FEDD41B9A
:102020008DED2E6B9FEDD46BA8EE013B27EE067B6A
:1020300085EE000B27EE0B4B2CEE037B8DED30EB8A
:102040009DED083B27EE06EB93ED027B9FEDCC1B4D
:102050008DED38EB9FEDCCEB9FEDCD5B8DED024B25
:1020600023EE0E3B9FEDE8EB9FEDCB4B8DED343B2C
:10207000B0EE473B9FEDCA6BA2EE0E3B8DED083BE9
:10208000B0EE473BA2EE4E3BB0EE41EB8DED183B80
:1020900027EE023BB6EE007B8DED3E3B22EE0D3B84
:1020A0009DED102B8DED403BB0EE4D3BA2EE07DBDE
:1020B000A2EE473B9FEDBC7B8DED16DBA8EE07EB58
:1020C0008DED103BB0EE413BA9EE073B9FEDB87B99
:1020D0008DED1A3B9FEDB83BA8EE073B8DED123B13
:1020E0009FEDB53BA9EE073BB0EE457BA9EE045B47
:1020F000A8EE047B8DED1C3B8DED205B9FEDB05B6E
:102100008DED327BB0EE467BA8EE057B8DED147B2A
:10211000B0EE467BA9EE057B8DED227B5DF01CFFCA
:1021200030EE000B5EF0A8F89FED8F7B9FED901BCB
:102130009FED916B9DED024BA9EE017B2BEE077B92
:1021400027EE067B9FEDAE6B8DED247B9FED547BE0
:1021500020EE070B9FED9C7BA4EE067B9FED9C6B16
:1021600020EE060B80EE077B8DED1E7B9DED106B48
:102170009DED087B9FED808B87EE060B5DF0ECFEFE
:1021800030EE4FBB9FED967B9FED970B3BEE477B71
:1021900027EE000B5DF0E0FE5DF0E6FF9DED0C7BB1
:1021A00020EE070B20EE0E9BB0EE490B5DF0D4FE47
:1021B00039EE400B9DED127BA0EE479BB0EE490B34
:1021C0005DF0CAFE9FED8A7B20EE070B5DF0CCFF31
:1021D000B0EE407B9DED286B9DED2E5B87EE07DB1F
:1021E00026EE059B9DED306B9DED2C5B29EE089B4B
:1021F00086EE050B5DF0B0FE30EE000B5EF03CF8B5
:1022000029EE0C9B9DED367B9DED346B9FED7C4B59
:102210002AEE075B25EE088BB0EE487B9AEE067B34
:102220009DED2A6B20EE060B9FED696B20EE060BF1
:102230009FED656BB0EE465BA9EE045B30EE064B9E
:1022400087EE046B80EE05CB9DED327B36EE077B8F
:102250003BEE07BBB5EEC0BB2CEE0B6BF1EE10FAFC
:1022600000F1BC8240F3A8829DED00ABE4E000BF2A
:1022700024B9FC87F4DBC73F527E52EDD3F1B83F5F
:102280006439AEEBBC32243FCB10C7BAB8AD3A408C
:10229000A245B6F3FD942D409355116E32AA9C3F92
:1022A0004C8E3B25A776E4C0522CB7B41A12D93F06
:1022B000F8DF4A766C04C63F93A98251499DFC3FE2
:1022C0008EE9094B3CA0E63F96218E7571DB21C05B
:1022D000E2016553AEF0CA3F19ADA3AA09A2D03FEF
:1022E000CD5D4BC807BDF03F560E2DB29D2F094066
:1022F0007B14AE47E17AF83F6766666666B1844054
:10230000B22E6EA301BCE13F9CA223B9FC87DC3F47
:102310003BDF4F8D976EE23F52B81E85EB51F43F85
:10232000CC9717601F9DCE3F029A081B9E5EF5BF9B
:1023300037894160E5D0FB3FAAF1D24D6210D2BF90
:10234000639AE95E27F5EE3F0000000000408F40F1
:10235000ADFA5C6DC5FEF1BFA65BA4C06A3BF43F5D
:102360006B0E10CCD1E3E7BFADA3AA09A2EEB3BFB9
:102370005E656D533C2EB23FC3F5285C8FC2ED3FC6
:10238000E827A44EA33D2CBF2EE7525C5576F23FC2
:1023900057804AF0E1ED6CBFFF4B080C48B152BFCB
:1023A000F853E3A59BC4DE3F90F46915FDA149BF36
:1023B0004A7B832F4CA6F43F742497FF907EF0BF96
:1023C000AC36FFAF3A72A4BF7B14AE47E17A843FCC
:1023D000A4703D0AD7A3EA3FA245B6F3FD942D4071
:1023E0002788BA0F406AA33F992A1895D4E92A4052
:1023F000419FC893A46BEE3F7429AE2AFBAEE73F22
:102400006B9A779CA223F33F7B14AE47E17AE83FB7
:1024100074E501C93A576E3F52B81E85EB51F43F3F
:10242000111111111111813F46EBA86A8228F43F66
:1024300000000000000000008DED2A7B9DED387B40
:10244000B0EE460B38EE078B8DED286B5DF084FD0A
:102450009DED0E7B9DED286B37EE4AAB36EE400BC3
:102460009DED147B27EE4AABAAEE006BB0EE460B57
:102470005DF072FD1FED1E6B20EE060B5DF0FCFEA5
:10248000B0EE405B9DED087B9DED166B87EE060B75
:10249000B0EE486BA9EE056B2DEE06DB5DF05CFD42
:1024A00030EE4FAB1FED326B1FED310B3AEE466B4A
:1024B00026EE000B5DF050FD5DF056FE9DED0C7BB1
:1024C00020EE070B20EE0EEBB0EE4E0B5DF044FD60
:1024D0003EEE400B9DED127BA0EE47EBB0EE4E0BB7
:1024E0005DF03AFD1FED3E6B20EE060B5DF03CFE0D
:1024F0009DED2A7B37EE0A7B80EE00ABB5EEC07B0C
:102500002CEE07CBF1EE10FA00F1618105DC9DEDB8
:10251000006B26EE077B8DED007BB0EE4C0B5DF083
:102520001BFD3CEE400B9DED006B9DED0E7B37EEF1
:10253000467B9DED146B26EE477BA7EE00CBB0EEFD
:102540004C0B5DF009FD1FED527B20EE070B5DF09B
:1025500093FEA9EE008B2AEE088B3DEE085B002D62
:1025600000F04181B6EE00AB95ED044B95ED067B96
:102570001FED573B37EE446B34EE077B26EE0AAB7C
:102580002AEE03ABAEB19DED3A4B9DED046BA5EE8B
:10259000464B34EE074B9DED3C7B34EE474B9DEDB7
:1025A0003E7B34EE077B1FED664B27EE044B86ED3A
:1025B000004B9DED0A7B9DED046B1FED79BB27EE73
:1025C00006CB9DED267B9DED106BA5EE07CB9DED1B
:1025D000187B87EE060B5DF0BFFCB0EE409B1FED55
:1025E000807B30EE477B1FED800B27EE000B5DF00C
:1025F000B3FC5DF0B9FD20EE0BBB9DED1A7B2BEE1D
:1026000007BBB0EE4B0B5DF0A7FC3BEE400B9DED26
:102610001C7BA0EE47BBB0EE4B0B5DF09DFC1FEDAD
:102620008C7B20EE070B5DF09FFD80EE00FB9DEDA7
:10263000207B39EE079B9DED1E7BB5EEC09B29EEFE
:1026400007EBF1EE10FA00F1BF8040F34C811FED73
:1026500096BBB0EE4E0B5DF07FFC3EEE400B9DED69
:10266000227B2BEE47BBABEE00EBB0EE4E0B5DF0EA
:1026700073FC1FED9D7B1FEDA8EB20EE070B5DF0BB
:10268000FBFDB0EE407B9DED165B9DED186B9DED67
:10269000249B86EE050B9DED026BA7EE069B5DF07D
:1026A0005BFCB0EE40BB1FEDB27B30EE477B2FEE04
:1026B000099B1FEDB30B27EE000B5DF04DFC5DF0A9
:1026C00053FD20EE0EEB9DED1A7B2EEE07EBB0EEE8
:1026D0004E0B5DF041FC3EEE400B9DED1C7BA0EEF1
:1026E00047EBB0EE4E0B5DF037FC1FEDBF7B20EEED
:1026F000070B5DF039FD80EE00EB9DED207B3BEE9E
:10270000075B9DED1E7BB5EEC05B25EE07FBF1EE92
:1027100010FA56D440F3EE801FEDC9BBB0EE4F0B5C
:102720005DF01AFC3FEE400B9DED227B2BEE47BB8C
:10273000ABEE00FBB0EE4F0B5DF00EFC1FEDD07B5F
:1027400020EE070B5DF098FD9DED247B9DED026B67
:10275000A0EE067BAEEE079B4EB338EE4D8BB6EE89
:10276000004B1FEDD75B9DED047B9DED066B9DED52
:10277000403B1FEDD92BA8EE476B2CEE057B3CEEC2
:1027800009CBA9EE457B26EE046B3CEE03CB1FED97
:10279000DE3B1FEDDD5B2CEE02CBA6EE037B86ED70
:1027A00002CB37EE0AAB2AEE05AB86ED04AB002078
:1027B00042B0BDEC108B70BD9DED005B2BEE05AB08
:1027C0003AE61FEDE7BBA9E71FEDE9BB41E79DED49
:1027D000007BB1EE477B8DED007B9EE69DED005BBF
:1027E000B1EE45AB28E61FEDEEABB0EE4A7BC9E695
:1027F0001FEDF17BA3688DED067B8DED0A7B002B31
:102800007FF438AB23689FED407B9FED41FB9FED4C
:1028100042AB8DED007B9FED427B8DED04FB8DED9A
:102820000E7B9FED417B8DED2C7B9FED417B8DEDF4
:102830002A7B9DED0A7B8DED3A7B9FED3F7B8DEDF5
:10284000287B9FED3F7B8DED0C7BB7EE007B8DED04
:10285000267B002B7FF478AB9FED3B2B9FED2C7BF1
:102860009FED3B6B8DED1E2B9FED3B2B9FED3C5B5E
:102870009FED3D4B8DED022B9FED3D2B9FED3E3BA4
:102880009FED3FEB8DED362B9FED3F2B9FED40CB2A
:102890008DED407B8DED342B9FED3F2B8DED246B2B
:1028A0008DED225B8DED302B9FED3D2B8DED204B83
:1028B0008DED1C3B8DED1AEB8DED2E2B8DED187BE8
:1028C0008DED3E7B8DED167B8DED386B8DED145BC4
:1028D0008DED324B8DED123B8DED3C7B8DED107B04
:1028E0008DED087B42E49FED307BB7EE00BBA9EE97
:1028F00047BBAEE69FED2C7BB7EE00BBA5EE47BB1A
:102900000CE700BFAFF300807734C4B391A2D03F8F
:1029100000000000000000006439AEEBBC32243F30
:102920007F662B8EFFFFEF3F3AA8C4C06A3BF43F9F
:102930002BC9ED988376E4C0157F01FBFFFFEF3FC5
:102940007444F808FE942D40D1E6BA1246F135C021
:102950005D6F9E117D5C4FC0DC0CAD7F29129140F4
:102960009F5A86C2A3A1DF3F740387B696C569BF8D
:102970008A5D2645F20D82C0760956EE6878F7BF6B
:1029800008EB64244F96093F78797AADF2E890C05D
:102990006766666666B18440555227A08930E53F78
:1029A00080CF87A9C662FC3F19ADA3AA09A2D03F78
:1029B0000320704701207047022803D8024B53F8C8
:1029C0002000704700207047007506080028024B61
:1029D00014BF0020184670470C75060878B110B473
:1029E0000524046009B1022008600AB100211160C9
:1029F0000BB11A221A6000205DF8044B704709B130
:102A0000022008600AB1002111600BB11A221A607D
:102A1000002070472DE9F84FD1E90095144606468D
:102A200005FB09F205F103089B4601F1080A002A9B
:102A300001EB88074FEA880804DDD2000021204618
:102A40005FF06AFB6EB3BBF1000F2CD0002D28DDC8
:102A500050464FF0000C6FF0404BA7F1040A80463F
:102A6000B146D8F8006058F8040F864215D006EB3E
:102A70000B0249460AEB800E07EB820252F8043F34
:102A800003FB05C39645B1EC027B04EBC30383ED66
:102A9000007BF3D1801B09EBC0090CF1010C6545EB
:102AA000DFD1BDE8F88F002DFBDDA8F10C08D4467E
:102AB0004FEAC9096FF0404BD044B646A7F1040A6B
:102AC000DCF800605CF8045FAE4213D006EB0B024A
:102AD00071460AEB850007EB820252F8043FB1EC25
:102AE000027B04EBC303824283ED007BF5D1AD1B77
:102AF0000EEBC50EC4454C44E2D1BDE8F88F00BFD3
:102B0000F0B5D1F804C05F680CF10205059C002FF8
:102B100051F825600ADD0433A4F1040E03EB8707A6
:102B200053F8045FBB424EF8045FF9D1002E15DD67
:102B30000B4B00EBC60E634401EB830C5CF8041FE7
:102B4000B0EC027B54F82130864503F1010502EB1D
:102B5000C30344F8215083ED007BEFD1F0BD00BFEB
:102B600002000040000000002DE9F04F1C4603F673
:102B7000584AC66803F6C843934604F6185904F643
:102B800078552DED108BADF28C4DF290FE91CDF875
:102B90001834002E04F0D587F29B96ED007B96ED5D
:102BA000026B1B6937EE065B36EE477B8DED3E5BB5
:102BB0008DED6A7B002B04F0CF8793ED008BB0EE98
:102BC000480B8DED248B5DF0CFFA28EE084BB0EE6C
:102BD000409B9FEDFB7B9FEDFC5B9FEDFD6B28EE2B
:102BE000077B8DED480B9DED3E3BA4EE057BB0EEE3
:102BF000480BB7EE008B23EE093B9DED6A5B37EE89
:102C0000067B25EE095BB0EEC72B9FEDF36B8DEDD8
:102C10006A5B27EE075BB0EE487B9FEDF14BA2EEBF
:102C2000467B9FEDF16B8DED4A3B9FEDF13BA5EEB1
:102C3000064B9FEDF16B8DED1E2BA5EE036BB0EEF9
:102C4000483B8DED0C6B9FEDEE6BA5EE463B9FED8B
:102C5000EE6B27EE067B8DED323B8DED347B9FEDE9
:102C6000EC7B24EE077B8DED367B9FEDEB7BA5EEB9
:102C7000078B9FEDEB7B8DED408B9FEDEB8BA2EEF9
:102C8000078B8DED288B5DF0F7FAB6EE007B0DF526
:102C9000816329EE077B9FEDE64B9FEDE76B9FED90
:102CA000E85B29EE043B27EE067B20EE044B83ED28
:102CB000003B0DF5826383ED004BB0EE474B0DF505
:102CC0008563A0EE057B90EE054B9FEDDF6B8DEDF0
:102CD000120B27EE067B24EE065B83ED005B0DF501
:102CE000866383ED007BF29B1B68002B04F07987E1
:102CF000B6EE00CB93ED009B9FEDD53B9FEDD64B01
:102D000029EE097B9FEDD66B9FEDD75B27EE033B4A
:102D100027EE047B23EE0C4B27EE0C7B8DED863BE0
:102D200084EE063BB0EE456B9FEDD14B8DED969B4F
:102D30009FEDC39BA7EE046B9FEDCF4B9FEDBEBBFA
:102D4000B0EE46FB9FEDCE6BA7EE065B9FEDCE6B24
:102D50009FEDCF7BA3EE04FBB0EE450B9FEDCE5B6A
:102D6000A3EE440B8FEE062B8DED18FB9FEDCC3BB5
:102D70009FEDCD4B8DED020B82EE05AB3FEE465B3A
:102D80009FEDCB2B85EE061B30EE465B85EE06FBFA
:102D900080EE066B9FEDC85B8DED0A6B9FEDC86BF7
:102DA000AFEE026BB0EE462B8DED8E6BB0EE476B47
:102DB000AFEE037BA1EE036BB0EE453B20EE02DBF2
:102DC000AFEE043BA1EE045B93ED024B20EE038BD0
:102DD0009FEDBD0BB0EE45EB2DEE00DB9FEDBC0B88
:102DE0008DEDD05B8DED2CDBB0EE40DB9FEDBA0BB3
:102DF0009FEDBB5B8DED903BAFEE00DB26EE056BF0
:102E000027EE057BB0EE4A0B93ED045B8DED38DBCE
:102E1000B0EE44DB25EE0BBBA5EE09DB8DED265BAA
:102E20009FEDB13B8DED087B9FEDB12B26EE037B33
:102E300028EE036B8DED2ADBB0EE44DB9FEDAE8B0D
:102E4000A5EE49DB9DED969B9FEDAD3B8DED987B0F
:102E5000B0EE495B9FEDAC7BABEE4C5B8DED2E6B2A
:102E60009FEDAB6B8DED944B8DED44DB8DED045BF5
:102E7000B0EE495BABEE0C5B9FEDA7BB9FEDA8CB23
:102E8000AFEE08BB8DED065B9FEDA75BAFEE05CB0C
:102E90008DED0EBB9FEDA0BBA1EE08BBB0EE438B4A
:102EA000A1EE023BAFEE028B8DED1ABB8DED143B14
:102EB000B0EE473B9FED9ABBAFEE063BA1EE05BBE4
:102EC0008DED108B8DED423BB0EE473BA1EE063B06
:102ED0008DED463B5DF040F830EE008B9DED265BBE
:102EE0009DED944B9DED18FB9DED987B24EE056BBD
:102EF0002FEE077B8DED8A6B25EE096B8DED167B32
:102F0000B0EE497B9DED020B9DED38DB8DEDB46B92
:102F100037EE076B20EE0D9BB0EE480B8DED926BFC
:102F20005DF0AAF9B0EE407BB0EE480B9FED366B3A
:102F30009FED855B9DED164B27EE067B9FED7E6B2F
:102F40009FED693BA4EE056BB0EE468B8DEDCE6B2D
:102F50009FED776B27EE067B87EE08DB2FEE0E7B6F
:102F600027EE037B8DED6C7B8DED1CDB5DF0FCF8BB
:102F7000B7EE007B8DEDD20BAAEE0A7B8DEDD47BF4
:102F80008DEE087B8DEDD67B9DED0A7B9DED366B3E
:102F90009FED558B87EE06EB9DED046B9DED2A7B37
:102FA00087EE067B8DED78EBB0EE470B8DED767BF3
:102FB0005CF0D2FF9DED247BDEE000BFAFF300802C
:102FC00024B9FC87F4DBC73F527E52EDD3F1B83F02
:102FD0006439AEEBBC32243FF8DF4A766C04C63F5E
:102FE00093A98251499DFC3F9355116E32AA9C3F93
:102FF000CB10C7BAB8AD3A40A245B6F3FD942D4008
:10300000522CB7B41A12D93F4C8E3B25A776E4C098
:103010008EE9094B3CA0E63F96218E7571DB21C0FD
:10302000E2016553AEF0CA3F19ADA3AA09A2D03F91
:1030300074E501C93A576E3F52B81E85EB51F43F13
:103040007B14AE47E17AE83F111111111111813F54
:10305000CD5D4BC807BDF03F560E2DB29D2F0940E8
:103060007B14AE47E17AF83F6766666666B18440D6
:103070009CA223B9FC87DC3F3BDF4F8D976EE23F7C
:10308000B22E6EA301BCE13F0000000000408F4063
:1030900037894160E5D0FB3FA65BA4C06A3BF43FA3
:1030A000AAF1D24D6210D2BF5E656D533C2EB23F85
:1030B000CC9717601F9DCE3FADA3AA09A2EEB3BF68
:1030C000029A081B9E5EF5BF2EE7525C5576F23FD2
:1030D000ADFA5C6DC5FEF1BF6B0E10CCD1E3E7BF5E
:1030E000639AE95E27F5EE3FC3F5285C8FC2ED3F9A
:1030F0004A7B832F4CA6F43F90F46915FDA149BF8C
:10310000742497FF907EF0BFF853E3A59BC4DE3F85
:10311000AC36FFAF3A72A4BFE827A44EA33D2CBF44
:1031200057804AF0E1ED6CBFFF4B080C48B152BF2D
:10313000A4703D0AD7A3EA3F7B14AE47E17A843FEF
:10314000419FC893A46BEE3F6B9A779CA223F33FF9
:1031500052B81E85EB51F43F74E501C93A576E3FF2
:103160002788BA0F406AA33F992A1895D4E92A40C4
:10317000A245B6F3FD942D401FED056B30EE47AB35
:103180001FED097B3AEE477B27EE067BB0EE470B3F
:103190008DED707B5CF0E0FE8DED7E0B5CF0E4FF6E
:1031A0009DED0C7B9DED0E6B20EE077B27EE06FB65
:1031B0008DED4C7BB0EE4F0B5CF0CEFE3FEE407BD6
:1031C0009DED105BB0EE476B8DED4E7BB0EE4F7B0F
:1031D000A6EE457BB0EE470B8DED747B5CF0BCFE3C
:1031E0001FED297B20EE077BB0EE470B8DED727B48
:1031F0005CF0BAFF9DED086B9DED327B8DED200BF1
:10320000B0EE4E0B27EE06DB2DEE08DB8DED50DB2E
:103210005CF0A2FE30EE007B9DED206BB0EE470B24
:1032200086EE066B8DED807B8DED226B5DF024F8D4
:103230009DED1E7B9DED346B1FED3D4B27EE099BF5
:1032400020EE060B29EE088B9DED2C6BB0EE485B53
:1032500097EE065B9DED026B1FED4B7B2DEE066B33
:1032600020EE077BB0EE462B8DED086B1FED4E6B0D
:10327000B0EE463B37EE066BA2EE043B8DED2C6BB9
:1032800085EE066B87EE035B8DED523B36EE0CCB85
:103290008DED7A6B3AEE0C7B8DED0A5BB5EEC07B63
:1032A00025EE07ABF1EE10FA8DED3A7B04F12584A3
:1032B00044F307849DED287B9DED2E6B9DED065B11
:1032C000B0EE4A0B38EE068B9DED2A6B1FED5CEBE2
:1032D00086EE059B9DED406B36EE47DB8DED54DBB6
:1032E0008DEDB29B5CF038FE3AEE406B9DED427B7B
:1032F0008DED586B2DEE075BB0EE4A7BA5EE467B5D
:103300008DED565BB0EE470B8DED7C7B5CF024FEC3
:103310001FED737B20EE077BB0EE470B8DED827BBC
:103320005CF0AAFF8DED2E0BB0EE490B5CF014FEA5
:10333000B0EE489B9DED247B9DED086B30EE470B76
:103340009DED2E7B3CEE00DB30EE4E0BA6EE079B98
:103350001FED7BEB9DED0A7B8DED3CDB20EE0EEB54
:1033600027EE0DCBB0EE4E0B8DED5A9B5CF0F4FDCD
:103370008DEDB60B5CF0F8FE9DED226B9DED0C7BA8
:1033800026EE096B20EE077B8DED6E6B9DED0E6BCF
:103390008DED5C7B27EE069BB0EE490B5CF0DCFD0F
:1033A00039EE407B9DED105BB0EE476B8DED5E7BA3
:1033B000B0EE497BA6EE457BB0EE470B8DED887BEA
:1033C0005CF0CAFD1FEDA27B20EE077BB0EE470B41
:1033D0008DEDB87B5CF0C8FE80EE007BB5EEC0DB07
:1033E0008DED300BF1EE10FA8DED247B04F17D8331
:1033F00007DC9DED287B9DED3C6B27EE067B8DED7C
:10340000287B9DED286B9DED407BB0EE4C0B37EE9D
:10341000467B9DED426B8DED607B27EE06DB8DEDEF
:1034200062DB5CF099FDB0EE4C7B3CEE406BADEEA8
:10343000467B8DED646BB0EE470B8DED8C7B5CF0C5
:103440008BFD1FEDBF7B20EE077BB0EE470B8DEDB4
:10345000BC7B5CF011FF9DED087B9DED6E6B8DEDEF
:10346000660BA7EE008B9DED247B27EE087B8DED90
:10347000688B36EE075B8DED847B002E04F0438372
:10348000B6EE002B96ED047B96ED064B1FEDD03B80
:1034900034EE476B37EE047B26EE026B26EE036BB1
:1034A0008DEDDA6BFE9B1E68AEB19DED126B9DED4E
:1034B0004A4BA5EE464B9DED866B34EE077B37EE0F
:1034C000467B9DED8A6B37EE067B1FEDDD6B27EEAD
:1034D000067B86ED007B9DED3E7B9DED126B27EE1E
:1034E000067B9DED486BA5EE067B9DED046B8DED97
:1034F000867B9DED447B87EE067BB0EE470B8DED22
:10350000E87B5CF029FD30EE0B8B1FEDEB7B1FEDB4
:10351000EA6B8DED9E8B30EE477B27EE060B9DED23
:103520001C7B8DEDC40B28EE077B8DEDBA7B5CF028
:1035300013FD8DEDC00B5CF017FE1FEDF37B9DEDD1
:103540001A6B20EE077B27EE06DB8DED9A7BB0EE43
:103550004D0B5CF001FD3DEE407B9DED145BB0EE4C
:10356000476B8DED9C7BB0EE4D7BA6EE457BB0EEC0
:10357000470B8DEDC67B5CF0EFFC9FEDEF7B20EE03
:10358000077BB0EE470B8DEDC27B5CF0EDFD80EE6E
:10359000007BB5EEC08B8DED3E0BF1EE10FA8DED9C
:1035A000287B04F19C8244F390839FEDE57B8DEDB5
:1035B000D87B9DED447B9DED066B9DEDD85B9DED2D
:1035C000BA8B87EE067BB0EE480B9DED466B26EE80
:1035D000056B8DED406B8DEDBE7B5CF0BDFCB0EE00
:1035E000487B38EE405B9DED406B8DEDA05BA6EE19
:1035F000457BB0EE470B8DEDCA7B5CF0ADFC9FEDDB
:10360000D27B20EE076BB0EE460B8DEDC86B5CF005
:1036100033FE9DED165B9DED6C8B8DEDA20BA0EE48
:10362000058B9DEDBE0B8DEDA48B5CF095FC30EE13
:103630000B6B9FEDC77B8DED446B30EE470B9FED21
:10364000E27B20EE070B9DED287B8DEDCC0B27EE6A
:10365000088B9DED1C7B26EE077B8DEDB07B5CF02F
:103660007BFC8DEDEA0B5CF07FFD9FEDBB7B9DED60
:103670001A4B20EE077B27EE04BB8DEDA67BB0EE48
:103680004B0B5CF069FC3BEE407B9DED143BB0EED8
:10369000474B8DEDA87BB0EE4B7BA4EE437BB0EEA9
:1036A000470B8DEDEE7B5CF057FC9FEDA37B20EE8E
:1036B000077BB0EE470B8DEDEC7B5CF055FD80EEAB
:1036C000007B9DED445B8DED420BB5EEC05BF1EEF2
:1036D00010FA8DED2A7B04F1FC8144F300839FED09
:1036E000987B8DED4A7B9DED467B9DED4A6B9DED74
:1036F000B00B27EE066B8DED466B5CF02DFC0DF5E7
:1037000080639DEDB07B9DED466B37EE405BA6EE92
:10371000457B8DEDAA5BB0EE470B83ED007B5CF043
:103720001BFC9FED897B20EE077BB0EE470B8DEDF8
:10373000F07B5CF0A1FD9DED166B9DED6C7B8DED3E
:10374000AC0BA0EE067B9DED2A6B8DEDAE7BA6EE5D
:10375000078B8EB39DED6E6B9DED847B9DED125BB3
:103760009DED864B37EE467B9DED6A6BA7EE456B74
:10377000B6EE007B9FED8C5B26EE076B24EE057B9F
:10378000A8EE457B34EE088B9DEDB45B38EE058BDF
:103790009FED875BA6EE057B9DEDDA6B37EE063B72
:1037A0009FED6F7B28EE078B9FED6F7B86ED028B85
:1037B00023EE077B86ED047BF29B596804F50863D2
:1037C000002904F096821A4601F14800F1E80267E8
:1037D0008142E2E80267F9D1D96804F50E685A68B7
:1037E0009868C4F8D418D4F88018C4F8CC28C4F861
:1037F000D008C4F8C8185A69196904F6C803C4F88F
:10380000DC2804F50B62FF9304F69803C4F8D8187B
:10381000F3E802019342C3E91001F9D104F6F8027A
:10382000FC92FF9AF3E802019A42C3E91001F9D130
:1038300004F50D630DF589629DED7A6B9DED2C7B92
:103840009DED741B9DED703B86EE077BCDF88434B7
:1038500093ED006B9DED788B9DED720B8DEDF66B0E
:10386000B7EE006B9FED425BB0EE462BB0EE464BE1
:10387000A1EE012BB0EE461BA3EE034BB0EE463B90
:10388000A8EE081BB0EE468BAFEE0F3BAAEE0A8BFC
:10389000B0EE46AB9DED7CFB8DED723B9DED883B24
:1038A000AFEE0FABB0EE46FB8DEDF87BAEEE0EFB50
:1038B000B0EE46EBB6EE007BA9EE09EBB0EE469B10
:1038C0008DED6E7BA3EE039BB0EE463B18ED027BC5
:1038D000ACEE0C3BB0EE46CB8DED781B9DED8C1B1A
:1038E0008DEDF47B13ED027BA1EE01CB9DED921BE0
:1038F0008DED7A8B82ED007B27EE018B8DED8A3B7F
:103900008DED6A6B28EE055B8DED704B8DED742BA4
:103910008DED7CAB8DED84FBB0EE45AB8DED86EB94
:103920008DED889B8DED8CCBB0EE479B5CF0A4FCBD
:103930007AE000BFAFF30080419FC893A46BEE3FD5
:103940007429AE2AFBAEE73F6B9A779CA223F33F24
:103950002788BA0F406AA33FA245B6F3FD942D40D5
:1039600074E501C93A576E3F111111111111813FD0
:10397000CD5D4BC807BDF03F560E2DB29D2F0940BF
:10398000FCA9F1D24D62503F953FEA943FEAE43FF3
:103990003BDF4F8D976EE23FB22E6EA301BCE13F3D
:1039A00090F46915FDA149BF7B14AE47E17AE83F69
:1039B00052B81E85EB51F43F4A7B832F4CA6F43F4F
:1039C000C3F5285C8FC2ED3F992A1895D4E92A40A7
:1039D000AAF1D24D6210D2BF639AE95E27F5EE3F9D
:1039E0006B9A779CA223F33F419FC893A46BEE3F51
:1039F0006B0E10CCD1E3E7BFCC9717601F9DCE3F75
:103A00002EE7525C5576F23FA4703D0AD7A3EA3FF9
:103A1000FF4B080C48B152BF5E656D533C2EB23F60
:103A2000AC36FFAF3A72A4BF0DF58B63B0EE402BFE
:103A30001FED2F5B9DED6E7B9DED7E0B28EE055BF4
:103A40002AEE074B25EE075B1FED338B8DED6C2BBC
:103A500083ED005BB0EE451B0DF58A631FED365B11
:103A600083ED00AB0DF58C6324EE054B1FED385B49
:103A70008DED7E7B24EE055B83ED005BB0EE45FBB8
:103A80001FED3B5B91EE05FB1FED3B5B2FEE088BC3
:103A900028EE055B8DEDB45B5CF0EEFBB0EE405BB9
:103AA0000DF58D639DED6A6B9DED761B9DED043BE1
:103AB0009DEDF47BB0EE46AB81EE034BA1EE01AB86
:103AC0008DED6E5B1FED485B9DEDB21B9DEDF6CB62
:103AD00027EE05EBB0EE465B9DED820BA1EE015BA0
:103AE00083ED00EB3CEE0EEB0DF58E631FED506B9E
:103AF0008DEDDEEB8DED825B1FED515B27EE066BEE
:103B000028EE05CB8EEE035BB0EE4C2B9DED203BFB
:103B10009DED22EB8DEDDAAB1FED57CB8EEE03EB77
:103B2000B0EE493B1FED581B8DED6AEB9DED7E7BA2
:103B30008DEDE02BA6EE473BA6EE079B1FED5C7BD1
:103B4000A4EE435B28EE077B1FED5D6B8DEDFA9BCA
:103B500085EE0AEB27EE067BB1EE449B9DED32AB82
:103B60008DEDE29B9DED026B27EE0A7B9DED50AB48
:103B700083ED003B27EE0C7B0DF588632AEE0F9B4F
:103B80009DED303B9DED704BA7EE069B2EEE016B3D
:103B90009DED247B9DED6E5B83ED001B87EE037B2B
:103BA0009DED4C3B1FED72AB8DED7E7B86EE047B75
:103BB0009DED724B25EE077B9DED0C5B27EE057BA3
:103BC0009DED0E5B25EE477B9DEDB45BA3EE057B83
:103BD0009DED103B9DED4E5B87EE046B9DED744BB0
:103BE00037EE466B26EE036BA5EE026B1FED822BC4
:103BF00037EE467B87EE046B9DED6A4B26EE027B2B
:103C00009DED6C2B22EE077B9DED202B87EE026B4A
:103C1000B0EE462B94EE072B8DEDE62B5CF0A4FA6C
:103C2000B0EE407B9DED800B8DED767B5CF09CFAD9
:103C3000B0EE407B0DF587639DED364BB0EE472B24
:103C40008DEDDC7B88EE047B9DED784B1FED986B52
:103C50009DED021B9DEDB80B28EE066B26EE016B69
:103C600087EE045B9DED344B1FED9D7B28EE077BBB
:103C700027EE017B35EE055B22EE055B9DED1E2BED
:103C800025EE045B9DED384BAFEE046B9DED8E4B46
:103C9000AFEE047B26EE026B1FEDA74B26EE0C6BFE
:103CA00027EE047BB0EE464B97EE024B9DED2C2B9E
:103CB00084EE027B1FEDAC4B9DEDF82B9DED523B4E
:103CC00025EE045B85EE034BA5EE427B9DED0A2BB2
:103CD00082EE035B1FEDB23BA8EE037B29EE0A3BAD
:103CE000B0EE472B3EEE077B83ED002B9DED0A2BBC
:103CF0000DF5846322EE077BA5EE434BB1EE45EB59
:103D00001FEDBB5B8DEDE4EB9DED3AEB28EE055B23
:103D1000AEEE047B25EE015B1FEDBFEB83ED004BA8
:103D20009DED904B28EE0EEBAFEE045BB0EE46FB44
:103D30009DED7A8B87EE086BA5EE0CFB9DED568B07
:103D40009DED5ACBB0EE4F3B9DED76FB8DEDB83B34
:103D500037EE466B28EE066B9DED548B28EE0E5B1E
:103D60009DED588BA8EE056B9DED2E8B37EE467BB7
:103D70009DED7C6B87EE065B25EE0A7B2FEE077BC5
:103D80009DED08FB2FEE077BA8EE097B9DED228BB6
:103D900037EE037B28EE077B9DEDE68BB0EE47FB0D
:103DA0005CF06AFAB0EE407B9DEDB60BACEE08FB22
:103DB0008DED807B5CF060FA0DF58863B0EE40CB52
:103DC0009DED068B9DEDB21B9DEDFA3B9DED824B6B
:103DD00081EE086B9DEDDE1B8DEDDE0B9DEDBC0BCA
:103DE00081EE087B93ED001BB1EE468B8DEDE68BEB
:103DF000A6EE437B9DED846B87EE048B28EE011BC2
:103E000081EE067B9DED0C1B2CEE077B27EE017BE4
:103E10009DED0E1B9DED5CCB9DEDB44B21EE477BE4
:103E20009DED866B9DED101BACEE047B9DED5E5B06
:103E30009DEDE04B87EE066B37EE466B26EE016B91
:103E40009FEDFB1BA5EE046B9DED7E4B37EE467B95
:103E50009DED886B87EE066B26EE016B9DED801B5A
:103E600021EE066B9DED301B86EE01CB94EE06CB6A
:103E70005CF07AF90DF5876393ED002B0DF5846303
:103E800032EE087B9DED0A2B93ED004B9DED8A3BB6
:103E900027EE027BFE9B5B689DED3C2B9DED601B3E
:103EA0008DEDE00BA2EE047B21EE0EEB9DED622B7F
:103EB0009DED244B87EE036B9DED083B37EE466B83
:103EC00022EE066B9DED642BA2EE0E6B37EE467B69
:103ED0009DED8C6B87EE065B25EE0A5B20EE055BA5
:103EE00023EE055B9DED663BA3EE095B9DEDB83BC4
:103EF00033EE058B24EE088B9DED684BA4EE0C8B06
:103F00003FEE089BDBB10DF58A629DED124B92ED01
:103F100000AB9DEDF6CB9DEDF45B99EE44AB9DEDD2
:103F2000264B9FEDCF6B2CEE047B9DED944BA5EEC5
:103F3000047B3AEE077B27EE067B83ED007B9DED4D
:103F4000C20BCDF838345CF097F9B0EE407B9DEDB4
:103F5000C00B8DEDB27B5CF08FF9B0EE407B9DED38
:103F6000C80B8DEDB47B5CF0FFF8B0EE401B9DED0F
:103F7000EC0B8DEDB81B5CF07FF9B0EE407B9DED56
:103F8000EA0B8DEDC07B5CF077F9B0EE406B9DEDF8
:103F9000F00B8DEDC26B5CF0E7F8B7EE007B0DF532
:103FA00080639DEDBA2BB0EE47CBB0EE473BB0EE51
:103FB00047ABADEE0DCBA2EE023BB0EE472BB0EE21
:103FC000476B9DEDCADB9DEDC45B9DEDCCEBADEE8B
:103FD0000D2BB0EE47DBA5EE05ABAEEE0EDBB0EE83
:103FE000475BB0EE47EB9DEDC64B8DEDBC2B9DEDD9
:103FF000B02B93ED001BA4EE045BABEE0BEBA2EE3B
:10400000026BB0EE47BBB0EE472B9DEDEE4BA1EE41
:10401000012BA4EE04BB9DED281B8DEDB65B8DED51
:10402000C4EB8DEDCA6B8DEDCC2B8DEDC6BB8DED4C
:10403000C80B8DEDEAAB8DEDECCB8DEDBA3B8DED84
:10404000F0DB9DED3E0B9DED044B9DEDBEBB81EE87
:10405000001B9DEDE80B9DED066B9DED2A5B80EE50
:1040600004EB9DED422B85EE025B8DEDB01BB0EEB7
:10407000471BA0EE001BB0EE470B83ED00EBABEE51
:104080000B0B0DF584638BEE06BB8DEDE81B8DED00
:10409000EE0B8DEDBE5B83ED00BBDDF83834002BFD
:1040A00000F01C820DF58D6238EE4F8B92ED003BD7
:1040B0009DEDF62B0DF5896232EE435B92ED002B00
:1040C0009DED263B9DED48FB0DF5876222EE037BBF
:1040D00029EE0FFBB0EE469B9DEDF43B9DED962B3C
:1040E00085EE096BA2EE037B9DED122B9FED523BFB
:1040F0009DEDB49B28EE028B8DEDF67B85EE047B67
:1041000082ED008B0DF58E6292ED004B0DF58C6209
:104110009FED718BA4EE4E7B9DEDFAEBAEEE4B6BFB
:1041200087EE015B92ED00BB0DF58B6286EE007BA6
:1041300092ED00EB9FED426B9FED771B0DF58762D3
:10414000AEEE06BB9FED626B9FED67EB2BEE066B51
:10415000B0EE4B4B9DEDD4BB26EE033B83EE0B2B19
:104160009DEDD2BB9FED383B32EE022B22EE0B2BA6
:1041700022EE032B25EE013B27EE011B83EE0A0BFB
:1041800081EE0D3B22EE082B9FED591B9DEDCEAB32
:104190009DED98DB26EE011B82EE0ABB21EE0EEBB5
:1041A0009FED412B9DED18AB9FED431B2EEE02EBD7
:1041B00029EE000B2EEE0AEB9DEDC29B9FED242B0A
:1041C000A4EE0DEB29EE033B22EE400B22EE433B27
:1041D0009DEDD0DB9FED422B9DED1AAB24EE0D8BB8
:1041E000A6EE025BA6EE027B9FED434B9DED9ADBB4
:1041F0008DEDF48B26EE044B9DEDC48B2DEE042B40
:104200009DEDA6DBA0EE0A2B2DEE044B9DEDD6DB3B
:10421000A3EE0A4B21EE4E3B82EE0CABA3EE0DBBA0
:1042200084EE089B9DED9ECB7AE000BFAFF300804B
:10423000419FC893A46BEE3F83796B306B4EE93F8F
:104240009CA223B9FC87DC3F4C8E3B25A776E4C0BB
:10425000A245B6F3FD942D40419FC893A46BEE3F59
:1042600074E501C93A576E3F111111111111813FC7
:10427000CD5D4BC807BDF03F560E2DB29D2F0940B6
:10428000953FEA943FEAE43F3BDF4F8D976EE23F74
:104290007B14AE47E17AE83FB22E6EA301BCE13F4A
:1042A0006B0E10CCD1E3E7BFC3F5285C8FC2ED3FA6
:1042B000CC9717601F9DCE3F6B9A779CA223F33F4C
:1042C0002EE7525C5576F23F52B81E85EB51F43F13
:1042D000FCA9F1D24D62503FA4703D0AD7A3EA3F3A
:1042E000FF4B080C48B152BF639AE95E27F5EE3FD9
:1042F000AAF1D24D6210D2BF90F46915FDA149BF59
:104300005E656D533C2EB23FAC36FFAF3A72A4BF30
:104310004A7B832F4CA6F43F992A1895D4E92A406A
:104320009DED44DB9DED1C8B2CEE0BCB2DEE0BBBE2
:10433000A5EE08CBA7EE08BB1FED0B5B9DEDBA3BCE
:1043400032EE4AAB26EE055B8CEE030B34EE499B56
:104350009DEDCA3B9DED9CDB1FED157B8BEE038B2A
:104360002DEE053B26EE077B9DED14DBAAEE0D3B03
:104370009DEDA8AB2AEE055B32EE433B3CEE400BD5
:10438000A9EE0D5B3BEE488B9DED4ADB9DEDC89B96
:104390009DED18AB34EE455B9DEDB64B83EE042BE3
:1043A0009DEDC64B9DEDCC3B85EE044B27EE0D5BA2
:1043B0009DEDD8DB27EE0D7B9DEDAADB2DEE055B99
:1043C0009DED46DBADEE085B9DEDBE8B3BEE455BA8
:1043D0009DEDA0BB85EE033B2BEE077B9DED40BB27
:1043E0009DEDBC5BABEE007B9DED3E0B3CEE477B59
:1043F00087EE055B1FED687B23EE013B22EE072B6A
:1044000029EE033B24EE074B9DEDB89B1FED447B4B
:1044100026EE077B9DEDF46B25EE015BA7EE0A6BA4
:1044200029EE055B9DEDB29B9DED427B9DEDB01BA2
:1044300029EE022B9DEDC09B29EE044B9DEDAE9B1A
:1044400084EE077B98EE047B92ED008B29EE074B00
:1044500082EE007B9DED160B91EE027B9DEDA42B71
:104460009DED281B22EE077B9DEDAC2B22EE0E2B43
:10447000A3EE002B9DEDA23B23EE0EEBA5EE00EB91
:104480001FED775BA6EE052BA6EE05EB9DED2A5BF7
:10449000A5EE024BA1EE0E7BB6EE005B25EE485B6F
:1044A00037EE047B1FED864B24EE476B3FEE077B18
:1044B000AFEE046B9DEDF64B37EE047B1FED7E4BAC
:1044C000A5EE046B1FED9A5B27EE057B83ED027B67
:1044D0001FED9B7B26EE076B83ED046B98ED002BA5
:1044E0009DED927B1FED9E1B1FED9D6B22EE077BCA
:1044F00004F50F670DF58762B6EE00DB97ED008BD4
:1045000027EE015B27EE067B25EE0D6B27EE0D4BAC
:104510001FEDA57B82ED005B0DF5886226EE077B23
:104520001FEDA76B82ED004B17ED025B27EE066BCC
:104530000DF589621FEDAA7B8DEDFA5B82ED006BB4
:1045400028EE073B0DF58A621FEDAD7B9DED02CB9A
:104550009DED380B94EE076B35EE037B9DED044B20
:104560001FEDB15B1FEDB0EB87EE049BB0EE46FB99
:104570009DED064B1FEDB26B9DED52BB87EE04AB7C
:104580001FEDAF7B1FEDB24B82ED003B28EE071B0A
:104590000DF58B621FEDB27B1FEDB93B2FEE077B54
:1045A00027EE055B27EE066B25EE0C5B26EE0C6B0B
:1045B000AFEE005B9DED8E0BAFEE006B9DED1E0B25
:1045C00025EE005B26EE046B25EE0E5BB0EE454B50
:1045D00096EE004B9DED2C6B84EE066B9DED364BFD
:1045E00087EE040B9DED784B80EE044B9DEDDC0BCC
:1045F00034EE044B20EE044B9DED340B24EE004BC7
:104600001FEDCB0B24EE004B9DEDF80BA0EE446BA1
:1046100084EE0B4BB1EE40BBB0EE420B8DEDF4BB24
:10462000A1EE0D0B1FEDD2BBA7EE0B6B9DEDE2BB18
:1046300082ED000B8DEDF64BB0EE424BA1EE4D4BF3
:104640009DEDDA1BABEE049B9DEDE6BB8DEDF84BCB
:10465000ABEE00AB89EE014B9DED821B1FEDDE9BA7
:104660008AEE010B1FEDDE1B27EE011B21EE091B5D
:104670009DED329B21EE091B9DED509B21EE0E1B03
:1046800029EE0F9BB0EE49BBA1EE0CBB1FEDE61B64
:104690001FEDE5CB27EE01AB1FEDE31B27EE019BE2
:1046A0001FEDE71B27EE011B27EE0C7B9DED02CBD8
:1046B00027EE0C7B9DED90CBAFEE0C7B9DED6ECB92
:1046C000A7EE0E5BB0EE45FB1FEDED5B24EE057B28
:1046D00034EE064B36EE006B20EE050B9DED0A5BCB
:1046E00025EE044B25EE066B9DED705B87EE055BBA
:1046F0009DED847B80EE077B9DEDF60B2CEE055B3C
:104700009DEDDECB2CEE077B9DED0CCB25EE0C5BFF
:1047100027EE0C7B9DED0ECB2CEE455B2CEE477B04
:104720009DED4CCBACEE0A5B9DED5CCBACEE0A7B19
:104730002BEE03AB9DEDE4CBACEE0A0B9DED3AAB5B
:104740009DED4ECBAAEE004B9DED3CABAAEE006B6F
:104750009DED720B9DED10AB85EE000B35EE400B21
:1047600020EE0A0BACEE090B9FEDFDCB35EE405B66
:104770009DED740B85EE000B9DED6C5B20EE0C0B3C
:1047800025EE000B9DED865B87EE055B37EE455B06
:1047900025EE0A5B9DED5EABAAEE095B9DED62AB7B
:1047A00037EE457B9DED885B87EE059B9DED807B1D
:1047B00029EE0C9B9DED58CB27EE099B9DED7A7B56
:1047C00084EE075B9DED567B34EE455B27EE055B83
:1047D0009DED8A7B86EE077B36EE477B2AEE077BD4
:1047E0009DED54AB2AEE01ABACEE0A5B34EE454BCB
:1047F0009DED605B25EE011B9DED645BA5EE017BED
:1048000036EE476B9DED7C7B9DED8C5B84EE077BEC
:1048100086EE055B9DED766B9DED6A4B27EE037B87
:1048200025EE035B26EE077B9DEDE06B26EE055B38
:104830009DED086B26EE077B26EE055B9DED2E6B4E
:10484000A6EE0B7B9DED666BA6EE0B5B37EE0F7B4A
:104850009DED226B26EE077B3FEE055B9DED246B05
:1048600026EE055B9DED206B80EE066B94EE006BF3
:104870009DED5A4BA4EE067B9DED306B9DED7E4B7E
:1048800089EE066B94EE096B9DED684BA4EE065B1A
:1048900037EE056B002B03F042810DF58A6235EE91
:1048A000475B92ED004B9DEDFA7B9DED261B0DF5D0
:1048B000876237EE444B22EE012B27EE017B9DED04
:1048C000120B92ED001B9DED489B25EE005B96EED2
:1048D000401B26EE096B2DEE455B9DED940B82EDA2
:1048E000006B0DF58C62A8EE007B9DED960B82EDC2
:1048F000005B0DF58A62A0EE082B31EE077B9DED83
:10490000041B8DEDFA7B9FEDCE9B84EE016B82ED57
:10491000002B0DF580629DEDF81B92ED005B0DF50F
:1049200084629DED98BB9FED902BA5EE416B9DEDB4
:10493000061B84EE017B92ED004B0DF58B6292ED30
:10494000001B0DF5896292ED00FB0DF5886292ED7A
:10495000008B0DF58762A4EE417B9DEDE81B86EE92
:10496000010BB1EE451B8DEDF61BB1EE441B8DED39
:10497000F81B9DEDEE1B87EE011B9FED7D7BA8EEE6
:1049800007FB9FED918B2FEE084B9FEDA58B24EE3F
:1049900009DB24EE087B24EE022B9FEDA38B9DED1B
:1049A000189B27EE087B9FEDA28B27EE0E7B24EE53
:1049B000085B27EE09AB9FEDA08BAFEE0BAB24EEAF
:1049C000086B9DEDD0BB9FED948B2FEE0BFB24EE7F
:1049D000088BADEE09FB9DEDD49B82EE097B9DED2E
:1049E000D29B37EE077B27EE097B9FED839B20EE62
:1049F000092B21EE09BB9FED869BA4EE091BA4EEBB
:104A0000090BB0EE41CB9DEDEA1BB0EE40DB82EE30
:104A1000014B9DEDF01B9DEDB40B9FED572B8BEEE5
:104A2000011B27EE022B20EE044B9DEDC20B9DEDEA
:104A3000A69B9DED9EBB20EE011B9FED730B22EE0E
:104A4000002B9DEDCE0B82EE007B9FED4D2B9DED5F
:104A50001A0B22EE444B22EE412B9DED9A1B21EEC8
:104A6000051B29EE055BA4EE001B23EE4A4BA2EECC
:104A7000005B9DEDD60BA4EE007B9DEDEC0B81EE73
:104A8000009B2BEE074B9DED1CBB9DEDC40BADEECB
:104A90000B4B85EE000B9DED44DB2DEE077BACEE62
:104AA0000B7B31EE499B9DED9CBB2BEE062B9DEDC8
:104AB00014BBA9EE0B2B35EE400B31EE422B9DEDD6
:104AC000A81B21EE066B9DEDB61BA0EE0B6B9DEDBA
:104AD000BA0B35EE466B82EE015B9DEDC61B86EE92
:104AE000012B9FED1F6B9DEDB21B25EE065B21EEAA
:104AF000055B22EE06CB84EE002B9DEDC01B9DEDE9
:104B00004A0B21EE0CCB28EE006B9DEDCA1B9DEDF0
:104B1000D80B87EE011B28EE008B9DEDAA0B20EE33
:104B2000066B34EE422B9DED460B37EE411BA0EE9B
:104B3000016B9DEDA01B21EE088B37EE466B9DEDC2
:104B4000401BA1EE028B9DEDCC1B86EE017B34EE6B
:104B5000488B9DEDBC1B88EE016B79E0AFF30080C4
:104B6000419FC893A46BEE3F83796B306B4EE93F56
:104B70009CA223B9FC87DC3F4C8E3B25A776E4C082
:104B8000A245B6F3FD942D4074E501C93A576E3F36
:104B9000111111111111813FCD5D4BC807BDF03FBF
:104BA000560E2DB29D2F0940953FEA943FEAE43F0F
:104BB0007B14AE47E17AE83F3BDF4F8D976EE23FD3
:104BC000B22E6EA301BCE13FFCA9F1D24D62503F71
:104BD0006B0E10CCD1E3E7BFCC9717601F9DCE3F83
:104BE000C3F5285C8FC2ED3F2EE7525C5576F23F4D
:104BF00052B81E85EB51F43F992A1895D4E92A4002
:104C00006B9A779CA223F33FA4703D0AD7A3EA3F97
:104C1000FF4B080C48B152BFAC36FFAF3A72A4BF8D
:104C2000AAF1D24D6210D2BF639AE95E27F5EE3F3A
:104C300090F46915FDA149BF4A7B832F4CA6F43F30
:104C40005E656D533C2EB23F419FC893A46BEE3F0F
:104C500027EE037B26EE036B9DEDC83B23EE077B1F
:104C60009DEDB83B23EE066B9DED423B8CEE034B76
:104C70009DEDBE3B93EE0C4B9DEDAE3B9DEDB01B11
:104C80009DEDA20B23EE044B9DED3E3B85EE033BD9
:104C900091EE053B9DEDA41B21EE035B9DEDAC3B2E
:104CA0009DED161B23EE0A3BA7EE013B20EE0A7B8F
:104CB000A6EE017BAFEE0E3B9DED2A1BAFEE0E7B09
:104CC000A1EE034B9DED283B92ED006B0DF58C6240
:104CD000A3EE075B1FED543B9DEDFA7B1FED3C1BE4
:104CE00027EE037B35EE045B1FED4F4B83ED067B18
:104CF00024EE457B36EE055BA6EE047B92ED004B81
:104D00000DF58A6292ED002B1FED5F6BA4EE017B27
:104D100035EE025B25EE035B27EE067B83ED085B39
:104D200083ED0A7B04F51066B6EE00FB04F5116214
:104D300016ED022B9DED927B1FED691B1FED685B4D
:104D400022EE077BFA921FED686B12ED028B27EEC5
:104D5000013B0DF5896227EE057B23EE0F1B27EE45
:104D60000F0B21EE061B1FED6E7B82ED003BB0EEBC
:104D7000483B0DF5876228EE078B1FED717B1FED19
:104D8000706B96ED004B21EE075B34EE087B9DEDDA
:104D9000041BB0EE45EB9DED06AB90EE06EB87EE07
:104DA000019B87EE0AAB1FED787B82ED004B0DF582
:104DB0008C622EEE077B82ED008B0DF58B6282ED0F
:104DC000005B1FED7D5B0DF58A6227EE055B82EDD2
:104DD000000B9DED020B1FED806B9DED388B25EEDA
:104DE000005B0DF5886227EE066BAEEE085B26EEE3
:104DF000006B9DED8E8B1FED86DB1FED854BAEEEC0
:104E0000086B9DED1E8B1FED86CB82ED003B25EEE2
:104E1000085B0DF5846226EE046B25EE0D5B23EE38
:104E20000C1BB0EE45CB1FED8CBB96EE08CB9DED79
:104E30002C8B1FED8D3B8CEE086B9DED368B9DED25
:104E4000F4CB87EE080B9DED788B80EE084B9DED43
:104E5000DC8B34EE044B24EE084B9DED348B24EEBA
:104E6000084B1FED978B24EE084BACEE046B9DEDC9
:104E700052CB84EE0C8BB0EE424B9DEDE2CBA1EE1B
:104E80004F4BACEE049B9DEDE6CB82ED008B1FED0E
:104E9000A08B0DF58D62A7EE086BB0EE428B82ED14
:104EA000004BA1EE0F8B0DF58E62ACEE08AB9DEDC5
:104EB000DACB82ED008B0DF5806289EE0C4B9DED17
:104EC00082CB1FEDAB9B8AEE0C0B1FEDABAB9DEDC8
:104ED00032CB27EE0A1B1FEDACAB21EE0A1B1FEDF8
:104EE000ACAB21EE0C1B27EE0AAB21EE0D1B9DEDAA
:104EF00050CB9DED028B2CEE0ECBA1EE08CB1FED1F
:104F0000B21B27EE011B82ED001B27EE091B0DF5DE
:104F100084621FEDB59B27EE097B9DED909B27EEEC
:104F2000087BAEEE097B9DEDE49BA7EE0D5B24EEC6
:104F30000B7B34EE064B36EE006B20EE0B0BB0EE27
:104F400045EB9DED0A5B25EE044B26EE056B9DEDD2
:104F5000705B87EE055B9DED847B80EE077B9DEDAE
:104F60006E0B25EE005B9DEDDE0B27EE007B9DEDCD
:104F70000C0B25EE005B27EE007B9DED0E0B20EE6B
:104F8000455B20EE477B9DED4C0BA0EE0A5B9DED53
:104F90005C0BA0EE0A7B2CEE03AB92ED000B0DF543
:104FA0008062A9EE0A0B9DED3A9B9DED10AB92ED50
:104FB000008BA9EE004B9DED3C9BA9EE006B9DED97
:104FC000720B9DED4E9B85EE000B35EE400B20EEF7
:104FD0000A0BA9EE080B1FEDE48B9DED5E9B35EEF1
:104FE000405B9DED740B85EE000B9DED6C5B20EE40
:104FF000080B20EE050B9DED865B87EE055B37EE1B
:10500000455B25EE0A5B92ED00ABA9EE0A5B9DEDD8
:1050100062AB37EE457B9DED885B87EE059B9DED92
:10502000805B9DED567B29EE089B29EE059B9DED4F
:105030007A5B84EE055B34EE455B27EE055B9DED08
:105040008A7B86EE077B36EE477B2AEE077B9DED5B
:1050500054AB9DED588B2AEE01ABA8EE0A5B9DED9B
:1050600076AB34EE454B9DED605B25EE011B9DED6F
:10507000645BA5EE017B9DED7C5B36EE476B84EEB9
:10508000057B9DED8C5B86EE055B27EE037B27EEB3
:105090000A7B25EE035B9DEDE0AB25EE0A5B9DED03
:1050A00008AB2AEE077B2AEE055B9DED2EABAAEE40
:1050B0000C7B9DED66ABAAEE0C5B37EE0E7B3EEEF5
:1050C000055B9DED22EB2EEE077B9DED24EB2EEE96
:1050D000055B9DED20EB80EE0E6B9DED6AEB9EEE89
:1050E000006B9DED5AEBAEEE067B9DED30EB89EE4D
:1050F0000E6B9DED7EEB9EEE096B9DED68EBAEEECB
:10510000065B37EE05AB002B00F0C8810DF587621A
:1051100035EE475B92ED006B0DF58C6292ED00CBA6
:105120000DF5896236EE4C4B9DED26CB9DED48EB9F
:105130009FEDF39B26EE0C7B22EE0C2B9DED12CB0C
:1051400092ED006B25EE0C5B9AEE4C6B2FEE45FB5F
:105150002AEE0EABB0EE461B82ED00FB0DF5886229
:105160009DED94FB92ED006B9DED965B0DF58762D6
:10517000A6EE0F7BB0EE42FB9DED042BA5EE06FBE9
:1051800084EE026B31EE075B82ED00FB0DF5806271
:1051900082ED005B0DF58D629DEDF62B92ED007BAF
:1051A0000DF58E6292ED001B0DF58B6292ED00EB1A
:1051B0000DF58A62A2EE076B9DED062B84EE027B55
:1051C0009DEDF82BA2EE017B9DEDE82B9FEDCE1B14
:1051D00086EE028B9DEDEE2B92ED006B0DF5846259
:1051E00087EE020B9FEDCA7BA6EE07EB9FEDCA6B25
:1051F0002EEE062B9FEDCA6B22EE015B22EE067BA4
:105200009FEDC96B9FEDCA1B27EE067B22EE01CBFB
:1052100027EE0D7B9DED181B9FEDC76B27EE01FB65
:1052200022EE064B9DED987B9FEDC56BAEEE07FB26
:1052300022EE066B9DEDD07B2EEE07EB9DEDD47B31
:10524000ACEE01EBB0EE48CB9FEDBF1BA2EE09CB5D
:1052500022EE011B81EE077B9DEDD21B37EE077B13
:1052600027EE017B28EE0B1B20EE0BBBA2EE090BF9
:105270009DEDEA2B9FEDB69B81EE022B9DEDF01B81
:1052800082ED000B8BEE010B9FEDB31B9DEDB4BBCC
:1052900027EE011B21EE091B22EE0B2B9DEDC2BB5D
:1052A0009DEDCE9B81EE097B20EE0B0B9DED9A9B35
:1052B0009FEDAB1B9DED1CBB21EE422B21EE401B55
:1052C00029EE040B9DED1A9BA2EE090B9DEDA62B7A
:1052D00022EE044B23EE4F2BA1EE094B9DEDD69B06
:1052E0009DED441BA2EE097B9DEDEC2B80EE029B15
:1052F0009DEDC42B84EE028B9DED9E2B22EE072BA1
:1053000021EE077BACEE0B2B92ED001B0DF58062BE
:10531000A1EE0B7B30EE499B9DED9C1B9DED14BBDC
:105320009FED91CB21EE051B34EE488BA9EE0B1BB4
:105330009DED4A9B30EE411B9DEDA80B20EE055BD9
:105340009DEDB60BA8EE0B5B9FED898B34EE455BB4
:1053500081EE004B9DEDC61B9DEDB20B85EE011B52
:1053600026EE095B9DEDD89B26EE096B9DEDAA9B71
:1053700029EE055B9DED469B24EE084B24EE004B89
:1053800021EE081B9DEDC00B21EE001B9DEDCA0B0D
:1053900087EE008B9DEDBA0B82EE000B37EE488B4B
:1053A000A9EE085B9DEDA08B32EE400B28EE066B5C
:1053B00037EE455B9DED408BA8EE006B32EE466B01
:1053C0009DEDCC2B85EE027B9DEDBC2B86EE025B2A
:1053D0009DEDC86B27EE037B27EE067B25EE035B76
:1053E0009DEDB86B25EE065B9DED426B81EE063BB5
:1053F0009DEDBE6B96EE013B9DEDAE6B9DEDB02B32
:105400009DEDA21B26EE033B9DED3E6B84EE066BED
:1054100092EE046B9DEDA42B22EE066B9DEDAC2B62
:1054200022EE0F4B9DED162BA7EE024B21EE0F7BCC
:10543000A5EE027BAEEE0D4B9DED2A2BAEEE0D7B65
:10544000A2EE043B9DED282B9FED4B5B9FED4C4B5B
:10545000A2EE076B36EE036B92ED003B0DF5896211
:1054600023EE057B83ED0C7B24EE467B3AEE066B48
:10547000AAEE047B92ED004B0DF5876292ED00FBE6
:10548000A4EE0C7B36EE0F6B26EE056B83ED0E6BF8
:105490009FED3D6B27EE067B83ED107B50220021B4
:1054A00050465CF039FE0DF581630DF58562384894
:1054B00004F6081CFC9993ED007B0DF5826306ED64
:1054C000027B93ED007BFA9B86ED007B92ED007BE7
:1054D00003ED027B0023002B0AEBC30303DB91EDFA
:1054E000007B83ED007B8C4554D050F8043B0831A1
:1054F000002B0AEBC303F2DA8C45F6D14AE000BF79
:10550000FF4B080C48B152BF4A7B832F4CA6F43F97
:105510009CA223B9FC87DC3FFCA9F1D24D62503F2D
:10552000AAF1D24D6210D2BF639AE95E27F5EE3F31
:105530005E656D533C2EB23F90F46915FDA149BFE5
:10554000AC36FFAF3A72A4BF83796B306B4EE93F44
:10555000A4703D0AD7A3EA3F4C8E3B25A776E4C052
:10556000A245B6F3FD942D4052B81E85EB51F43F91
:10557000419FC893A46BEE3F74E501C93A576E3F53
:105580007B14AE47E17AE83F111111111111813FEF
:10559000807506080DF581630DF58662FC9893ED24
:1055A000007B0DF5826306ED027B93ED007BFA9B99
:1055B00086ED007B92ED007BE94A03ED027B01233F
:1055C000002B0AEBC30303DB90ED007B83ED007B34
:1055D000814200F1080009D052F8043B002B0AEB8D
:1055E000C303F1DA814200F10800F5D1CDF800B033
:1055F00004F5476E04F54A6C504604F54C6B04F50F
:105600004B6ADDF81824D74BD7499FEDAD7B9FED52
:10561000AE6B9FEDAF5B0AED027B0BED027B0EEDF7
:10562000027B0CED025B8BED006B8AED006B8EED67
:10563000007B8CED006BFDF763FA10460023C9492F
:105640004A46FDF7E7F9F29B9968002902F061826A
:10565000284601F1600CF1E802236145E0E80223ED
:10566000F9D1D4F8782D04F5596B6B68C446A86855
:10567000E968C4F8F828FC9A90601046D160594651
:1056800053602A696B690261436104F6A850F1E82E
:1056900002238842ECE80223F9D10346FF9A04F57D
:1056A0005C61DC46F3E802AB8B42E2E802ABF9D185
:1056B000E34604F6D85A0B46B3EC027B9A4583EDD9
:1056C000047BF9D1FA9A04F55863CDF8705404F5C7
:1056D0005E6CCDF880340DF5816304F55F6E12EDDC
:1056E000028B96ED005B9FED7C0B16ED026B9DED42
:1056F000927BA8EE005B26EE076B96ED001B9DEDFE
:1057000004CBB0EE457BA8EE401BB6EE000B9FED40
:10571000745B9FED754B9DED06EB26EE059B81EED0
:105720000C5B29EE002B26EE046B87EE0C4B87EE0C
:105730000E3B81EE0E7B26EE006B83ED009B9FED12
:105740006C9B16ED02FB9FED6CAB22EE092B0DF569
:1057500080639FED6B9B9FED6CBB22EE0A2B28EEC6
:10576000091BB0EE42ABB0EE42DBA1EE40FB96EE81
:105770000BAB9FED672B83ED008B9DEDE2BBA6EE9F
:1057800002DB0DF58663B0EE4F2B16ED02FB9DEDAF
:10579000F68BABEE024BA1EE00FBA8EE025B9DED9B
:1057A000E62B9DEDF8BB9DEDDA6BA2EE0F3BABEE69
:1057B0000F7B84EE066B9DED824B83ED00DB9DED50
:1057C000DC9B83EE044B0DF582639DEDE83B9DED84
:1057D000D4CB9DED50BB85EE032B2BEE0A0B9DED3C
:1057E000EE5B9FED4DBB87EE058B9FED4D7B9DEDF9
:1057F000985B2AEE07EB2DEE051B2DEE073B9DED8A
:10580000365B9DED78DB8DEDF23B8EEE055B85EE34
:105810000D7B9DED34DB37EE077B29EE075B9FEDBB
:10582000429B25EE0D5B23EE093B9DEDD29B9FED48
:1058300040DB83EE0C7B25EE0D5B9FED3FCB37EE1F
:10584000077B27EE097B9DEDCE9B9DED023B27EE6E
:105850000C7B9DED38CB27EE0D7BB0EE4ADB87EE5F
:10586000099B9FED377B83ED00DB0DF584632EEE06
:10587000077B27EE037BAAEE0C7B9DED1EAB9FED15
:1058800032CB27EE0A7B27EE0C7BB0EE47CB9FEDA9
:10589000307B83ED00CB0DF587632EEE077B27EE83
:1058A000037B9DED8E3BADEE037B9FED2BDB27EE67
:1058B0000D7B9DED70DB97EE0ACB9DED2CAB55E09B
:1058C00074E501C93A576E3FE00865F4B6AC753F20
:1058D000E00865F4B6AC75BF7B14AE47E17AE83FEB
:1058E000CD5D4BC807BDF03F560E2DB29D2F094030
:1058F000953FEA943FEAE43F3BDF4F8D976EE23FEE
:1059000052B81E85EB51F43FB22E6EA301BCE13FAD
:105910009CA223B9FC87DC3F6B9A779CA223F33FC0
:10592000FCA9F1D24D62503F83796B306B4EE93F59
:10593000A4703D0AD7A3EA3F4C8E3B25A776E4C06E
:105940006B0E10CCD1E3E7BFC3F5285C8FC2ED3FEF
:10595000CC9717601F9DCE3F2EE7525C5576F23FE5
:105960008C75060894750608D87506088CEE0A7BB7
:105970009DEDF4AB9FEDFECBAAEE057B9DED52AB0A
:1059800085EE0AFBAEEE0C7B9FEDFBAB26EE0A5BD1
:1059900036EE076B37EE047B24EE0A4B85EE0D3BAB
:1059A000B0EE4A5B9DED0ADB2DEE06AB27EE0D7BDC
:1059B0008DEDFAAB9DED84AB9DEDDE6B9DED0EDBC9
:1059C00084EE0AAB9DED6E4B24EE033B9DED0C4B3C
:1059D00023EE043B2DEE433B26EE0AAB9DEDEA6B36
:1059E0002AEE04AB9DEDF24B2DEE4AABB0EE45DB5B
:1059F00022EE055BA4EE0C2B85EE06CB9DED1C5B29
:105A00009DEDF26B22EE054B9DEDB42B9FEDD85B27
:105A100022EE0CCB9FEDDA2B2CEE02CB9DED1A2B58
:105A200022EE4CCB28EE0D2BA6EE058B9DEDF05B08
:105A300082EE05DB9DED1C5B9DED1A2B28EE055BD0
:105A40009DEDC28B28EE0DDB9FEDCD8B2DEE08DB9F
:105A50009FEDCD8B22EE4DDB26EE082B9FEDCC6B20
:105A600022EE062B9FEDF26B22EE062B9DED186BBE
:105A7000A2EE061B2EEE082B9FEDC56B9DED328B23
:105A800083ED001B22EE062B0DF583632BEE411BED
:105A900022EE082B9FEDE66B9DED028B22EE062B8E
:105AA000A2EE080B9DEDD62B9DED9E8BA1EE029BE9
:105AB000B0EE441B20EE0B4B9DEDF22BA8EE091B24
:105AC00083ED000B9DED3A0B0DF58863B0EE416B55
:105AD000B0EE451B9DED445B83ED006B0DF58563DA
:105AE000A5EE091B9FEDAC9B2EEE095B8DEDFC1B1B
:105AF0009DED4C1BA1EE053B9DED5C1BA1EE05ABA6
:105B000022EE095B9DEDE41B9DED9A9B9DEDFA2B2A
