:020000040800F2
:1000000000000820F5000108F1F90008F5F90008E2
:10001000F9F90008FDF9000801FA000800000000E5
:1000200000000000000000000000000005FA0008C9
:1000300009FA0008000000000DFA000811FA000893
:100040004501010845010108450101084501010874
:100050004501010845010108450101084501010864
:100060004501010845010108450101084501010854
:100070004501010845010108450101084501010844
:100080004501010845010108450101084501010834
:100090004501010845010108450101084501010824
:1000A0004501010845010108450101084501010814
:1000B0004501010845010108450101084501010804
:1000C00045010108450101084501010845010108F4
:1000D0004501010815FA000845010108450101081C
:1000E00045FA0008450101084501010845010108DC
:1000F00045010108450101084501010845010108C4
:1001000045010108450101084501010845010108B3
:1001100045010108450101085DFA000869FA000877
:10012000450101084501010875FA0008450101086B
:100130004501010845010108450101084501010883
:100140004501010845010108450101084501010873
:100150004501010845010108450101084501010863
:100160004501010845010108450101084501010853
:100170004501010845010108450101080000000092
:100180004501010845010108450101084501010833
:100190004501010845010108450101084501010823
:1001A00000000000000000004501010845010108B1
:1001B0004501010845010108450101084501010803
:1001C0004501010845010108000000004501010842
:1001D00045010108450101084501010845010108E3
:1001E00045010108450101084501010845010108D3
:0801F0000000000045010108B8
:1002000010B5054C237833B9044B13B10448AFF350
:1002100000800123237010BDB809002000000000F9
:100220003441070808B5034B1BB103490348AFF33A
:10023000008008BD00000000BC0900203441070810
:1002400053B94AB9002908BF00281CBF4FF0FF313D
:100250004FF0FF3000F074B9ADF1080C6DE904CE39
:1002600000F006F8DDF804E0DDE9022304B0704791
:100270002DE9F047089D04468E46002B4DD18A4259
:10028000944669D9B2FA82F252B101FA02F3C2F18C
:10029000200120FA01F10CFA02FC41EA030E94401D
:1002A0004FEA1C48210CBEFBF8F61FFA8CF708FB3E
:1002B00016E341EA034306FB07F199420AD91CEB16
:1002C000030306F1FF3080F01F81994240F21C8148
:1002D000023E63445B1AA4B2B3FBF8F008FB103390
:1002E00044EA034400FB07F7A7420AD91CEB0404C5
:1002F00000F1FF3380F00A81A74240F20781644495
:10030000023840EA0640E41B00261DB1D440002319
:10031000C5E900433146BDE8F0878B4209D9002D7D
:1003200000F0EF800026C5E9000130463146BDE807
:10033000F087B3FA83F6002E4AD18B4202D3824271
:1003400000F2F980841A61EB030301209E46002D20
:10035000E0D0C5E9004EDDE702B9FFDEB2FA82F275
:10036000002A40F09280A1EB0C014FEA1C471FFAD3
:100370008CFE0126200CB1FBF7F307FB131140EABA
:1003800001410EFB03F0884208D91CEB010103F187
:10039000FF3802D2884200F2CB804346091AA4B249
:1003A000B1FBF7F007FB101144EA01440EFB00FE1D
:1003B000A64508D91CEB040400F1FF3102D2A64582
:1003C00000F2BB800846A4EB0E0440EA03409CE721
:1003D000C6F12007B34022FA07FC4CEA030C20FACE
:1003E00007F401FA06F31C43F9404FEA1C4900FAEE
:1003F00006F3B1FBF9F8200C1FFA8CFE09FB18116B
:1004000040EA014108FB0EF0884202FA06F20BD9DD
:100410001CEB010108F1FF3A80F08880884240F22D
:100420008580A8F102086144091AA4B2B1FBF9F071
:1004300009FB101144EA014100FB0EFE8E4508D96C
:100440001CEB010100F1FF346CD28E456AD90238F1
:10045000614440EA0840A0FB0294A1EB0E01A142D6
:10046000C846A64656D353D05DB1B3EB080261EB44
:100470000E0101FA07F722FA06F3F1401F43C5E91E
:10048000007100263146BDE8F087C2F12003D84054
:100490000CFA02FC21FA03F3914001434FEA1C4796
:1004A0001FFA8CFEB3FBF7F007FB10360B0C43EA88
:1004B000064300FB0EF69E4204FA02F408D91CEB38
:1004C000030300F1FF382FD29E422DD90238634436
:1004D0009B1B89B2B3FBF7F607FB163341EA0341D6
:1004E00006FB0EF38B4208D91CEB010106F1FF3825
:1004F00016D28B4214D9023E6144C91A46EA00461C
:1005000038E72E46284605E70646E3E61846F8E6AD
:100510004B45A9D2B9EB020864EB0C0E0138A3E7F6
:100520004646EAE7204694E74046D1E7D0467BE7D7
:10053000023B614432E7304609E76444023842E74F
:10054000704700BF844641EA000313F003036DD1F6
:10055000403A41D351F8043B40F8043B51F8043B86
:1005600040F8043B51F8043B40F8043B51F8043B8D
:1005700040F8043B51F8043B40F8043B51F8043B7D
:1005800040F8043B51F8043B40F8043B51F8043B6D
:1005900040F8043B51F8043B40F8043B51F8043B5D
:1005A00040F8043B51F8043B40F8043B51F8043B4D
:1005B00040F8043B51F8043B40F8043B51F8043B3D
:1005C00040F8043B51F8043B40F8043B51F8043B2D
:1005D00040F8043B403ABDD2303211D351F8043BCD
:1005E00040F8043B51F8043B40F8043B51F8043B0D
:1005F00040F8043B51F8043B40F8043B103AEDD27C
:100600000C3205D351F8043B40F8043B043AF9D2CC
:10061000043208D0D2071CBF11F8013B00F8013B9F
:1006200001D30B8803806046704700BF082A13D3AC
:100630008B078DD010F003038AD0C3F10403D21AC4
:10064000DB071CBF11F8013B00F8013B80D331F8F8
:10065000023B20F8023B7BE7043AD9D3013A11F878
:10066000013B00F8013BF9D20B7803704B784370E3
:100670008B78837060467047000000000000000027
:10068000A2EB0300704700BF02780B78012A28BF55
:100690009A42F5D16DE9044540EA0104CDE90267CB
:1006A0006FF0000C4FEA447212B380EA010414F0B8
:1006B000070F6AD100F0070420F0070004F00305DB
:1006C00021F007014FEAC505F0E8042314F0040FF8
:1006D000F1E804670CFA05F462EA040266EA04062B
:1006E0000AD063EA0403624667EA0407664603E049
:1006F000F0E80423F1E8046782FA4CF582EA060484
:10070000A4FA8CF46CBB83FA4CF583EA0705A5FACE
:100710008CF595B950E9022351E9026782FA4CF54C
:1007200082EA0604A4FA8CF483FA4CF583EA0705FE
:10073000A5FA8CF52543DBD09CB92DBAB5FA85F422
:1007400024F0070427FA04F1DDE9026723FA04F331
:1007500003F0FF0001F0FF01FDE80445A0EB0100FC
:10076000704724BAB4FA84F424F0070426FA04F19A
:10077000DDE9026722FA04F202F0FF0001F0FF0156
:10078000FDE80445A0EB0100704714F0030F3CD1D5
:1007900010F0030428D150F8082B51F8083B82FAD6
:1007A0004CF582EA0305A5FA8CF55DB950F8042CE6
:1007B00051F8043C82FA4CF582EA0305A5FA8CF55F
:1007C000002DE8D02DBAB5FA85F424F0070423FAF9
:1007D00004F122FA04F202F0FF0001F0FF01FDE84B
:1007E0000445A0EB010070474FEAC40420F0030069
:1007F00050F8082B21F0030151F8083B0CFA04F4DF
:1008000062EA040263EA0403C9E710F003041AD0A1
:10081000A1EB040120F00300E40750F8042B06D0FC
:100820000FD28B785FFAA2F4E41A06D12BB1CB7801
:100830005FFAB2F4E41A00D11BB920465DF8104B00
:10084000704701F1040150F8042BCC0721F003019B
:1008500051F8043B48D824D222F07F4482FA4CF568
:1008600094EA1325A5FA8CF50AD165B951F8043B31
:1008700084EA0204B4EB036F0ED150F8042BEBE7CB
:100880004FEA132355E035F07F454DD10878FDE858
:100890000445C0F1000070474FEA126203F0FF0305
:1008A00047E002EA1C4482FA4CF594EA1345A5FAA3
:1008B0008CF50AD165B951F8043B84EA0204B4EB23
:1008C000034F0CD150F8042BEBE74FEA134330E011
:1008D00015EA1C4528D10B884FEA124229E04FEA5D
:1008E000124203EA1C4324E002F0FF0482FA4CF5B2
:1008F00094EA1365A5FA8CF50AD165B951F8043B61
:1009000084EA0204B4EB032F09D150F8042BEBE77F
:100910004FEA13630DE015F0FF0F05D10B684FEAA6
:10092000122223F07F4304E04FF00000FDE804456D
:10093000704712BA1BBA82FA4CF482EA0304A4FA92
:100940008CF5B5FA85F402FA04F203FA04F34FEADF
:100950001260FDE80445A0EB136070470000000042
:100960000000000000000000000000000000000087
:100970000000000000000000000000000000000077
:1009800090F800F06DE9024520F007016FF0000CCF
:1009900010F0070491F820F040F049804FF0000477
:1009A0006FF00700D1E9002391F840F000F1080052
:1009B00082FA4CF2A4FA8CF283FA4CF3A2FA8CF38A
:1009C0004BBBD1E9022382FA4CF200F10800A4FAF1
:1009D0008CF283FA4CF3A2FA8CF3E3B9D1E9042345
:1009E00082FA4CF200F10800A4FA8CF283FA4CF37C
:1009F000A2FA8CF37BB9D1E9062301F1200182FA36
:100A00004CF200F10800A4FA8CF283FA4CF3A2FA3B
:100A10008CF3002BC6D0002A04BF04301A4612BA49
:100A2000B2FA82F2FDE8024500EBD2007047D1E94C
:100A3000002304F00305C4F100004FEAC50514F0DB
:100A4000040F91F840F00CFA05F562EA05021CBFAC
:100A500063EA050362464FF00004A9E700000000C6
:100A600001F0FF01102A2BDB10F0070F08D010F85F
:100A7000013B013A8B422DD010F0070F42B3F6D163
:100A8000F0B441EA012141EA014122F007047FF07C
:100A900000070023F0E80256083C85EA010586EAD3
:100AA000010685FA47F5A3FA87F586FA47F6A5FA0F
:100AB00087F68EB9EED1F0BC01F0FF0102F007021B
:100AC00032B110F8013B013A83EA010313B1F8D1C6
:100AD0000020704701387047002D06BF35460338A7
:100AE000073815F0010F07D1013015F4807F02BFE0
:100AF000013015F4C03F0130F0BC0138704700BF31
:100B00002C206DF095BF00BF43699B698B422DE996
:100B1000F04F894683B025D10029D0F80080D0E974
:100B200006671BDD15460024DFF858B0DFF858A033
:100B30002346424639463046CDE900B515F0C4F9A2
:100B4000234601340195424639463046CDF800A08F
:100B500015F0EAF9A14505F10805E9D1002003B037
:100B6000BDE8F08F05480A4605490068C0686DF089
:100B70001FFD012003B0BDE8F08F00BF0C00002076
:100B8000504107082C420708304207080D2B70B56A
:100B900016D1436905469B698B420FDD00290DDBA9
:100BA0006824406A164601FB04F411462044836819
:100BB0009847A86A3146204483689847002070BD52
:100BC0000D22194602486EF0CDFA01206DF008FBA7
:100BD00038420708000000002DE9F04F0D230446BD
:100BE00089462DED028BADB0236204900846189221
:100BF00014F0AAFF012205216061034601709145AE
:100C0000C16802724FF00000087040F3C187D968D4
:100C1000885401329145FAD1DA6802F809000022BD
:100C20001146186981545868815401329145F8DCA5
:100C3000002210465969885401329145FADC09F1C5
:100C40000106596903F110020024370101F8094037
:100C500006EB86081C9707CA8DE807000FCB14F037
:100C6000CDFF049B8246986106EB061080006DF074
:100C7000DFFE054611902C2006EB4601A14500FB46
:100C80000650C6EBC60306EBC60209904FF03400CF
:100C900000FB06501090A7EB060005EB80000B90C0
:100CA000284605EB8605199500EBC605129500EB65
:100CB0008105139500EB0705149500EB8805159544
:100CC00000EBC805179500EBC10500EB0111169567
:100CD0000A91014600EB83001A9001EB46101B902D
:100CE0004FEA820001EB82021D900F924FEAC3028D
:100CF00001EBC3031E920E934FEA86131F9301EB81
:100D000086130C936CDB119B07EE90AA1A9AA3F141
:100D1000040B199B1799101F043B1B9A0439CDF83B
:100D200084900793043A109BDA460D910321043B0B
:100D30000892DDF83490042206930F9B0D96A3F1E0
:100D400004080E9BDDF820B01F1F129B464608903A
:100D5000043B0593139B1D1F149BA3F1040E159BCD
:100D6000A846A3F1040C169B043B20932346209D28
:100D700007984AF8041F40F8042F0790069840F897
:100D8000043F0690072046F8041F47F8040F059813
:100D900040F8043F0590089848F8042F4EF8043FA7
:100DA0004CF8043F45F8041F40F8043F08900998A8
:100DB0004BF8043F49F8042F40F824300A9840F8D3
:100DC00024300B9840F824300C9840F8243001343B
:100DD0000D988442CCD117EE90AADDF88490064697
:100DE0000323119A00250E9942F8363016461C9AB4
:100DF000199FB5501D9A1298B3501F9A0A9CB35070
:100E000007231E9AB350109B0F9A47F8295043F8B6
:100E1000295042F8295041F8295040F82950139898
:100E200040F82950179840F82950099840F829505F
:100E300000EB890044F8295009900B9C149844F861
:100E4000295040F8295015981B9C40F829501698B5
:100E500040F829501A9840F8295000EB890044F8CE
:100E600029500A90504614F0F1FF04460498334686
:100E7000734A2146C46150460FF09EFB3B46714ABF
:100E8000214650460FF098FB109B6F4A2146504672
:100E90000FF092FB0E9E0F9B214606EB89066B4AD4
:100EA000504608960FF088FBA945C0F25685129B64
:100EB000CDF81C90A1460693DDF854B00C9EDDE9F8
:100EC0001332DDE916781C460592069B2A464946F0
:100ED00050460093043306935D4B0FF0A5FD2A4660
:100EE0005C4B4946504600940FF09EFD059B2A46F8
:100EF000494600930433504604340593564B0FF093
:100F000093FD2A46554B49465046CDF800B00FF0A8
:100F10008BFD2A46524B49465046CDF800800FF0D3
:100F200083FD2A464F4B4946504600970FF07CFD03
:100F30002A464D4B4946009650460FF075FD013547
:100F4000079B0BF1040B08F104080437AB4206F1D0
:100F50000406BADA0E9B4C46DDF81C900022009382
:100F60002146424B50460FF065FEB9F1010F40F3A8
:100F7000FC840E9E01253D4F04362A46013500961D
:100F80003B46214650460FF055FEA94506F10406A2
:100F9000F3D1099B21464A46504600936825344BBD
:100FA0004FF000080FF040FD0A9B21464A4650468C
:100FB0000093304B08EE904A0FF036FD089B214617
:100FC0004A4650460093294B44460FF033FE119891
:100FD0006DF036FD05FB09F3274F184608EE103A71
:100FE0006DF026FD049B254EDFF8A8B098465862A8
:100FF00001E0D8F8240005FB0400214B01340D2149
:101000004361204BC0E909371F4BC0E9076B83617F
:1010100014F07EFDA145ECDC18EE904A18EE100AA3
:101020004FF000086DF004FD049B08EE104ADFF855
:1010300068B04446154F164E6825984698622FE0D2
:10104000B4420708B8420708BC420708C042070874
:10105000C8420708CC420708D0420708D842070810
:10106000D89D0D08E0420708E4420708C44207087B
:10107000EC420708F042070891A7000895A700086E
:10108000B92C00088DA70008BDA700081D2B00087B
:101090002D2B0008A9A70008291C0008D8F8280053
:1010A00005FB0400CE4B01340D214362CD4BC0F84B
:1010B00014B08362CC4B8661C0E9073714F028FD79
:1010C000A145EBDC18EE101A504614F0DDFE049B2F
:1010D00018EE104A83461860189B002B00F0E88336
:1010E000189A49460498FFF70FFD2AAB0793B9F108
:1010F000000F40F3FF835A460025CB46DFF81883E4
:101100006827DDF81090D9F8241007FB05F6B748DA
:101110002B4631440592009050460191214614F02F
:10112000EFFED9F828102B4601353144059A504678
:10113000CDE90081214614F0E3FEAB45059AE2D1EA
:1011400008213120D946DFF8D48293466CF0FAFFAB
:10115000054600235A46214601905046CDF80080AE
:101160009FED9B8B85ED208B14F0DEFE28466DF005
:1011700067FC082107206CF0E5FF9D4B05465A46A9
:101180002146009301900023504614F0CDFE2846DE
:101190006DF056FC082131206CF0D4FF0821064682
:1011A00080ED208B07206CF0CDFFB9F1010F0746D1
:1011B00014DD01252B465A4621465046CDE90086CE
:1011C00014F0B2FE8A492B46013500915A46214659
:1011D0005046019714F0A8FEA945EBD13046B7EE72
:1011E000008B6DF02DFC38466DF02AFC082115208F
:1011F000DFF82C826CF0A6FF7E4B05460190009331
:101200005A4600232146504685ED008B85ED108B14
:1012100085ED208B14F088FE28466DF011FC082126
:101220001C206CF08FFF054601900023CDF8008054
:101230005A46214680ED068B80ED168B80ED268B7D
:1012400080ED368B504614F06FFE28466DF0F8FBAB
:10125000082115206CF076FFB9F1010F074680EDEB
:10126000008B80ED108B80ED208B40F3BB8301253C
:1012700060482B462E46013500905A46214650467E
:10128000019714F051FEA945F2D1384601276DF0BF
:10129000D7FB08211C206CF055FF0022564B054659
:1012A000C0E90623C0E91623C0E92623C0E9362396
:1012B0003B465A4621465046CDE9008514F034FE9F
:1012C000B74207F10107F3D128464C4F6DF0B8FB48
:1012D00008210C2000256CF035FF00F1180300F107
:1012E0004808069300F130034646804605933AA32A
:1012F000D3E90023C0E90E23C0E91023C0E9142379
:10130000C0E916233E4B0022C0E90C23C0E912239A
:101310004B46A1465C469B462B46224649465046D4
:10132000CDE9007814F000FE069B22464946019361
:101330005046344B00932B4614F0F6FD059B224695
:10134000494601935046304B00932B4614F0ECFD78
:101350002E4B2246494600932B46013550460196B6
:1013600014F0E2FDAB45D7DC5B464646A3464C464F
:10137000994630464FF001086DF062FB0C206DF08D
:1013800057FB00260223054608218360C0E9006858
:1013900006206CF0D7FEB3EE007B07461C4A019591
:1013A0003346009221465A46504687ED007B87ED32
:1013B000067B14F0CDFD174A33462146019750466F
:1013C00000925A4614F0C4FD07F118022AE000BF4B
:1013D00000000000000049407B14AE47E17A843FE2
:1013E000012B0008052B0008092B00080043070803
:1013F000F8420708204307080000F03F2843070889
:10140000000069402C4307083043070834430708AD
:10141000384307084043070810430708F442070809
:10142000244307083346214601925046C04A0092A1
:101430005A4614F08DFD28466DF002FB38466DF0DB
:10144000FFFA0C206DF0F4FA0223BA4A074621464F
:101450000190836033460225C0E90068009250463F
:101460005A4614F075FD38466DF0EAFA10206DF01A
:10147000DFFA032308210746C0E90068C0E90253E8
:1014800008466CF05FFEB14500F1200380460593ED
:1014900040F3F0824B463546D9469B46A64B4A461A
:1014A0002146504600932B4601972E4614F050FDDE
:1014B000A24B4A462146009350462B46CDF8048065
:1014C00014F046FD059A2B460135019221469C4AAF
:1014D000504600924A4614F03BFDAB45DED15B46D8
:1014E0003846CB4699466DF0ABFA40466DF0A8FA07
:1014F0000C206DF09DFA00230746032203600220B2
:1015000008219846C7E9010206206CF01BFE00F195
:101510001803CDF814900546B1461E46894B5A462D
:101520002146504600934346019714F011FD864B27
:101530005A462146009350464346019514F008FD53
:10154000824B5A462146009350464346019614F07A
:10155000FFFCC84508F10108E0D1DDF814903846D9
:101560006DF06EFA28466DF06BFA082110206CF0D1
:10157000E9FD082107460C206CF0E4FD08210590E8
:1015800008466CF0DFFD0022714B0146B9F1000FF7
:101590008046E1E80823C7E90023C7E90823C7E933
:1015A0001023C7E91823C7E90223C7E90A23C7E9BB
:1015B0001223C7E91A23C7E90C23C7E90623C0E9A8
:1015C0000223C0E90823C0E90A234FF00002614B5F
:1015D0000691C7E91C23C7E9162340F395824B46C1
:1015E000A04600255C4681469B465B4B2246414611
:1015F000504600932B4601972E4614F0A9FC059BFC
:101600002246414601935046544B00932B4614F01A
:101610009FFC534B22464146009350462B46CDF843
:10162000049014F095FC069A2B4601350192414630
:101630004C4A50460092224614F08AFCAB45D4D165
:101640005B463846A3464446C84699466DF0F8F9CD
:1016500005986DF0F5F940466DF0F2F921465046D7
:10166000002714F041FE049B01463F4A1861504692
:101670003E4B0DF18A0514F05BFEDFF8F480CDF8E7
:101680001490DDF810908DF88A703A46D9F8101051
:1016900043465046009514F051FEB74207F101074A
:1016A000F3D10123002723ADDFF8C880DDF81090C7
:1016B00023933A46D9F8101043465046009514F04B
:1016C0003DFEB74207F10107F3D10223002724AD05
:1016D000DFF8A480DDF8109024933A46D9F8101072
:1016E00043465046009514F029FEBE4207F101071B
:1016F000F3D10323002725ADDFF88080DDF81090BB
:1017000025933A46D9F8101043465046009514F0F8
:1017100015FEB74207F10107F3D100270DF18B0544
:10172000DFF85C80DDF810908DF88B702AE000BF48
:10173000444307084843070850430708584307082D
:101740005C43070860430708684307086C430708C1
:101750000000F03F0000F0BFB0B30D08C49D0D08BD
:101760007043070874430708484407083C440708C7
:101770007843070894430708A8430708BC430708B1
:10178000D44307083A46D9F810104346504600950E
:1017900014F0D4FDB74207F10107F3D1DDF814903E
:1017A000049F002628ABC44A39695046C34F002520
:1017B000CDE9286714F0BCFD049F0026079B39691A
:1017C0000027BF4A5046CDE92A6714F0B1FD049FB7
:1017D0003223BC4A39695046269326AB14F0A8FD43
:1017E00027ABB94A50463969279514F0A1FD214627
:1017F000504614F0C1FB214678600646504614F06E
:10180000BBFB0821B86007206CF09CFC00228046DE
:10181000AE4BA9450746E8E8062340F39681AC495C
:101820002B463246504600912146019714F0C4FBE6
:10183000A8492B4601350091324621465046CDF845
:10184000048014F0B9FBA945E9D1A14B21463246E9
:101850005046CDE900374B4614F0AEFB38466DF0EC
:10186000EFF8049F214650463A69002414F06CFDBD
:101870000821F8600D206CF065FC05462146013416
:101880000D232A463846FFF781F9A145F6DA2846A6
:101890006DF0D6F8049B32465946D86814F0C6FD60
:1018A000002840F093812DB0BDEC028BBDE8F08F95
:1018B0002AA9189D884F894E8846079178A3D3E9B5
:1018C0000023CDE92A232B465A4621465046CDE92E
:1018D000007814F0F9FA2B4601355A462146504655
:1018E000CDE9006814F020FBA945ECDCB9F1000F4C
:1018F0003FF701AC082131206CF024FC784B054601
:101900005A46214601900093504600239FED668B76
:1019100085ED208B14F008FB28466DF091F8082126
:1019200007206CF00FFC6F4B05465A46214601908C
:1019300000935046002314F0F7FA28466DF080F823
:10194000082131206CF0FEFB0821064680ED208B3B
:1019500007206CF0F7FB074640E40E9B2A46214621
:1019600050460093604B0FF065F9099B4A462146AB
:10197000504600935D4B0FF057F80A9B4A462146AC
:10198000504600935A4B0FF04FF8089B4A462146A9
:1019900050460093544B0FF04DF911986DF050F8EC
:1019A000682303FB09F3184608EE103A6DF040F87F
:1019B000049AB9F1010F506200F0F78018EE100A96
:1019C0006DF036F8049D2146A862504614F05CFA8A
:1019D000189B83462860002B7FF482AB2AAB0793C9
:1019E000FFF785BB6DF02CF808210C206CF0AAFBEA
:1019F000B9F1010F06462EA3D3E90023C0E90E2357
:101A0000C0E91023C0E91423C0E916234FF00002F7
:101A1000384BC0E90C23C0E912237FF4AAAC364B43
:101A20005A462146504600930023019614F07CFA52
:101A300006F118035A462146019350462F4B009356
:101A4000002314F071FA06F130035A46214601933F
:101A500050462B4B0093002314F066FA06F148031E
:101A60005A46214601935046264B0093002314F01A
:101A70005BFA7EE438466CF0E3FF40466CF0E0FF32
:101A80000C206CF0D5FF02220323066007460821D4
:101A9000C0E9012306206CF055FB05465FE500BF59
:101AA0007B14AE47E17A943F0000000000004940FB
:101AB0007B14AE47E17A843FE84307080000F03F1B
:101AC000F44307080844070814440708000030409E
:101AD0003C43070884FB0D082C42070830420708E6
:101AE000F4420708F8420708C4420708EC42070816
:101AF000F042070800006940284307082C43070804
:101B0000304307083443070838466CF099FF0598BE
:101B10006CF096FF40466CF093FF2146504614F05F
:101B2000E3FB049B01462C4A186150462B4B14F0F2
:101B3000FFFB002301218DF88A308DF88B300223C2
:101B4000CDE92313032325932AE6254B214632466C
:101B50000190009350464B4614F02EFA38466CF034
:101B60006FFF2146049C5046226914F0EDFB0821CA
:101B7000E0600D206CF0E6FA0546B9F1000F7FF445
:101B800086AE024649460D230498FEF7FFFF7EE627
:101B9000DA6802F809007FF452A81A6910705A68CE
:101BA00010705A691070FFF74AB80E4A0D21426151
:101BB0000D4A42620D4A82620D4AC2610D4A0262BA
:101BC0000D4A826113F0A4FFFFF728BA0B486DF0AD
:101BD0006DFB01206CF004FB484407083C440708F7
:101BE0003C430708B92C00088DA7000891A70008FE
:101BF00095A70008A9A70008BDA70008204407086A
:101C000000220221FEF7E8BFD0E90012C06814F0FC
:101C1000FBBB00BF00687047406870478069704731
:101C2000C069704700000000F0B5466805460F68BF
:101C30002DED108BAFB0002E00F0FE86B2EE0B5BE8
:101C4000846896ED006B26EE056B002C00F0F185A4
:101C500094ED0A3B9FEDFA4B96ED027B36EE436B1B
:101C600027EE057B86EE046B8DED146B94ED0C5B1B
:101C70009FEDF36B94ED00DB37EE457BB0EE4D0B43
:101C800087EE068B8DED1E8B6BF062F9B0EE409BFC
:101C90008DED180BB0EE4D0B6BF0E2F92B689DED5E
:101CA000147B8DED060B37EE087B8DED207B27EE48
:101CB000097B8DED267B002B00F0E085B6EE005B06
:101CC00093ED007B9FEDE02B9FEDE14B27EE07AB03
:101CD0009FEDE16B9FEDE21B2AEE022B2AEE04AB97
:101CE00022EE054B2AEE05AB84EE068B2AEE011B95
:101CF00093ED023B93ED046B8DED101B9FEDDA1B12
:101D00008DED2C2B9FEDDA2B2AEE01AB9FEDDA1B2C
:101D10009FEDDB4B26EE044B28EE011B8DED021BE5
:101D2000B0EE431BA6EE021B8DED081BB0EE431B6D
:101D300023EE063BA6EE421B26EE076B8DED283BFD
:101D40008DED2A6BB0EE476BA4EE057BA4EE456BE0
:101D50008DED0E1B8DED0C7B8DED0A6B9DED0A6BF1
:101D60009DED087B9FEDC8CB87EE060B6AF0E8FF80
:101D700030EE4DEB9FEDC67B9FEDC70B3EEE477BF4
:101D800027EE000B6AF0DCFF6BF0E2F820EE0CCBE4
:101D9000002C00F062869FEDC27B94ED148B9FEDCA
:101DA000C24B94ED125B9FEDC26B28EE04BBB0EE0C
:101DB000474BA5EE067BA5EE464B94ED028B9FEDBF
:101DC000C80BB0EE47FB8DED227B34EE0A9B28EE6C
:101DD000000B3AEE0FAB9DED027B8DED1C4B8DEDB4
:101DE00012BB39EE479B6AF0ABFF9FEDBF7B39EE2C
:101DF0004B9B20EE070B6BF033F99DED027B8DEDD5
:101E0000160B3AEE47AB3AEE4B7B8DED047B9FED24
:101E1000B85B9FEDBF3B9FEDB87B39EE452B9FED47
:101E2000BA4B82EE05AB9FEDB6FBAAEE037BAAEEA2
:101E300004FB37EE088B2CEE07BB28EE0C8BB1EEC3
:101E40004FCBB0EE480B6AF07BFF38EE400BAFEEA5
:101E5000408B9FEDB1FBB0EE480B6AF071FF20EEB6
:101E60000F0B6BF075F8B0EE408BB0EE4B0B6AF0D9
:101E700067FF3BEE400BACEE00BB9FEDA9CBB0EE95
:101E80004B0B6AF05DFF20EE0F0B6BF061F888EEF4
:101E900000BB9FEDA57BAAEE07CB002C00F031859F
:101EA00094ED167B8DED007B9DED007B9FEDA0FBFF
:101EB0002CEE07CB9FED8E7B2CEE09CB89EE070B2A
:101EC0009FED9D7B80EE070B6AF03AFF30EE000B32
:101ED0006BF0C6F89FED9A7B9FEDAD6B9FED9E5B1F
:101EE00020EE070B9FEDAC7BACEE067B9FED9E6B6F
:101EF00020EE060B80EE076B9FED957BAAEE057B2F
:101F00009FED915BAAEE05FB3EEE077BB5EEC07B35
:101F1000F1EE10FA26EE076B00F1CB8440F3B585A5
:101F20009FED8F8BB0EE460B28EE4F8B8DED1A6B2D
:101F30006AF006FF9DED1A6B36EE400BA8EE006BC3
:101F4000B0EE460B6AF0FCFE9FED917B20EE070B96
:101F50006BF086F89FED8C6B9FED897BAAEE067B7C
:101F60009FED856B27EE099B9DED007B27EE099B7E
:101F70009FED517BACEE009BAAEE067BB2EE0E0B02
:101F80002EEE000B2CEE07CB6AF0DAFE6AF0E0FFD3
:101F90009DED167B9DED0C6B2CEE000B20EE070BE0
:101FA0009DED087BABEE090B9FED37BB8DED160B5E
:101FB00087EE060B6AF0C4FE30EE4DDB9FED347BFE
:101FC0009FED350B3DEE477B27EE000B6AF0B8FE28
:101FD0006AF0BEFF20EE0BBB002C00F0988494ED5D
:101FE000048B9FED3F0B28EE000B6AF0A9FE9FEDDE
:101FF0003E7B20EE070B6BF033F8B0EE40EB9DED2F
:10200000046B9FED3BCB9FED424B9FED3B7B36EE50
:102010004C3B9FED3D5B83EE0C9B9FED39FB9FEDB1
:102020003EABA9EE047BA9EE05FB37EE080B2BEEC9
:10203000078B20EE0BBBB1EE4F7BB1E0AFF300801E
:1020400014AE47E17A14CE3FCD5D4BC807BDF03FDB
:10205000560E2DB29D2F09407B14AE47E17AF83F12
:102060007D7C7C7C7C7CDC3FC2C1C1C1C1C1E13FC5
:102070007B14AE47E17AE83F3BDF4F8D976EE23F3E
:1020800052B81E85EB51F43FE7FBA9F1D2CD2B40AE
:10209000AD2F12DA722EA53FE5D022DBF9BE284023
:1020A0006766666666B184409696969696963940BF
:1020B000753A9D4EA7D33E400ABFD4CF9B8A843F3A
:1020C00014AE47E17A14CE3F74E501C93A576E3F2A
:1020D000AD2F12DA722EA53FE5D022DBF9BE2840E3
:1020E00066666666662630400EBE30992A18FF3F47
:1020F0000000000000408F40302DEA93DC6143BFB8
:102100008FE4F21FD26FF0BF37894160E5D0F43F12
:1021100026AB22DC645439BF0E2DB29DEFA7EE3FF3
:10212000CA54C1A8A44EFB3F234A7B832F4CDABF7D
:1021300093A98251499DCC3F107A36AB3E57F23F6E
:1021400000000000C0FEE3C0D5E76A2BF697E53F2C
:10215000E10D6954E0646BBF0F4757E9EE3A6BBF7E
:10216000B09DEFA7C64BC7BFA4703D0AD7A3EA3FF7
:10217000E7FBA9F1D2CD2B4064247B849A21853FD3
:102180005839B4C876BEAFBFE08442041C4265BF74
:10219000F38E53742497F13F7B14AE47E17A843F6A
:1021A000B0EE4B0B8DED087B6AF0CAFD3BEE400BA9
:1021B000AFEE40BBB0EE4B0B6AF0C2FD20EE0A0B57
:1021C0006AF0C6FEB0EE40FBB0EE480B6AF0B8FD18
:1021D00038EE400B9DED087B1FED2FBBA7EE008B6B
:1021E000B0EE480B6AF0ACFD20EE0A0B6AF0B0FED0
:1021F0008FEE006B9DED045B1FED310B1FED34ABDB
:1022000085EE0C7BB0EE46FB1FED396BA9EE06BBED
:1022100087EE000B9DED006B26EE0BBB2BEE05BB96
:102220006AF08EFD30EE000B6AF01AFF1FED3C7B6A
:102230001FED296B20EE070B1FED297BABEE067B14
:102240001FED376B20EE060B1FED3D6B80EE07CBCD
:102250001FED417BA9EE067B1FED456BA9EE06AB9A
:102260003DEE077BB5EEC07BF1EE10FA2CEE07CB0E
:1022700000F1268340F31F841FED478B28EE4A8B25
:10228000B0EE4C0B6AF05CFD3CEE400B1FED44AB36
:10229000A8EE00CBB0EE4C0B6AF052FD1FED447B74
:1022A00020EE070B6AF0DCFE1FED497B1FED4E6B45
:1022B000A9EE07AB9DED047B2AEE07AB9DED007BFD
:1022C00027EE0AAB1FED847BABEE00ABA9EE067BDD
:1022D000B2EE0E0B2DEE000B2BEE07BB6AF030FDBD
:1022E0006AF036FE9DED167B2BEE00BB2BEE0EEB5F
:1022F000AFEE0AEB37EE0E7B8DED24EB002E00F0F7
:10230000E982B2EE0B4B96ED045B25EE045B002CEC
:1023100000F0DC8394ED0E6B35EE465B1FED986BA1
:1023200085EE066B8DED086B96ED066B26EE046B65
:1023300094ED105B36EE456B1FED9F5B86EE056BF3
:102340008DED1A6BDFB19DED066B9DED263B9DED8E
:102350001A5BA7EE463B9DED086B36EE056B33EE40
:10236000063B9DED2C6B33EE463B9DED286B33EE2B
:10237000063B1FEDAB6B23EE063B87ED003B9DED6F
:10238000065B9DED206B1FED86DB26EE056B9DED5C
:10239000185BA7EE056B9DED0E7B8DED046B9DED3F
:1023A0000A6B87EE060B6AF0CBFCB0EE40AB1FED7C
:1023B000B87B30EE477B1FEDB80B27EE000B6AF0C1
:1023C000BFFC6AF0C5FD20EE0DDB002C00F07B8227
:1023D00094ED06BB1FEDBE0B2BEE000B6AF0B0FCBC
:1023E0001FEDBF7B20EE070B6AF03AFE8DED0A0B66
:1023F0009DED1C7B9DED106B1FEDC3FB1FEDC29B84
:1024000037EE068B9DED027B1FEDBF6B1FEDC4EB1E
:1024100038EE078B9DED127B38EE078B1FEDC67BE8
:1024200038EE4F5B85EE0FCBACEE069BACEE07EBC8
:1024300039EE0BBB2DEE099B2BEE0DBBB1EE4E7BA7
:102440001FEDCBDBB0EE4B0B8DED1C7B6AF078FC07
:102450003BEE400BAEEE40BBB0EE4B0B6AF070FCB7
:1024600020EE0D0B6AF074FDB0EE40EBB0EE490BC0
:102470006AF066FC39EE400B9DED1C7B1FEDD8BB6E
:10248000A7EE009BB0EE490B6AF05AFC20EE0D0B54
:102490006AF05EFD88EE0F7B8EEE00FB1FEDDE6BBB
:1024A0001FEDDB0B1FEDDEDBACEE06BB9DED006B25
:1024B00026EE0BBB2BEE08BB87EE000B6AF040FC50
:1024C00030EE000B6AF0CCFD1FEDE37B1FEDD06B0F
:1024D00020EE070B1FEDD07BABEE067B1FEDDE6B16
:1024E00020EE060B1FEDE46B80EE07EB1FEDE87BA3
:1024F000ACEE067B1FEDEC6BACEE06DB3AEE077B39
:10250000B5EEC07BF1EE10FA2EEE07EB00F1D581AF
:1025100040F3CA821FEDEE9B29EE4D9BB0EE4E0BB1
:102520006AF00EFC3EEE400B1FEDEFDBA9EE00EB78
:10253000B0EE4E0B6AF004FC1FEDEB7B20EE070BB8
:102540006AF08EFD1FEDF06B1FEDF37BACEE067BAA
:102550001FEDF76B28EE078B9DED007B27EE088BB8
:102560009FEDEF7BABEE008BACEE067BB2EE0E0B7D
:102570002AEE000B2BEE07BB6AF0E2FB6AF0E8FCE8
:10258000B0EE407B9DED0E6B2BEE07BB9DED0A7B05
:102590009DED0C5B2BEE07BB86EE050BAFEE08BB8B
:1025A0008DED0ABB6AF0CCFBB0EE40AB9FEDDE7B5D
:1025B00030EE477B9FEDDE0B27EE000B6AF0C0FB91
:1025C0006AF0C6FC20EE0DDB002C00F0938194ED48
:1025D00008BB9FEDD90B2BEE000B6AF0B1FB9FED12
:1025E000D87B20EE070B6AF03BFD8DED0C0B9DEDCB
:1025F000107B9DED226B9FEDD4FB9FEDD59B37EEBD
:10260000068B9DED027B9FEDD46B9FEDD5EB38EEF5
:10261000078B9DED127B38EE078B9FEDD37B38EE59
:102620004F5B85EE0FCBACEE069BACEE07EB39EEC5
:102630000BBB2DEE099B2BEE0DBBB1EE4E7B9FED40
:10264000CCDBB0EE4B0B8DED027B6AF079FB3BEE01
:10265000400BAEEE40BBB0EE4B0B6AF071FB20EED0
:102660000D0B6AF075FCB0EE40EBB0EE490B6AF072
:1026700067FB39EE400B9DED027B9FEDBFBBA7EEE4
:10268000009BB0EE490B6AF05BFB20EE0D0B6AF08D
:102690005FFC88EE0F7B8EEE00FB9FEDB96B9FED2C
:1026A000BA0B9FEDBBDBACEE06BB9DED006B26EEDF
:1026B0000BBB2BEE08BB87EE000B6AF041FB30EE44
:1026C000000B6AF0CDFC9FEDB47B9FEDB56B20EE67
:1026D000070B9FEDB57BABEE067B9FEDB56B20EE58
:1026E000060B9FEDB56B80EE07EB9FEDB57BACEE77
:1026F000067B9FEDB56BACEE06DB3AEE077BB5EEE5
:10270000C07BF1EE10FA2EEE07EB00F1CF8040F324
:10271000C4819FEDAF9B29EE4D9BB0EE4E0B6AF04E
:102720000FFB3EEE400BA9EE00EBB0EE4E0B6AF055
:1027300007FB9FED9B7B20EE070B6AF091FC9FED62
:10274000A66B9FEDA77BACEE067B9FEDA76B28EEFB
:10275000078B9DED007B27EE088B9FED717BABEE29
:10276000008BACEE067BB2EE0E0B2AEE000B2BEECE
:1027700007BB6AF0E5FA6AF0EBFB9DED0C7B2BEEF4
:1027800000BB2BEE07BB9DED0A7BAFEE08BB37EE1F
:102790000BBB002F48D09DED047B37EE0B6B9DEDFE
:1027A0002A7B36EE476B9FED927B26EE076B87ED1B
:1027B000026B002C00F0878194ED186B9FED8E7BEF
:1027C00026EE076BB6EE002B9DED1E7B9DED145B98
:1027D0009FED8B3B9DED064B37EE450B9DED247B2E
:1027E0009DED165B37EE45EB9DED1A7B9DED085B8D
:1027F00037EE455B9DED187B25EE025B20EE070B67
:102800009DED047BAEEE440B27EE037B9FED7E4BEC
:10281000ABEE437B20EE020BA0EE047BA5EE047B27
:1028200087EE065B87ED045B00202FB0BDEC108BBC
:10283000F0BD96ED027B9FED7E4B27EE057B86EE8D
:10284000046B87EE047B8DED146B8DED1E7B9DED8F
:102850001E6B9DED147B9FED74DB2B68002437EE1F
:10286000067BB7EE006B8DED207B8DED06DB8DEDED
:10287000186B8DED267B002B7FF420AA9FED6A7BE1
:10288000B0EE47AB8DED027B8DED2C7B8DED2A7B81
:102890008DED107B8DED0E7B8DED287B8DED0C7B12
:1028A0008DED0A7B8DED087BFFF758BA9FED589BA5
:1028B00031E79FED578BFFF735BB9FED559B2BE61F
:1028C0009FED538BDAE49FED587BB0EE47BB8DED67
:1028D0000A7B8DE59FED546B002C00F0068194ED92
:1028E0000E5B9FED534B36EE455B85EE045B8DED45
:1028F000085B1DE59FED4C7BB0EE47BB8DED0C7B7F
:1029000075E69FED497B8DED007BFFF7CDBA9FED1E
:1029100046EBB0EE4E8BFFF772BB00BFAFF300800B
:102920000ABFD4CF9B8A843FAD2F12DA722EA53F07
:10293000E5D022DBF9BE2840666666666626304032
:102940000EBE30992A18FF3F0000000000408F4063
:10295000302DEA93DC6143BF26AB22DC645439BFDF
:102960008FE4F21FD26FF0BF37894160E5D0F43FAA
:102970000E2DB29DEFA7EE3FCA54C1A8A44EFB3F57
:10298000234A7B832F4CDABF107A36AB3E57F23F97
:1029900093A98251499DCC3F00000000C0FEE3C0D6
:1029A000F38E53742497F13F7B14AE47E17A843F52
:1029B000A4703D0AD7A3EA3F0F4757E9EE3A6BBF31
:1029C000E10D6954E0646BBFD5E76A2BF697E53FEC
:1029D000B09DEFA7C64BC7BFE08442041C4265BF51
:1029E0005839B4C876BEAFBF64247B849A21853F32
:1029F00074E501C93A576E3F0000000000006940CD
:102A00007B14AE47E17AE83F52B81E85EB51F43FA4
:102A1000DBF97E6ABC7401406766666666B1844015
:102A2000B6F3FDD478E9F23F00000000000000009A
:102A300014AE47E17A14CE3F84681FED057B002C6D
:102A400058D094ED0A6B1FED065B37EE466B86EEB1
:102A5000056B8DED146BFFF709B91FED117B9DED33
:102A6000026B3AEE079B8DED227B39EE469B1FED04
:102A7000126B8DED1C7B8DED049BB0EE468B8DEDC6
:102A8000166B8DED126BFFF7C2B91FED1B5BB7EE36
:102A9000008BA7EE458BFFF745BA1FED1F6BB7EE16
:102AA000009BA7EE469B36E61FED236BB7EE009B1F
:102AB000A7EE469B30E51FED266BB7EE008BA7EE29
:102AC000468BFFF7DBBB1FED286B7BE696ED066BB5
:102AD00026EE046B1FED2A4B85EE045B86EE046B3D
:102AE0008DED085B8DED1A6B2CE48DED1A6B8DED81
:102AF000086B27E48DED1E7B8DED147BA7E600BFF0
:102B00000320704701207047022803D8024B53F876
:102B10002000704700207047584407080028024BE7
:102B200014BF0020184670476444070878B110B4F9
:102B30000524046009B1022008600AB10021116077
:102B40000BB120221A6000205DF8044B704709B1D8
:102B5000022008600AB1002111600BB120221A6026
:102B6000002070472DE9F84FD1E90095144606463C
:102B700005FB09F205F103089B4601F1080A002A4A
:102B800001EB88074FEA880804DDD20000212046C7
:102B90006CF08AFA6EB3BBF1000F2CD0002D28DD4B
:102BA00050464FF0000C6FF0404BA7F1040A8046EE
:102BB000B146D8F8006058F8040F864215D006EBED
:102BC0000B0249460AEB800E07EB820252F8043FE3
:102BD00003FB05C39645B1EC027B04EBC30383ED15
:102BE000007BF3D1801B09EBC0090CF1010C65459A
:102BF000DFD1BDE8F88F002DFBDDA8F10C08D4462D
:102C00004FEAC9096FF0404BD044B646A7F1040A19
:102C1000DCF800605CF8045FAE4213D006EB0B02F8
:102C200071460AEB850007EB820252F8043FB1ECD3
:102C3000027B04EBC303824283ED007BF5D1AD1B25
:102C40000EEBC50EC4454C44E2D1BDE8F88F00BF81
:102C5000F0B5D1F804C05F680CF10205059C002FA7
:102C600051F825600ADD0433A4F1040E03EB870755
:102C700053F8045FBB424EF8045FF9D1002E15DD16
:102C80000B4B00EBC60E634401EB830C5CF8041F96
:102C9000B0EC027B54F82130864503F1010502EBCC
:102CA000C30344F8215083ED007BEFD1F0BD00BF9A
:102CB00002000040000000002DE9F04F1C46924643
:102CC00003F5506903F55762D0F80C8003F55C6397
:102CD00004F562652DED108BADF2C46DCDF8A8053D
:102CE000CDF82C16CDF82026CDF82836B8F1000FF7
:102CF00007F0D584B2EE0B5B076998ED006B26EE0A
:102D0000056B002F07F0E38397ED0A3B9FEDF84B2F
:102D100098ED027B36EE436B27EE057B86EE046B67
:102D20008DED9E6B97ED0C5B9FEDF16B97ED008B3E
:102D300037EE457BB0EE480B87EE06AB8DEDBCABB6
:102D40006AF006F9B0EE409B8DED420BB0EE480BF9
:102D50006AF086F90DF5B8639FEDE76B9DED9E7BFC
:102D60009FEDE75B29EE064B20EE066B3AEE072B54
:102D7000B6EE007B8DED140B24EE077B24EE054BA5
:102D800026EE055B83ED004B0DF5B96322EE094B92
:102D900083ED005B9FEDDC5B8DED264B0DF5C26393
:102DA00027EE057B9FEDDA5B8DED202BB0EE474BD8
:102DB000A6EE057B96EE054B83ED004B0DF5C36348
:102DC00083ED007BDDF8A8351B68002B07F0BE8380
:102DD000B6EE007B93ED002B9FEDCF4B9FEDD05BCC
:102DE00022EE029B9FEDD06B93ED043B29EE044B4A
:102DF00029EE059B24EE075BB0EE431B29EE079BF3
:102E00008DED2C4B85EE064B93ED020B9FEDBE6BCB
:102E10009FEDC7FB9FEDBE5B23EE066B0DF5866352
:102E2000B0EE40EB8DED2A3BA1EE05EB9FEDC23BF2
:102E30008DEDCE2B8DEDCC0B29EE033B8DED223BA2
:102E40009FEDBF3B24EE0FFBB0EE404B29EE039B02
:102E5000A1EE454BB0EE425BA6EE475B8DED0E4B0F
:102E60008DED085BB0EE425BA6EE075B20EE017BCA
:102E70008DED287B21EE027B8DED0A5B83ED007BDF
:102E800032EE027B8DEDCA7B9DED087B8EEE077BDB
:102E9000B0EE470B8DEDA67B69F052FF30EE48CBCC
:102EA0009FEDAF7B9FEDB06B3CEE477B27EE067B43
:102EB000B0EE470B8DEDA27B69F042FF8DEDB00BBC
:102EC0006AF046F89FEDAA7B20EE077B8DED167B1E
:102ED000002F07F0F7839FED9C4B9FED9D3B97EDF7
:102EE000145B97ED126B9FED9C7B25EE04BBB0EE5F
:102EF000435BA6EE073BA6EE475B97ED02ABB0EE59
:102F000043DB9FED9D0B8DED343B35EE097B39EEB8
:102F10000D9B2AEE000B37EE4F7B39EE4F9B37EEC1
:102F20004B7B8DED1E5B8DED047B8DED24BB69F03D
:102F300007FF9FED937B20EE070B6AF091F839EEC7
:102F40004B7B8DED3A0B8DED067B9FED8F7B9DEDE1
:102F5000044B9FED95DB9FED906B34EE474B9FED5F
:102F6000945B84EE07BBB0EE4D7B9FED8D3B9DEDFA
:102F7000164B9FED879BABEE063BABEE057B8DEDD5
:102F8000183B24EE07DB37EE0A5B8DED587BB1EE84
:102F9000437B8DED5A5B8DED027B24EE057BB0EE1D
:102FA00047ABB0EE470B8DEDA47B69F0C9FEB0EEE8
:102FB0004A7B3AEE405B9DED186B8DED5C5BA6EEB7
:102FC000457BB0EE470B8DEDA87B69F0B9FE20EE96
:102FD000097BB0EE470B8DEDB27B69F0B9FFB0EE27
:102FE00040ABB0EE4D0B69F0ABFEB0EE4D6B3DEE7D
:102FF000405B9DED027B8DED5E5BA7EE056BB0EE59
:10300000460B8DEDAA6B69F09BFE20EE097B9FEDD0
:103010006A9BB0EE470B8DEDAC7B69F099FF8AEEB1
:10302000007B8DED360B8DED2E7B9FED677BABEE40
:10303000079B002F07F0F18297ED167B8DED027B49
:103040009DED027B9DED044B29EE075B9FED4E7BD2
:1030500025EE049B84EE076B9FED597B8DED605B45
:103060008DED109B86EE070B8DEDAE0B69F068FEC3
:1030700030EE007B0DF58863B0EE470B83ED007BEF
:1030800069F0EEFF9FED527B9FED616B20EE070B29
:103090009FED517BA9EE067BB0EE476B8DED627B19
:1030A0009FED577B20EE070B9FED537B80EE064B89
:1030B0009FED4D6BABEE067B9FED496B3CEE075BE6
:1030C0009FED4B7BB5EEC05BABEE076BF1EE10FAFC
:1030D0008DED665B24EE05AB8DED644B07F15C82F4
:1030E00047F308839FED487B8DED3E7BA4E000BF56
:1030F00014AE47E17A14CE3F0B62720531B94C40F1
:1031000074E501C93A576E3F52B81E85EB51F43F42
:103110007B14AE47E17AE83FCD5D4BC807BDF03F79
:10312000560E2DB29D2F09407B14AE47E17AF83F31
:103130003BDF4F8D976EE23F7D7C7C7C7C7CDC3F6F
:10314000C2C1C1C1C1C1E13F9696969696963940DB
:103150006766666666B18440753A9D4EA7D33E4069
:10316000AD2F12DA722EA53FE5D022DBF9BE284042
:10317000E7FBA9F1D2CD2B40666666666626304035
:103180000EBE30992A18FF3F0000000000408F401B
:103190000E2DB29DEFA7EE3F37894160E5D0F43F99
:1031A0008FE4F21FD26FF0BF302DEA93DC6143BF92
:1031B00026AB22DC645439BFCA54C1A8A44EFB3FDD
:1031C000107A36AB3E57F23F234A7B832F4CDABF4F
:1031D00000000000C0FEE3C07B14AE47E17A843FEC
:1031E00093A98251499DCC3F0F4757E9EE3A6BBFF7
:1031F000D5E76A2BF697E53FE10D6954E0646BBFB4
:10320000A4703D0AD7A3EA3FB09DEFA7C64BC7BF46
:10321000F38E53742497F13FE08442041C4265BF4F
:103220005839B4C876BEAFBF64247B849A21853FE9
:103230000ABFD4CF9B8A843F9DED3E7BB0EE4A0B04
:1032400026EE079B9DED0A7B8DED689B8EEE07EBCE
:103250008DEDC0EB69F074FDB0EE4A7B3AEE406B49
:10326000A9EE467B8DED6A6BB0EE470B8DEDB47B1E
:1032700069F066FD0DF585631FED1B7B20EE077B76
:10328000B0EE470B83ED007B69F0EAFEB0EE403B09
:103290001FED1F6B1FED1E7B8DED6C0BB2EE0E0B49
:1032A000ABEE067B2CEE004B1FED216BB0EE475BC7
:1032B000B0EE440B8DED6E7B1FED237B8DEDB64B99
:1032C000ABEE067BB0EE476B8DED727B9DED047B24
:1032D00025EE077B9DED025B25EE077B9DED105BE8
:1032E000A5EE037B25EE06BBB0EE479B8DED707B14
:1032F0008DED74BB69F024FD0DF5896383ED000B42
:1033000069F026FEB0EE407B8DED760B2BEE076B61
:10331000B0EE4E0B9DED3A7B26EE076B9DED2E7BBE
:10332000A7EE096B8DED9C6B69F00AFD30EE487BD2
:10333000B0EE476B8DED0C7B1FED777B36EE477B58
:103340001FED776B27EE067BB0EE470B8DEDB87B5C
:1033500069F0F6FC0DF58A6383ED000B69F0F8FD6A
:103360001FED7D7B20EE077B8DED1A7B002F07F094
:10337000788197ED04CB1FED800B2CEE000B69F0EC
:10338000DFFC1FED817B20EE070B69F069FE8DED00
:103390003C0B1FED83BB9DED063B1FED7B5B1FEDE3
:1033A0007E6B33EE4B3B1FED824B83EE0B9B1FED91
:1033B000867B1FED898BA9EE056BB0EE445B9DED1E
:1033C0001A4BA9EE075BB0EE467B8DED786B36EEBF
:1033D0000C6B24EE077B24EE06EBB1EE45CB8DEDB6
:1033E000987BB0EE4E0B8DED7A6B8DED125B69F034
:1033F000A7FCB0EE4E6B3EEE404B9DED125B8DEDAB
:103400007C4BA5EE446BB0EE460B8DEDBE6B69F0C8
:1034100097FC20EE086B0DF58B63B0EE460B83ED49
:10342000006B69F095FD8DED1C0B9DED980B69F01F
:1034300087FC9DED987B37EE406BACEE067B8DED07
:103440007E6BB0EE470B8DEDBA7B69F079FC20EE18
:10345000087B0DF58D631FEDA88BB0EE470B83ED58
:10346000007B69F075FD9DED1C7B9DED065B8DED90
:10347000380B87EE007B85EE0B6B8DED307B1FEDFF
:10348000B07B86EE070B1FEDB07BA9EE078B9DEDA1
:10349000027B27EE087B27EE058B8DED807B8DED83
:1034A0001C8B8DEDC20B69F04BFC30EE007B0DF5F3
:1034B0008E63B0EE470B83ED007B69F0D1FD1FED0D
:1034C000BC7B1FEDAD6B20EE070B1FEDBD7BA8EEA7
:1034D000067BB0EE476B8DED827B1FEDB77B20EE58
:1034E000070B1FEDBB7B80EE065B1FEDC16BA9EEEA
:1034F000067B9DED0C6B36EE074B1FEDC37B1FED7E
:10350000C86BB5EEC04BA9EE076BF1EE10FA8DED6E
:10351000864B25EE047B8DED845B8DED9A7B07F168
:10352000478047F305811FEDC87B8DED407B9DED06
:10353000407B9DED9A8B26EE07BBB0EE480B8DEDE0
:1035400088BB69F0FDFBB0EE487B38EE406BABEE1C
:10355000467B8DED8A6BB0EE470B8DEDC67B69F037
:10356000EFFB0DF58F631FEDD67B20EE077BB0EEF2
:10357000470B83ED007B69F073FDB0EE403B1FED20
:10358000DA6B1FEDD97B8DED8C0BB2EE0E0BA9EE35
:10359000067B1FEDDB6BB0EE475B8DED8E7B1FED89
:1035A000DC7BA9EE067BB0EE476B8DED927B9DED4B
:1035B0000C7B27EE004B9DED067BB0EE440B25EE19
:1035C000077B9DED025B8DEDC84B25EE077B9DEDE6
:1035D0001C5BA5EE037B25EE069BB0EE478B8DEDC5
:1035E000907B8DED949B69F0ABFB0DF5906383EDC3
:1035F000000B69F0ADFC29EE006B9DED3C7B8DED81
:10360000960B26EE076B9DED307BA7EE086B9DEDCC
:103610009C7B8DEDC46B37EE064BB8F1000F06F0C6
:10362000CD87B2EE0B6B98ED047B27EE067B002F67
:1036300007F0888098ED065B25EE066B97ED0E5B34
:1036400037EE457B9FEDFC5B87EE053B97ED107BEE
:103650009FEDF95B36EE476B86EE057B0DF5A663B5
:10366000B6EE002B9FEDF65B37EE436B33EE077B38
:1036700026EE026B26EE056B83ED006BDDF82C3633
:10368000D3F80080B8F1000F15D09DED146B9DEDBF
:10369000263BA4EE463B9DED2C6B33EE077B37EECD
:1036A000467B9DED286B37EE067B9FEDE76B27EEA3
:1036B000067B88ED007B9DED207B9DED146B0DF569
:1036C000BA6327EE066B9DED427BA4EE076B9DED82
:1036D0000E7B8DEDA06B9DED086B87EE067BB0EE4B
:1036E000470B83ED007B69F02BFB0DF59263B0EE89
:1036F000408B9FEDD77B9FEDD86B30EE477B27EE5D
:10370000067BB0EE470B83ED007B69F019FB0DF5EE
:10371000936383ED000B69F01BFC9FEDD17B20EEE2
:10372000077B8DED267B002F06F07D8797ED069BAE
:103730009FEDCD0B29EE000B69F002FB9FEDCC7BDA
:1037400020EE070B69F08CFC8DED500B9DED1E7B80
:103750009DED226B9FEDC8CB9FEDC94B37EE067BED
:103760000DF584639DED246B37EE0F7B9DED261BDD
:1037700037EE065B9FEDD06BB0EE453B9FEDD05B27
:103780008DED0C3B33EE4C3B9FEDD17B83EE0CBBC0
:10379000ABEE064BB0EE446B8DEDD04BB0EE454B2F
:1037A00036EE092BABEE074B21EE067B8DEDD22BCF
:1037B0009FEDC99BB1EE446B83ED007B8DED286BD3
:1037C00021EE026B0DF58C638DED1E4BB0EE460BBA
:1037D00083ED006B69F0B4FA0DF58C6393ED006B2B
:1037E0009DED1E4B0DF5946336EE402BA4EE426B1F
:1037F0008DEDD42BB0EE460B83ED006B69F0A0FA93
:1038000020EE096B0DF59663B0EE460B83ED006B71
:1038100069F09EFB0DF584638DED200B93ED000B9D
:1038200069F08EFA0DF5846393ED007B9DED286BB6
:103830000DF5996337EE404BA6EE047B8DEDD64B2C
:10384000B0EE470B83ED007B69F07AFA20EE097B3E
:103850000DF59763B0EE470B83ED007B69F078FBC5
:103860000DF59A639DED207B9DED0C5B8DED440B7A
:1038700087EE007B85EE0C6B9FED9DCB8DED327B53
:103880009FED977B86EE070B9FED977BABEE07CB0B
:103890009DED027B27EE0C7B25EE079B8DEDD87B03
:1038A0008DED209B83ED000B69F04AFA30EE007B32
:1038B0000DF59B63B0EE470B83ED007B69F0D0FB09
:1038C0000DF591639FED8C7B9FED9B6B20EE070BBD
:1038D0009FED8B7BA9EE067BB0EE476B8DED467BB3
:1038E0009FED937B20EE070B9FED8D7B80EE065BBB
:1038F0009FED896BABEE067B9FED856B38EE074B3A
:103900009FED817BB5EEC04BABEE076BF1EE10FA8D
:103910008DEDDA4B25EE047B8DED485B83ED007B6E
:1039200006F1408646F3F0869FED7F7B8DED547B5C
:103930009DED547B0DF5956326EE07CB9DED0A6B4F
:103940009DED0E7B8DEDDCCB87EE067B83ED007B62
:103950000DF5916393ED009BB0EE490B69F0F0F922
:10396000B0EE497B39EE406B0DF59D63ACEE467BC6
:103970008DEDDE6BB0EE470B83ED007B69F0E0F977
:103980000DF59C639FED6C7B20EE076BB0EE460B54
:1039900083ED006B69F064FBB0EE403B0DF59E6378
:1039A0009FED676B9FED687B9DED0C2B8DEDE00B24
:1039B000ABEE067BB2EE0E0B9FED656B28EE004B77
:1039C000B0EE475B8DEDE27B9FED637BB0EE440B89
:1039D000ABEE067B83ED004BB0EE476B8DEDE67BE7
:1039E00022EE057B9DED025B25EE077B9DED205BC6
:1039F000A5EE037B25EE069BB0EE478B8DEDE47BB9
:103A00008DEDE89B69F09CF90DF59F6383ED000B4C
:103A100069F09EFAB0EE406B0DF5956329EE067BDA
:103A20009DED506B8DEDEA0B93ED000B27EE067BC1
:103A3000A6E000BFAFF3008014AE47E17A14CE3F9A
:103A400052B81E85EB51F43F74E501C93A576E3FF9
:103A5000AD2F12DA722EA53FE5D022DBF9BE284049
:103A6000E7FBA9F1D2CD2B4066666666662630403C
:103A70000EBE30992A18FF3F0000000000408F4022
:103A8000302DEA93DC6143BFAD2F12DA722EA53FD1
:103A9000E5D022DBF9BE2840E7FBA9F1D2CD2B40CF
:103AA00066666666662630400EBE30992A18FF3F6D
:103AB0000000000000408F4026AB22DC645439BF78
:103AC0008FE4F21FD26FF0BF302DEA93DC6143BF69
:103AD00037894160E5D0F43F0E2DB29DEFA7EE3F50
:103AE000107A36AB3E57F23F234A7B832F4CDABF26
:103AF000CA54C1A8A44EFB3F00000000C0FEE3C0B2
:103B00007B14AE47E17A843FD5E76A2BF697E53F11
:103B100093A98251499DCC3F0F4757E9EE3A6BBFBD
:103B2000E10D6954E0646BBFB09DEFA7C64BC7BF02
:103B3000A4703D0AD7A3EA3FF38E53742497F13F54
:103B4000E08442041C4265BF5839B4C876BEAFBF9A
:103B500064247B849A21853F0ABFD4CF9B8A843F0B
:103B600074E501C93A576E3F00000000000069404B
:103B70007B14AE47E17AE83F52B81E85EB51F43F23
:103B80009DED326BA6EE087B8DED2C7B69F0D8F8AD
:103B90000DF5A163B0EE408B1FED457B1FED446B2F
:103BA00030EE477B27EE067BB0EE470B83ED007BC4
:103BB00069F0C6F80DF5A06383ED000B69F0C8F954
:103BC0001FED4B7B20EE077B8DED287B002F06F051
:103BD000328597ED089B1FED4E0B29EE000B69F027
:103BE000AFF81FED4F7B20EE070B69F039FA8DED32
:103BF000520B9DED227B9DED346B1FED53CB1FEDE2
:103C0000524B37EE065B0DF587639DED247B35EE59
:103C10000F5B1FED556B35EE075B1FED537BB0EE71
:103C2000453B1FED575B8DED0E3B33EE4C3BB0EE4D
:103C3000452B83EE0CFB9DED281BAFEE042BAFEE66
:103C4000076BB0EE424B8DEDEC2B32EE092B21EEE3
:103C5000047BB1EE46BB8DED246B21EE026B83ED50
:103C6000007B0DF59863B0EE460B83ED006B8DED98
:103C7000EE2B69F065F80DF5986393ED006B9DED03
:103C8000244B1FED6B9B36EE402B0DF5A363A4EE8A
:103C9000426B8DEDF02BB0EE460B83ED006B69F0BF
:103CA0004FF820EE096B0DF5A463B0EE460B83EDE3
:103CB000006B69F04DF90DF587638DED220B93EDE7
:103CC000000B69F03DF80DF5876393ED007B0DF572
:103CD000A56337EE406BABEE067B8DEDF26BB0EE7D
:103CE000470B83ED007B69F02BF820EE097B0DF587
:103CF000BB63B0EE470B83ED007B69F029F90DF54E
:103D0000BC639DED226B9DED0E5B8DED4A0B86EE47
:103D1000006B85EE0C7B8DED346B1FED8F6B87EEAA
:103D2000060B1FED8F6B1FED8E7BAFEE067B9DEDBF
:103D3000026B26EE077B25EE079B8DEDF47B83ED72
:103D4000000B8DED229B68F0FBFF30EE007B0DF544
:103D5000BD63B0EE470B83ED007B69F081F90DF593
:103D6000A2631FED9B7B1FED8C6B20EE070B1FEDFD
:103D70009C7BA9EE067BB0EE476B8DED4C7B1FED77
:103D8000947B20EE070B1FED9A7B80EE065B1FED08
:103D90009E6BAFEE067B1FEDA26B38EE074B1FED5F
:103DA000A67BB5EEC04BAFEE076BF1EE10FA8DEDD2
:103DB000F64B25EE047B8DED4E5B83ED007B06F12B
:103DC000E58346F3AB841FEDA87B8DED567B9DED1F
:103DD000567B0DF5A26326EE07BB93ED009B8DEDA0
:103DE000F8BBB0EE490B68F0ABFFB0EE497B39EEA3
:103DF000406B0DF5BE63ABEE467B8DEDFA6BB0EE1E
:103E0000470B83ED007B68F09BFF0DF5BF631FED53
:103E1000B67B20EE077BB0EE470B83ED007B69F0AD
:103E20001FF90DF58163B0EE403B1FEDBB6B1FED3D
:103E3000BA7B8DEDFC0BB2EE0E0BAFEE067B28EEDF
:103E4000004B1FEDBD6BB0EE475BB0EE440B8DED4C
:103E5000FE7B1FEDBF7BAFEE067B83ED007BB0EEFC
:103E6000476B0DF5C0639DED0E7B83ED004B0DF5AB
:103E7000806327EE057B9DED025B25EE077B9DEDC4
:103E8000225BA5EE037B25EE069B83ED007B0DF503
:103E90008263B0EE478B83ED009B68F051FF0DF518
:103EA000C16383ED000B69F053F829EE007B0DF53B
:103EB00083639DED526B83ED000B27EE067B9DED3A
:103EC000346BA6EE087B9DED2C6B36EE077BB8F1CC
:103ED000000F06F088830DF586639DEDA06B93EDD2
:103EE000005B36EE076B36EE456B1FEDE35B26EEAF
:103EF000056B88ED026B002F06F02E8497ED185BA2
:103F00001FEDE76B25EE066B8DED2C6B9DEDBC6B0D
:103F10009DED9E5B9DED9C4B0DF5A66336EE455BDE
:103F20009DEDC46B36EE446B9DED424B25EE045B7C
:103F30009DED144BA6EE445B1FEDF34B9DEDA06B86
:103F400026EE046BA7EE446BB6EE007B25EE075B16
:103F50001FEDF77BA5EE076B93ED007B36EE076B4D
:103F60009DED2C7B86EE077B88ED047BDDF8A83584
:103F7000596804F6E803002906F048831A4601F15F
:103F800048004F46DDF82866F1E802898142E2E800
:103F90000289F9D1B946CDF82866D96804F5136BC2
:103FA0005A689868C4F83C19D4F8E818C4F8342959
:103FB000C4F83809C4F830195A69196904F6481365
:103FC000C4F8442904F61812CDF8B83604F5106385
:103FD000DDF82866C4F84019F3E802019342C3E90A
:103FE0001001F9D104F51667CDF82866F3E802014F
:103FF0009B45C3E91001F9D104F514630DF5C762BF
:10400000CDF82866B6EE008BCDF8BC3613ED02BBBA
:1040100093ED004B0DF5B46383ED00BBB7EE00BB31
:104020009DEDAA2BB0EE4B3BB0EE4B6B9DEDA25B32
:104030009DEDA41BA2EE023BB0EE4B2BA5EE056B53
:10404000A1EE012BB0EE4B5BB0EE4B1B9DEDA89BA0
:10405000ADEE0D5BA9EE091BB0EE4B9B9DEDAEDB0B
:104060009DEDB4FB9DEDAC0BADEE0D9BB0EE4BDBCF
:104070009BED00CBAAEE0ADBB0EE4BAB8DEDA89B1F
:10408000AFEE0FABB0EE4BFB9DEDB69B8DEDAADB1B
:104090009DED98DBA9EE09FBB0EE4B9B8DEDACAB33
:1040A0009DEDB8AB82ED00CB0DF5B362AAEE0A9B95
:1040B000B0EE4BAB8DEDAEFBADEE0DABB0EE4BDB32
:1040C0009DEDBAFB82ED004B8DED9E5BAFEE0FDBFD
:1040D000B0EE4BFB8DED9C6BAEEE0EFBB0EE4BEB02
:1040E0008DEDA03B8DEDA22B8DEDA41B8DEDB69B30
:1040F0008DEDB8AB8DEDBADB8DEDBCFB9DEDBE4B10
:104100009DED9A3B9DEDC62BA4EE04EB9DEDC24BBD
:104110009DEDC81B9FEDFE7B8DEDBEEBB0EE4BEB36
:10412000A4EE04EBB0EE4B4BA3EE034BB0EE4B3BD7
:104130008DEDC2EBA2EE023BB0EE4B2B8DEDC44BEE
:10414000A1EE012B9DEDCA1B8DEDC63B2CEE019B14
:104150008DEDC82B29EE07DB68F082FF0DF5C863F3
:10416000B0EE40AB9FEDEC7B2DEE086B29EE077BAC
:104170009FEDEB9B9DEDB00B27EE081B9FEDEA7BBF
:104180008DED9AAB83ED001B26EE077B0DF5C66324
:104190009FEDE76B83ED00DB0DF5C96327EE06FBB2
:1041A0009FEDE57B83ED00FB91EE07FB9FEDE47B4C
:1041B0002FEE099B29EE07EB68F052FF0DF5A66381
:1041C000B0EE40DBB0EE4B1B83ED00DB0DF5B363CF
:1041D0009FEDDD6B93ED004B0DF5CA6324EE067B7E
:1041E0009DED08AB9FEDDA6B83ED007BB0EE472BC6
:1041F0000DF5A76329EE063B9DEDA67B9DEDB20B69
:1042000087EE0A5BA7EE071B9DEDC07BA7EE07BB01
:1042100083ED001B0DF5B4639FEDCF7B8DEDB4BB3B
:1042200093ED00BB24EE077B0DF5AB633BEE022B59
:10423000B0EE4C4B82EE0A6BA7EE484BA7EE08CBD4
:1042400083ED002B0DF5CB6383ED004B0DF5B763CC
:1042500083ED00CBB1EE45CB0DF5AF639DED368B15
:1042600083ED00CB9DED2ECB9FEDC9AB9FEDBCBB8D
:104270008CEE08CBA5EE446B9DED308B86EE017B7A
:104280009DED9C6B8DED98CB9DED38CB88EE0C8B26
:10429000B0EE47CB27EE0A7B87EE06AB9FEDBE6BF9
:1042A0008DEDB08B2DEE0AAB9DED58DB2AEE06AB03
:1042B0002AEE4D7B9DED16DB9DED9E5B9DED184B33
:1042C000ADEE0E7BB0EE43DB9DED5E2B87EE056B16
:1042D00037EE466B24EE066BA2EE036B9DEDA03B22
:1042E00037EE466B9DED9A7B86EE038B28EE0B8BAB
:1042F00027EE088B68F0B4FE0DF5A863B0EE404BD6
:104300009DED5A7B9FED986B9DED163B2AEE477B0A
:1043100029EE066BA3EE0E7B9DED023B9DED042B7B
:1043200083ED000B23EE06AB0DF585639DED603B41
:1043300093ED000B83ED00EB23EE0F3B0DF5AD632A
:1043400083ED00AB0DF5AA63AAEE023B9DEDA22B17
:104350009DEDA41B9DED36AB87EE026B83ED003B1C
:104360009DED183B9DED5C2B0DF5866383ED00DB29
:1043700037EE466B23EE066BA2EE0D6B9FED7CDBFA
:1043800029EE0DDB37EE467B87EE016B9DED981B2A
:1043900026EE0B7B24EE077B87EE0AEB9FED76ABD8
:1043A00029EE0AAB91EE08EB68F0D2FD0DF58863BB
:1043B000B0EE407B93ED000B8DEDA67B68F0C8FD61
:1043C000B0EE4C7BB0EE402B0DF589639FED6C1B7E
:1043D0009DEDA85B8DEDB2CB29EE011B9FED70CB5F
:1043E00093ED000B81EE055B0DF5A963A9EE0C7B47
:1043F00083ED002B9DED648B9DED623B0DF5896394
:1044000088EE036B28EE077B9FED6B8B83ED001B23
:104410000DF5AA639FED5CCB29EE0CCB35EE055B69
:1044200022EE054B9FED622B24EE024B9FED5E2B9F
:1044300024EE084B9DED668B84EE035B93ED003B11
:104440000DF5B06323EE024BA6EE445BA8EE057BB0
:10445000B1EE468B9DEDAA5B83ED008B9DED688BE5
:104460009DEDA64B87EE056B9DED021B37EE466B6F
:1044700028EE066B9DED3E8B2CEE085B9DED6A8B66
:10448000A8EE056B9DEDAC5B37EE467B87EE058BAA
:104490009DED105B28EE028B24EE088B9DED6C4B9E
:1044A00025EE088BA4EE038B9DED044B2AEE047BD6
:1044B0009DED6E4BA4EE0F7B9DED704BA1EE078B37
:1044C0009DED2E1B21EE088BA4EE0E8B25EE0DEB41
:1044D0009DED724BA4EE03EB68F0C2FD0DF5AA63EF
:1044E000B2EE0E3BB0EE404B9DEDB27B83ED000B88
:1044F0000DF58D6327EE036B9DEDAE7B93ED000B09
:104500000DF5B66386EE077B5EE000BFAFF300807B
:10451000CD5D4BC807BDF03F560E2DB29D2F094013
:10452000FCA9F1D24D62503F953FEA943FEAE43F47
:104530003BDF4F8D976EE23FC2C1C1C1C1C1E13FB8
:1045400026AB22DC645439BF7B14AE47E17AE83FE6
:1045500037894160E5D0F43F52B81E85EB51F43FF6
:104560000E2DB29DEFA7EE3F234A7B832F4CDABF7F
:1045700064247B849A21853FE08442041C4265BF09
:1045800071AF30A478EAEB3FD5E76A2BF697E53FA9
:10459000E5D022DBF9BE2840E7FBA9F1D2CD2B40C4
:1045A0000F4757E9EE3A6BBFF38E53742497F13FF0
:1045B00000000000C0FEE3C0A4703D0AD7A3EA3F9C
:1045C00074E501C93A576E3F24EE077B9DED744BAD
:1045D00027EE447B9DED764BA4EE0E7B9DED3A4B92
:1045E000A7EE048B83ED008B68F03AFD0DF58A632E
:1045F000B0EE407B93ED000B8DEDB27B68F030FDAB
:104600000DF5AB639DEDC08B9DED0A7B9DEDB41B5D
:1046100088EE075B93ED008B83ED000B0DF58B634C
:1046200088EE077BB0EE408B93ED000B0DF5B76382
:1046300093ED004B0DF5B163A5EE447BB1EE454B18
:1046400083ED004B0DF5886387EE012B1FED301BCA
:1046500022EE016B83ED002B9DEDB65B1FED321B4F
:104660000DF5856386EE05EB93ED006B9DEDB85B74
:104670009DED124B0DF5866393ED003B28EE0EEB9E
:104680009DED7E8B2EEE01EB9DED781B2EEE417B9A
:104690009DED1A1BA1EE067B87EE056B9DEDBA5BC7
:1046A00037EE466B24EE066BA8EE036B37EE466BD7
:1046B0009DEDB27B86EE058B28EE0B8B27EE088BEB
:1046C00068F0CEFC0DF58563B0EE404B9DED7A7B36
:1046D0009DED1A1B9DEDBC6B2EEE477B93ED00EB21
:1046E0000DF5AC63A1EE0E7B9DED80EB83ED000B31
:1046F0000DF58F632EEE0FEB87EE066B93ED000B3F
:104700000DF5AD639DED065B93ED001B0DF5866326
:10471000A1EE05EB9DED121B93ED003B37EE466BD2
:1047200021EE066B9DED7C1BA1EE036B37EE467B05
:104730009DEDBE6B87EE066B9DED387B26EE0B6B19
:1047400024EE066B86EE07BB9DEDB06B96EE08BBC4
:1047500068F0FEFB0DF58E63B0EE407B93ED000B31
:104760008DEDC07B68F0F4FB0DF5886393ED002BB5
:104770001FED756B0DF58563B0EE421B83ED002BCD
:10478000A9EE061B0DF58963B0EE409B9DEDC25B63
:104790001FED7B2BB0EE416B2EEE024B93ED001B19
:1047A0000DF5AD6381EE057B83ED000B9DED400BB8
:1047B0009DED841B9DED828B2CEE00CB0DF590635F
:1047C00021EE066B9DED060B9DED925B9DEDC63BCC
:1047D0002AEE00AB9DED8E0BA0EE0FAB37EE077B04
:1047E0009DED1CFB29EE077B2FEE0DDB1FED909B53
:1047F00093ED000BA5EE0EDB0DF5B26327EE097B02
:104800001FED939B27EE097B9DED869B87EE085B52
:1048100081EE087B9DED021BA7EE445BA9EE056BC4
:10482000B1EE479B9DEDC45B83ED009B9DED889BA6
:1048300086EE057B9DED305B36EE477B29EE077BF0
:104840009DED8A9BA9EE0C7B9DEDC09B36EE476BE0
:1048500086EE038B28EE028B29EE088B9DED8C9B58
:104860002FEE088BA9EE0E8BA1EE0A8B9DED901B0F
:1048700025EE088BA1EE0B8B68F0F2FB0DF585633E
:104880000DF5B662B2EE0E5B93ED002B9DEDC87B8D
:104890000DF5AE6322EE052B9DED945B83ED000BD1
:1048A00082EE077BDDF82C365B6820EE077B27EE77
:1048B000457B9DED965BA5EE0D7B9DED3C5BA7EEEC
:1048C000058B92ED007B37EE089BFBB10DF5C662C0
:1048D0009DED147B92ED006B0DF5B46299EE476B84
:1048E00092ED00BB9DED2A7B0DF5B3622BEE077BAD
:1048F00092ED004B9DEDCC5BA4EE057B36EE077B85
:104900001FEDD16B27EE067B83ED007BCDF83036B3
:104910000DF5976393ED000B68F0A2FB0DF5936323
:10492000B0EE402B93ED000B0DF5856383ED002B6E
:1049300068F096FB0DF59663B0EE404B93ED000BDF
:104940000DF5866383ED004B68F08AFB0DF59C63E3
:10495000B0EE404B93ED000B0DF58B6383ED004BF8
:1049600068F0F6FA0DF59B63B0EE403B93ED000B5B
:104970000DF58E6383ED003B68F0EAFA0DF59F6359
:10498000B0EE404B93ED000B0DF58F6383ED004BC4
:1049900068F066FB0DF5BB63B0EE401B93ED000BBA
:1049A0000DF5936383ED001B68F05AFB0DF5A063D2
:1049B000B0EE407B93ED000B0DF5966383ED007B2D
:1049C00068F04EFB0DF5A463B0EE405B93ED000B79
:1049D0000DF5976383ED005B68F042FB0DF5BF6357
:1049E000B0EE403B93ED000B0DF59C6383ED003B77
:1049F00068F0AEFA0DF5BD63B0EE404B93ED000BE1
:104A00000DF59F6383ED004B68F0A2FA0DF5C163CD
:104A1000B0EE405B93ED000B0DF5A06383ED005B02
:104A200068F01EFB0DF5A463B7EE007B83ED000B71
:104A30000DF59263B0EE476B93ED005B0DF5886367
:104A4000A5EE056B83ED006B0DF58463B0EE476B4F
:104A500093ED005B0DF58963A5EE056B83ED006BAF
:104A60000DF59963B0EE476B93ED005B0DF58A632E
:104A7000A5EE056B83ED006B0DF58C63B0EE476B17
:104A800093ED005BA5EE056B83ED006B0DF5946374
:104A9000B0EE476B93ED005B0DF58D63A5EE056BF6
:104AA00083ED006B0DF59A63B0EE476B93ED005B01
:104AB0000DF59063A5EE056B83ED006B0DF591632D
:104AC000B0EE476B93ED005BA5EE056B83ED006BDD
:104AD0000DF59D63B0EE476B93ED005B0DF59263B2
:104AE000A5EE056B83ED006B0DF59E63B0EE476B95
:104AF00093ED005B0DF59463A5EE056B83ED006B04
:104B00000DF5A163B0EE476B93ED005B0DF5996376
:104B1000A5EE056B83ED006B0DF58763B0EE476B7B
:104B200093ED005B0DF59A63A5EE056B83ED006BCD
:104B30000DF5A563B0EE476B93ED005B0DF59B6340
:104B4000A5EE056B83ED006B0DF59863B0EE476B3A
:104B500093ED005B0DF59D63A5EE056B83ED006B9A
:104B60000DF5A363B0EE476B93ED005B0DF59E630F
:104B7000A5EE056B83ED006B0DF5BC63B0EE476BE6
:104B800093ED005B0DF5A163A5EE056B83ED006B66
:104B90000DF5A263B0EE476B93ED005BA5EE056BE0
:104BA00083ED006B0DF5BE63B0EE476B93ED005BDC
:104BB0000DF5A363A5EE056B83ED006B0DF5C063EA
:104BC000B0EE476B93ED005B0DF5A563A5EE056BAD
:104BD0009DED445B83ED006B9DED326B0DF58463C1
:104BE00086EE056B83ED006B0DF5BA6393ED006BFC
:104BF0009DED085B86EE055B83ED005BB0EE475BE9
:104C00000DF58763A6EE065B83ED005B0DF59563FE
:104C100093ED006B0DF59863A6EE067B83ED007BAC
:104C20009DED0A7B0DF5BB6386EE077B9DED466B24
:104C300083ED007B9DED487B0DF5956387EE063B8C
:104C40009DED4A6B9DED347B87EE067B9DED4C6BB5
:104C500083ED007B9DED4E7BDDF8303687EE060B55
:104C6000002B05F0F0840DF5B46292ED007B0DF59C
:104C7000CA6292ED006B0DF5B66237EE466B92EDAF
:104C8000007B0DF5BC6238EE478B9DED427B9DEDC0
:104C90002A5B29EE074B9FEDFE9B82ED004B0DF545
:104CA000C76292ED007B0DF5B36227EE057B92EDB6
:104CB000002B9DEDCE5B0DF5C062A5EE027B9DED58
:104CC000145B9DED082B9FEDF44B28EE055B82ED08
:104CD000007B0DF5C16282ED005B86EE025B0DF597
:104CE000CB6292ED002B0DF5BA6292ED001B0DF533
:104CF000B7629FEDEB8BA2EE415B9DED0A2B86EE3A
:104D0000027B92ED002B0DF5BB6292ED001B0DF5C1
:104D100087629FEDE56BA2EE417B92ED002B0DF5D6
:104D2000986285EE02EB92ED002B0DF5C96292EDD3
:104D300000FB0DF5C86287EE02BB92ED002B9FEDE4
:104D4000DC7B0DF59062A2EE07FB9FEDDB2B92ED75
:104D500000AB0DF5A1629DED027B2FEE066B9FED82
:104D6000D81B26EE022B26EE044B82EE0A5B27EEC2
:104D7000044B92ED00AB0DF58F6282EE0A7B92ED53
:104D8000002B0DF5A06235EE055B22EE055B92ED82
:104D9000002B0DF5B66225EE095B37EE077B82ED41
:104DA00000BB22EE077B0DF5886225EE085B27EE3F
:104DB000097B9DED4C9B9DED462B27EE088B2EEE3F
:104DC000017B88EE09AB2BEE011B85EE022B92EDE9
:104DD000008B0DF5996287EE08CB92ED008B0DF5F7
:104DE000866281EE08BB92ED001B0DF597629FED88
:104DF000E07B9DED0C5B9DEDD88B9DEDF49B21EE52
:104E00000CCB92ED001B0DF5B7622CEE07CB21EE1B
:104E10000BBB9DED0E1B2BEE07BB25EE047B21EE9D
:104E2000044BA8EE0F7BA9EE0F4B9FEDA71BB0EE36
:104E3000478B9DEDD29B9FEDA67B82ED004B0DF540
:104E4000BF622CEE495B26EE077B82ED008B28EEDD
:104E5000018B0DF5B3629DEDD09BA3EE482BB1EE17
:104E6000433B2CEE49CB82ED003B9DEDDA3B0DF54B
:104E7000B76223EE02DB92ED003B9DED269B0DF524
:104E8000B46223EE018BA9EE07CBA9EE075BA0EE7F
:104E900048ABB1EE400B9DEDEE9B82ED000B9DED1E
:104EA000F60B2BEE494B0DF59D6220EE0A3BB0EE62
:104EB0004EAB9DEDEC9B92ED000B0DF58C622BEE55
:104EC00049BB9DED289B9DED482BA9EE074BA9EE14
:104ED00007BB9FEDA99B84EE008BA6EE09AB92ED7C
:104EE000000B0DF5BD6282ED00EB0DF5B66285EEAF
:104EF000000BA2EE0ADB92ED002B0DF59162A6EEFF
:104F0000092B9DED4E9B9FED747B9DED24EB34EEC4
:104F1000488B26EE077BA9EE023B35EE400BB0EE48
:104F200043AB92ED003B0DF5A26292ED009B0DF5B7
:104F30009E628DEE033B8AEE092B9DEDF09B29EEE0
:104F4000079BAEEE089B9DED1E8B34EE494B92ED18
:104F5000009B0DF58D623DEE433B84EE099B3AEEDE
:104F6000422B9DEDD44B24EE074BA8EE004B92ED67
:104F7000000B0DF5BE6235EE445B9DEDF24B85EE08
:104F8000005B24EE074B82ED005B0DF59A6292ED1B
:104F9000000B0DF589628BEE008B92ED000B0DF589
:104FA0009B628CEE000B9FED4E5B26EE055B3BEEAD
:104FB000488BAEEE084B3CEE400B9DED1EEB3BEEFE
:104FC000444B9DEDD6BB2BEE077BAEEE007B92ED06
:104FD000000B0DF58A6284EE000B3CEE477B92EDF0
:104FE00000CB0DF5A36287EE0C4B9DED56CB25EE65
:104FF0000C7B9DED54CB25EE0C5B9DEDFACB2CEE9E
:10500000077B9DEDF8CBACEE027B9DEDDECB2CEE6D
:10501000055B3AEE477B9DEDDCCBACEE035B92ED9E
:10502000003B0DF5926287EE033B3DEE455B92ED52
:1050300000CB0DF59F6285EE0C7B92ED00CB0DF55C
:105040008E6223EE013B2CEE033B27EE011B9FED0E
:10505000267B92ED00CB0DF5BE6229EE079B2CEE70
:10506000011B20EE070B24EE074B92ED005B0DF5C4
:105070009C6225EE07EB92ED00CB0DF58B622CEEDA
:10508000099B92ED00CB0DF5966279E0AFF30080BD
:1050900000000000C0FEE3C0234A7B832F4CDABF30
:1050A000A4703D0AD7A3EA3FFCA9F1D24D62503F5C
:1050B0007D7C7C7C7C7CDC3F71AF30A478EAEB3F6C
:1050C000E5D022DBF9BE2840F38E53742497F13FDC
:1050D00026AB22DC645439BF37894160E5D0F43F08
:1050E000D5E76A2BF697E53F0E2DB29DEFA7EE3F71
:1050F000E08442041C4265BF64247B849A21853F7E
:1051000074E501C93A576E3F7B14AE47E17AE83F38
:10511000CD5D4BC807BDF03F560E2DB29D2F094007
:10512000953FEA943FEAE43F3BDF4F8D976EE23FC5
:10513000C2C1C1C1C1C1E13F52B81E85EB51F43FAC
:10514000FCA9F1D24D62503F71AF30A478EAEB3F39
:10515000234A7B832F4CDABF00000000C0FEE3C06F
:10516000A4703D0AD7A3EA3FE5D022DBF9BE284070
:10517000E7FBA9F1D2CD2B400F4757E9EE3A6BBFC1
:105180002CEE0EEB92ED00CB0DF585622CEE000BB4
:1051900092ED00CB0DF595622CEE044B9DED4ACBC4
:1051A00089EE0C5B92ED009B0DF5846299EE005B3D
:1051B0009DED440B8EEE007B92ED000B0DF58062B1
:1051C00090EE047BB2EE0E4B92ED000B0DF5B66245
:1051D00092ED002B0DF5BD6220EE055B22EE042B57
:1051E00092ED00AB9DEDE40B0DF5A5622AEE044BAC
:1051F00020EE077B92ED000B0DF5946282EE000B22
:1052000092ED002B0DF5A46284EE022B92ED00EBE3
:105210000DF593621FED4A4B9DED0CCB9DED0EDB22
:1052200026EE044B9DED02BB2EEE000B92ED00EB43
:105230000DF5B76292ED00AB2EEE022B0DF58162FB
:105240009DEDFEEB2EEE0F9B9DEDE2EBADEE049B94
:105250002EEE0F8BACEE048B9DEDFCCB2CEE0A4BAF
:105260009DED22CBACEE034B9DED343BABEE094BF9
:10527000A3EE045B92ED003B0DF5BF6223EE0A4BFB
:1052800092ED009B9DEDE03B9DED20AB0DF5836223
:1052900023EE093BAAEE013B9DED321BABEE083B32
:1052A000B6EE008BA1EE037B1FED6D1B9DEDE63B83
:1052B00026EE016B23EE093BACEE064BAAEE063B55
:1052C00092ED001B0DF5826221EE044B92ED001B66
:1052D0000DF5C162A1EE404B9DED521B92ED006BAE
:1052E0000DF5BC6228EE468BA4EE015B9DEDEA1B3A
:1052F00092ED004B0DF5C06221EE033B9DEDE81BE6
:10530000A1EE423B9DED502BA3EE027B37EE055BF9
:105310001FED837B27EE456B34EE055BA4EE076B38
:1053200092ED007B35EE477B1FED7D5BA8EE056BB4
:105330009DED2C5B86EE055B1FED8F6B27EE067BEC
:1053400083ED027B83ED045B17ED022B1FED927B57
:1053500004F51562B6EE00AB0DF5C16122EE071B38
:10536000CDF8982612ED02DB9DEDCA7B1FED983B30
:105370001FED975B2DEE077B92ED004B0DF5C062A4
:1053800027EE033B27EE057B23EE0A5B27EE0A0B95
:1053900082ED004B9DED087B34EE014B0DF5C962AB
:1053A0001FEDA16B82ED001B0DF5C66225EE065BBD
:1053B00084EE076B9DED0A7B82ED003B0DF5C76225
:1053C000B0EE4D3B84EE077B1FEDA94B82ED000B49
:1053D0000DF5C86225EE04FBB0EE4D4B1FEDAC5B46
:1053E00082ED00FB0DF5CA6290EE05FB1FEDAE5B92
:1053F00081ED002B9DED020B22EE055B9DED069BE2
:105400009DED048BA5EE4A4BA5EE0A3B9DED9CBBA2
:1054100082ED004B0DF5CB6282ED003B0DF5AF62E6
:10542000B0EE435B92ED003B0DF5B162A3EE046B71
:1054300092ED004B0DF5A762A4EE057B92ED005BAB
:105440000DF5A96286EE054B9DEDB46B87EE065B0C
:105450009DED606B1FEDC67B26EE0F1B2FEE077BCD
:105460009DED806B26EE0F2B1FEDC96B27EE063BE3
:105470001FEDC96B27EE066B20EE066BA6EE092B1F
:10548000A6EE081B9DEDA86BB0EE429B83EE062BAB
:10549000B0EE418B9DEDC26B83EE066B92ED003B4F
:1054A0000DF5AD6232EE022B23EE022B92ED003BA6
:1054B0000DF5A66236EE066B23EE066B1FEDDA3BAA
:1054C00022EE032B26EE036B1FEDDB3B22EE032BBC
:1054D00026EE036B9DED623B82EE033B9DED822B3E
:1054E00086EE020B1FEDE02B24EE026B25EE022B65
:1054F00086EE0BEB92ED006B0DF5AB6226EE0EEB3C
:105500001FEDE56B2EEE06EBB0EE461B9DEDB66B88
:105510009DEDAEBB82EE066B92ED002B0DF5AA62FF
:1055200022EE066BB0EE442B26EE016B1FEDEE1B58
:10553000A7EE012BB2EE0E1B24EE014BB0EE41CBD9
:1055400084EE0B1B9DED64BB2BEE022B92ED00BB9A
:105550000DF5BD622BEE011B9DED74BB21EE4B4B97
:105560009DEDC8BB1FEDFC1B82ED004BB0EE454B23
:105570000DF5AE6225EE0C5BA7EE014B85EE0B1B25
:105580009DED845B25EE044B92ED005B0DF5BF6253
:1055900025EE011B9DED945B21EE455B9FEDFC1B11
:1055A00082ED005B0DF5B66228EE015B82ED008BAB
:1055B0000DF5B06292ED00BB0DF5BC62ABEE053BA4
:1055C000B0EE425B9DED66BB82ED009B0DF5B262D5
:1055D000ABEE035B92ED00BB0DF5B762B0EE453B61
:1055E00029EE015B82ED003B0DF5BE62ABEE050BD3
:1055F0009DED86BBABEE004B9FEDE7BB9DED160B23
:1056000027EE0B5BB0EE44CB9DED5ABB2EEE4B9BD1
:105610009DED58BBA0EE059B2EEE4BEB9DED7ABBAE
:10562000A0EE05EB26EE4B8B9DED78BB9DED1A0BA6
:1056300026EE4B6BA0EE058BA0EE056B9DEDAABB95
:105640009DED125B83EE0B4B9DED68BB33EE444B3F
:105650009DED183B2BEE044B9DEDA2BB89EE0B0B91
:105660009DEDBCBB88EE0B1B9DEDC4BB39EE400B22
:1056700023EE000B38EE411B25EE011B8CEE0B5B7D
:105680009DED88BB3CEE455B2BEE055B9DED9EBB27
:1056900082ED005B8EEE0B2B0DF5A8629DEDB8BB85
:1056A0009DED125B3EEE422B23EE022B86EE0B3B72
:1056B0009FEDBBBB36EE433B25EE033B27EE0B5B7A
:1056C0009DED5CBBABEE050B9DED7CBBABEE051B16
:1056D00039EE400B9DEDA4BB80EE0B9B38EE418B69
:1056E0009DED5EBBABEE052B9DED7EBBABEE053BB2
:1056F0003EEE422B9FEDC45B9DEDBABB36EE433BC5
:105700009DEDBE6B29EE059B88EE061B9DEDA06B03
:1057100082EE066B83EE0B2B92ED00BB0DF5AC62B7
:105720002BEE099B9DED36BB89EE0B0B21EE051B85
:1057300092ED00BB0DF5B7622BEE011B26EE056B5B
:1057400022EE052B9DED9ABB92ED005B0DF5BE623E
:105750002BEE066B9DED98BB9BEE060B9DED386B1B
:105760009FED9BBB81EE068B9DEDB26B26EE022B6F
:105770009DEDB06B96EE028B9FED936B27EE063B93
:105780009FED956B27EE066B27EE0B7B9DED3EBBE9
:1057900023EE0B1B9DED6ABBABEE014B9DED40BBB9
:1057A0009FED7B1B23EE0B3B35EE444B9DED8ABBFF
:1057B00092ED005B0DF5B662ABEE035B9DEDAC3B8D
:1057C0009DEDC6BB84EE033B3CEE452B82EE0B5BAE
:1057D0009DEDA6BB9DED102B23EE013B2BEE033B75
:1057E00025EE015B22EE033B9DEDC0BB9DED1CCB86
:1057F00092ED002B2BEE055B0DF5BC629DED6CBBB5
:105800009DED044B2CEE055BABEE023B26EE044B0C
:1058100092ED009B9DED8CBB9DED06EB9DED021B7B
:10582000ABEE095B0DF5BD6226EE0E6B9DED6EBB1A
:10583000ABEE0F4B9DED8EBBABEE0F6BA1EE043BC1
:105840009DED2EBBA1EE065B2BEE033B9DED70BBE9
:105850009DED106B92ED001BABEE003B0DF5BF62B2
:1058600026EE076B2CEE077B9DED300B9DED764B06
:1058700020EE055B9DED900BA0EE085B9DED720B9D
:10588000A0EE026BA4EE061B9DED3A6BA1EE063B6B
:105890009DED926B92ED001BA6EE097B9DED966B44
:1058A000A6EE071B9DED3C7BA1EE075B33EE056B7F
:1058B000002B04F0DE860DF5C06235EE435B92ED01
:1058C000007B0DF5C9629DED142B92ED004B9DED13
:1058D0002A3B0DF5C66225EE025B37EE444B2DEEFA
:1058E00003DB27EE037B2AEE455B92ED003B9DED4B
:1058F000421B0DF5BD6296EE423B26EE016B9DED1F
:10590000CC2B9FED270B82ED006B0DF5CC6282ED69
:10591000005B0DF5C16292ED005B0DF5C962A5EE6D
:10592000027B9DEDCE2B9DED028BA2EE05DB33EECF
:10593000077B9DED083B9FED182B84EE036B82EDFA
:1059400000DB0DF5BC6282ED007B0DF5BA6292EDD5
:10595000005B0DF5CA6292ED003B0DF5BB62A5EE52
:10596000436B9DED0A3B84EE037B92ED004B0DF5FE
:10597000CB6292ED003B0DF58762A4EE437B92ED86
:10598000003B0DF5B66286EE03DBB1EE453B43E02E
:10599000F38E53742497F13F26AB22DC645439BF55
:1059A00037894160E5D0F43F7D7C7C7C7C7CDC3FAA
:1059B000FCA9F1D24D62503F71AF30A478EAEB3FC1
:1059C000234A7B832F4CDABFD5E76A2BF697E53F56
:1059D00064247B849A21853FE08442041C4265BF95
:1059E00000000000C0FEE3C0A4703D0AD7A3EA3F58
:1059F000E5D022DBF9BE2840E7FBA9F1D2CD2B4050
:105A00000F4757E9EE3A6BBF0E2DB29DEFA7EE3F61
:105A1000F38E53742497F13F82ED003BB1EE443B8B
:105A20000DF5B76282ED003B0DF5986292ED003BFB
:105A30000DF5C86292ED00EB0DF5C76287EE03AB82
:105A400092ED003B1FED287B0DF5C062A3EE07EB46
:105A50001FED293B2EEE036B1FED293B26EE007B4D
:105A600026EE031B26EE022B1FED290B1FED2C3B10
:105A700026EE009B26EE033B1FED290B82ED009BDB
:105A80000DF5C16228EE033B26EE005B1FED300BE7
:105A900082ED005B26EE004B0DF5C66282ED004BF9
:105AA0000DF5906292ED000B0DF5A16281EE004BB9
:105AB00092ED000B0DF58F6281EE005B92ED001B05
:105AC0000DF5A06234EE044B21EE044B92ED001B69
:105AD00035EE055B0DF5886292ED00BB21EE055BAE
